{"src/token/CLToken.sol":{"CLToken":{"abi":[{"type":"constructor","inputs":[],"stateMutability":"nonpayable"},{"type":"function","name":"allowance","inputs":[{"name":"owner","type":"address","internalType":"address"},{"name":"spender","type":"address","internalType":"address"}],"outputs":[{"name":"","type":"uint256","internalType":"uint256"}],"stateMutability":"view"},{"type":"function","name":"approve","inputs":[{"name":"spender","type":"address","internalType":"address"},{"name":"amount","type":"uint256","internalType":"uint256"}],"outputs":[{"name":"","type":"bool","internalType":"bool"}],"stateMutability":"nonpayable"},{"type":"function","name":"balanceOf","inputs":[{"name":"account","type":"address","internalType":"address"}],"outputs":[{"name":"","type":"uint256","internalType":"uint256"}],"stateMutability":"view"},{"type":"function","name":"burn","inputs":[{"name":"amount","type":"uint256","internalType":"uint256"}],"outputs":[],"stateMutability":"nonpayable"},{"type":"function","name":"burnFrom","inputs":[{"name":"account","type":"address","internalType":"address"},{"name":"amount","type":"uint256","internalType":"uint256"}],"outputs":[],"stateMutability":"nonpayable"},{"type":"function","name":"cap","inputs":[],"outputs":[{"name":"","type":"uint256","internalType":"uint256"}],"stateMutability":"view"},{"type":"function","name":"decimals","inputs":[],"outputs":[{"name":"","type":"uint8","internalType":"uint8"}],"stateMutability":"view"},{"type":"function","name":"decreaseAllowance","inputs":[{"name":"spender","type":"address","internalType":"address"},{"name":"subtractedValue","type":"uint256","internalType":"uint256"}],"outputs":[{"name":"","type":"bool","internalType":"bool"}],"stateMutability":"nonpayable"},{"type":"function","name":"increaseAllowance","inputs":[{"name":"spender","type":"address","internalType":"address"},{"name":"addedValue","type":"uint256","internalType":"uint256"}],"outputs":[{"name":"","type":"bool","internalType":"bool"}],"stateMutability":"nonpayable"},{"type":"function","name":"initialize","inputs":[{"name":"name_","type":"string","internalType":"string"},{"name":"symbol_","type":"string","internalType":"string"},{"name":"cap_","type":"uint256","internalType":"uint256"},{"name":"initialSupply_","type":"uint256","internalType":"uint256"},{"name":"initialOwner_","type":"address","internalType":"address"}],"outputs":[],"stateMutability":"nonpayable"},{"type":"function","name":"name","inputs":[],"outputs":[{"name":"","type":"string","internalType":"string"}],"stateMutability":"view"},{"type":"function","name":"owner","inputs":[],"outputs":[{"name":"","type":"address","internalType":"address"}],"stateMutability":"view"},{"type":"function","name":"pause","inputs":[],"outputs":[],"stateMutability":"nonpayable"},{"type":"function","name":"paused","inputs":[],"outputs":[{"name":"","type":"bool","internalType":"bool"}],"stateMutability":"view"},{"type":"function","name":"proxiableUUID","inputs":[],"outputs":[{"name":"","type":"bytes32","internalType":"bytes32"}],"stateMutability":"view"},{"type":"function","name":"renounceOwnership","inputs":[],"outputs":[],"stateMutability":"nonpayable"},{"type":"function","name":"symbol","inputs":[],"outputs":[{"name":"","type":"string","internalType":"string"}],"stateMutability":"view"},{"type":"function","name":"totalSupply","inputs":[],"outputs":[{"name":"","type":"uint256","internalType":"uint256"}],"stateMutability":"view"},{"type":"function","name":"transfer","inputs":[{"name":"to","type":"address","internalType":"address"},{"name":"amount","type":"uint256","internalType":"uint256"}],"outputs":[{"name":"","type":"bool","internalType":"bool"}],"stateMutability":"nonpayable"},{"type":"function","name":"transferFrom","inputs":[{"name":"from","type":"address","internalType":"address"},{"name":"to","type":"address","internalType":"address"},{"name":"amount","type":"uint256","internalType":"uint256"}],"outputs":[{"name":"","type":"bool","internalType":"bool"}],"stateMutability":"nonpayable"},{"type":"function","name":"transferOwnership","inputs":[{"name":"newOwner","type":"address","internalType":"address"}],"outputs":[],"stateMutability":"nonpayable"},{"type":"function","name":"unpause","inputs":[],"outputs":[],"stateMutability":"nonpayable"},{"type":"function","name":"upgradeTo","inputs":[{"name":"newImplementation","type":"address","internalType":"address"}],"outputs":[],"stateMutability":"nonpayable"},{"type":"function","name":"upgradeToAndCall","inputs":[{"name":"newImplementation","type":"address","internalType":"address"},{"name":"data","type":"bytes","internalType":"bytes"}],"outputs":[],"stateMutability":"payable"},{"type":"function","name":"version","inputs":[],"outputs":[{"name":"","type":"uint8","internalType":"uint8"}],"stateMutability":"view"},{"type":"event","name":"AdminChanged","inputs":[{"name":"previousAdmin","type":"address","indexed":false,"internalType":"address"},{"name":"newAdmin","type":"address","indexed":false,"internalType":"address"}],"anonymous":false},{"type":"event","name":"Approval","inputs":[{"name":"owner","type":"address","indexed":true,"internalType":"address"},{"name":"spender","type":"address","indexed":true,"internalType":"address"},{"name":"value","type":"uint256","indexed":false,"internalType":"uint256"}],"anonymous":false},{"type":"event","name":"BeaconUpgraded","inputs":[{"name":"beacon","type":"address","indexed":true,"internalType":"address"}],"anonymous":false},{"type":"event","name":"Initialized","inputs":[{"name":"version","type":"uint8","indexed":false,"internalType":"uint8"}],"anonymous":false},{"type":"event","name":"OwnershipTransferred","inputs":[{"name":"previousOwner","type":"address","indexed":true,"internalType":"address"},{"name":"newOwner","type":"address","indexed":true,"internalType":"address"}],"anonymous":false},{"type":"event","name":"Paused","inputs":[{"name":"account","type":"address","indexed":false,"internalType":"address"}],"anonymous":false},{"type":"event","name":"Transfer","inputs":[{"name":"from","type":"address","indexed":true,"internalType":"address"},{"name":"to","type":"address","indexed":true,"internalType":"address"},{"name":"value","type":"uint256","indexed":false,"internalType":"uint256"}],"anonymous":false},{"type":"event","name":"Unpaused","inputs":[{"name":"account","type":"address","indexed":false,"internalType":"address"}],"anonymous":false},{"type":"event","name":"Upgraded","inputs":[{"name":"implementation","type":"address","indexed":true,"internalType":"address"}],"anonymous":false},{"type":"error","name":"InitialOwnerNotZero","inputs":[]},{"type":"error","name":"InitialSupplyLessThanCap","inputs":[]}],"userdoc":{},"devdoc":{},"evm":{"bytecode":{"object":"60a06040523073ffffffffffffffffffffffffffffffffffffffff1660809073ffffffffffffffffffffffffffffffffffffffff16815250348015610042575f5ffd5b5061005161005660201b60201c565b6101e6565b5f60019054906101000a900460ff16156100a5576040517f08c379a000000000000000000000000000000000000000000000000000000000815260040161009c90610194565b60405180910390fd5b60ff80165f5f9054906101000a900460ff1660ff16146101125760ff5f5f6101000a81548160ff021916908360ff1602179055507f7f26b83ff96e1f2b6a682f133852f6798a09c465da95921460cefb384740249860ff60405161010991906101cd565b60405180910390a15b565b5f82825260208201905092915050565b7f496e697469616c697a61626c653a20636f6e747261637420697320696e6974695f8201527f616c697a696e6700000000000000000000000000000000000000000000000000602082015250565b5f61017e602783610114565b915061018982610124565b604082019050919050565b5f6020820190508181035f8301526101ab81610172565b9050919050565b5f60ff82169050919050565b6101c7816101b2565b82525050565b5f6020820190506101e05f8301846101be565b92915050565b608051613b1461021a5f395f81816108b40152818161094201528181610a9601528181610b240152610bd30152613b145ff3fe608060405260043610610165575f3560e01c806352d1902d116100d05780638456cb5911610089578063a457c2d711610063578063a457c2d7146104d1578063a9059cbb1461050d578063dd62ed3e14610549578063f2fde38b1461058557610165565b80638456cb59146104675780638da5cb5b1461047d57806395d89b41146104a757610165565b806352d1902d1461036f57806354fd4d50146103995780635c975abb146103c357806370a08231146103ed578063715018a61461042957806379cc67901461043f57610165565b8063355274ea11610122578063355274ea146102875780633659cfe6146102b157806339509351146102d95780633f4ba83a1461031557806342966c681461032b5780634f1ef2861461035357610165565b806306fdde0314610169578063095ea7b31461019357806318160ddd146101cf57806323b872dd146101f9578063313ce5671461023557806333eea1811461025f575b5f5ffd5b348015610174575f5ffd5b5061017d6105ad565b60405161018a91906123b3565b60405180910390f35b34801561019e575f5ffd5b506101b960048036038101906101b49190612471565b61063d565b6040516101c691906124c9565b60405180910390f35b3480156101da575f5ffd5b506101e361065f565b6040516101f091906124f1565b60405180910390f35b348015610204575f5ffd5b5061021f600480360381019061021a919061250a565b610668565b60405161022c91906124c9565b60405180910390f35b348015610240575f5ffd5b50610249610696565b6040516102569190612575565b60405180910390f35b34801561026a575f5ffd5b50610285600480360381019061028091906126ba565b61069e565b005b348015610292575f5ffd5b5061029b6108a9565b6040516102a891906124f1565b60405180910390f35b3480156102bc575f5ffd5b506102d760048036038101906102d29190612769565b6108b2565b005b3480156102e4575f5ffd5b506102ff60048036038101906102fa9190612471565b610a38565b60405161030c91906124c9565b60405180910390f35b348015610320575f5ffd5b50610329610a6e565b005b348015610336575f5ffd5b50610351600480360381019061034c9190612794565b610a80565b005b61036d6004803603810190610368919061285d565b610a94565b005b34801561037a575f5ffd5b50610383610bd0565b60405161039091906128cf565b60405180910390f35b3480156103a4575f5ffd5b506103ad610c87565b6040516103ba9190612575565b60405180910390f35b3480156103ce575f5ffd5b506103d7610c95565b6040516103e491906124c9565b60405180910390f35b3480156103f8575f5ffd5b50610413600480360381019061040e9190612769565b610caa565b60405161042091906124f1565b60405180910390f35b348015610434575f5ffd5b5061043d610cf0565b005b34801561044a575f5ffd5b5061046560048036038101906104609190612471565b610d03565b005b348015610472575f5ffd5b5061047b610d23565b005b348015610488575f5ffd5b50610491610d35565b60405161049e91906128f7565b60405180910390f35b3480156104b2575f5ffd5b506104bb610d5e565b6040516104c891906123b3565b60405180910390f35b3480156104dc575f5ffd5b506104f760048036038101906104f29190612471565b610dee565b60405161050491906124c9565b60405180910390f35b348015610518575f5ffd5b50610533600480360381019061052e9190612471565b610e63565b60405161054091906124c9565b60405180910390f35b348015610554575f5ffd5b5061056f600480360381019061056a9190612910565b610e85565b60405161057c91906124f1565b60405180910390f35b348015610590575f5ffd5b506105ab60048036038101906105a69190612769565b610f07565b005b6060603680546105bc9061297b565b80601f01602080910402602001604051908101604052809291908181526020018280546105e89061297b565b80156106335780601f1061060a57610100808354040283529160200191610633565b820191905f5260205f20905b81548152906001019060200180831161061657829003601f168201915b5050505050905090565b5f5f610647610f89565b9050610654818585610f90565b600191505092915050565b5f603554905090565b5f5f610672610f89565b905061067f858285611153565b61068a8585856111de565b60019150509392505050565b5f6012905090565b5f5f60019054906101000a900460ff161590508080156106ce575060015f5f9054906101000a900460ff1660ff16105b806106fb57506106dd3061144d565b1580156106fa575060015f5f9054906101000a900460ff1660ff16145b5b61073a576040517f08c379a000000000000000000000000000000000000000000000000000000000815260040161073190612a1b565b60405180910390fd5b60015f5f6101000a81548160ff021916908360ff16021790555080156107755760015f60016101000a81548160ff0219169083151502179055505b61077f868661146f565b610788846114cb565b610790611525565b61079861157d565b6107a06115cd565b5f73ffffffffffffffffffffffffffffffffffffffff168273ffffffffffffffffffffffffffffffffffffffff1603610805576040517f6a6b29d000000000000000000000000000000000000000000000000000000000815260040160405180910390fd5b8383111561083f576040517f2a25525f00000000000000000000000000000000000000000000000000000000815260040160405180910390fd5b6108498284611625565b80156108a1575f5f60016101000a81548160ff0219169083151502179055507f7f26b83ff96e1f2b6a682f133852f6798a09c465da95921460cefb384740249860016040516108989190612a7b565b60405180910390a15b505050505050565b5f606554905090565b7f000000000000000000000000000000000000000000000000000000000000000073ffffffffffffffffffffffffffffffffffffffff163073ffffffffffffffffffffffffffffffffffffffff1603610940576040517f08c379a000000000000000000000000000000000000000000000000000000000815260040161093790612b04565b60405180910390fd5b7f000000000000000000000000000000000000000000000000000000000000000073ffffffffffffffffffffffffffffffffffffffff1661097f611633565b73ffffffffffffffffffffffffffffffffffffffff16146109d5576040517f08c379a00000000000000000000000000000000000000000000000000000000081526004016109cc90612b92565b60405180910390fd5b6109de81611686565b610a35815f67ffffffffffffffff8111156109fc576109fb612596565b5b6040519080825280601f01601f191660200182016040528015610a2e5781602001600182028036833780820191505090505b505f611691565b50565b5f5f610a42610f89565b9050610a63818585610a548589610e85565b610a5e9190612bdd565b610f90565b600191505092915050565b610a766117fb565b610a7e611879565b565b610a91610a8b610f89565b826118da565b50565b7f000000000000000000000000000000000000000000000000000000000000000073ffffffffffffffffffffffffffffffffffffffff163073ffffffffffffffffffffffffffffffffffffffff1603610b22576040517f08c379a0000000000000000000000000000000000000000000000000000000008152600401610b1990612b04565b60405180910390fd5b7f000000000000000000000000000000000000000000000000000000000000000073ffffffffffffffffffffffffffffffffffffffff16610b61611633565b73ffffffffffffffffffffffffffffffffffffffff1614610bb7576040517f08c379a0000000000000000000000000000000000000000000000000000000008152600401610bae90612b92565b60405180910390fd5b610bc082611686565b610bcc82826001611691565b5050565b5f7f000000000000000000000000000000000000000000000000000000000000000073ffffffffffffffffffffffffffffffffffffffff163073ffffffffffffffffffffffffffffffffffffffff1614610c5f576040517f08c379a0000000000000000000000000000000000000000000000000000000008152600401610c5690612c80565b60405180910390fd5b7f360894a13ba1a3210667c828492db98dca3e2076cc3735a920a3ca505d382bbc5f1b905090565b5f610c90611a9f565b905090565b5f60985f9054906101000a900460ff16905090565b5f60335f8373ffffffffffffffffffffffffffffffffffffffff1673ffffffffffffffffffffffffffffffffffffffff1681526020019081526020015f20549050919050565b610cf86117fb565b610d015f611ab3565b565b610d1582610d0f610f89565b83611153565b610d1f82826118da565b5050565b610d2b6117fb565b610d33611b78565b565b5f61012e5f9054906101000a900473ffffffffffffffffffffffffffffffffffffffff16905090565b606060378054610d6d9061297b565b80601f0160208091040260200160405190810160405280929190818152602001828054610d999061297b565b8015610de45780601f10610dbb57610100808354040283529160200191610de4565b820191905f5260205f20905b815481529060010190602001808311610dc757829003601f168201915b5050505050905090565b5f5f610df8610f89565b90505f610e058286610e85565b905083811015610e4a576040517f08c379a0000000000000000000000000000000000000000000000000000000008152600401610e4190612d0e565b60405180910390fd5b610e578286868403610f90565b60019250505092915050565b5f5f610e6d610f89565b9050610e7a8185856111de565b600191505092915050565b5f60345f8473ffffffffffffffffffffffffffffffffffffffff1673ffffffffffffffffffffffffffffffffffffffff1681526020019081526020015f205f8373ffffffffffffffffffffffffffffffffffffffff1673ffffffffffffffffffffffffffffffffffffffff1681526020019081526020015f2054905092915050565b610f0f6117fb565b5f73ffffffffffffffffffffffffffffffffffffffff168173ffffffffffffffffffffffffffffffffffffffff1603610f7d576040517f08c379a0000000000000000000000000000000000000000000000000000000008152600401610f7490612d9c565b60405180910390fd5b610f8681611ab3565b50565b5f33905090565b5f73ffffffffffffffffffffffffffffffffffffffff168373ffffffffffffffffffffffffffffffffffffffff1603610ffe576040517f08c379a0000000000000000000000000000000000000000000000000000000008152600401610ff590612e2a565b60405180910390fd5b5f73ffffffffffffffffffffffffffffffffffffffff168273ffffffffffffffffffffffffffffffffffffffff160361106c576040517f08c379a000000000000000000000000000000000000000000000000000000000815260040161106390612eb8565b60405180910390fd5b8060345f8573ffffffffffffffffffffffffffffffffffffffff1673ffffffffffffffffffffffffffffffffffffffff1681526020019081526020015f205f8473ffffffffffffffffffffffffffffffffffffffff1673ffffffffffffffffffffffffffffffffffffffff1681526020019081526020015f20819055508173ffffffffffffffffffffffffffffffffffffffff168373ffffffffffffffffffffffffffffffffffffffff167f8c5be1e5ebec7d5bd14f71427d1e84f3dd0314c0f7b2291e5b200ac8c7c3b9258360405161114691906124f1565b60405180910390a3505050565b5f61115e8484610e85565b90507fffffffffffffffffffffffffffffffffffffffffffffffffffffffffffffffff81146111d857818110156111ca576040517f08c379a00000000000000000000000000000000000000000000000000000000081526004016111c190612f20565b60405180910390fd5b6111d78484848403610f90565b5b50505050565b5f73ffffffffffffffffffffffffffffffffffffffff168373ffffffffffffffffffffffffffffffffffffffff160361124c576040517f08c379a000000000000000000000000000000000000000000000000000000000815260040161124390612fae565b60405180910390fd5b5f73ffffffffffffffffffffffffffffffffffffffff168273ffffffffffffffffffffffffffffffffffffffff16036112ba576040517f08c379a00000000000000000000000000000000000000000000000000000000081526004016112b19061303c565b60405180910390fd5b6112c5838383611bda565b5f60335f8573ffffffffffffffffffffffffffffffffffffffff1673ffffffffffffffffffffffffffffffffffffffff1681526020019081526020015f2054905081811015611349576040517f08c379a0000000000000000000000000000000000000000000000000000000008152600401611340906130ca565b60405180910390fd5b81810360335f8673ffffffffffffffffffffffffffffffffffffffff1673ffffffffffffffffffffffffffffffffffffffff1681526020019081526020015f20819055508160335f8573ffffffffffffffffffffffffffffffffffffffff1673ffffffffffffffffffffffffffffffffffffffff1681526020019081526020015f205f82825401925050819055508273ffffffffffffffffffffffffffffffffffffffff168473ffffffffffffffffffffffffffffffffffffffff167fddf252ad1be2c89b69c2b068fc378daa952ba7f163c4a11628f55a4df523b3ef8460405161143491906124f1565b60405180910390a3611447848484611bea565b50505050565b5f5f8273ffffffffffffffffffffffffffffffffffffffff163b119050919050565b5f60019054906101000a900460ff166114bd576040517f08c379a00000000000000000000000000000000000000000000000000000000081526004016114b490613158565b60405180910390fd5b6114c78282611bef565b5050565b5f60019054906101000a900460ff16611519576040517f08c379a000000000000000000000000000000000000000000000000000000000815260040161151090613158565b60405180910390fd5b61152281611c61565b50565b5f60019054906101000a900460ff16611573576040517f08c379a000000000000000000000000000000000000000000000000000000000815260040161156a90613158565b60405180910390fd5b61157b611cfb565b565b5f60019054906101000a900460ff166115cb576040517f08c379a00000000000000000000000000000000000000000000000000000000081526004016115c290613158565b60405180910390fd5b565b5f60019054906101000a900460ff1661161b576040517f08c379a000000000000000000000000000000000000000000000000000000000815260040161161290613158565b60405180910390fd5b611623611d64565b565b61162f8282611dc4565b5050565b5f61165f7f360894a13ba1a3210667c828492db98dca3e2076cc3735a920a3ca505d382bbc5f1b611e2e565b5f015f9054906101000a900473ffffffffffffffffffffffffffffffffffffffff16905090565b61168e6117fb565b50565b6116bc7f4910fdfa16fed3260ed0e7147f7cc6da11a60208b5b9406d12a635614ffd91435f1b611e37565b5f015f9054906101000a900460ff16156116de576116d983611e40565b6117f6565b8273ffffffffffffffffffffffffffffffffffffffff166352d1902d6040518163ffffffff1660e01b8152600401602060405180830381865afa92505050801561174657506040513d601f19601f8201168201806040525081019061174391906131a0565b60015b611785576040517f08c379a000000000000000000000000000000000000000000000000000000000815260040161177c9061323b565b60405180910390fd5b7f360894a13ba1a3210667c828492db98dca3e2076cc3735a920a3ca505d382bbc5f1b81146117e9576040517f08c379a00000000000000000000000000000000000000000000000000000000081526004016117e0906132c9565b60405180910390fd5b506117f5838383611ef6565b5b505050565b611803610f89565b73ffffffffffffffffffffffffffffffffffffffff16611821610d35565b73ffffffffffffffffffffffffffffffffffffffff1614611877576040517f08c379a000000000000000000000000000000000000000000000000000000000815260040161186e90613331565b60405180910390fd5b565b611881611f21565b5f60985f6101000a81548160ff0219169083151502179055507f5db9ee0a495bf2e6ff9c91a7834c1ba4fdd244a5e8aa4e537bd38aeae4b073aa6118c3610f89565b6040516118d091906128f7565b60405180910390a1565b5f73ffffffffffffffffffffffffffffffffffffffff168273ffffffffffffffffffffffffffffffffffffffff1603611948576040517f08c379a000000000000000000000000000000000000000000000000000000000815260040161193f906133bf565b60405180910390fd5b611953825f83611bda565b5f60335f8473ffffffffffffffffffffffffffffffffffffffff1673ffffffffffffffffffffffffffffffffffffffff1681526020019081526020015f20549050818110156119d7576040517f08c379a00000000000000000000000000000000000000000000000000000000081526004016119ce9061344d565b60405180910390fd5b81810360335f8573ffffffffffffffffffffffffffffffffffffffff1673ffffffffffffffffffffffffffffffffffffffff1681526020019081526020015f20819055508160355f82825403925050819055505f73ffffffffffffffffffffffffffffffffffffffff168373ffffffffffffffffffffffffffffffffffffffff167fddf252ad1be2c89b69c2b068fc378daa952ba7f163c4a11628f55a4df523b3ef84604051611a8791906124f1565b60405180910390a3611a9a835f84611bea565b505050565b5f5f5f9054906101000a900460ff16905090565b5f61012e5f9054906101000a900473ffffffffffffffffffffffffffffffffffffffff1690508161012e5f6101000a81548173ffffffffffffffffffffffffffffffffffffffff021916908373ffffffffffffffffffffffffffffffffffffffff1602179055508173ffffffffffffffffffffffffffffffffffffffff168173ffffffffffffffffffffffffffffffffffffffff167f8be0079c531659141344cd1fd0a4f28419497f9722a3daafe3b4186f6b6457e060405160405180910390a35050565b611b80611f6a565b600160985f6101000a81548160ff0219169083151502179055507f62e78cea01bee320cd4e420270b5ea74000d11b0c9f74754ebdbfc544b05a258611bc3610f89565b604051611bd091906128f7565b60405180910390a1565b611be5838383611fb4565b505050565b505050565b5f60019054906101000a900460ff16611c3d576040517f08c379a0000000000000000000000000000000000000000000000000000000008152600401611c3490613158565b60405180910390fd5b8160369081611c4c9190613602565b508060379081611c5c9190613602565b505050565b5f60019054906101000a900460ff16611caf576040517f08c379a0000000000000000000000000000000000000000000000000000000008152600401611ca690613158565b60405180910390fd5b5f8111611cf1576040517f08c379a0000000000000000000000000000000000000000000000000000000008152600401611ce89061371b565b60405180910390fd5b8060658190555050565b5f60019054906101000a900460ff16611d49576040517f08c379a0000000000000000000000000000000000000000000000000000000008152600401611d4090613158565b60405180910390fd5b5f60985f6101000a81548160ff021916908315150217905550565b5f60019054906101000a900460ff16611db2576040517f08c379a0000000000000000000000000000000000000000000000000000000008152600401611da990613158565b60405180910390fd5b611dc2611dbd610f89565b611ab3565b565b611dcc6108a9565b81611dd561065f565b611ddf9190612bdd565b1115611e20576040517f08c379a0000000000000000000000000000000000000000000000000000000008152600401611e1790613783565b60405180910390fd5b611e2a828261200c565b5050565b5f819050919050565b5f819050919050565b611e498161215b565b611e88576040517f08c379a0000000000000000000000000000000000000000000000000000000008152600401611e7f90613811565b60405180910390fd5b80611eb47f360894a13ba1a3210667c828492db98dca3e2076cc3735a920a3ca505d382bbc5f1b611e2e565b5f015f6101000a81548173ffffffffffffffffffffffffffffffffffffffff021916908373ffffffffffffffffffffffffffffffffffffffff16021790555050565b611eff8361217d565b5f82511180611f0b5750805b15611f1c57611f1a83836121cc565b505b505050565b611f29610c95565b611f68576040517f08c379a0000000000000000000000000000000000000000000000000000000008152600401611f5f90613879565b60405180910390fd5b565b611f72610c95565b15611fb2576040517f08c379a0000000000000000000000000000000000000000000000000000000008152600401611fa9906138e1565b60405180910390fd5b565b611fbf8383836121f9565b611fc7610c95565b15612007576040517f08c379a0000000000000000000000000000000000000000000000000000000008152600401611ffe9061396f565b60405180910390fd5b505050565b5f73ffffffffffffffffffffffffffffffffffffffff168273ffffffffffffffffffffffffffffffffffffffff160361207a576040517f08c379a0000000000000000000000000000000000000000000000000000000008152600401612071906139d7565b60405180910390fd5b6120855f8383611bda565b8060355f8282546120969190612bdd565b925050819055508060335f8473ffffffffffffffffffffffffffffffffffffffff1673ffffffffffffffffffffffffffffffffffffffff1681526020019081526020015f205f82825401925050819055508173ffffffffffffffffffffffffffffffffffffffff165f73ffffffffffffffffffffffffffffffffffffffff167fddf252ad1be2c89b69c2b068fc378daa952ba7f163c4a11628f55a4df523b3ef8360405161214491906124f1565b60405180910390a36121575f8383611bea565b5050565b5f5f8273ffffffffffffffffffffffffffffffffffffffff163b119050919050565b61218681611e40565b8073ffffffffffffffffffffffffffffffffffffffff167fbc7cd75a20ee27fd9adebab32041f755214dbc6bffa90cc0225b39da2e5c2d3b60405160405180910390a250565b60606121f18383604051806060016040528060278152602001613ab8602791396121fe565b905092915050565b505050565b60605f5f8573ffffffffffffffffffffffffffffffffffffffff16856040516122279190613a39565b5f60405180830381855af49150503d805f811461225f576040519150601f19603f3d011682016040523d82523d5f602084013e612264565b606091505b509150915061227586838387612280565b925050509392505050565b606083156122e1575f8351036122d9576122998561215b565b6122d8576040517f08c379a00000000000000000000000000000000000000000000000000000000081526004016122cf90613a99565b60405180910390fd5b5b8290506122ec565b6122eb83836122f4565b5b949350505050565b5f825111156123065781518083602001fd5b806040517f08c379a000000000000000000000000000000000000000000000000000000000815260040161233a91906123b3565b60405180910390fd5b5f81519050919050565b5f82825260208201905092915050565b8281835e5f83830152505050565b5f601f19601f8301169050919050565b5f61238582612343565b61238f818561234d565b935061239f81856020860161235d565b6123a88161236b565b840191505092915050565b5f6020820190508181035f8301526123cb818461237b565b905092915050565b5f604051905090565b5f5ffd5b5f5ffd5b5f73ffffffffffffffffffffffffffffffffffffffff82169050919050565b5f61240d826123e4565b9050919050565b61241d81612403565b8114612427575f5ffd5b50565b5f8135905061243881612414565b92915050565b5f819050919050565b6124508161243e565b811461245a575f5ffd5b50565b5f8135905061246b81612447565b92915050565b5f5f60408385031215612487576124866123dc565b5b5f6124948582860161242a565b92505060206124a58582860161245d565b9150509250929050565b5f8115159050919050565b6124c3816124af565b82525050565b5f6020820190506124dc5f8301846124ba565b92915050565b6124eb8161243e565b82525050565b5f6020820190506125045f8301846124e2565b92915050565b5f5f5f60608486031215612521576125206123dc565b5b5f61252e8682870161242a565b935050602061253f8682870161242a565b92505060406125508682870161245d565b9150509250925092565b5f60ff82169050919050565b61256f8161255a565b82525050565b5f6020820190506125885f830184612566565b92915050565b5f5ffd5b5f5ffd5b7f4e487b71000000000000000000000000000000000000000000000000000000005f52604160045260245ffd5b6125cc8261236b565b810181811067ffffffffffffffff821117156125eb576125ea612596565b5b80604052505050565b5f6125fd6123d3565b905061260982826125c3565b919050565b5f67ffffffffffffffff82111561262857612627612596565b5b6126318261236b565b9050602081019050919050565b828183375f83830152505050565b5f61265e6126598461260e565b6125f4565b90508281526020810184848401111561267a57612679612592565b5b61268584828561263e565b509392505050565b5f82601f8301126126a1576126a061258e565b5b81356126b184826020860161264c565b91505092915050565b5f5f5f5f5f60a086880312156126d3576126d26123dc565b5b5f86013567ffffffffffffffff8111156126f0576126ef6123e0565b5b6126fc8882890161268d565b955050602086013567ffffffffffffffff81111561271d5761271c6123e0565b5b6127298882890161268d565b945050604061273a8882890161245d565b935050606061274b8882890161245d565b925050608061275c8882890161242a565b9150509295509295909350565b5f6020828403121561277e5761277d6123dc565b5b5f61278b8482850161242a565b91505092915050565b5f602082840312156127a9576127a86123dc565b5b5f6127b68482850161245d565b91505092915050565b5f67ffffffffffffffff8211156127d9576127d8612596565b5b6127e28261236b565b9050602081019050919050565b5f6128016127fc846127bf565b6125f4565b90508281526020810184848401111561281d5761281c612592565b5b61282884828561263e565b509392505050565b5f82601f8301126128445761284361258e565b5b81356128548482602086016127ef565b91505092915050565b5f5f60408385031215612873576128726123dc565b5b5f6128808582860161242a565b925050602083013567ffffffffffffffff8111156128a1576128a06123e0565b5b6128ad85828601612830565b9150509250929050565b5f819050919050565b6128c9816128b7565b82525050565b5f6020820190506128e25f8301846128c0565b92915050565b6128f181612403565b82525050565b5f60208201905061290a5f8301846128e8565b92915050565b5f5f60408385031215612926576129256123dc565b5b5f6129338582860161242a565b92505060206129448582860161242a565b9150509250929050565b7f4e487b71000000000000000000000000000000000000000000000000000000005f52602260045260245ffd5b5f600282049050600182168061299257607f821691505b6020821081036129a5576129a461294e565b5b50919050565b7f496e697469616c697a61626c653a20636f6e747261637420697320616c7265615f8201527f647920696e697469616c697a6564000000000000000000000000000000000000602082015250565b5f612a05602e8361234d565b9150612a10826129ab565b604082019050919050565b5f6020820190508181035f830152612a32816129f9565b9050919050565b5f819050919050565b5f819050919050565b5f612a65612a60612a5b84612a39565b612a42565b61255a565b9050919050565b612a7581612a4b565b82525050565b5f602082019050612a8e5f830184612a6c565b92915050565b7f46756e6374696f6e206d7573742062652063616c6c6564207468726f756768205f8201527f64656c656761746563616c6c0000000000000000000000000000000000000000602082015250565b5f612aee602c8361234d565b9150612af982612a94565b604082019050919050565b5f6020820190508181035f830152612b1b81612ae2565b9050919050565b7f46756e6374696f6e206d7573742062652063616c6c6564207468726f756768205f8201527f6163746976652070726f78790000000000000000000000000000000000000000602082015250565b5f612b7c602c8361234d565b9150612b8782612b22565b604082019050919050565b5f6020820190508181035f830152612ba981612b70565b9050919050565b7f4e487b71000000000000000000000000000000000000000000000000000000005f52601160045260245ffd5b5f612be78261243e565b9150612bf28361243e565b9250828201905080821115612c0a57612c09612bb0565b5b92915050565b7f555550535570677261646561626c653a206d757374206e6f742062652063616c5f8201527f6c6564207468726f7567682064656c656761746563616c6c0000000000000000602082015250565b5f612c6a60388361234d565b9150612c7582612c10565b604082019050919050565b5f6020820190508181035f830152612c9781612c5e565b9050919050565b7f45524332303a2064656372656173656420616c6c6f77616e63652062656c6f775f8201527f207a65726f000000000000000000000000000000000000000000000000000000602082015250565b5f612cf860258361234d565b9150612d0382612c9e565b604082019050919050565b5f6020820190508181035f830152612d2581612cec565b9050919050565b7f4f776e61626c653a206e6577206f776e657220697320746865207a65726f20615f8201527f6464726573730000000000000000000000000000000000000000000000000000602082015250565b5f612d8660268361234d565b9150612d9182612d2c565b604082019050919050565b5f6020820190508181035f830152612db381612d7a565b9050919050565b7f45524332303a20617070726f76652066726f6d20746865207a65726f206164645f8201527f7265737300000000000000000000000000000000000000000000000000000000602082015250565b5f612e1460248361234d565b9150612e1f82612dba565b604082019050919050565b5f6020820190508181035f830152612e4181612e08565b9050919050565b7f45524332303a20617070726f766520746f20746865207a65726f2061646472655f8201527f7373000000000000000000000000000000000000000000000000000000000000602082015250565b5f612ea260228361234d565b9150612ead82612e48565b604082019050919050565b5f6020820190508181035f830152612ecf81612e96565b9050919050565b7f45524332303a20696e73756666696369656e7420616c6c6f77616e63650000005f82015250565b5f612f0a601d8361234d565b9150612f1582612ed6565b602082019050919050565b5f6020820190508181035f830152612f3781612efe565b9050919050565b7f45524332303a207472616e736665722066726f6d20746865207a65726f2061645f8201527f6472657373000000000000000000000000000000000000000000000000000000602082015250565b5f612f9860258361234d565b9150612fa382612f3e565b604082019050919050565b5f6020820190508181035f830152612fc581612f8c565b9050919050565b7f45524332303a207472616e7366657220746f20746865207a65726f20616464725f8201527f6573730000000000000000000000000000000000000000000000000000000000602082015250565b5f61302660238361234d565b915061303182612fcc565b604082019050919050565b5f6020820190508181035f8301526130538161301a565b9050919050565b7f45524332303a207472616e7366657220616d6f756e74206578636565647320625f8201527f616c616e63650000000000000000000000000000000000000000000000000000602082015250565b5f6130b460268361234d565b91506130bf8261305a565b604082019050919050565b5f6020820190508181035f8301526130e1816130a8565b9050919050565b7f496e697469616c697a61626c653a20636f6e7472616374206973206e6f7420695f8201527f6e697469616c697a696e67000000000000000000000000000000000000000000602082015250565b5f613142602b8361234d565b915061314d826130e8565b604082019050919050565b5f6020820190508181035f83015261316f81613136565b9050919050565b61317f816128b7565b8114613189575f5ffd5b50565b5f8151905061319a81613176565b92915050565b5f602082840312156131b5576131b46123dc565b5b5f6131c28482850161318c565b91505092915050565b7f45524331393637557067726164653a206e657720696d706c656d656e746174695f8201527f6f6e206973206e6f742055555053000000000000000000000000000000000000602082015250565b5f613225602e8361234d565b9150613230826131cb565b604082019050919050565b5f6020820190508181035f83015261325281613219565b9050919050565b7f45524331393637557067726164653a20756e737570706f727465642070726f785f8201527f6961626c65555549440000000000000000000000000000000000000000000000602082015250565b5f6132b360298361234d565b91506132be82613259565b604082019050919050565b5f6020820190508181035f8301526132e0816132a7565b9050919050565b7f4f776e61626c653a2063616c6c6572206973206e6f7420746865206f776e65725f82015250565b5f61331b60208361234d565b9150613326826132e7565b602082019050919050565b5f6020820190508181035f8301526133488161330f565b9050919050565b7f45524332303a206275726e2066726f6d20746865207a65726f206164647265735f8201527f7300000000000000000000000000000000000000000000000000000000000000602082015250565b5f6133a960218361234d565b91506133b48261334f565b604082019050919050565b5f6020820190508181035f8301526133d68161339d565b9050919050565b7f45524332303a206275726e20616d6f756e7420657863656564732062616c616e5f8201527f6365000000000000000000000000000000000000000000000000000000000000602082015250565b5f61343760228361234d565b9150613442826133dd565b604082019050919050565b5f6020820190508181035f8301526134648161342b565b9050919050565b5f819050815f5260205f209050919050565b5f6020601f8301049050919050565b5f82821b905092915050565b5f600883026134c77fffffffffffffffffffffffffffffffffffffffffffffffffffffffffffffffff8261348c565b6134d1868361348c565b95508019841693508086168417925050509392505050565b5f6135036134fe6134f98461243e565b612a42565b61243e565b9050919050565b5f819050919050565b61351c836134e9565b6135306135288261350a565b848454613498565b825550505050565b5f5f905090565b613547613538565b613552818484613513565b505050565b5b818110156135755761356a5f8261353f565b600181019050613558565b5050565b601f8211156135ba5761358b8161346b565b6135948461347d565b810160208510156135a3578190505b6135b76135af8561347d565b830182613557565b50505b505050565b5f82821c905092915050565b5f6135da5f19846008026135bf565b1980831691505092915050565b5f6135f283836135cb565b9150826002028217905092915050565b61360b82612343565b67ffffffffffffffff81111561362457613623612596565b5b61362e825461297b565b613639828285613579565b5f60209050601f83116001811461366a575f8415613658578287015190505b61366285826135e7565b8655506136c9565b601f1984166136788661346b565b5f5b8281101561369f5784890151825560018201915060208501945060208101905061367a565b868310156136bc57848901516136b8601f8916826135cb565b8355505b6001600288020188555050505b505050505050565b7f45524332304361707065643a20636170206973203000000000000000000000005f82015250565b5f61370560158361234d565b9150613710826136d1565b602082019050919050565b5f6020820190508181035f830152613732816136f9565b9050919050565b7f45524332304361707065643a20636170206578636565646564000000000000005f82015250565b5f61376d60198361234d565b915061377882613739565b602082019050919050565b5f6020820190508181035f83015261379a81613761565b9050919050565b7f455243313936373a206e657720696d706c656d656e746174696f6e206973206e5f8201527f6f74206120636f6e747261637400000000000000000000000000000000000000602082015250565b5f6137fb602d8361234d565b9150613806826137a1565b604082019050919050565b5f6020820190508181035f830152613828816137ef565b9050919050565b7f5061757361626c653a206e6f74207061757365640000000000000000000000005f82015250565b5f61386360148361234d565b915061386e8261382f565b602082019050919050565b5f6020820190508181035f83015261389081613857565b9050919050565b7f5061757361626c653a20706175736564000000000000000000000000000000005f82015250565b5f6138cb60108361234d565b91506138d682613897565b602082019050919050565b5f6020820190508181035f8301526138f8816138bf565b9050919050565b7f45524332305061757361626c653a20746f6b656e207472616e736665722077685f8201527f696c652070617573656400000000000000000000000000000000000000000000602082015250565b5f613959602a8361234d565b9150613964826138ff565b604082019050919050565b5f6020820190508181035f8301526139868161394d565b9050919050565b7f45524332303a206d696e7420746f20746865207a65726f2061646472657373005f82015250565b5f6139c1601f8361234d565b91506139cc8261398d565b602082019050919050565b5f6020820190508181035f8301526139ee816139b5565b9050919050565b5f81519050919050565b5f81905092915050565b5f613a13826139f5565b613a1d81856139ff565b9350613a2d81856020860161235d565b80840191505092915050565b5f613a448284613a09565b915081905092915050565b7f416464726573733a2063616c6c20746f206e6f6e2d636f6e74726163740000005f82015250565b5f613a83601d8361234d565b9150613a8e82613a4f565b602082019050919050565b5f6020820190508181035f830152613ab081613a77565b905091905056fe416464726573733a206c6f772d6c6576656c2064656c65676174652063616c6c206661696c6564a2646970667358221220b7c7fcb7f7baa08c5821b9f91615fd53328e94dbfe1e83285416a68548cce62764736f6c634300081e0033","linkReferences":{}},"methodIdentifiers":{"allowance(address,address)":"dd62ed3e","approve(address,uint256)":"095ea7b3","balanceOf(address)":"70a08231","burn(uint256)":"42966c68","burnFrom(address,uint256)":"79cc6790","cap()":"355274ea","decimals()":"313ce567","decreaseAllowance(address,uint256)":"a457c2d7","increaseAllowance(address,uint256)":"39509351","initialize(string,string,uint256,uint256,address)":"33eea181","name()":"06fdde03","owner()":"8da5cb5b","pause()":"8456cb59","paused()":"5c975abb","proxiableUUID()":"52d1902d","renounceOwnership()":"715018a6","symbol()":"95d89b41","totalSupply()":"18160ddd","transfer(address,uint256)":"a9059cbb","transferFrom(address,address,uint256)":"23b872dd","transferOwnership(address)":"f2fde38b","unpause()":"3f4ba83a","upgradeTo(address)":"3659cfe6","upgradeToAndCall(address,bytes)":"4f1ef286","version()":"54fd4d50"}}}}}