{"src/token/CLToken2.sol":{"CLToken2":{"abi":[{"type":"function","name":"allowance","inputs":[{"name":"owner","type":"address","internalType":"address"},{"name":"spender","type":"address","internalType":"address"}],"outputs":[{"name":"","type":"uint256","internalType":"uint256"}],"stateMutability":"view"},{"type":"function","name":"approve","inputs":[{"name":"spender","type":"address","internalType":"address"},{"name":"amount","type":"uint256","internalType":"uint256"}],"outputs":[{"name":"","type":"bool","internalType":"bool"}],"stateMutability":"nonpayable"},{"type":"function","name":"balanceOf","inputs":[{"name":"account","type":"address","internalType":"address"}],"outputs":[{"name":"","type":"uint256","internalType":"uint256"}],"stateMutability":"view"},{"type":"function","name":"burn","inputs":[{"name":"amount","type":"uint256","internalType":"uint256"}],"outputs":[],"stateMutability":"nonpayable"},{"type":"function","name":"burnFrom","inputs":[{"name":"account","type":"address","internalType":"address"},{"name":"amount","type":"uint256","internalType":"uint256"}],"outputs":[],"stateMutability":"nonpayable"},{"type":"function","name":"cap","inputs":[],"outputs":[{"name":"","type":"uint256","internalType":"uint256"}],"stateMutability":"view"},{"type":"function","name":"decimals","inputs":[],"outputs":[{"name":"","type":"uint8","internalType":"uint8"}],"stateMutability":"view"},{"type":"function","name":"decreaseAllowance","inputs":[{"name":"spender","type":"address","internalType":"address"},{"name":"subtractedValue","type":"uint256","internalType":"uint256"}],"outputs":[{"name":"","type":"bool","internalType":"bool"}],"stateMutability":"nonpayable"},{"type":"function","name":"getReceiverLockStatus","inputs":[{"name":"user","type":"address","internalType":"address"}],"outputs":[{"name":"","type":"bool","internalType":"bool"}],"stateMutability":"view"},{"type":"function","name":"getSenderLockStatus","inputs":[{"name":"user","type":"address","internalType":"address"}],"outputs":[{"name":"","type":"bool","internalType":"bool"}],"stateMutability":"view"},{"type":"function","name":"increaseAllowance","inputs":[{"name":"spender","type":"address","internalType":"address"},{"name":"addedValue","type":"uint256","internalType":"uint256"}],"outputs":[{"name":"","type":"bool","internalType":"bool"}],"stateMutability":"nonpayable"},{"type":"function","name":"initialize","inputs":[{"name":"name_","type":"string","internalType":"string"},{"name":"symbol_","type":"string","internalType":"string"},{"name":"cap_","type":"uint256","internalType":"uint256"},{"name":"initialSupply_","type":"uint256","internalType":"uint256"},{"name":"initialOwner_","type":"address","internalType":"address"}],"outputs":[],"stateMutability":"nonpayable"},{"type":"function","name":"initialize2","inputs":[],"outputs":[],"stateMutability":"nonpayable"},{"type":"function","name":"modifyReceiver","inputs":[{"name":"receiver","type":"address","internalType":"address"},{"name":"islocked","type":"bool","internalType":"bool"}],"outputs":[],"stateMutability":"nonpayable"},{"type":"function","name":"modifySender","inputs":[{"name":"sender","type":"address","internalType":"address"},{"name":"islocked","type":"bool","internalType":"bool"}],"outputs":[],"stateMutability":"nonpayable"},{"type":"function","name":"name","inputs":[],"outputs":[{"name":"","type":"string","internalType":"string"}],"stateMutability":"view"},{"type":"function","name":"owner","inputs":[],"outputs":[{"name":"","type":"address","internalType":"address"}],"stateMutability":"view"},{"type":"function","name":"pause","inputs":[],"outputs":[],"stateMutability":"nonpayable"},{"type":"function","name":"paused","inputs":[],"outputs":[{"name":"","type":"bool","internalType":"bool"}],"stateMutability":"view"},{"type":"function","name":"proxiableUUID","inputs":[],"outputs":[{"name":"","type":"bytes32","internalType":"bytes32"}],"stateMutability":"view"},{"type":"function","name":"renounceOwnership","inputs":[],"outputs":[],"stateMutability":"nonpayable"},{"type":"function","name":"symbol","inputs":[],"outputs":[{"name":"","type":"string","internalType":"string"}],"stateMutability":"view"},{"type":"function","name":"totalSupply","inputs":[],"outputs":[{"name":"","type":"uint256","internalType":"uint256"}],"stateMutability":"view"},{"type":"function","name":"transfer","inputs":[{"name":"to","type":"address","internalType":"address"},{"name":"amount","type":"uint256","internalType":"uint256"}],"outputs":[{"name":"","type":"bool","internalType":"bool"}],"stateMutability":"nonpayable"},{"type":"function","name":"transferFrom","inputs":[{"name":"from","type":"address","internalType":"address"},{"name":"to","type":"address","internalType":"address"},{"name":"amount","type":"uint256","internalType":"uint256"}],"outputs":[{"name":"","type":"bool","internalType":"bool"}],"stateMutability":"nonpayable"},{"type":"function","name":"transferOwnership","inputs":[{"name":"newOwner","type":"address","internalType":"address"}],"outputs":[],"stateMutability":"nonpayable"},{"type":"function","name":"unpause","inputs":[],"outputs":[],"stateMutability":"nonpayable"},{"type":"function","name":"upgradeTo","inputs":[{"name":"newImplementation","type":"address","internalType":"address"}],"outputs":[],"stateMutability":"nonpayable"},{"type":"function","name":"upgradeToAndCall","inputs":[{"name":"newImplementation","type":"address","internalType":"address"},{"name":"data","type":"bytes","internalType":"bytes"}],"outputs":[],"stateMutability":"payable"},{"type":"function","name":"version","inputs":[],"outputs":[{"name":"","type":"uint8","internalType":"uint8"}],"stateMutability":"view"},{"type":"event","name":"AdminChanged","inputs":[{"name":"previousAdmin","type":"address","indexed":false,"internalType":"address"},{"name":"newAdmin","type":"address","indexed":false,"internalType":"address"}],"anonymous":false},{"type":"event","name":"Approval","inputs":[{"name":"owner","type":"address","indexed":true,"internalType":"address"},{"name":"spender","type":"address","indexed":true,"internalType":"address"},{"name":"value","type":"uint256","indexed":false,"internalType":"uint256"}],"anonymous":false},{"type":"event","name":"BeaconUpgraded","inputs":[{"name":"beacon","type":"address","indexed":true,"internalType":"address"}],"anonymous":false},{"type":"event","name":"Initialized","inputs":[{"name":"version","type":"uint8","indexed":false,"internalType":"uint8"}],"anonymous":false},{"type":"event","name":"OwnershipTransferred","inputs":[{"name":"previousOwner","type":"address","indexed":true,"internalType":"address"},{"name":"newOwner","type":"address","indexed":true,"internalType":"address"}],"anonymous":false},{"type":"event","name":"Paused","inputs":[{"name":"account","type":"address","indexed":false,"internalType":"address"}],"anonymous":false},{"type":"event","name":"Transfer","inputs":[{"name":"from","type":"address","indexed":true,"internalType":"address"},{"name":"to","type":"address","indexed":true,"internalType":"address"},{"name":"value","type":"uint256","indexed":false,"internalType":"uint256"}],"anonymous":false},{"type":"event","name":"Unpaused","inputs":[{"name":"account","type":"address","indexed":false,"internalType":"address"}],"anonymous":false},{"type":"event","name":"Upgraded","inputs":[{"name":"implementation","type":"address","indexed":true,"internalType":"address"}],"anonymous":false},{"type":"error","name":"InitialOwnerNotZero","inputs":[]},{"type":"error","name":"InitialSupplyLessThanCap","inputs":[]},{"type":"error","name":"ReceiverIsLock","inputs":[{"name":"user","type":"address","internalType":"address"}]},{"type":"error","name":"SenderIsLock","inputs":[{"name":"user","type":"address","internalType":"address"}]}],"userdoc":{},"devdoc":{},"evm":{"bytecode":{"object":"60a06040523073ffffffffffffffffffffffffffffffffffffffff1660809073ffffffffffffffffffffffffffffffffffffffff16815250348015610042575f5ffd5b5061005161005660201b60201c565b6101e6565b5f60019054906101000a900460ff16156100a5576040517f08c379a000000000000000000000000000000000000000000000000000000000815260040161009c90610194565b60405180910390fd5b60ff80165f5f9054906101000a900460ff1660ff16146101125760ff5f5f6101000a81548160ff021916908360ff1602179055507f7f26b83ff96e1f2b6a682f133852f6798a09c465da95921460cefb384740249860ff60405161010991906101cd565b60405180910390a15b565b5f82825260208201905092915050565b7f496e697469616c697a61626c653a20636f6e747261637420697320696e6974695f8201527f616c697a696e6700000000000000000000000000000000000000000000000000602082015250565b5f61017e602783610114565b915061018982610124565b604082019050919050565b5f6020820190508181035f8301526101ab81610172565b9050919050565b5f60ff82169050919050565b6101c7816101b2565b82525050565b5f6020820190506101e05f8301846101be565b92915050565b60805161440761021a5f395f8181610c8701528181610d1501528181610f5e01528181610fec015261109b01526144075ff3fe6080604052600436106101cc575f3560e01c806354fd4d50116100f65780638456cb5911610094578063a457c2d711610063578063a457c2d714610616578063a9059cbb14610652578063dd62ed3e1461068e578063f2fde38b146106ca576101cc565b80638456cb59146105845780638da5cb5b1461059a5780639467cba2146105c457806395d89b41146105ec576101cc565b80635e3b6b1c116100d05780635e3b6b1c146104ce57806370a082311461050a578063715018a61461054657806379cc67901461055c576101cc565b806354fd4d501461043e57806359c018ac146104685780635c975abb146104a4576101cc565b80633659cfe61161016e578063472abf681161013d578063472abf68146103ba5780634f1ef286146103d057806352d1902d146103ec578063546e428c14610416576101cc565b80633659cfe61461031857806339509351146103405780633f4ba83a1461037c57806342966c6814610392576101cc565b806323b872dd116101aa57806323b872dd14610260578063313ce5671461029c57806333eea181146102c6578063355274ea146102ee576101cc565b806306fdde03146101d0578063095ea7b3146101fa57806318160ddd14610236575b5f5ffd5b3480156101db575f5ffd5b506101e46106f2565b6040516101f19190612c3e565b60405180910390f35b348015610205575f5ffd5b50610220600480360381019061021b9190612cfc565b610782565b60405161022d9190612d54565b60405180910390f35b348015610241575f5ffd5b5061024a6108f0565b6040516102579190612d7c565b60405180910390f35b34801561026b575f5ffd5b5061028660048036038101906102819190612d95565b6108f9565b6040516102939190612d54565b60405180910390f35b3480156102a7575f5ffd5b506102b0610a69565b6040516102bd9190612e00565b60405180910390f35b3480156102d1575f5ffd5b506102ec60048036038101906102e79190612f45565b610a71565b005b3480156102f9575f5ffd5b50610302610c7c565b60405161030f9190612d7c565b60405180910390f35b348015610323575f5ffd5b5061033e60048036038101906103399190612ff4565b610c85565b005b34801561034b575f5ffd5b5061036660048036038101906103619190612cfc565b610e0b565b6040516103739190612d54565b60405180910390f35b348015610387575f5ffd5b50610390610e41565b005b34801561039d575f5ffd5b506103b860048036038101906103b3919061301f565b610e53565b005b3480156103c5575f5ffd5b506103ce610e67565b005b6103ea60048036038101906103e591906130e8565b610f5c565b005b3480156103f7575f5ffd5b50610400611098565b60405161040d919061315a565b60405180910390f35b348015610421575f5ffd5b5061043c6004803603810190610437919061319d565b61114f565b005b348015610449575f5ffd5b506104526111b0565b60405161045f9190612e00565b60405180910390f35b348015610473575f5ffd5b5061048e60048036038101906104899190612ff4565b6111be565b60405161049b9190612d54565b60405180910390f35b3480156104af575f5ffd5b506104b8611211565b6040516104c59190612d54565b60405180910390f35b3480156104d9575f5ffd5b506104f460048036038101906104ef9190612ff4565b611226565b6040516105019190612d54565b60405180910390f35b348015610515575f5ffd5b50610530600480360381019061052b9190612ff4565b611279565b60405161053d9190612d7c565b60405180910390f35b348015610551575f5ffd5b5061055a6112bf565b005b348015610567575f5ffd5b50610582600480360381019061057d9190612cfc565b6112d2565b005b34801561058f575f5ffd5b506105986112f2565b005b3480156105a5575f5ffd5b506105ae611304565b6040516105bb91906131ea565b60405180910390f35b3480156105cf575f5ffd5b506105ea60048036038101906105e5919061319d565b61132d565b005b3480156105f7575f5ffd5b5061060061138e565b60405161060d9190612c3e565b60405180910390f35b348015610621575f5ffd5b5061063c60048036038101906106379190612cfc565b61141e565b6040516106499190612d54565b60405180910390f35b34801561065d575f5ffd5b5061067860048036038101906106739190612cfc565b611493565b6040516106859190612d54565b60405180910390f35b348015610699575f5ffd5b506106b460048036038101906106af9190613203565b611601565b6040516106c19190612d7c565b60405180910390f35b3480156106d5575f5ffd5b506106f060048036038101906106eb9190612ff4565b611683565b005b6060603680546107019061326e565b80601f016020809104026020016040519081016040528092919081815260200182805461072d9061326e565b80156107785780601f1061074f57610100808354040283529160200191610778565b820191905f5260205f20905b81548152906001019060200180831161075b57829003601f168201915b5050505050905090565b5f335f73ffffffffffffffffffffffffffffffffffffffff168173ffffffffffffffffffffffffffffffffffffffff16146107bd57806107bf565b335b90506101605f8273ffffffffffffffffffffffffffffffffffffffff1673ffffffffffffffffffffffffffffffffffffffff1681526020019081526020015f205f9054906101000a900460ff161561084e57806040517f4c9237b100000000000000000000000000000000000000000000000000000000815260040161084591906131ea565b60405180910390fd5b836101615f8273ffffffffffffffffffffffffffffffffffffffff1673ffffffffffffffffffffffffffffffffffffffff1681526020019081526020015f205f9054906101000a900460ff16156108dc57806040517fb4cc90b70000000000000000000000000000000000000000000000000000000081526004016108d391906131ea565b60405180910390fd5b6108e68585611705565b9250505092915050565b5f603554905090565b5f835f73ffffffffffffffffffffffffffffffffffffffff168173ffffffffffffffffffffffffffffffffffffffff16146109345780610936565b335b90506101605f8273ffffffffffffffffffffffffffffffffffffffff1673ffffffffffffffffffffffffffffffffffffffff1681526020019081526020015f205f9054906101000a900460ff16156109c557806040517f4c9237b10000000000000000000000000000000000000000000000000000000081526004016109bc91906131ea565b60405180910390fd5b836101615f8273ffffffffffffffffffffffffffffffffffffffff1673ffffffffffffffffffffffffffffffffffffffff1681526020019081526020015f205f9054906101000a900460ff1615610a5357806040517fb4cc90b7000000000000000000000000000000000000000000000000000000008152600401610a4a91906131ea565b60405180910390fd5b610a5e868686611727565b925050509392505050565b5f6012905090565b5f5f60019054906101000a900460ff16159050808015610aa1575060015f5f9054906101000a900460ff1660ff16105b80610ace5750610ab030611755565b158015610acd575060015f5f9054906101000a900460ff1660ff16145b5b610b0d576040517f08c379a0000000000000000000000000000000000000000000000000000000008152600401610b049061330e565b60405180910390fd5b60015f5f6101000a81548160ff021916908360ff1602179055508015610b485760015f60016101000a81548160ff0219169083151502179055505b610b528686611777565b610b5b846117d3565b610b6361182d565b610b6b611885565b610b736118d5565b5f73ffffffffffffffffffffffffffffffffffffffff168273ffffffffffffffffffffffffffffffffffffffff1603610bd8576040517f6a6b29d000000000000000000000000000000000000000000000000000000000815260040160405180910390fd5b83831115610c12576040517f2a25525f00000000000000000000000000000000000000000000000000000000815260040160405180910390fd5b610c1c828461192d565b8015610c74575f5f60016101000a81548160ff0219169083151502179055507f7f26b83ff96e1f2b6a682f133852f6798a09c465da95921460cefb38474024986001604051610c6b919061336e565b60405180910390a15b505050505050565b5f606554905090565b7f000000000000000000000000000000000000000000000000000000000000000073ffffffffffffffffffffffffffffffffffffffff163073ffffffffffffffffffffffffffffffffffffffff1603610d13576040517f08c379a0000000000000000000000000000000000000000000000000000000008152600401610d0a906133f7565b60405180910390fd5b7f000000000000000000000000000000000000000000000000000000000000000073ffffffffffffffffffffffffffffffffffffffff16610d526119ca565b73ffffffffffffffffffffffffffffffffffffffff1614610da8576040517f08c379a0000000000000000000000000000000000000000000000000000000008152600401610d9f90613485565b60405180910390fd5b610db181611a1d565b610e08815f67ffffffffffffffff811115610dcf57610dce612e21565b5b6040519080825280601f01601f191660200182016040528015610e015781602001600182028036833780820191505090505b505f611a28565b50565b5f5f610e15611b92565b9050610e36818585610e278589611601565b610e3191906134d0565b611b99565b600191505092915050565b610e49611d5c565b610e51611dda565b565b610e64610e5e611b92565b82611e3b565b50565b60025f60019054906101000a900460ff16158015610e9757508060ff165f5f9054906101000a900460ff1660ff16105b610ed6576040517f08c379a0000000000000000000000000000000000000000000000000000000008152600401610ecd9061330e565b60405180910390fd5b805f5f6101000a81548160ff021916908360ff16021790555060015f60016101000a81548160ff0219169083151502179055505f5f60016101000a81548160ff0219169083151502179055507f7f26b83ff96e1f2b6a682f133852f6798a09c465da95921460cefb384740249881604051610f519190612e00565b60405180910390a150565b7f000000000000000000000000000000000000000000000000000000000000000073ffffffffffffffffffffffffffffffffffffffff163073ffffffffffffffffffffffffffffffffffffffff1603610fea576040517f08c379a0000000000000000000000000000000000000000000000000000000008152600401610fe1906133f7565b60405180910390fd5b7f000000000000000000000000000000000000000000000000000000000000000073ffffffffffffffffffffffffffffffffffffffff166110296119ca565b73ffffffffffffffffffffffffffffffffffffffff161461107f576040517f08c379a000000000000000000000000000000000000000000000000000000000815260040161107690613485565b60405180910390fd5b61108882611a1d565b61109482826001611a28565b5050565b5f7f000000000000000000000000000000000000000000000000000000000000000073ffffffffffffffffffffffffffffffffffffffff163073ffffffffffffffffffffffffffffffffffffffff1614611127576040517f08c379a000000000000000000000000000000000000000000000000000000000815260040161111e90613573565b60405180910390fd5b7f360894a13ba1a3210667c828492db98dca3e2076cc3735a920a3ca505d382bbc5f1b905090565b611157611d5c565b806101605f8473ffffffffffffffffffffffffffffffffffffffff1673ffffffffffffffffffffffffffffffffffffffff1681526020019081526020015f205f6101000a81548160ff0219169083151502179055505050565b5f6111b9612000565b905090565b5f6101615f8373ffffffffffffffffffffffffffffffffffffffff1673ffffffffffffffffffffffffffffffffffffffff1681526020019081526020015f205f9054906101000a900460ff169050919050565b5f60985f9054906101000a900460ff16905090565b5f6101605f8373ffffffffffffffffffffffffffffffffffffffff1673ffffffffffffffffffffffffffffffffffffffff1681526020019081526020015f205f9054906101000a900460ff169050919050565b5f60335f8373ffffffffffffffffffffffffffffffffffffffff1673ffffffffffffffffffffffffffffffffffffffff1681526020019081526020015f20549050919050565b6112c7611d5c565b6112d05f612014565b565b6112e4826112de611b92565b836120d9565b6112ee8282611e3b565b5050565b6112fa611d5c565b611302612164565b565b5f61012e5f9054906101000a900473ffffffffffffffffffffffffffffffffffffffff16905090565b611335611d5c565b806101615f8473ffffffffffffffffffffffffffffffffffffffff1673ffffffffffffffffffffffffffffffffffffffff1681526020019081526020015f205f6101000a81548160ff0219169083151502179055505050565b60606037805461139d9061326e565b80601f01602080910402602001604051908101604052809291908181526020018280546113c99061326e565b80156114145780601f106113eb57610100808354040283529160200191611414565b820191905f5260205f20905b8154815290600101906020018083116113f757829003601f168201915b5050505050905090565b5f5f611428611b92565b90505f6114358286611601565b90508381101561147a576040517f08c379a000000000000000000000000000000000000000000000000000000000815260040161147190613601565b60405180910390fd5b6114878286868403611b99565b60019250505092915050565b5f335f73ffffffffffffffffffffffffffffffffffffffff168173ffffffffffffffffffffffffffffffffffffffff16146114ce57806114d0565b335b90506101605f8273ffffffffffffffffffffffffffffffffffffffff1673ffffffffffffffffffffffffffffffffffffffff1681526020019081526020015f205f9054906101000a900460ff161561155f57806040517f4c9237b100000000000000000000000000000000000000000000000000000000815260040161155691906131ea565b60405180910390fd5b836101615f8273ffffffffffffffffffffffffffffffffffffffff1673ffffffffffffffffffffffffffffffffffffffff1681526020019081526020015f205f9054906101000a900460ff16156115ed57806040517fb4cc90b70000000000000000000000000000000000000000000000000000000081526004016115e491906131ea565b60405180910390fd5b6115f785856121c6565b9250505092915050565b5f60345f8473ffffffffffffffffffffffffffffffffffffffff1673ffffffffffffffffffffffffffffffffffffffff1681526020019081526020015f205f8373ffffffffffffffffffffffffffffffffffffffff1673ffffffffffffffffffffffffffffffffffffffff1681526020019081526020015f2054905092915050565b61168b611d5c565b5f73ffffffffffffffffffffffffffffffffffffffff168173ffffffffffffffffffffffffffffffffffffffff16036116f9576040517f08c379a00000000000000000000000000000000000000000000000000000000081526004016116f09061368f565b60405180910390fd5b61170281612014565b50565b5f5f61170f611b92565b905061171c818585611b99565b600191505092915050565b5f5f611731611b92565b905061173e8582856120d9565b6117498585856121e8565b60019150509392505050565b5f5f8273ffffffffffffffffffffffffffffffffffffffff163b119050919050565b5f60019054906101000a900460ff166117c5576040517f08c379a00000000000000000000000000000000000000000000000000000000081526004016117bc9061371d565b60405180910390fd5b6117cf8282612457565b5050565b5f60019054906101000a900460ff16611821576040517f08c379a00000000000000000000000000000000000000000000000000000000081526004016118189061371d565b60405180910390fd5b61182a816124c9565b50565b5f60019054906101000a900460ff1661187b576040517f08c379a00000000000000000000000000000000000000000000000000000000081526004016118729061371d565b60405180910390fd5b611883612563565b565b5f60019054906101000a900460ff166118d3576040517f08c379a00000000000000000000000000000000000000000000000000000000081526004016118ca9061371d565b60405180910390fd5b565b5f60019054906101000a900460ff16611923576040517f08c379a000000000000000000000000000000000000000000000000000000000815260040161191a9061371d565b60405180910390fd5b61192b6125cc565b565b816101615f8273ffffffffffffffffffffffffffffffffffffffff1673ffffffffffffffffffffffffffffffffffffffff1681526020019081526020015f205f9054906101000a900460ff16156119bb57806040517fb4cc90b70000000000000000000000000000000000000000000000000000000081526004016119b291906131ea565b60405180910390fd5b6119c5838361262c565b505050565b5f6119f67f360894a13ba1a3210667c828492db98dca3e2076cc3735a920a3ca505d382bbc5f1b61263a565b5f015f9054906101000a900473ffffffffffffffffffffffffffffffffffffffff16905090565b611a25611d5c565b50565b611a537f4910fdfa16fed3260ed0e7147f7cc6da11a60208b5b9406d12a635614ffd91435f1b612643565b5f015f9054906101000a900460ff1615611a7557611a708361264c565b611b8d565b8273ffffffffffffffffffffffffffffffffffffffff166352d1902d6040518163ffffffff1660e01b8152600401602060405180830381865afa925050508015611add57506040513d601f19601f82011682018060405250810190611ada9190613765565b60015b611b1c576040517f08c379a0000000000000000000000000000000000000000000000000000000008152600401611b1390613800565b60405180910390fd5b7f360894a13ba1a3210667c828492db98dca3e2076cc3735a920a3ca505d382bbc5f1b8114611b80576040517f08c379a0000000000000000000000000000000000000000000000000000000008152600401611b779061388e565b60405180910390fd5b50611b8c838383612702565b5b505050565b5f33905090565b5f73ffffffffffffffffffffffffffffffffffffffff168373ffffffffffffffffffffffffffffffffffffffff1603611c07576040517f08c379a0000000000000000000000000000000000000000000000000000000008152600401611bfe9061391c565b60405180910390fd5b5f73ffffffffffffffffffffffffffffffffffffffff168273ffffffffffffffffffffffffffffffffffffffff1603611c75576040517f08c379a0000000000000000000000000000000000000000000000000000000008152600401611c6c906139aa565b60405180910390fd5b8060345f8573ffffffffffffffffffffffffffffffffffffffff1673ffffffffffffffffffffffffffffffffffffffff1681526020019081526020015f205f8473ffffffffffffffffffffffffffffffffffffffff1673ffffffffffffffffffffffffffffffffffffffff1681526020019081526020015f20819055508173ffffffffffffffffffffffffffffffffffffffff168373ffffffffffffffffffffffffffffffffffffffff167f8c5be1e5ebec7d5bd14f71427d1e84f3dd0314c0f7b2291e5b200ac8c7c3b92583604051611d4f9190612d7c565b60405180910390a3505050565b611d64611b92565b73ffffffffffffffffffffffffffffffffffffffff16611d82611304565b73ffffffffffffffffffffffffffffffffffffffff1614611dd8576040517f08c379a0000000000000000000000000000000000000000000000000000000008152600401611dcf90613a12565b60405180910390fd5b565b611de261272d565b5f60985f6101000a81548160ff0219169083151502179055507f5db9ee0a495bf2e6ff9c91a7834c1ba4fdd244a5e8aa4e537bd38aeae4b073aa611e24611b92565b604051611e3191906131ea565b60405180910390a1565b5f73ffffffffffffffffffffffffffffffffffffffff168273ffffffffffffffffffffffffffffffffffffffff1603611ea9576040517f08c379a0000000000000000000000000000000000000000000000000000000008152600401611ea090613aa0565b60405180910390fd5b611eb4825f83612776565b5f60335f8473ffffffffffffffffffffffffffffffffffffffff1673ffffffffffffffffffffffffffffffffffffffff1681526020019081526020015f2054905081811015611f38576040517f08c379a0000000000000000000000000000000000000000000000000000000008152600401611f2f90613b2e565b60405180910390fd5b81810360335f8573ffffffffffffffffffffffffffffffffffffffff1673ffffffffffffffffffffffffffffffffffffffff1681526020019081526020015f20819055508160355f82825403925050819055505f73ffffffffffffffffffffffffffffffffffffffff168373ffffffffffffffffffffffffffffffffffffffff167fddf252ad1be2c89b69c2b068fc378daa952ba7f163c4a11628f55a4df523b3ef84604051611fe89190612d7c565b60405180910390a3611ffb835f84612786565b505050565b5f5f5f9054906101000a900460ff16905090565b5f61012e5f9054906101000a900473ffffffffffffffffffffffffffffffffffffffff1690508161012e5f6101000a81548173ffffffffffffffffffffffffffffffffffffffff021916908373ffffffffffffffffffffffffffffffffffffffff1602179055508173ffffffffffffffffffffffffffffffffffffffff168173ffffffffffffffffffffffffffffffffffffffff167f8be0079c531659141344cd1fd0a4f28419497f9722a3daafe3b4186f6b6457e060405160405180910390a35050565b5f6120e48484611601565b90507fffffffffffffffffffffffffffffffffffffffffffffffffffffffffffffffff811461215e5781811015612150576040517f08c379a000000000000000000000000000000000000000000000000000000000815260040161214790613b96565b60405180910390fd5b61215d8484848403611b99565b5b50505050565b61216c61278b565b600160985f6101000a81548160ff0219169083151502179055507f62e78cea01bee320cd4e420270b5ea74000d11b0c9f74754ebdbfc544b05a2586121af611b92565b6040516121bc91906131ea565b60405180910390a1565b5f5f6121d0611b92565b90506121dd8185856121e8565b600191505092915050565b5f73ffffffffffffffffffffffffffffffffffffffff168373ffffffffffffffffffffffffffffffffffffffff1603612256576040517f08c379a000000000000000000000000000000000000000000000000000000000815260040161224d90613c24565b60405180910390fd5b5f73ffffffffffffffffffffffffffffffffffffffff168273ffffffffffffffffffffffffffffffffffffffff16036122c4576040517f08c379a00000000000000000000000000000000000000000000000000000000081526004016122bb90613cb2565b60405180910390fd5b6122cf838383612776565b5f60335f8573ffffffffffffffffffffffffffffffffffffffff1673ffffffffffffffffffffffffffffffffffffffff1681526020019081526020015f2054905081811015612353576040517f08c379a000000000000000000000000000000000000000000000000000000000815260040161234a90613d40565b60405180910390fd5b81810360335f8673ffffffffffffffffffffffffffffffffffffffff1673ffffffffffffffffffffffffffffffffffffffff1681526020019081526020015f20819055508160335f8573ffffffffffffffffffffffffffffffffffffffff1673ffffffffffffffffffffffffffffffffffffffff1681526020019081526020015f205f82825401925050819055508273ffffffffffffffffffffffffffffffffffffffff168473ffffffffffffffffffffffffffffffffffffffff167fddf252ad1be2c89b69c2b068fc378daa952ba7f163c4a11628f55a4df523b3ef8460405161243e9190612d7c565b60405180910390a3612451848484612786565b50505050565b5f60019054906101000a900460ff166124a5576040517f08c379a000000000000000000000000000000000000000000000000000000000815260040161249c9061371d565b60405180910390fd5b81603690816124b49190613ef5565b5080603790816124c49190613ef5565b505050565b5f60019054906101000a900460ff16612517576040517f08c379a000000000000000000000000000000000000000000000000000000000815260040161250e9061371d565b60405180910390fd5b5f8111612559576040517f08c379a00000000000000000000000000000000000000000000000000000000081526004016125509061400e565b60405180910390fd5b8060658190555050565b5f60019054906101000a900460ff166125b1576040517f08c379a00000000000000000000000000000000000000000000000000000000081526004016125a89061371d565b60405180910390fd5b5f60985f6101000a81548160ff021916908315150217905550565b5f60019054906101000a900460ff1661261a576040517f08c379a00000000000000000000000000000000000000000000000000000000081526004016126119061371d565b60405180910390fd5b61262a612625611b92565b612014565b565b61263682826127d5565b5050565b5f819050919050565b5f819050919050565b6126558161283f565b612694576040517f08c379a000000000000000000000000000000000000000000000000000000000815260040161268b9061409c565b60405180910390fd5b806126c07f360894a13ba1a3210667c828492db98dca3e2076cc3735a920a3ca505d382bbc5f1b61263a565b5f015f6101000a81548173ffffffffffffffffffffffffffffffffffffffff021916908373ffffffffffffffffffffffffffffffffffffffff16021790555050565b61270b83612861565b5f825111806127175750805b156127285761272683836128b0565b505b505050565b612735611211565b612774576040517f08c379a000000000000000000000000000000000000000000000000000000000815260040161276b90614104565b60405180910390fd5b565b6127818383836128dd565b505050565b505050565b612793611211565b156127d3576040517f08c379a00000000000000000000000000000000000000000000000000000000081526004016127ca9061416c565b60405180910390fd5b565b6127dd610c7c565b816127e66108f0565b6127f091906134d0565b1115612831576040517f08c379a0000000000000000000000000000000000000000000000000000000008152600401612828906141d4565b60405180910390fd5b61283b8282612935565b5050565b5f5f8273ffffffffffffffffffffffffffffffffffffffff163b119050919050565b61286a8161264c565b8073ffffffffffffffffffffffffffffffffffffffff167fbc7cd75a20ee27fd9adebab32041f755214dbc6bffa90cc0225b39da2e5c2d3b60405160405180910390a250565b60606128d583836040518060600160405280602781526020016143ab60279139612a84565b905092915050565b6128e8838383612b06565b6128f0611211565b15612930576040517f08c379a000000000000000000000000000000000000000000000000000000000815260040161292790614262565b60405180910390fd5b505050565b5f73ffffffffffffffffffffffffffffffffffffffff168273ffffffffffffffffffffffffffffffffffffffff16036129a3576040517f08c379a000000000000000000000000000000000000000000000000000000000815260040161299a906142ca565b60405180910390fd5b6129ae5f8383612776565b8060355f8282546129bf91906134d0565b925050819055508060335f8473ffffffffffffffffffffffffffffffffffffffff1673ffffffffffffffffffffffffffffffffffffffff1681526020019081526020015f205f82825401925050819055508173ffffffffffffffffffffffffffffffffffffffff165f73ffffffffffffffffffffffffffffffffffffffff167fddf252ad1be2c89b69c2b068fc378daa952ba7f163c4a11628f55a4df523b3ef83604051612a6d9190612d7c565b60405180910390a3612a805f8383612786565b5050565b60605f5f8573ffffffffffffffffffffffffffffffffffffffff1685604051612aad919061432c565b5f60405180830381855af49150503d805f8114612ae5576040519150601f19603f3d011682016040523d82523d5f602084013e612aea565b606091505b5091509150612afb86838387612b0b565b925050509392505050565b505050565b60608315612b6c575f835103612b6457612b248561283f565b612b63576040517f08c379a0000000000000000000000000000000000000000000000000000000008152600401612b5a9061438c565b60405180910390fd5b5b829050612b77565b612b768383612b7f565b5b949350505050565b5f82511115612b915781518083602001fd5b806040517f08c379a0000000000000000000000000000000000000000000000000000000008152600401612bc59190612c3e565b60405180910390fd5b5f81519050919050565b5f82825260208201905092915050565b8281835e5f83830152505050565b5f601f19601f8301169050919050565b5f612c1082612bce565b612c1a8185612bd8565b9350612c2a818560208601612be8565b612c3381612bf6565b840191505092915050565b5f6020820190508181035f830152612c568184612c06565b905092915050565b5f604051905090565b5f5ffd5b5f5ffd5b5f73ffffffffffffffffffffffffffffffffffffffff82169050919050565b5f612c9882612c6f565b9050919050565b612ca881612c8e565b8114612cb2575f5ffd5b50565b5f81359050612cc381612c9f565b92915050565b5f819050919050565b612cdb81612cc9565b8114612ce5575f5ffd5b50565b5f81359050612cf681612cd2565b92915050565b5f5f60408385031215612d1257612d11612c67565b5b5f612d1f85828601612cb5565b9250506020612d3085828601612ce8565b9150509250929050565b5f8115159050919050565b612d4e81612d3a565b82525050565b5f602082019050612d675f830184612d45565b92915050565b612d7681612cc9565b82525050565b5f602082019050612d8f5f830184612d6d565b92915050565b5f5f5f60608486031215612dac57612dab612c67565b5b5f612db986828701612cb5565b9350506020612dca86828701612cb5565b9250506040612ddb86828701612ce8565b9150509250925092565b5f60ff82169050919050565b612dfa81612de5565b82525050565b5f602082019050612e135f830184612df1565b92915050565b5f5ffd5b5f5ffd5b7f4e487b71000000000000000000000000000000000000000000000000000000005f52604160045260245ffd5b612e5782612bf6565b810181811067ffffffffffffffff82111715612e7657612e75612e21565b5b80604052505050565b5f612e88612c5e565b9050612e948282612e4e565b919050565b5f67ffffffffffffffff821115612eb357612eb2612e21565b5b612ebc82612bf6565b9050602081019050919050565b828183375f83830152505050565b5f612ee9612ee484612e99565b612e7f565b905082815260208101848484011115612f0557612f04612e1d565b5b612f10848285612ec9565b509392505050565b5f82601f830112612f2c57612f2b612e19565b5b8135612f3c848260208601612ed7565b91505092915050565b5f5f5f5f5f60a08688031215612f5e57612f5d612c67565b5b5f86013567ffffffffffffffff811115612f7b57612f7a612c6b565b5b612f8788828901612f18565b955050602086013567ffffffffffffffff811115612fa857612fa7612c6b565b5b612fb488828901612f18565b9450506040612fc588828901612ce8565b9350506060612fd688828901612ce8565b9250506080612fe788828901612cb5565b9150509295509295909350565b5f6020828403121561300957613008612c67565b5b5f61301684828501612cb5565b91505092915050565b5f6020828403121561303457613033612c67565b5b5f61304184828501612ce8565b91505092915050565b5f67ffffffffffffffff82111561306457613063612e21565b5b61306d82612bf6565b9050602081019050919050565b5f61308c6130878461304a565b612e7f565b9050828152602081018484840111156130a8576130a7612e1d565b5b6130b3848285612ec9565b509392505050565b5f82601f8301126130cf576130ce612e19565b5b81356130df84826020860161307a565b91505092915050565b5f5f604083850312156130fe576130fd612c67565b5b5f61310b85828601612cb5565b925050602083013567ffffffffffffffff81111561312c5761312b612c6b565b5b613138858286016130bb565b9150509250929050565b5f819050919050565b61315481613142565b82525050565b5f60208201905061316d5f83018461314b565b92915050565b61317c81612d3a565b8114613186575f5ffd5b50565b5f8135905061319781613173565b92915050565b5f5f604083850312156131b3576131b2612c67565b5b5f6131c085828601612cb5565b92505060206131d185828601613189565b9150509250929050565b6131e481612c8e565b82525050565b5f6020820190506131fd5f8301846131db565b92915050565b5f5f6040838503121561321957613218612c67565b5b5f61322685828601612cb5565b925050602061323785828601612cb5565b9150509250929050565b7f4e487b71000000000000000000000000000000000000000000000000000000005f52602260045260245ffd5b5f600282049050600182168061328557607f821691505b60208210810361329857613297613241565b5b50919050565b7f496e697469616c697a61626c653a20636f6e747261637420697320616c7265615f8201527f647920696e697469616c697a6564000000000000000000000000000000000000602082015250565b5f6132f8602e83612bd8565b91506133038261329e565b604082019050919050565b5f6020820190508181035f830152613325816132ec565b9050919050565b5f819050919050565b5f819050919050565b5f61335861335361334e8461332c565b613335565b612de5565b9050919050565b6133688161333e565b82525050565b5f6020820190506133815f83018461335f565b92915050565b7f46756e6374696f6e206d7573742062652063616c6c6564207468726f756768205f8201527f64656c656761746563616c6c0000000000000000000000000000000000000000602082015250565b5f6133e1602c83612bd8565b91506133ec82613387565b604082019050919050565b5f6020820190508181035f83015261340e816133d5565b9050919050565b7f46756e6374696f6e206d7573742062652063616c6c6564207468726f756768205f8201527f6163746976652070726f78790000000000000000000000000000000000000000602082015250565b5f61346f602c83612bd8565b915061347a82613415565b604082019050919050565b5f6020820190508181035f83015261349c81613463565b9050919050565b7f4e487b71000000000000000000000000000000000000000000000000000000005f52601160045260245ffd5b5f6134da82612cc9565b91506134e583612cc9565b92508282019050808211156134fd576134fc6134a3565b5b92915050565b7f555550535570677261646561626c653a206d757374206e6f742062652063616c5f8201527f6c6564207468726f7567682064656c656761746563616c6c0000000000000000602082015250565b5f61355d603883612bd8565b915061356882613503565b604082019050919050565b5f6020820190508181035f83015261358a81613551565b9050919050565b7f45524332303a2064656372656173656420616c6c6f77616e63652062656c6f775f8201527f207a65726f000000000000000000000000000000000000000000000000000000602082015250565b5f6135eb602583612bd8565b91506135f682613591565b604082019050919050565b5f6020820190508181035f830152613618816135df565b9050919050565b7f4f776e61626c653a206e6577206f776e657220697320746865207a65726f20615f8201527f6464726573730000000000000000000000000000000000000000000000000000602082015250565b5f613679602683612bd8565b91506136848261361f565b604082019050919050565b5f6020820190508181035f8301526136a68161366d565b9050919050565b7f496e697469616c697a61626c653a20636f6e7472616374206973206e6f7420695f8201527f6e697469616c697a696e67000000000000000000000000000000000000000000602082015250565b5f613707602b83612bd8565b9150613712826136ad565b604082019050919050565b5f6020820190508181035f830152613734816136fb565b9050919050565b61374481613142565b811461374e575f5ffd5b50565b5f8151905061375f8161373b565b92915050565b5f6020828403121561377a57613779612c67565b5b5f61378784828501613751565b91505092915050565b7f45524331393637557067726164653a206e657720696d706c656d656e746174695f8201527f6f6e206973206e6f742055555053000000000000000000000000000000000000602082015250565b5f6137ea602e83612bd8565b91506137f582613790565b604082019050919050565b5f6020820190508181035f830152613817816137de565b9050919050565b7f45524331393637557067726164653a20756e737570706f727465642070726f785f8201527f6961626c65555549440000000000000000000000000000000000000000000000602082015250565b5f613878602983612bd8565b91506138838261381e565b604082019050919050565b5f6020820190508181035f8301526138a58161386c565b9050919050565b7f45524332303a20617070726f76652066726f6d20746865207a65726f206164645f8201527f7265737300000000000000000000000000000000000000000000000000000000602082015250565b5f613906602483612bd8565b9150613911826138ac565b604082019050919050565b5f6020820190508181035f830152613933816138fa565b9050919050565b7f45524332303a20617070726f766520746f20746865207a65726f2061646472655f8201527f7373000000000000000000000000000000000000000000000000000000000000602082015250565b5f613994602283612bd8565b915061399f8261393a565b604082019050919050565b5f6020820190508181035f8301526139c181613988565b9050919050565b7f4f776e61626c653a2063616c6c6572206973206e6f7420746865206f776e65725f82015250565b5f6139fc602083612bd8565b9150613a07826139c8565b602082019050919050565b5f6020820190508181035f830152613a29816139f0565b9050919050565b7f45524332303a206275726e2066726f6d20746865207a65726f206164647265735f8201527f7300000000000000000000000000000000000000000000000000000000000000602082015250565b5f613a8a602183612bd8565b9150613a9582613a30565b604082019050919050565b5f6020820190508181035f830152613ab781613a7e565b9050919050565b7f45524332303a206275726e20616d6f756e7420657863656564732062616c616e5f8201527f6365000000000000000000000000000000000000000000000000000000000000602082015250565b5f613b18602283612bd8565b9150613b2382613abe565b604082019050919050565b5f6020820190508181035f830152613b4581613b0c565b9050919050565b7f45524332303a20696e73756666696369656e7420616c6c6f77616e63650000005f82015250565b5f613b80601d83612bd8565b9150613b8b82613b4c565b602082019050919050565b5f6020820190508181035f830152613bad81613b74565b9050919050565b7f45524332303a207472616e736665722066726f6d20746865207a65726f2061645f8201527f6472657373000000000000000000000000000000000000000000000000000000602082015250565b5f613c0e602583612bd8565b9150613c1982613bb4565b604082019050919050565b5f6020820190508181035f830152613c3b81613c02565b9050919050565b7f45524332303a207472616e7366657220746f20746865207a65726f20616464725f8201527f6573730000000000000000000000000000000000000000000000000000000000602082015250565b5f613c9c602383612bd8565b9150613ca782613c42565b604082019050919050565b5f6020820190508181035f830152613cc981613c90565b9050919050565b7f45524332303a207472616e7366657220616d6f756e74206578636565647320625f8201527f616c616e63650000000000000000000000000000000000000000000000000000602082015250565b5f613d2a602683612bd8565b9150613d3582613cd0565b604082019050919050565b5f6020820190508181035f830152613d5781613d1e565b9050919050565b5f819050815f5260205f209050919050565b5f6020601f8301049050919050565b5f82821b905092915050565b5f60088302613dba7fffffffffffffffffffffffffffffffffffffffffffffffffffffffffffffffff82613d7f565b613dc48683613d7f565b95508019841693508086168417925050509392505050565b5f613df6613df1613dec84612cc9565b613335565b612cc9565b9050919050565b5f819050919050565b613e0f83613ddc565b613e23613e1b82613dfd565b848454613d8b565b825550505050565b5f5f905090565b613e3a613e2b565b613e45818484613e06565b505050565b5b81811015613e6857613e5d5f82613e32565b600181019050613e4b565b5050565b601f821115613ead57613e7e81613d5e565b613e8784613d70565b81016020851015613e96578190505b613eaa613ea285613d70565b830182613e4a565b50505b505050565b5f82821c905092915050565b5f613ecd5f1984600802613eb2565b1980831691505092915050565b5f613ee58383613ebe565b9150826002028217905092915050565b613efe82612bce565b67ffffffffffffffff811115613f1757613f16612e21565b5b613f21825461326e565b613f2c828285613e6c565b5f60209050601f831160018114613f5d575f8415613f4b578287015190505b613f558582613eda565b865550613fbc565b601f198416613f6b86613d5e565b5f5b82811015613f9257848901518255600182019150602085019450602081019050613f6d565b86831015613faf5784890151613fab601f891682613ebe565b8355505b6001600288020188555050505b505050505050565b7f45524332304361707065643a20636170206973203000000000000000000000005f82015250565b5f613ff8601583612bd8565b915061400382613fc4565b602082019050919050565b5f6020820190508181035f83015261402581613fec565b9050919050565b7f455243313936373a206e657720696d706c656d656e746174696f6e206973206e5f8201527f6f74206120636f6e747261637400000000000000000000000000000000000000602082015250565b5f614086602d83612bd8565b91506140918261402c565b604082019050919050565b5f6020820190508181035f8301526140b38161407a565b9050919050565b7f5061757361626c653a206e6f74207061757365640000000000000000000000005f82015250565b5f6140ee601483612bd8565b91506140f9826140ba565b602082019050919050565b5f6020820190508181035f83015261411b816140e2565b9050919050565b7f5061757361626c653a20706175736564000000000000000000000000000000005f82015250565b5f614156601083612bd8565b915061416182614122565b602082019050919050565b5f6020820190508181035f8301526141838161414a565b9050919050565b7f45524332304361707065643a20636170206578636565646564000000000000005f82015250565b5f6141be601983612bd8565b91506141c98261418a565b602082019050919050565b5f6020820190508181035f8301526141eb816141b2565b9050919050565b7f45524332305061757361626c653a20746f6b656e207472616e736665722077685f8201527f696c652070617573656400000000000000000000000000000000000000000000602082015250565b5f61424c602a83612bd8565b9150614257826141f2565b604082019050919050565b5f6020820190508181035f83015261427981614240565b9050919050565b7f45524332303a206d696e7420746f20746865207a65726f2061646472657373005f82015250565b5f6142b4601f83612bd8565b91506142bf82614280565b602082019050919050565b5f6020820190508181035f8301526142e1816142a8565b9050919050565b5f81519050919050565b5f81905092915050565b5f614306826142e8565b61431081856142f2565b9350614320818560208601612be8565b80840191505092915050565b5f61433782846142fc565b915081905092915050565b7f416464726573733a2063616c6c20746f206e6f6e2d636f6e74726163740000005f82015250565b5f614376601d83612bd8565b915061438182614342565b602082019050919050565b5f6020820190508181035f8301526143a38161436a565b905091905056fe416464726573733a206c6f772d6c6576656c2064656c65676174652063616c6c206661696c6564a264697066735822122056bbf169ed3d4ef85de76da82da6e0aeab296286f8668c891f48730f4e78aabe64736f6c634300081e0033","linkReferences":{}},"methodIdentifiers":{"allowance(address,address)":"dd62ed3e","approve(address,uint256)":"095ea7b3","balanceOf(address)":"70a08231","burn(uint256)":"42966c68","burnFrom(address,uint256)":"79cc6790","cap()":"355274ea","decimals()":"313ce567","decreaseAllowance(address,uint256)":"a457c2d7","getReceiverLockStatus(address)":"59c018ac","getSenderLockStatus(address)":"5e3b6b1c","increaseAllowance(address,uint256)":"39509351","initialize(string,string,uint256,uint256,address)":"33eea181","initialize2()":"472abf68","modifyReceiver(address,bool)":"9467cba2","modifySender(address,bool)":"546e428c","name()":"06fdde03","owner()":"8da5cb5b","pause()":"8456cb59","paused()":"5c975abb","proxiableUUID()":"52d1902d","renounceOwnership()":"715018a6","symbol()":"95d89b41","totalSupply()":"18160ddd","transfer(address,uint256)":"a9059cbb","transferFrom(address,address,uint256)":"23b872dd","transferOwnership(address)":"f2fde38b","unpause()":"3f4ba83a","upgradeTo(address)":"3659cfe6","upgradeToAndCall(address,bytes)":"4f1ef286","version()":"54fd4d50"}}}}}