{"abi":[{"type":"constructor","inputs":[],"stateMutability":"nonpayable"},{"type":"function","name":"DEFAULT_ADMIN_ROLE","inputs":[],"outputs":[{"name":"","type":"bytes32","internalType":"bytes32"}],"stateMutability":"view"},{"type":"function","name":"allowance","inputs":[{"name":"owner","type":"address","internalType":"address"},{"name":"spender","type":"address","internalType":"address"}],"outputs":[{"name":"","type":"uint256","internalType":"uint256"}],"stateMutability":"view"},{"type":"function","name":"approve","inputs":[{"name":"spender","type":"address","internalType":"address"},{"name":"amount","type":"uint256","internalType":"uint256"}],"outputs":[{"name":"","type":"bool","internalType":"bool"}],"stateMutability":"nonpayable"},{"type":"function","name":"balanceOf","inputs":[{"name":"account","type":"address","internalType":"address"}],"outputs":[{"name":"","type":"uint256","internalType":"uint256"}],"stateMutability":"view"},{"type":"function","name":"burn","inputs":[{"name":"amount","type":"uint256","internalType":"uint256"}],"outputs":[],"stateMutability":"nonpayable"},{"type":"function","name":"burnFrom","inputs":[{"name":"account","type":"address","internalType":"address"},{"name":"amount","type":"uint256","internalType":"uint256"}],"outputs":[],"stateMutability":"nonpayable"},{"type":"function","name":"cap","inputs":[],"outputs":[{"name":"","type":"uint256","internalType":"uint256"}],"stateMutability":"view"},{"type":"function","name":"decimals","inputs":[],"outputs":[{"name":"","type":"uint8","internalType":"uint8"}],"stateMutability":"view"},{"type":"function","name":"decreaseAllowance","inputs":[{"name":"spender","type":"address","internalType":"address"},{"name":"subtractedValue","type":"uint256","internalType":"uint256"}],"outputs":[{"name":"","type":"bool","internalType":"bool"}],"stateMutability":"nonpayable"},{"type":"function","name":"getRoleAdmin","inputs":[{"name":"role","type":"bytes32","internalType":"bytes32"}],"outputs":[{"name":"","type":"bytes32","internalType":"bytes32"}],"stateMutability":"view"},{"type":"function","name":"grantRole","inputs":[{"name":"role","type":"bytes32","internalType":"bytes32"},{"name":"account","type":"address","internalType":"address"}],"outputs":[],"stateMutability":"nonpayable"},{"type":"function","name":"hasRole","inputs":[{"name":"role","type":"bytes32","internalType":"bytes32"},{"name":"account","type":"address","internalType":"address"}],"outputs":[{"name":"","type":"bool","internalType":"bool"}],"stateMutability":"view"},{"type":"function","name":"increaseAllowance","inputs":[{"name":"spender","type":"address","internalType":"address"},{"name":"addedValue","type":"uint256","internalType":"uint256"}],"outputs":[{"name":"","type":"bool","internalType":"bool"}],"stateMutability":"nonpayable"},{"type":"function","name":"initialize","inputs":[{"name":"name_","type":"string","internalType":"string"},{"name":"symbol_","type":"string","internalType":"string"},{"name":"cap_","type":"uint256","internalType":"uint256"},{"name":"initialSupply_","type":"uint256","internalType":"uint256"},{"name":"initialOwner_","type":"address","internalType":"address"}],"outputs":[],"stateMutability":"nonpayable"},{"type":"function","name":"mint","inputs":[{"name":"account","type":"address","internalType":"address"},{"name":"amount","type":"uint256","internalType":"uint256"}],"outputs":[],"stateMutability":"nonpayable"},{"type":"function","name":"name","inputs":[],"outputs":[{"name":"","type":"string","internalType":"string"}],"stateMutability":"view"},{"type":"function","name":"owner","inputs":[],"outputs":[{"name":"","type":"address","internalType":"address"}],"stateMutability":"view"},{"type":"function","name":"pause","inputs":[],"outputs":[],"stateMutability":"nonpayable"},{"type":"function","name":"paused","inputs":[],"outputs":[{"name":"","type":"bool","internalType":"bool"}],"stateMutability":"view"},{"type":"function","name":"proxiableUUID","inputs":[],"outputs":[{"name":"","type":"bytes32","internalType":"bytes32"}],"stateMutability":"view"},{"type":"function","name":"renounceOwnership","inputs":[],"outputs":[],"stateMutability":"nonpayable"},{"type":"function","name":"renounceRole","inputs":[{"name":"role","type":"bytes32","internalType":"bytes32"},{"name":"account","type":"address","internalType":"address"}],"outputs":[],"stateMutability":"nonpayable"},{"type":"function","name":"revokeRole","inputs":[{"name":"role","type":"bytes32","internalType":"bytes32"},{"name":"account","type":"address","internalType":"address"}],"outputs":[],"stateMutability":"nonpayable"},{"type":"function","name":"supportsInterface","inputs":[{"name":"interfaceId","type":"bytes4","internalType":"bytes4"}],"outputs":[{"name":"","type":"bool","internalType":"bool"}],"stateMutability":"view"},{"type":"function","name":"symbol","inputs":[],"outputs":[{"name":"","type":"string","internalType":"string"}],"stateMutability":"view"},{"type":"function","name":"totalSupply","inputs":[],"outputs":[{"name":"","type":"uint256","internalType":"uint256"}],"stateMutability":"view"},{"type":"function","name":"transfer","inputs":[{"name":"to","type":"address","internalType":"address"},{"name":"amount","type":"uint256","internalType":"uint256"}],"outputs":[{"name":"","type":"bool","internalType":"bool"}],"stateMutability":"nonpayable"},{"type":"function","name":"transferFrom","inputs":[{"name":"from","type":"address","internalType":"address"},{"name":"to","type":"address","internalType":"address"},{"name":"amount","type":"uint256","internalType":"uint256"}],"outputs":[{"name":"","type":"bool","internalType":"bool"}],"stateMutability":"nonpayable"},{"type":"function","name":"transferOwnership","inputs":[{"name":"newOwner","type":"address","internalType":"address"}],"outputs":[],"stateMutability":"nonpayable"},{"type":"function","name":"unpause","inputs":[],"outputs":[],"stateMutability":"nonpayable"},{"type":"function","name":"upgradeTo","inputs":[{"name":"newImplementation","type":"address","internalType":"address"}],"outputs":[],"stateMutability":"nonpayable"},{"type":"function","name":"upgradeToAndCall","inputs":[{"name":"newImplementation","type":"address","internalType":"address"},{"name":"data","type":"bytes","internalType":"bytes"}],"outputs":[],"stateMutability":"payable"},{"type":"function","name":"version","inputs":[],"outputs":[{"name":"","type":"uint8","internalType":"uint8"}],"stateMutability":"view"},{"type":"event","name":"AdminChanged","inputs":[{"name":"previousAdmin","type":"address","indexed":false,"internalType":"address"},{"name":"newAdmin","type":"address","indexed":false,"internalType":"address"}],"anonymous":false},{"type":"event","name":"Approval","inputs":[{"name":"owner","type":"address","indexed":true,"internalType":"address"},{"name":"spender","type":"address","indexed":true,"internalType":"address"},{"name":"value","type":"uint256","indexed":false,"internalType":"uint256"}],"anonymous":false},{"type":"event","name":"BeaconUpgraded","inputs":[{"name":"beacon","type":"address","indexed":true,"internalType":"address"}],"anonymous":false},{"type":"event","name":"Initialized","inputs":[{"name":"version","type":"uint8","indexed":false,"internalType":"uint8"}],"anonymous":false},{"type":"event","name":"OwnershipTransferred","inputs":[{"name":"previousOwner","type":"address","indexed":true,"internalType":"address"},{"name":"newOwner","type":"address","indexed":true,"internalType":"address"}],"anonymous":false},{"type":"event","name":"Paused","inputs":[{"name":"account","type":"address","indexed":false,"internalType":"address"}],"anonymous":false},{"type":"event","name":"RoleAdminChanged","inputs":[{"name":"role","type":"bytes32","indexed":true,"internalType":"bytes32"},{"name":"previousAdminRole","type":"bytes32","indexed":true,"internalType":"bytes32"},{"name":"newAdminRole","type":"bytes32","indexed":true,"internalType":"bytes32"}],"anonymous":false},{"type":"event","name":"RoleGranted","inputs":[{"name":"role","type":"bytes32","indexed":true,"internalType":"bytes32"},{"name":"account","type":"address","indexed":true,"internalType":"address"},{"name":"sender","type":"address","indexed":true,"internalType":"address"}],"anonymous":false},{"type":"event","name":"RoleRevoked","inputs":[{"name":"role","type":"bytes32","indexed":true,"internalType":"bytes32"},{"name":"account","type":"address","indexed":true,"internalType":"address"},{"name":"sender","type":"address","indexed":true,"internalType":"address"}],"anonymous":false},{"type":"event","name":"Transfer","inputs":[{"name":"from","type":"address","indexed":true,"internalType":"address"},{"name":"to","type":"address","indexed":true,"internalType":"address"},{"name":"value","type":"uint256","indexed":false,"internalType":"uint256"}],"anonymous":false},{"type":"event","name":"Unpaused","inputs":[{"name":"account","type":"address","indexed":false,"internalType":"address"}],"anonymous":false},{"type":"event","name":"Upgraded","inputs":[{"name":"implementation","type":"address","indexed":true,"internalType":"address"}],"anonymous":false},{"type":"error","name":"InitialOwnerIsZero","inputs":[]},{"type":"error","name":"InitialSupplyExceedsCap","inputs":[]}],"bytecode":{"object":"0x60a06040523073ffffffffffffffffffffffffffffffffffffffff1660809073ffffffffffffffffffffffffffffffffffffffff168152507f65d7a28e3265b37a6474929f336521b332c1681b933f6cb9f3376673440d862a6101c455348015610067575f5ffd5b5061007661007b60201b60201c565b61020b565b5f60019054906101000a900460ff16156100ca576040517f08c379a00000000000000000000000000000000000000000000000000000000081526004016100c1906101b9565b60405180910390fd5b60ff80165f5f9054906101000a900460ff1660ff16146101375760ff5f5f6101000a81548160ff021916908360ff1602179055507f7f26b83ff96e1f2b6a682f133852f6798a09c465da95921460cefb384740249860ff60405161012e91906101f2565b60405180910390a15b565b5f82825260208201905092915050565b7f496e697469616c697a61626c653a20636f6e747261637420697320696e6974695f8201527f616c697a696e6700000000000000000000000000000000000000000000000000602082015250565b5f6101a3602783610139565b91506101ae82610149565b604082019050919050565b5f6020820190508181035f8301526101d081610197565b9050919050565b5f60ff82169050919050565b6101ec816101d7565b82525050565b5f6020820190506102055f8301846101e3565b92915050565b60805161481a61023f5f395f8181610c1201528181610ca001528181610e1001528181610e9e0152610f4d015261481a5ff3fe6080604052600436106101ed575f3560e01c80634f1ef2861161010c5780638da5cb5b1161009f578063a457c2d71161006e578063a457c2d7146106af578063a9059cbb146106eb578063d547741f14610727578063dd62ed3e1461074f578063f2fde38b1461078b576101ed565b80638da5cb5b146105f557806391d148541461061f57806395d89b411461065b578063a217fddf14610685576101ed565b806370a08231116100db57806370a0823114610565578063715018a6146105a157806379cc6790146105b75780638456cb59146105df576101ed565b80634f1ef286146104cb57806352d1902d146104e757806354fd4d50146105115780635c975abb1461053b576101ed565b806333eea18111610184578063395093511161015357806339509351146104295780633f4ba83a1461046557806340c10f191461047b57806342966c68146104a3576101ed565b806333eea18114610387578063355274ea146103af57806336568abe146103d95780633659cfe614610401576101ed565b806323b872dd116101c057806323b872dd146102bd578063248a9ca3146102f95780632f2ff15d14610335578063313ce5671461035d576101ed565b806301ffc9a7146101f157806306fdde031461022d578063095ea7b31461025757806318160ddd14610293575b5f5ffd5b3480156101fc575f5ffd5b5061021760048036038101906102129190612d20565b6107b3565b6040516102249190612d65565b60405180910390f35b348015610238575f5ffd5b5061024161082c565b60405161024e9190612dee565b60405180910390f35b348015610262575f5ffd5b5061027d60048036038101906102789190612e9b565b6108bc565b60405161028a9190612d65565b60405180910390f35b34801561029e575f5ffd5b506102a76108de565b6040516102b49190612ee8565b60405180910390f35b3480156102c8575f5ffd5b506102e360048036038101906102de9190612f01565b6108e7565b6040516102f09190612d65565b60405180910390f35b348015610304575f5ffd5b5061031f600480360381019061031a9190612f84565b610915565b60405161032c9190612fbe565b60405180910390f35b348015610340575f5ffd5b5061035b60048036038101906103569190612fd7565b610933565b005b348015610368575f5ffd5b50610371610954565b60405161037e9190613030565b60405180910390f35b348015610392575f5ffd5b506103ad60048036038101906103a89190613175565b61095c565b005b3480156103ba575f5ffd5b506103c3610b84565b6040516103d09190612ee8565b60405180910390f35b3480156103e4575f5ffd5b506103ff60048036038101906103fa9190612fd7565b610b8d565b005b34801561040c575f5ffd5b5061042760048036038101906104229190613224565b610c10565b005b348015610434575f5ffd5b5061044f600480360381019061044a9190612e9b565b610d96565b60405161045c9190612d65565b60405180910390f35b348015610470575f5ffd5b50610479610dcc565b005b348015610486575f5ffd5b506104a1600480360381019061049c9190612e9b565b610de4565b005b3480156104ae575f5ffd5b506104c960048036038101906104c4919061324f565b610dfa565b005b6104e560048036038101906104e09190613318565b610e0e565b005b3480156104f2575f5ffd5b506104fb610f4a565b6040516105089190612fbe565b60405180910390f35b34801561051c575f5ffd5b50610525611001565b6040516105329190613030565b60405180910390f35b348015610546575f5ffd5b5061054f61100f565b60405161055c9190612d65565b60405180910390f35b348015610570575f5ffd5b5061058b60048036038101906105869190613224565b611024565b6040516105989190612ee8565b60405180910390f35b3480156105ac575f5ffd5b506105b561106a565b005b3480156105c2575f5ffd5b506105dd60048036038101906105d89190612e9b565b61107d565b005b3480156105ea575f5ffd5b506105f361109d565b005b348015610600575f5ffd5b506106096110b5565b6040516106169190613381565b60405180910390f35b34801561062a575f5ffd5b5061064560048036038101906106409190612fd7565b6110de565b6040516106529190612d65565b60405180910390f35b348015610666575f5ffd5b5061066f611143565b60405161067c9190612dee565b60405180910390f35b348015610690575f5ffd5b506106996111d3565b6040516106a69190612fbe565b60405180910390f35b3480156106ba575f5ffd5b506106d560048036038101906106d09190612e9b565b6111d9565b6040516106e29190612d65565b60405180910390f35b3480156106f6575f5ffd5b50610711600480360381019061070c9190612e9b565b61124e565b60405161071e9190612d65565b60405180910390f35b348015610732575f5ffd5b5061074d60048036038101906107489190612fd7565b611270565b005b34801561075a575f5ffd5b506107756004803603810190610770919061339a565b611291565b6040516107829190612ee8565b60405180910390f35b348015610796575f5ffd5b506107b160048036038101906107ac9190613224565b611313565b005b5f7f7965db0b000000000000000000000000000000000000000000000000000000007bffffffffffffffffffffffffffffffffffffffffffffffffffffffff1916827bffffffffffffffffffffffffffffffffffffffffffffffffffffffff19161480610825575061082482611395565b5b9050919050565b60606036805461083b90613405565b80601f016020809104026020016040519081016040528092919081815260200182805461086790613405565b80156108b25780601f10610889576101008083540402835291602001916108b2565b820191905f5260205f20905b81548152906001019060200180831161089557829003601f168201915b5050505050905090565b5f5f6108c66113fe565b90506108d3818585611405565b600191505092915050565b5f603554905090565b5f5f6108f16113fe565b90506108fe8582856115c8565b610909858585611653565b60019150509392505050565b5f6101925f8381526020019081526020015f20600101549050919050565b61093c82610915565b610945816118c2565b61094f83836118d6565b505050565b5f6012905090565b5f5f60019054906101000a900460ff1615905080801561098c575060015f5f9054906101000a900460ff1660ff16105b806109b9575061099b306119b2565b1580156109b8575060015f5f9054906101000a900460ff1660ff16145b5b6109f8576040517f08c379a00000000000000000000000000000000000000000000000000000000081526004016109ef906134a5565b60405180910390fd5b60015f5f6101000a81548160ff021916908360ff1602179055508015610a335760015f60016101000a81548160ff0219169083151502179055505b5f73ffffffffffffffffffffffffffffffffffffffff168273ffffffffffffffffffffffffffffffffffffffff1603610a98576040517fc468f5b700000000000000000000000000000000000000000000000000000000815260040160405180910390fd5b83831115610ad2576040517f0375754700000000000000000000000000000000000000000000000000000000815260040160405180910390fd5b610adc86866119d4565b610ae584611a30565b610aed611a8a565b610af5611ae2565b610afd611b32565b610b05611b8a565b610b115f5f1b836118d6565b610b1a82611bda565b610b248284611c9f565b8015610b7c575f5f60016101000a81548160ff0219169083151502179055507f7f26b83ff96e1f2b6a682f133852f6798a09c465da95921460cefb38474024986001604051610b739190613505565b60405180910390a15b505050505050565b5f606554905090565b610b956113fe565b73ffffffffffffffffffffffffffffffffffffffff168173ffffffffffffffffffffffffffffffffffffffff1614610c02576040517f08c379a0000000000000000000000000000000000000000000000000000000008152600401610bf99061358e565b60405180910390fd5b610c0c8282611cad565b5050565b7f000000000000000000000000000000000000000000000000000000000000000073ffffffffffffffffffffffffffffffffffffffff163073ffffffffffffffffffffffffffffffffffffffff1603610c9e576040517f08c379a0000000000000000000000000000000000000000000000000000000008152600401610c959061361c565b60405180910390fd5b7f000000000000000000000000000000000000000000000000000000000000000073ffffffffffffffffffffffffffffffffffffffff16610cdd611d89565b73ffffffffffffffffffffffffffffffffffffffff1614610d33576040517f08c379a0000000000000000000000000000000000000000000000000000000008152600401610d2a906136aa565b60405180910390fd5b610d3c81611ddc565b610d93815f67ffffffffffffffff811115610d5a57610d59613051565b5b6040519080825280601f01601f191660200182016040528015610d8c5781602001600182028036833780820191505090505b505f611de7565b50565b5f5f610da06113fe565b9050610dc1818585610db28589611291565b610dbc91906136f5565b611405565b600191505092915050565b6101c454610dd9816118c2565b610de1611f51565b50565b610dec611fb2565b610df68282611c9f565b5050565b610e0b610e056113fe565b82612030565b50565b7f000000000000000000000000000000000000000000000000000000000000000073ffffffffffffffffffffffffffffffffffffffff163073ffffffffffffffffffffffffffffffffffffffff1603610e9c576040517f08c379a0000000000000000000000000000000000000000000000000000000008152600401610e939061361c565b60405180910390fd5b7f000000000000000000000000000000000000000000000000000000000000000073ffffffffffffffffffffffffffffffffffffffff16610edb611d89565b73ffffffffffffffffffffffffffffffffffffffff1614610f31576040517f08c379a0000000000000000000000000000000000000000000000000000000008152600401610f28906136aa565b60405180910390fd5b610f3a82611ddc565b610f4682826001611de7565b5050565b5f7f000000000000000000000000000000000000000000000000000000000000000073ffffffffffffffffffffffffffffffffffffffff163073ffffffffffffffffffffffffffffffffffffffff1614610fd9576040517f08c379a0000000000000000000000000000000000000000000000000000000008152600401610fd090613798565b60405180910390fd5b7f360894a13ba1a3210667c828492db98dca3e2076cc3735a920a3ca505d382bbc5f1b905090565b5f61100a6121f5565b905090565b5f60985f9054906101000a900460ff16905090565b5f60335f8373ffffffffffffffffffffffffffffffffffffffff1673ffffffffffffffffffffffffffffffffffffffff1681526020019081526020015f20549050919050565b611072611fb2565b61107b5f611bda565b565b61108f826110896113fe565b836115c8565b6110998282612030565b5050565b6101c4546110aa816118c2565b6110b2612209565b50565b5f61012e5f9054906101000a900473ffffffffffffffffffffffffffffffffffffffff16905090565b5f6101925f8481526020019081526020015f205f015f8373ffffffffffffffffffffffffffffffffffffffff1673ffffffffffffffffffffffffffffffffffffffff1681526020019081526020015f205f9054906101000a900460ff16905092915050565b60606037805461115290613405565b80601f016020809104026020016040519081016040528092919081815260200182805461117e90613405565b80156111c95780601f106111a0576101008083540402835291602001916111c9565b820191905f5260205f20905b8154815290600101906020018083116111ac57829003601f168201915b5050505050905090565b5f5f1b81565b5f5f6111e36113fe565b90505f6111f08286611291565b905083811015611235576040517f08c379a000000000000000000000000000000000000000000000000000000000815260040161122c90613826565b60405180910390fd5b6112428286868403611405565b60019250505092915050565b5f5f6112586113fe565b9050611265818585611653565b600191505092915050565b61127982610915565b611282816118c2565b61128c8383611cad565b505050565b5f60345f8473ffffffffffffffffffffffffffffffffffffffff1673ffffffffffffffffffffffffffffffffffffffff1681526020019081526020015f205f8373ffffffffffffffffffffffffffffffffffffffff1673ffffffffffffffffffffffffffffffffffffffff1681526020019081526020015f2054905092915050565b61131b611fb2565b5f73ffffffffffffffffffffffffffffffffffffffff168173ffffffffffffffffffffffffffffffffffffffff1603611389576040517f08c379a0000000000000000000000000000000000000000000000000000000008152600401611380906138b4565b60405180910390fd5b61139281611bda565b50565b5f7f01ffc9a7000000000000000000000000000000000000000000000000000000007bffffffffffffffffffffffffffffffffffffffffffffffffffffffff1916827bffffffffffffffffffffffffffffffffffffffffffffffffffffffff1916149050919050565b5f33905090565b5f73ffffffffffffffffffffffffffffffffffffffff168373ffffffffffffffffffffffffffffffffffffffff1603611473576040517f08c379a000000000000000000000000000000000000000000000000000000000815260040161146a90613942565b60405180910390fd5b5f73ffffffffffffffffffffffffffffffffffffffff168273ffffffffffffffffffffffffffffffffffffffff16036114e1576040517f08c379a00000000000000000000000000000000000000000000000000000000081526004016114d8906139d0565b60405180910390fd5b8060345f8573ffffffffffffffffffffffffffffffffffffffff1673ffffffffffffffffffffffffffffffffffffffff1681526020019081526020015f205f8473ffffffffffffffffffffffffffffffffffffffff1673ffffffffffffffffffffffffffffffffffffffff1681526020019081526020015f20819055508173ffffffffffffffffffffffffffffffffffffffff168373ffffffffffffffffffffffffffffffffffffffff167f8c5be1e5ebec7d5bd14f71427d1e84f3dd0314c0f7b2291e5b200ac8c7c3b925836040516115bb9190612ee8565b60405180910390a3505050565b5f6115d38484611291565b90507fffffffffffffffffffffffffffffffffffffffffffffffffffffffffffffffff811461164d578181101561163f576040517f08c379a000000000000000000000000000000000000000000000000000000000815260040161163690613a38565b60405180910390fd5b61164c8484848403611405565b5b50505050565b5f73ffffffffffffffffffffffffffffffffffffffff168373ffffffffffffffffffffffffffffffffffffffff16036116c1576040517f08c379a00000000000000000000000000000000000000000000000000000000081526004016116b890613ac6565b60405180910390fd5b5f73ffffffffffffffffffffffffffffffffffffffff168273ffffffffffffffffffffffffffffffffffffffff160361172f576040517f08c379a000000000000000000000000000000000000000000000000000000000815260040161172690613b54565b60405180910390fd5b61173a83838361226b565b5f60335f8573ffffffffffffffffffffffffffffffffffffffff1673ffffffffffffffffffffffffffffffffffffffff1681526020019081526020015f20549050818110156117be576040517f08c379a00000000000000000000000000000000000000000000000000000000081526004016117b590613be2565b60405180910390fd5b81810360335f8673ffffffffffffffffffffffffffffffffffffffff1673ffffffffffffffffffffffffffffffffffffffff1681526020019081526020015f20819055508160335f8573ffffffffffffffffffffffffffffffffffffffff1673ffffffffffffffffffffffffffffffffffffffff1681526020019081526020015f205f82825401925050819055508273ffffffffffffffffffffffffffffffffffffffff168473ffffffffffffffffffffffffffffffffffffffff167fddf252ad1be2c89b69c2b068fc378daa952ba7f163c4a11628f55a4df523b3ef846040516118a99190612ee8565b60405180910390a36118bc84848461227b565b50505050565b6118d3816118ce6113fe565b612280565b50565b6118e082826110de565b6119ae5760016101925f8481526020019081526020015f205f015f8373ffffffffffffffffffffffffffffffffffffffff1673ffffffffffffffffffffffffffffffffffffffff1681526020019081526020015f205f6101000a81548160ff0219169083151502179055506119536113fe565b73ffffffffffffffffffffffffffffffffffffffff168173ffffffffffffffffffffffffffffffffffffffff16837f2f8788117e7eff1d82e926ec794901d17c78024a50270940304540a733656f0d60405160405180910390a45b5050565b5f5f8273ffffffffffffffffffffffffffffffffffffffff163b119050919050565b5f60019054906101000a900460ff16611a22576040517f08c379a0000000000000000000000000000000000000000000000000000000008152600401611a1990613c70565b60405180910390fd5b611a2c8282612304565b5050565b5f60019054906101000a900460ff16611a7e576040517f08c379a0000000000000000000000000000000000000000000000000000000008152600401611a7590613c70565b60405180910390fd5b611a8781612376565b50565b5f60019054906101000a900460ff16611ad8576040517f08c379a0000000000000000000000000000000000000000000000000000000008152600401611acf90613c70565b60405180910390fd5b611ae0612410565b565b5f60019054906101000a900460ff16611b30576040517f08c379a0000000000000000000000000000000000000000000000000000000008152600401611b2790613c70565b60405180910390fd5b565b5f60019054906101000a900460ff16611b80576040517f08c379a0000000000000000000000000000000000000000000000000000000008152600401611b7790613c70565b60405180910390fd5b611b88612479565b565b5f60019054906101000a900460ff16611bd8576040517f08c379a0000000000000000000000000000000000000000000000000000000008152600401611bcf90613c70565b60405180910390fd5b565b5f61012e5f9054906101000a900473ffffffffffffffffffffffffffffffffffffffff1690508161012e5f6101000a81548173ffffffffffffffffffffffffffffffffffffffff021916908373ffffffffffffffffffffffffffffffffffffffff1602179055508173ffffffffffffffffffffffffffffffffffffffff168173ffffffffffffffffffffffffffffffffffffffff167f8be0079c531659141344cd1fd0a4f28419497f9722a3daafe3b4186f6b6457e060405160405180910390a35050565b611ca982826124d9565b5050565b611cb782826110de565b15611d85575f6101925f8481526020019081526020015f205f015f8373ffffffffffffffffffffffffffffffffffffffff1673ffffffffffffffffffffffffffffffffffffffff1681526020019081526020015f205f6101000a81548160ff021916908315150217905550611d2a6113fe565b73ffffffffffffffffffffffffffffffffffffffff168173ffffffffffffffffffffffffffffffffffffffff16837ff6391f5c32d9c69d2a47ea670b442974b53935d1edc7fd64eb21e047a839171b60405160405180910390a45b5050565b5f611db57f360894a13ba1a3210667c828492db98dca3e2076cc3735a920a3ca505d382bbc5f1b612543565b5f015f9054906101000a900473ffffffffffffffffffffffffffffffffffffffff16905090565b611de4611fb2565b50565b611e127f4910fdfa16fed3260ed0e7147f7cc6da11a60208b5b9406d12a635614ffd91435f1b61254c565b5f015f9054906101000a900460ff1615611e3457611e2f83612555565b611f4c565b8273ffffffffffffffffffffffffffffffffffffffff166352d1902d6040518163ffffffff1660e01b8152600401602060405180830381865afa925050508015611e9c57506040513d601f19601f82011682018060405250810190611e999190613ca2565b60015b611edb576040517f08c379a0000000000000000000000000000000000000000000000000000000008152600401611ed290613d3d565b60405180910390fd5b7f360894a13ba1a3210667c828492db98dca3e2076cc3735a920a3ca505d382bbc5f1b8114611f3f576040517f08c379a0000000000000000000000000000000000000000000000000000000008152600401611f3690613dcb565b60405180910390fd5b50611f4b83838361260b565b5b505050565b611f59612636565b5f60985f6101000a81548160ff0219169083151502179055507f5db9ee0a495bf2e6ff9c91a7834c1ba4fdd244a5e8aa4e537bd38aeae4b073aa611f9b6113fe565b604051611fa89190613381565b60405180910390a1565b611fba6113fe565b73ffffffffffffffffffffffffffffffffffffffff16611fd86110b5565b73ffffffffffffffffffffffffffffffffffffffff161461202e576040517f08c379a000000000000000000000000000000000000000000000000000000000815260040161202590613e33565b60405180910390fd5b565b5f73ffffffffffffffffffffffffffffffffffffffff168273ffffffffffffffffffffffffffffffffffffffff160361209e576040517f08c379a000000000000000000000000000000000000000000000000000000000815260040161209590613ec1565b60405180910390fd5b6120a9825f8361226b565b5f60335f8473ffffffffffffffffffffffffffffffffffffffff1673ffffffffffffffffffffffffffffffffffffffff1681526020019081526020015f205490508181101561212d576040517f08c379a000000000000000000000000000000000000000000000000000000000815260040161212490613f4f565b60405180910390fd5b81810360335f8573ffffffffffffffffffffffffffffffffffffffff1673ffffffffffffffffffffffffffffffffffffffff1681526020019081526020015f20819055508160355f82825403925050819055505f73ffffffffffffffffffffffffffffffffffffffff168373ffffffffffffffffffffffffffffffffffffffff167fddf252ad1be2c89b69c2b068fc378daa952ba7f163c4a11628f55a4df523b3ef846040516121dd9190612ee8565b60405180910390a36121f0835f8461227b565b505050565b5f5f5f9054906101000a900460ff16905090565b61221161267f565b600160985f6101000a81548160ff0219169083151502179055507f62e78cea01bee320cd4e420270b5ea74000d11b0c9f74754ebdbfc544b05a2586122546113fe565b6040516122619190613381565b60405180910390a1565b6122768383836126c9565b505050565b505050565b61228a82826110de565b6123005761229781612721565b6122a4835f1c602061274e565b6040516020016122b592919061403b565b6040516020818303038152906040526040517f08c379a00000000000000000000000000000000000000000000000000000000081526004016122f79190612dee565b60405180910390fd5b5050565b5f60019054906101000a900460ff16612352576040517f08c379a000000000000000000000000000000000000000000000000000000000815260040161234990613c70565b60405180910390fd5b8160369081612361919061420b565b508060379081612371919061420b565b505050565b5f60019054906101000a900460ff166123c4576040517f08c379a00000000000000000000000000000000000000000000000000000000081526004016123bb90613c70565b60405180910390fd5b5f8111612406576040517f08c379a00000000000000000000000000000000000000000000000000000000081526004016123fd90614324565b60405180910390fd5b8060658190555050565b5f60019054906101000a900460ff1661245e576040517f08c379a000000000000000000000000000000000000000000000000000000000815260040161245590613c70565b60405180910390fd5b5f60985f6101000a81548160ff021916908315150217905550565b5f60019054906101000a900460ff166124c7576040517f08c379a00000000000000000000000000000000000000000000000000000000081526004016124be90613c70565b60405180910390fd5b6124d76124d26113fe565b611bda565b565b6124e1610b84565b816124ea6108de565b6124f491906136f5565b1115612535576040517f08c379a000000000000000000000000000000000000000000000000000000000815260040161252c9061438c565b60405180910390fd5b61253f8282612983565b5050565b5f819050919050565b5f819050919050565b61255e81612ad2565b61259d576040517f08c379a00000000000000000000000000000000000000000000000000000000081526004016125949061441a565b60405180910390fd5b806125c97f360894a13ba1a3210667c828492db98dca3e2076cc3735a920a3ca505d382bbc5f1b612543565b5f015f6101000a81548173ffffffffffffffffffffffffffffffffffffffff021916908373ffffffffffffffffffffffffffffffffffffffff16021790555050565b61261483612af4565b5f825111806126205750805b156126315761262f8383612b43565b505b505050565b61263e61100f565b61267d576040517f08c379a000000000000000000000000000000000000000000000000000000000815260040161267490614482565b60405180910390fd5b565b61268761100f565b156126c7576040517f08c379a00000000000000000000000000000000000000000000000000000000081526004016126be906144ea565b60405180910390fd5b565b6126d4838383612b70565b6126dc61100f565b1561271c576040517f08c379a000000000000000000000000000000000000000000000000000000000815260040161271390614578565b60405180910390fd5b505050565b60606127478273ffffffffffffffffffffffffffffffffffffffff16601460ff1661274e565b9050919050565b60605f60028360026127609190614596565b61276a91906136f5565b67ffffffffffffffff81111561278357612782613051565b5b6040519080825280601f01601f1916602001820160405280156127b55781602001600182028036833780820191505090505b5090507f3000000000000000000000000000000000000000000000000000000000000000815f815181106127ec576127eb6145d7565b5b60200101907effffffffffffffffffffffffffffffffffffffffffffffffffffffffffffff191690815f1a9053507f78000000000000000000000000000000000000000000000000000000000000008160018151811061284f5761284e6145d7565b5b60200101907effffffffffffffffffffffffffffffffffffffffffffffffffffffffffffff191690815f1a9053505f600184600261288d9190614596565b61289791906136f5565b90505b6001811115612936577f3031323334353637383961626364656600000000000000000000000000000000600f8616601081106128d9576128d86145d7565b5b1a60f81b8282815181106128f0576128ef6145d7565b5b60200101907effffffffffffffffffffffffffffffffffffffffffffffffffffffffffffff191690815f1a905350600485901c94508061292f90614604565b905061289a565b505f8414612979576040517f08c379a000000000000000000000000000000000000000000000000000000000815260040161297090614675565b60405180910390fd5b8091505092915050565b5f73ffffffffffffffffffffffffffffffffffffffff168273ffffffffffffffffffffffffffffffffffffffff16036129f1576040517f08c379a00000000000000000000000000000000000000000000000000000000081526004016129e8906146dd565b60405180910390fd5b6129fc5f838361226b565b8060355f828254612a0d91906136f5565b925050819055508060335f8473ffffffffffffffffffffffffffffffffffffffff1673ffffffffffffffffffffffffffffffffffffffff1681526020019081526020015f205f82825401925050819055508173ffffffffffffffffffffffffffffffffffffffff165f73ffffffffffffffffffffffffffffffffffffffff167fddf252ad1be2c89b69c2b068fc378daa952ba7f163c4a11628f55a4df523b3ef83604051612abb9190612ee8565b60405180910390a3612ace5f838361227b565b5050565b5f5f8273ffffffffffffffffffffffffffffffffffffffff163b119050919050565b612afd81612555565b8073ffffffffffffffffffffffffffffffffffffffff167fbc7cd75a20ee27fd9adebab32041f755214dbc6bffa90cc0225b39da2e5c2d3b60405160405180910390a250565b6060612b6883836040518060600160405280602781526020016147be60279139612b75565b905092915050565b505050565b60605f5f8573ffffffffffffffffffffffffffffffffffffffff1685604051612b9e919061473f565b5f60405180830381855af49150503d805f8114612bd6576040519150601f19603f3d011682016040523d82523d5f602084013e612bdb565b606091505b5091509150612bec86838387612bf7565b925050509392505050565b60608315612c58575f835103612c5057612c1085612ad2565b612c4f576040517f08c379a0000000000000000000000000000000000000000000000000000000008152600401612c469061479f565b60405180910390fd5b5b829050612c63565b612c628383612c6b565b5b949350505050565b5f82511115612c7d5781518083602001fd5b806040517f08c379a0000000000000000000000000000000000000000000000000000000008152600401612cb19190612dee565b60405180910390fd5b5f604051905090565b5f5ffd5b5f5ffd5b5f7fffffffff0000000000000000000000000000000000000000000000000000000082169050919050565b612cff81612ccb565b8114612d09575f5ffd5b50565b5f81359050612d1a81612cf6565b92915050565b5f60208284031215612d3557612d34612cc3565b5b5f612d4284828501612d0c565b91505092915050565b5f8115159050919050565b612d5f81612d4b565b82525050565b5f602082019050612d785f830184612d56565b92915050565b5f81519050919050565b5f82825260208201905092915050565b8281835e5f83830152505050565b5f601f19601f8301169050919050565b5f612dc082612d7e565b612dca8185612d88565b9350612dda818560208601612d98565b612de381612da6565b840191505092915050565b5f6020820190508181035f830152612e068184612db6565b905092915050565b5f73ffffffffffffffffffffffffffffffffffffffff82169050919050565b5f612e3782612e0e565b9050919050565b612e4781612e2d565b8114612e51575f5ffd5b50565b5f81359050612e6281612e3e565b92915050565b5f819050919050565b612e7a81612e68565b8114612e84575f5ffd5b50565b5f81359050612e9581612e71565b92915050565b5f5f60408385031215612eb157612eb0612cc3565b5b5f612ebe85828601612e54565b9250506020612ecf85828601612e87565b9150509250929050565b612ee281612e68565b82525050565b5f602082019050612efb5f830184612ed9565b92915050565b5f5f5f60608486031215612f1857612f17612cc3565b5b5f612f2586828701612e54565b9350506020612f3686828701612e54565b9250506040612f4786828701612e87565b9150509250925092565b5f819050919050565b612f6381612f51565b8114612f6d575f5ffd5b50565b5f81359050612f7e81612f5a565b92915050565b5f60208284031215612f9957612f98612cc3565b5b5f612fa684828501612f70565b91505092915050565b612fb881612f51565b82525050565b5f602082019050612fd15f830184612faf565b92915050565b5f5f60408385031215612fed57612fec612cc3565b5b5f612ffa85828601612f70565b925050602061300b85828601612e54565b9150509250929050565b5f60ff82169050919050565b61302a81613015565b82525050565b5f6020820190506130435f830184613021565b92915050565b5f5ffd5b5f5ffd5b7f4e487b71000000000000000000000000000000000000000000000000000000005f52604160045260245ffd5b61308782612da6565b810181811067ffffffffffffffff821117156130a6576130a5613051565b5b80604052505050565b5f6130b8612cba565b90506130c4828261307e565b919050565b5f67ffffffffffffffff8211156130e3576130e2613051565b5b6130ec82612da6565b9050602081019050919050565b828183375f83830152505050565b5f613119613114846130c9565b6130af565b9050828152602081018484840111156131355761313461304d565b5b6131408482856130f9565b509392505050565b5f82601f83011261315c5761315b613049565b5b813561316c848260208601613107565b91505092915050565b5f5f5f5f5f60a0868803121561318e5761318d612cc3565b5b5f86013567ffffffffffffffff8111156131ab576131aa612cc7565b5b6131b788828901613148565b955050602086013567ffffffffffffffff8111156131d8576131d7612cc7565b5b6131e488828901613148565b94505060406131f588828901612e87565b935050606061320688828901612e87565b925050608061321788828901612e54565b9150509295509295909350565b5f6020828403121561323957613238612cc3565b5b5f61324684828501612e54565b91505092915050565b5f6020828403121561326457613263612cc3565b5b5f61327184828501612e87565b91505092915050565b5f67ffffffffffffffff82111561329457613293613051565b5b61329d82612da6565b9050602081019050919050565b5f6132bc6132b78461327a565b6130af565b9050828152602081018484840111156132d8576132d761304d565b5b6132e38482856130f9565b509392505050565b5f82601f8301126132ff576132fe613049565b5b813561330f8482602086016132aa565b91505092915050565b5f5f6040838503121561332e5761332d612cc3565b5b5f61333b85828601612e54565b925050602083013567ffffffffffffffff81111561335c5761335b612cc7565b5b613368858286016132eb565b9150509250929050565b61337b81612e2d565b82525050565b5f6020820190506133945f830184613372565b92915050565b5f5f604083850312156133b0576133af612cc3565b5b5f6133bd85828601612e54565b92505060206133ce85828601612e54565b9150509250929050565b7f4e487b71000000000000000000000000000000000000000000000000000000005f52602260045260245ffd5b5f600282049050600182168061341c57607f821691505b60208210810361342f5761342e6133d8565b5b50919050565b7f496e697469616c697a61626c653a20636f6e747261637420697320616c7265615f8201527f647920696e697469616c697a6564000000000000000000000000000000000000602082015250565b5f61348f602e83612d88565b915061349a82613435565b604082019050919050565b5f6020820190508181035f8301526134bc81613483565b9050919050565b5f819050919050565b5f819050919050565b5f6134ef6134ea6134e5846134c3565b6134cc565b613015565b9050919050565b6134ff816134d5565b82525050565b5f6020820190506135185f8301846134f6565b92915050565b7f416363657373436f6e74726f6c3a2063616e206f6e6c792072656e6f756e63655f8201527f20726f6c657320666f722073656c660000000000000000000000000000000000602082015250565b5f613578602f83612d88565b91506135838261351e565b604082019050919050565b5f6020820190508181035f8301526135a58161356c565b9050919050565b7f46756e6374696f6e206d7573742062652063616c6c6564207468726f756768205f8201527f64656c656761746563616c6c0000000000000000000000000000000000000000602082015250565b5f613606602c83612d88565b9150613611826135ac565b604082019050919050565b5f6020820190508181035f830152613633816135fa565b9050919050565b7f46756e6374696f6e206d7573742062652063616c6c6564207468726f756768205f8201527f6163746976652070726f78790000000000000000000000000000000000000000602082015250565b5f613694602c83612d88565b915061369f8261363a565b604082019050919050565b5f6020820190508181035f8301526136c181613688565b9050919050565b7f4e487b71000000000000000000000000000000000000000000000000000000005f52601160045260245ffd5b5f6136ff82612e68565b915061370a83612e68565b9250828201905080821115613722576137216136c8565b5b92915050565b7f555550535570677261646561626c653a206d757374206e6f742062652063616c5f8201527f6c6564207468726f7567682064656c656761746563616c6c0000000000000000602082015250565b5f613782603883612d88565b915061378d82613728565b604082019050919050565b5f6020820190508181035f8301526137af81613776565b9050919050565b7f45524332303a2064656372656173656420616c6c6f77616e63652062656c6f775f8201527f207a65726f000000000000000000000000000000000000000000000000000000602082015250565b5f613810602583612d88565b915061381b826137b6565b604082019050919050565b5f6020820190508181035f83015261383d81613804565b9050919050565b7f4f776e61626c653a206e6577206f776e657220697320746865207a65726f20615f8201527f6464726573730000000000000000000000000000000000000000000000000000602082015250565b5f61389e602683612d88565b91506138a982613844565b604082019050919050565b5f6020820190508181035f8301526138cb81613892565b9050919050565b7f45524332303a20617070726f76652066726f6d20746865207a65726f206164645f8201527f7265737300000000000000000000000000000000000000000000000000000000602082015250565b5f61392c602483612d88565b9150613937826138d2565b604082019050919050565b5f6020820190508181035f83015261395981613920565b9050919050565b7f45524332303a20617070726f766520746f20746865207a65726f2061646472655f8201527f7373000000000000000000000000000000000000000000000000000000000000602082015250565b5f6139ba602283612d88565b91506139c582613960565b604082019050919050565b5f6020820190508181035f8301526139e7816139ae565b9050919050565b7f45524332303a20696e73756666696369656e7420616c6c6f77616e63650000005f82015250565b5f613a22601d83612d88565b9150613a2d826139ee565b602082019050919050565b5f6020820190508181035f830152613a4f81613a16565b9050919050565b7f45524332303a207472616e736665722066726f6d20746865207a65726f2061645f8201527f6472657373000000000000000000000000000000000000000000000000000000602082015250565b5f613ab0602583612d88565b9150613abb82613a56565b604082019050919050565b5f6020820190508181035f830152613add81613aa4565b9050919050565b7f45524332303a207472616e7366657220746f20746865207a65726f20616464725f8201527f6573730000000000000000000000000000000000000000000000000000000000602082015250565b5f613b3e602383612d88565b9150613b4982613ae4565b604082019050919050565b5f6020820190508181035f830152613b6b81613b32565b9050919050565b7f45524332303a207472616e7366657220616d6f756e74206578636565647320625f8201527f616c616e63650000000000000000000000000000000000000000000000000000602082015250565b5f613bcc602683612d88565b9150613bd782613b72565b604082019050919050565b5f6020820190508181035f830152613bf981613bc0565b9050919050565b7f496e697469616c697a61626c653a20636f6e7472616374206973206e6f7420695f8201527f6e697469616c697a696e67000000000000000000000000000000000000000000602082015250565b5f613c5a602b83612d88565b9150613c6582613c00565b604082019050919050565b5f6020820190508181035f830152613c8781613c4e565b9050919050565b5f81519050613c9c81612f5a565b92915050565b5f60208284031215613cb757613cb6612cc3565b5b5f613cc484828501613c8e565b91505092915050565b7f45524331393637557067726164653a206e657720696d706c656d656e746174695f8201527f6f6e206973206e6f742055555053000000000000000000000000000000000000602082015250565b5f613d27602e83612d88565b9150613d3282613ccd565b604082019050919050565b5f6020820190508181035f830152613d5481613d1b565b9050919050565b7f45524331393637557067726164653a20756e737570706f727465642070726f785f8201527f6961626c65555549440000000000000000000000000000000000000000000000602082015250565b5f613db5602983612d88565b9150613dc082613d5b565b604082019050919050565b5f6020820190508181035f830152613de281613da9565b9050919050565b7f4f776e61626c653a2063616c6c6572206973206e6f7420746865206f776e65725f82015250565b5f613e1d602083612d88565b9150613e2882613de9565b602082019050919050565b5f6020820190508181035f830152613e4a81613e11565b9050919050565b7f45524332303a206275726e2066726f6d20746865207a65726f206164647265735f8201527f7300000000000000000000000000000000000000000000000000000000000000602082015250565b5f613eab602183612d88565b9150613eb682613e51565b604082019050919050565b5f6020820190508181035f830152613ed881613e9f565b9050919050565b7f45524332303a206275726e20616d6f756e7420657863656564732062616c616e5f8201527f6365000000000000000000000000000000000000000000000000000000000000602082015250565b5f613f39602283612d88565b9150613f4482613edf565b604082019050919050565b5f6020820190508181035f830152613f6681613f2d565b9050919050565b5f81905092915050565b7f416363657373436f6e74726f6c3a206163636f756e74200000000000000000005f82015250565b5f613fab601783613f6d565b9150613fb682613f77565b601782019050919050565b5f613fcb82612d7e565b613fd58185613f6d565b9350613fe5818560208601612d98565b80840191505092915050565b7f206973206d697373696e6720726f6c65200000000000000000000000000000005f82015250565b5f614025601183613f6d565b915061403082613ff1565b601182019050919050565b5f61404582613f9f565b91506140518285613fc1565b915061405c82614019565b91506140688284613fc1565b91508190509392505050565b5f819050815f5260205f209050919050565b5f6020601f8301049050919050565b5f82821b905092915050565b5f600883026140d07fffffffffffffffffffffffffffffffffffffffffffffffffffffffffffffffff82614095565b6140da8683614095565b95508019841693508086168417925050509392505050565b5f61410c61410761410284612e68565b6134cc565b612e68565b9050919050565b5f819050919050565b614125836140f2565b61413961413182614113565b8484546140a1565b825550505050565b5f5f905090565b614150614141565b61415b81848461411c565b505050565b5b8181101561417e576141735f82614148565b600181019050614161565b5050565b601f8211156141c35761419481614074565b61419d84614086565b810160208510156141ac578190505b6141c06141b885614086565b830182614160565b50505b505050565b5f82821c905092915050565b5f6141e35f19846008026141c8565b1980831691505092915050565b5f6141fb83836141d4565b9150826002028217905092915050565b61421482612d7e565b67ffffffffffffffff81111561422d5761422c613051565b5b6142378254613405565b614242828285614182565b5f60209050601f831160018114614273575f8415614261578287015190505b61426b85826141f0565b8655506142d2565b601f19841661428186614074565b5f5b828110156142a857848901518255600182019150602085019450602081019050614283565b868310156142c557848901516142c1601f8916826141d4565b8355505b6001600288020188555050505b505050505050565b7f45524332304361707065643a20636170206973203000000000000000000000005f82015250565b5f61430e601583612d88565b9150614319826142da565b602082019050919050565b5f6020820190508181035f83015261433b81614302565b9050919050565b7f45524332304361707065643a20636170206578636565646564000000000000005f82015250565b5f614376601983612d88565b915061438182614342565b602082019050919050565b5f6020820190508181035f8301526143a38161436a565b9050919050565b7f455243313936373a206e657720696d706c656d656e746174696f6e206973206e5f8201527f6f74206120636f6e747261637400000000000000000000000000000000000000602082015250565b5f614404602d83612d88565b915061440f826143aa565b604082019050919050565b5f6020820190508181035f830152614431816143f8565b9050919050565b7f5061757361626c653a206e6f74207061757365640000000000000000000000005f82015250565b5f61446c601483612d88565b915061447782614438565b602082019050919050565b5f6020820190508181035f83015261449981614460565b9050919050565b7f5061757361626c653a20706175736564000000000000000000000000000000005f82015250565b5f6144d4601083612d88565b91506144df826144a0565b602082019050919050565b5f6020820190508181035f830152614501816144c8565b9050919050565b7f45524332305061757361626c653a20746f6b656e207472616e736665722077685f8201527f696c652070617573656400000000000000000000000000000000000000000000602082015250565b5f614562602a83612d88565b915061456d82614508565b604082019050919050565b5f6020820190508181035f83015261458f81614556565b9050919050565b5f6145a082612e68565b91506145ab83612e68565b92508282026145b981612e68565b915082820484148315176145d0576145cf6136c8565b5b5092915050565b7f4e487b71000000000000000000000000000000000000000000000000000000005f52603260045260245ffd5b5f61460e82612e68565b91505f82036146205761461f6136c8565b5b600182039050919050565b7f537472696e67733a20686578206c656e67746820696e73756666696369656e745f82015250565b5f61465f602083612d88565b915061466a8261462b565b602082019050919050565b5f6020820190508181035f83015261468c81614653565b9050919050565b7f45524332303a206d696e7420746f20746865207a65726f2061646472657373005f82015250565b5f6146c7601f83612d88565b91506146d282614693565b602082019050919050565b5f6020820190508181035f8301526146f4816146bb565b9050919050565b5f81519050919050565b5f81905092915050565b5f614719826146fb565b6147238185614705565b9350614733818560208601612d98565b80840191505092915050565b5f61474a828461470f565b915081905092915050565b7f416464726573733a2063616c6c20746f206e6f6e2d636f6e74726163740000005f82015250565b5f614789601d83612d88565b915061479482614755565b602082019050919050565b5f6020820190508181035f8301526147b68161477d565b905091905056fe416464726573733a206c6f772d6c6576656c2064656c65676174652063616c6c206661696c6564a26469706673582212205dc50804d171aaa46a6ef898cab1935a822a907e18a9dd64b6633f222cb36f8464736f6c634300081e0033","linkReferences":{}},"methodIdentifiers":{"DEFAULT_ADMIN_ROLE()":"a217fddf","allowance(address,address)":"dd62ed3e","approve(address,uint256)":"095ea7b3","balanceOf(address)":"70a08231","burn(uint256)":"42966c68","burnFrom(address,uint256)":"79cc6790","cap()":"355274ea","decimals()":"313ce567","decreaseAllowance(address,uint256)":"a457c2d7","getRoleAdmin(bytes32)":"248a9ca3","grantRole(bytes32,address)":"2f2ff15d","hasRole(bytes32,address)":"91d14854","increaseAllowance(address,uint256)":"39509351","initialize(string,string,uint256,uint256,address)":"33eea181","mint(address,uint256)":"40c10f19","name()":"06fdde03","owner()":"8da5cb5b","pause()":"8456cb59","paused()":"5c975abb","proxiableUUID()":"52d1902d","renounceOwnership()":"715018a6","renounceRole(bytes32,address)":"36568abe","revokeRole(bytes32,address)":"d547741f","supportsInterface(bytes4)":"01ffc9a7","symbol()":"95d89b41","totalSupply()":"18160ddd","transfer(address,uint256)":"a9059cbb","transferFrom(address,address,uint256)":"23b872dd","transferOwnership(address)":"f2fde38b","unpause()":"3f4ba83a","upgradeTo(address)":"3659cfe6","upgradeToAndCall(address,bytes)":"4f1ef286","version()":"54fd4d50"},"id":49}