{"abi":[{"type":"constructor","inputs":[],"stateMutability":"nonpayable"},{"type":"function","name":"DEFAULT_ADMIN_ROLE","inputs":[],"outputs":[{"name":"","type":"bytes32","internalType":"bytes32"}],"stateMutability":"view"},{"type":"function","name":"allowance","inputs":[{"name":"owner","type":"address","internalType":"address"},{"name":"spender","type":"address","internalType":"address"}],"outputs":[{"name":"","type":"uint256","internalType":"uint256"}],"stateMutability":"view"},{"type":"function","name":"approve","inputs":[{"name":"spender","type":"address","internalType":"address"},{"name":"amount","type":"uint256","internalType":"uint256"}],"outputs":[{"name":"","type":"bool","internalType":"bool"}],"stateMutability":"nonpayable"},{"type":"function","name":"balanceOf","inputs":[{"name":"account","type":"address","internalType":"address"}],"outputs":[{"name":"","type":"uint256","internalType":"uint256"}],"stateMutability":"view"},{"type":"function","name":"burn","inputs":[{"name":"amount","type":"uint256","internalType":"uint256"}],"outputs":[],"stateMutability":"nonpayable"},{"type":"function","name":"burnFrom","inputs":[{"name":"account","type":"address","internalType":"address"},{"name":"amount","type":"uint256","internalType":"uint256"}],"outputs":[],"stateMutability":"nonpayable"},{"type":"function","name":"cap","inputs":[],"outputs":[{"name":"","type":"uint256","internalType":"uint256"}],"stateMutability":"view"},{"type":"function","name":"decimals","inputs":[],"outputs":[{"name":"","type":"uint8","internalType":"uint8"}],"stateMutability":"view"},{"type":"function","name":"decreaseAllowance","inputs":[{"name":"spender","type":"address","internalType":"address"},{"name":"subtractedValue","type":"uint256","internalType":"uint256"}],"outputs":[{"name":"","type":"bool","internalType":"bool"}],"stateMutability":"nonpayable"},{"type":"function","name":"getRoleAdmin","inputs":[{"name":"role","type":"bytes32","internalType":"bytes32"}],"outputs":[{"name":"","type":"bytes32","internalType":"bytes32"}],"stateMutability":"view"},{"type":"function","name":"grantRole","inputs":[{"name":"role","type":"bytes32","internalType":"bytes32"},{"name":"account","type":"address","internalType":"address"}],"outputs":[],"stateMutability":"nonpayable"},{"type":"function","name":"hasRole","inputs":[{"name":"role","type":"bytes32","internalType":"bytes32"},{"name":"account","type":"address","internalType":"address"}],"outputs":[{"name":"","type":"bool","internalType":"bool"}],"stateMutability":"view"},{"type":"function","name":"increaseAllowance","inputs":[{"name":"spender","type":"address","internalType":"address"},{"name":"addedValue","type":"uint256","internalType":"uint256"}],"outputs":[{"name":"","type":"bool","internalType":"bool"}],"stateMutability":"nonpayable"},{"type":"function","name":"initialize","inputs":[{"name":"name_","type":"string","internalType":"string"},{"name":"symbol_","type":"string","internalType":"string"},{"name":"cap_","type":"uint256","internalType":"uint256"},{"name":"initialSupply_","type":"uint256","internalType":"uint256"},{"name":"initialOwner_","type":"address","internalType":"address"}],"outputs":[],"stateMutability":"nonpayable"},{"type":"function","name":"mint","inputs":[{"name":"account","type":"address","internalType":"address"},{"name":"amount","type":"uint256","internalType":"uint256"}],"outputs":[],"stateMutability":"nonpayable"},{"type":"function","name":"name","inputs":[],"outputs":[{"name":"","type":"string","internalType":"string"}],"stateMutability":"view"},{"type":"function","name":"owner","inputs":[],"outputs":[{"name":"","type":"address","internalType":"address"}],"stateMutability":"view"},{"type":"function","name":"pause","inputs":[],"outputs":[],"stateMutability":"nonpayable"},{"type":"function","name":"paused","inputs":[],"outputs":[{"name":"","type":"bool","internalType":"bool"}],"stateMutability":"view"},{"type":"function","name":"proxiableUUID","inputs":[],"outputs":[{"name":"","type":"bytes32","internalType":"bytes32"}],"stateMutability":"view"},{"type":"function","name":"renounceOwnership","inputs":[],"outputs":[],"stateMutability":"nonpayable"},{"type":"function","name":"renounceRole","inputs":[{"name":"role","type":"bytes32","internalType":"bytes32"},{"name":"account","type":"address","internalType":"address"}],"outputs":[],"stateMutability":"nonpayable"},{"type":"function","name":"revokeRole","inputs":[{"name":"role","type":"bytes32","internalType":"bytes32"},{"name":"account","type":"address","internalType":"address"}],"outputs":[],"stateMutability":"nonpayable"},{"type":"function","name":"supportsInterface","inputs":[{"name":"interfaceId","type":"bytes4","internalType":"bytes4"}],"outputs":[{"name":"","type":"bool","internalType":"bool"}],"stateMutability":"view"},{"type":"function","name":"symbol","inputs":[],"outputs":[{"name":"","type":"string","internalType":"string"}],"stateMutability":"view"},{"type":"function","name":"totalSupply","inputs":[],"outputs":[{"name":"","type":"uint256","internalType":"uint256"}],"stateMutability":"view"},{"type":"function","name":"transfer","inputs":[{"name":"to","type":"address","internalType":"address"},{"name":"amount","type":"uint256","internalType":"uint256"}],"outputs":[{"name":"","type":"bool","internalType":"bool"}],"stateMutability":"nonpayable"},{"type":"function","name":"transferFrom","inputs":[{"name":"from","type":"address","internalType":"address"},{"name":"to","type":"address","internalType":"address"},{"name":"amount","type":"uint256","internalType":"uint256"}],"outputs":[{"name":"","type":"bool","internalType":"bool"}],"stateMutability":"nonpayable"},{"type":"function","name":"transferOwnership","inputs":[{"name":"newOwner","type":"address","internalType":"address"}],"outputs":[],"stateMutability":"nonpayable"},{"type":"function","name":"unpause","inputs":[],"outputs":[],"stateMutability":"nonpayable"},{"type":"function","name":"upgradeTo","inputs":[{"name":"newImplementation","type":"address","internalType":"address"}],"outputs":[],"stateMutability":"nonpayable"},{"type":"function","name":"upgradeToAndCall","inputs":[{"name":"newImplementation","type":"address","internalType":"address"},{"name":"data","type":"bytes","internalType":"bytes"}],"outputs":[],"stateMutability":"payable"},{"type":"function","name":"version","inputs":[],"outputs":[{"name":"","type":"uint8","internalType":"uint8"}],"stateMutability":"view"},{"type":"event","name":"AdminChanged","inputs":[{"name":"previousAdmin","type":"address","indexed":false,"internalType":"address"},{"name":"newAdmin","type":"address","indexed":false,"internalType":"address"}],"anonymous":false},{"type":"event","name":"Approval","inputs":[{"name":"owner","type":"address","indexed":true,"internalType":"address"},{"name":"spender","type":"address","indexed":true,"internalType":"address"},{"name":"value","type":"uint256","indexed":false,"internalType":"uint256"}],"anonymous":false},{"type":"event","name":"BeaconUpgraded","inputs":[{"name":"beacon","type":"address","indexed":true,"internalType":"address"}],"anonymous":false},{"type":"event","name":"Initialized","inputs":[{"name":"version","type":"uint8","indexed":false,"internalType":"uint8"}],"anonymous":false},{"type":"event","name":"OwnershipTransferred","inputs":[{"name":"previousOwner","type":"address","indexed":true,"internalType":"address"},{"name":"newOwner","type":"address","indexed":true,"internalType":"address"}],"anonymous":false},{"type":"event","name":"Paused","inputs":[{"name":"account","type":"address","indexed":false,"internalType":"address"}],"anonymous":false},{"type":"event","name":"RoleAdminChanged","inputs":[{"name":"role","type":"bytes32","indexed":true,"internalType":"bytes32"},{"name":"previousAdminRole","type":"bytes32","indexed":true,"internalType":"bytes32"},{"name":"newAdminRole","type":"bytes32","indexed":true,"internalType":"bytes32"}],"anonymous":false},{"type":"event","name":"RoleGranted","inputs":[{"name":"role","type":"bytes32","indexed":true,"internalType":"bytes32"},{"name":"account","type":"address","indexed":true,"internalType":"address"},{"name":"sender","type":"address","indexed":true,"internalType":"address"}],"anonymous":false},{"type":"event","name":"RoleRevoked","inputs":[{"name":"role","type":"bytes32","indexed":true,"internalType":"bytes32"},{"name":"account","type":"address","indexed":true,"internalType":"address"},{"name":"sender","type":"address","indexed":true,"internalType":"address"}],"anonymous":false},{"type":"event","name":"Transfer","inputs":[{"name":"from","type":"address","indexed":true,"internalType":"address"},{"name":"to","type":"address","indexed":true,"internalType":"address"},{"name":"value","type":"uint256","indexed":false,"internalType":"uint256"}],"anonymous":false},{"type":"event","name":"Unpaused","inputs":[{"name":"account","type":"address","indexed":false,"internalType":"address"}],"anonymous":false},{"type":"event","name":"Upgraded","inputs":[{"name":"implementation","type":"address","indexed":true,"internalType":"address"}],"anonymous":false},{"type":"error","name":"InitialOwnerIsZero","inputs":[]},{"type":"error","name":"InitialSupplyExceedsCap","inputs":[]}],"bytecode":{"object":"0x60a06040523073ffffffffffffffffffffffffffffffffffffffff1660809073ffffffffffffffffffffffffffffffffffffffff16815250348015610042575f5ffd5b5061005161005660201b60201c565b6101e6565b5f60019054906101000a900460ff16156100a5576040517f08c379a000000000000000000000000000000000000000000000000000000000815260040161009c90610194565b60405180910390fd5b60ff80165f5f9054906101000a900460ff1660ff16146101125760ff5f5f6101000a81548160ff021916908360ff1602179055507f7f26b83ff96e1f2b6a682f133852f6798a09c465da95921460cefb384740249860ff60405161010991906101cd565b60405180910390a15b565b5f82825260208201905092915050565b7f496e697469616c697a61626c653a20636f6e747261637420697320696e6974695f8201527f616c697a696e6700000000000000000000000000000000000000000000000000602082015250565b5f61017e602783610114565b915061018982610124565b604082019050919050565b5f6020820190508181035f8301526101ab81610172565b9050919050565b5f60ff82169050919050565b6101c7816101b2565b82525050565b5f6020820190506101e05f8301846101be565b92915050565b60805161492061021a5f395f8181610c9001528181610d1e01528181610ece01528181610f5c015261100b01526149205ff3fe6080604052600436106101ed575f3560e01c80634f1ef2861161010c5780638da5cb5b1161009f578063a457c2d71161006e578063a457c2d7146106af578063a9059cbb146106eb578063d547741f14610727578063dd62ed3e1461074f578063f2fde38b1461078b576101ed565b80638da5cb5b146105f557806391d148541461061f57806395d89b411461065b578063a217fddf14610685576101ed565b806370a08231116100db57806370a0823114610565578063715018a6146105a157806379cc6790146105b75780638456cb59146105df576101ed565b80634f1ef286146104cb57806352d1902d146104e757806354fd4d50146105115780635c975abb1461053b576101ed565b806333eea18111610184578063395093511161015357806339509351146104295780633f4ba83a1461046557806340c10f191461047b57806342966c68146104a3576101ed565b806333eea18114610387578063355274ea146103af57806336568abe146103d95780633659cfe614610401576101ed565b806323b872dd116101c057806323b872dd146102bd578063248a9ca3146102f95780632f2ff15d14610335578063313ce5671461035d576101ed565b806301ffc9a7146101f157806306fdde031461022d578063095ea7b31461025757806318160ddd14610293575b5f5ffd5b3480156101fc575f5ffd5b5061021760048036038101906102129190612e26565b6107b3565b6040516102249190612e6b565b60405180910390f35b348015610238575f5ffd5b5061024161082c565b60405161024e9190612ef4565b60405180910390f35b348015610262575f5ffd5b5061027d60048036038101906102789190612fa1565b6108bc565b60405161028a9190612e6b565b60405180910390f35b34801561029e575f5ffd5b506102a76108de565b6040516102b49190612fee565b60405180910390f35b3480156102c8575f5ffd5b506102e360048036038101906102de9190613007565b6108e7565b6040516102f09190612e6b565b60405180910390f35b348015610304575f5ffd5b5061031f600480360381019061031a919061308a565b610915565b60405161032c91906130c4565b60405180910390f35b348015610340575f5ffd5b5061035b600480360381019061035691906130dd565b610933565b005b348015610368575f5ffd5b50610371610954565b60405161037e9190613136565b60405180910390f35b348015610392575f5ffd5b506103ad60048036038101906103a8919061327b565b61095c565b005b3480156103ba575f5ffd5b506103c3610c02565b6040516103d09190612fee565b60405180910390f35b3480156103e4575f5ffd5b506103ff60048036038101906103fa91906130dd565b610c0b565b005b34801561040c575f5ffd5b506104276004803603810190610422919061332a565b610c8e565b005b348015610434575f5ffd5b5061044f600480360381019061044a9190612fa1565b610e14565b60405161045c9190612e6b565b60405180910390f35b348015610470575f5ffd5b50610479610e4a565b005b348015610486575f5ffd5b506104a1600480360381019061049c9190612fa1565b610e7f565b005b3480156104ae575f5ffd5b506104c960048036038101906104c49190613355565b610eb8565b005b6104e560048036038101906104e0919061341e565b610ecc565b005b3480156104f2575f5ffd5b506104fb611008565b60405161050891906130c4565b60405180910390f35b34801561051c575f5ffd5b506105256110bf565b6040516105329190613136565b60405180910390f35b348015610546575f5ffd5b5061054f6110cd565b60405161055c9190612e6b565b60405180910390f35b348015610570575f5ffd5b5061058b6004803603810190610586919061332a565b6110e2565b6040516105989190612fee565b60405180910390f35b3480156105ac575f5ffd5b506105b5611128565b005b3480156105c2575f5ffd5b506105dd60048036038101906105d89190612fa1565b61113b565b005b3480156105ea575f5ffd5b506105f361115b565b005b348015610600575f5ffd5b50610609611190565b6040516106169190613487565b60405180910390f35b34801561062a575f5ffd5b50610645600480360381019061064091906130dd565b6111b9565b6040516106529190612e6b565b60405180910390f35b348015610666575f5ffd5b5061066f61121e565b60405161067c9190612ef4565b60405180910390f35b348015610690575f5ffd5b506106996112ae565b6040516106a691906130c4565b60405180910390f35b3480156106ba575f5ffd5b506106d560048036038101906106d09190612fa1565b6112b4565b6040516106e29190612e6b565b60405180910390f35b3480156106f6575f5ffd5b50610711600480360381019061070c9190612fa1565b611329565b60405161071e9190612e6b565b60405180910390f35b348015610732575f5ffd5b5061074d600480360381019061074891906130dd565b61134b565b005b34801561075a575f5ffd5b50610775600480360381019061077091906134a0565b61136c565b6040516107829190612fee565b60405180910390f35b348015610796575f5ffd5b506107b160048036038101906107ac919061332a565b6113ee565b005b5f7f7965db0b000000000000000000000000000000000000000000000000000000007bffffffffffffffffffffffffffffffffffffffffffffffffffffffff1916827bffffffffffffffffffffffffffffffffffffffffffffffffffffffff19161480610825575061082482611470565b5b9050919050565b60606036805461083b9061350b565b80601f01602080910402602001604051908101604052809291908181526020018280546108679061350b565b80156108b25780601f10610889576101008083540402835291602001916108b2565b820191905f5260205f20905b81548152906001019060200180831161089557829003601f168201915b5050505050905090565b5f5f6108c66114d9565b90506108d38185856114e0565b600191505092915050565b5f603554905090565b5f5f6108f16114d9565b90506108fe8582856116a3565b61090985858561172e565b60019150509392505050565b5f6101925f8381526020019081526020015f20600101549050919050565b61093c82610915565b6109458161199d565b61094f83836119b1565b505050565b5f6012905090565b5f5f60019054906101000a900460ff1615905080801561098c575060015f5f9054906101000a900460ff1660ff16105b806109b9575061099b30611a8d565b1580156109b8575060015f5f9054906101000a900460ff1660ff16145b5b6109f8576040517f08c379a00000000000000000000000000000000000000000000000000000000081526004016109ef906135ab565b60405180910390fd5b60015f5f6101000a81548160ff021916908360ff1602179055508015610a335760015f60016101000a81548160ff0219169083151502179055505b5f73ffffffffffffffffffffffffffffffffffffffff168273ffffffffffffffffffffffffffffffffffffffff1603610a98576040517fc468f5b700000000000000000000000000000000000000000000000000000000815260040160405180910390fd5b83831115610ad2576040517f0375754700000000000000000000000000000000000000000000000000000000815260040160405180910390fd5b610adc8686611aaf565b610ae584611b0b565b610aed611b65565b610af5611bbd565b610afd611c0d565b610b05611c65565b610b115f5f1b836119b1565b610b3b7f65d7a28e3265b37a6474929f336521b332c1681b933f6cb9f3376673440d862a836119b1565b610b657f9f2df0fed2c77648de5860a4cc508cd0818c85b8b8a1ab4ceeef8d981c8956a6836119b1565b610b8f7f3c11d16cbaffd01df69ce1c404f6340ee057498f5f00246190ea54220576a848836119b1565b610b9882611cb5565b610ba28284611d7a565b8015610bfa575f5f60016101000a81548160ff0219169083151502179055507f7f26b83ff96e1f2b6a682f133852f6798a09c465da95921460cefb38474024986001604051610bf1919061360b565b60405180910390a15b505050505050565b5f606554905090565b610c136114d9565b73ffffffffffffffffffffffffffffffffffffffff168173ffffffffffffffffffffffffffffffffffffffff1614610c80576040517f08c379a0000000000000000000000000000000000000000000000000000000008152600401610c7790613694565b60405180910390fd5b610c8a8282611db3565b5050565b7f000000000000000000000000000000000000000000000000000000000000000073ffffffffffffffffffffffffffffffffffffffff163073ffffffffffffffffffffffffffffffffffffffff1603610d1c576040517f08c379a0000000000000000000000000000000000000000000000000000000008152600401610d1390613722565b60405180910390fd5b7f000000000000000000000000000000000000000000000000000000000000000073ffffffffffffffffffffffffffffffffffffffff16610d5b611e8f565b73ffffffffffffffffffffffffffffffffffffffff1614610db1576040517f08c379a0000000000000000000000000000000000000000000000000000000008152600401610da8906137b0565b60405180910390fd5b610dba81611ee2565b610e11815f67ffffffffffffffff811115610dd857610dd7613157565b5b6040519080825280601f01601f191660200182016040528015610e0a5781602001600182028036833780820191505090505b505f611eed565b50565b5f5f610e1e6114d9565b9050610e3f818585610e30858961136c565b610e3a91906137fb565b6114e0565b600191505092915050565b7f65d7a28e3265b37a6474929f336521b332c1681b933f6cb9f3376673440d862a610e748161199d565b610e7c612057565b50565b7f9f2df0fed2c77648de5860a4cc508cd0818c85b8b8a1ab4ceeef8d981c8956a6610ea98161199d565b610eb38383611d7a565b505050565b610ec9610ec36114d9565b826120b8565b50565b7f000000000000000000000000000000000000000000000000000000000000000073ffffffffffffffffffffffffffffffffffffffff163073ffffffffffffffffffffffffffffffffffffffff1603610f5a576040517f08c379a0000000000000000000000000000000000000000000000000000000008152600401610f5190613722565b60405180910390fd5b7f000000000000000000000000000000000000000000000000000000000000000073ffffffffffffffffffffffffffffffffffffffff16610f99611e8f565b73ffffffffffffffffffffffffffffffffffffffff1614610fef576040517f08c379a0000000000000000000000000000000000000000000000000000000008152600401610fe6906137b0565b60405180910390fd5b610ff882611ee2565b61100482826001611eed565b5050565b5f7f000000000000000000000000000000000000000000000000000000000000000073ffffffffffffffffffffffffffffffffffffffff163073ffffffffffffffffffffffffffffffffffffffff1614611097576040517f08c379a000000000000000000000000000000000000000000000000000000000815260040161108e9061389e565b60405180910390fd5b7f360894a13ba1a3210667c828492db98dca3e2076cc3735a920a3ca505d382bbc5f1b905090565b5f6110c861227d565b905090565b5f60985f9054906101000a900460ff16905090565b5f60335f8373ffffffffffffffffffffffffffffffffffffffff1673ffffffffffffffffffffffffffffffffffffffff1681526020019081526020015f20549050919050565b611130612291565b6111395f611cb5565b565b61114d826111476114d9565b836116a3565b61115782826120b8565b5050565b7f65d7a28e3265b37a6474929f336521b332c1681b933f6cb9f3376673440d862a6111858161199d565b61118d61230f565b50565b5f61012e5f9054906101000a900473ffffffffffffffffffffffffffffffffffffffff16905090565b5f6101925f8481526020019081526020015f205f015f8373ffffffffffffffffffffffffffffffffffffffff1673ffffffffffffffffffffffffffffffffffffffff1681526020019081526020015f205f9054906101000a900460ff16905092915050565b60606037805461122d9061350b565b80601f01602080910402602001604051908101604052809291908181526020018280546112599061350b565b80156112a45780601f1061127b576101008083540402835291602001916112a4565b820191905f5260205f20905b81548152906001019060200180831161128757829003601f168201915b5050505050905090565b5f5f1b81565b5f5f6112be6114d9565b90505f6112cb828661136c565b905083811015611310576040517f08c379a00000000000000000000000000000000000000000000000000000000081526004016113079061392c565b60405180910390fd5b61131d82868684036114e0565b60019250505092915050565b5f5f6113336114d9565b905061134081858561172e565b600191505092915050565b61135482610915565b61135d8161199d565b6113678383611db3565b505050565b5f60345f8473ffffffffffffffffffffffffffffffffffffffff1673ffffffffffffffffffffffffffffffffffffffff1681526020019081526020015f205f8373ffffffffffffffffffffffffffffffffffffffff1673ffffffffffffffffffffffffffffffffffffffff1681526020019081526020015f2054905092915050565b6113f6612291565b5f73ffffffffffffffffffffffffffffffffffffffff168173ffffffffffffffffffffffffffffffffffffffff1603611464576040517f08c379a000000000000000000000000000000000000000000000000000000000815260040161145b906139ba565b60405180910390fd5b61146d81611cb5565b50565b5f7f01ffc9a7000000000000000000000000000000000000000000000000000000007bffffffffffffffffffffffffffffffffffffffffffffffffffffffff1916827bffffffffffffffffffffffffffffffffffffffffffffffffffffffff1916149050919050565b5f33905090565b5f73ffffffffffffffffffffffffffffffffffffffff168373ffffffffffffffffffffffffffffffffffffffff160361154e576040517f08c379a000000000000000000000000000000000000000000000000000000000815260040161154590613a48565b60405180910390fd5b5f73ffffffffffffffffffffffffffffffffffffffff168273ffffffffffffffffffffffffffffffffffffffff16036115bc576040517f08c379a00000000000000000000000000000000000000000000000000000000081526004016115b390613ad6565b60405180910390fd5b8060345f8573ffffffffffffffffffffffffffffffffffffffff1673ffffffffffffffffffffffffffffffffffffffff1681526020019081526020015f205f8473ffffffffffffffffffffffffffffffffffffffff1673ffffffffffffffffffffffffffffffffffffffff1681526020019081526020015f20819055508173ffffffffffffffffffffffffffffffffffffffff168373ffffffffffffffffffffffffffffffffffffffff167f8c5be1e5ebec7d5bd14f71427d1e84f3dd0314c0f7b2291e5b200ac8c7c3b925836040516116969190612fee565b60405180910390a3505050565b5f6116ae848461136c565b90507fffffffffffffffffffffffffffffffffffffffffffffffffffffffffffffffff8114611728578181101561171a576040517f08c379a000000000000000000000000000000000000000000000000000000000815260040161171190613b3e565b60405180910390fd5b61172784848484036114e0565b5b50505050565b5f73ffffffffffffffffffffffffffffffffffffffff168373ffffffffffffffffffffffffffffffffffffffff160361179c576040517f08c379a000000000000000000000000000000000000000000000000000000000815260040161179390613bcc565b60405180910390fd5b5f73ffffffffffffffffffffffffffffffffffffffff168273ffffffffffffffffffffffffffffffffffffffff160361180a576040517f08c379a000000000000000000000000000000000000000000000000000000000815260040161180190613c5a565b60405180910390fd5b611815838383612371565b5f60335f8573ffffffffffffffffffffffffffffffffffffffff1673ffffffffffffffffffffffffffffffffffffffff1681526020019081526020015f2054905081811015611899576040517f08c379a000000000000000000000000000000000000000000000000000000000815260040161189090613ce8565b60405180910390fd5b81810360335f8673ffffffffffffffffffffffffffffffffffffffff1673ffffffffffffffffffffffffffffffffffffffff1681526020019081526020015f20819055508160335f8573ffffffffffffffffffffffffffffffffffffffff1673ffffffffffffffffffffffffffffffffffffffff1681526020019081526020015f205f82825401925050819055508273ffffffffffffffffffffffffffffffffffffffff168473ffffffffffffffffffffffffffffffffffffffff167fddf252ad1be2c89b69c2b068fc378daa952ba7f163c4a11628f55a4df523b3ef846040516119849190612fee565b60405180910390a3611997848484612381565b50505050565b6119ae816119a96114d9565b612386565b50565b6119bb82826111b9565b611a895760016101925f8481526020019081526020015f205f015f8373ffffffffffffffffffffffffffffffffffffffff1673ffffffffffffffffffffffffffffffffffffffff1681526020019081526020015f205f6101000a81548160ff021916908315150217905550611a2e6114d9565b73ffffffffffffffffffffffffffffffffffffffff168173ffffffffffffffffffffffffffffffffffffffff16837f2f8788117e7eff1d82e926ec794901d17c78024a50270940304540a733656f0d60405160405180910390a45b5050565b5f5f8273ffffffffffffffffffffffffffffffffffffffff163b119050919050565b5f60019054906101000a900460ff16611afd576040517f08c379a0000000000000000000000000000000000000000000000000000000008152600401611af490613d76565b60405180910390fd5b611b07828261240a565b5050565b5f60019054906101000a900460ff16611b59576040517f08c379a0000000000000000000000000000000000000000000000000000000008152600401611b5090613d76565b60405180910390fd5b611b628161247c565b50565b5f60019054906101000a900460ff16611bb3576040517f08c379a0000000000000000000000000000000000000000000000000000000008152600401611baa90613d76565b60405180910390fd5b611bbb612516565b565b5f60019054906101000a900460ff16611c0b576040517f08c379a0000000000000000000000000000000000000000000000000000000008152600401611c0290613d76565b60405180910390fd5b565b5f60019054906101000a900460ff16611c5b576040517f08c379a0000000000000000000000000000000000000000000000000000000008152600401611c5290613d76565b60405180910390fd5b611c6361257f565b565b5f60019054906101000a900460ff16611cb3576040517f08c379a0000000000000000000000000000000000000000000000000000000008152600401611caa90613d76565b60405180910390fd5b565b5f61012e5f9054906101000a900473ffffffffffffffffffffffffffffffffffffffff1690508161012e5f6101000a81548173ffffffffffffffffffffffffffffffffffffffff021916908373ffffffffffffffffffffffffffffffffffffffff1602179055508173ffffffffffffffffffffffffffffffffffffffff168173ffffffffffffffffffffffffffffffffffffffff167f8be0079c531659141344cd1fd0a4f28419497f9722a3daafe3b4186f6b6457e060405160405180910390a35050565b7f9f2df0fed2c77648de5860a4cc508cd0818c85b8b8a1ab4ceeef8d981c8956a6611da48161199d565b611dae83836125df565b505050565b611dbd82826111b9565b15611e8b575f6101925f8481526020019081526020015f205f015f8373ffffffffffffffffffffffffffffffffffffffff1673ffffffffffffffffffffffffffffffffffffffff1681526020019081526020015f205f6101000a81548160ff021916908315150217905550611e306114d9565b73ffffffffffffffffffffffffffffffffffffffff168173ffffffffffffffffffffffffffffffffffffffff16837ff6391f5c32d9c69d2a47ea670b442974b53935d1edc7fd64eb21e047a839171b60405160405180910390a45b5050565b5f611ebb7f360894a13ba1a3210667c828492db98dca3e2076cc3735a920a3ca505d382bbc5f1b612649565b5f015f9054906101000a900473ffffffffffffffffffffffffffffffffffffffff16905090565b611eea612291565b50565b611f187f4910fdfa16fed3260ed0e7147f7cc6da11a60208b5b9406d12a635614ffd91435f1b612652565b5f015f9054906101000a900460ff1615611f3a57611f358361265b565b612052565b8273ffffffffffffffffffffffffffffffffffffffff166352d1902d6040518163ffffffff1660e01b8152600401602060405180830381865afa925050508015611fa257506040513d601f19601f82011682018060405250810190611f9f9190613da8565b60015b611fe1576040517f08c379a0000000000000000000000000000000000000000000000000000000008152600401611fd890613e43565b60405180910390fd5b7f360894a13ba1a3210667c828492db98dca3e2076cc3735a920a3ca505d382bbc5f1b8114612045576040517f08c379a000000000000000000000000000000000000000000000000000000000815260040161203c90613ed1565b60405180910390fd5b50612051838383612711565b5b505050565b61205f61273c565b5f60985f6101000a81548160ff0219169083151502179055507f5db9ee0a495bf2e6ff9c91a7834c1ba4fdd244a5e8aa4e537bd38aeae4b073aa6120a16114d9565b6040516120ae9190613487565b60405180910390a1565b5f73ffffffffffffffffffffffffffffffffffffffff168273ffffffffffffffffffffffffffffffffffffffff1603612126576040517f08c379a000000000000000000000000000000000000000000000000000000000815260040161211d90613f5f565b60405180910390fd5b612131825f83612371565b5f60335f8473ffffffffffffffffffffffffffffffffffffffff1673ffffffffffffffffffffffffffffffffffffffff1681526020019081526020015f20549050818110156121b5576040517f08c379a00000000000000000000000000000000000000000000000000000000081526004016121ac90613fed565b60405180910390fd5b81810360335f8573ffffffffffffffffffffffffffffffffffffffff1673ffffffffffffffffffffffffffffffffffffffff1681526020019081526020015f20819055508160355f82825403925050819055505f73ffffffffffffffffffffffffffffffffffffffff168373ffffffffffffffffffffffffffffffffffffffff167fddf252ad1be2c89b69c2b068fc378daa952ba7f163c4a11628f55a4df523b3ef846040516122659190612fee565b60405180910390a3612278835f84612381565b505050565b5f5f5f9054906101000a900460ff16905090565b6122996114d9565b73ffffffffffffffffffffffffffffffffffffffff166122b7611190565b73ffffffffffffffffffffffffffffffffffffffff161461230d576040517f08c379a000000000000000000000000000000000000000000000000000000000815260040161230490614055565b60405180910390fd5b565b612317612785565b600160985f6101000a81548160ff0219169083151502179055507f62e78cea01bee320cd4e420270b5ea74000d11b0c9f74754ebdbfc544b05a25861235a6114d9565b6040516123679190613487565b60405180910390a1565b61237c8383836127cf565b505050565b505050565b61239082826111b9565b6124065761239d81612827565b6123aa835f1c6020612854565b6040516020016123bb929190614141565b6040516020818303038152906040526040517f08c379a00000000000000000000000000000000000000000000000000000000081526004016123fd9190612ef4565b60405180910390fd5b5050565b5f60019054906101000a900460ff16612458576040517f08c379a000000000000000000000000000000000000000000000000000000000815260040161244f90613d76565b60405180910390fd5b81603690816124679190614311565b5080603790816124779190614311565b505050565b5f60019054906101000a900460ff166124ca576040517f08c379a00000000000000000000000000000000000000000000000000000000081526004016124c190613d76565b60405180910390fd5b5f811161250c576040517f08c379a00000000000000000000000000000000000000000000000000000000081526004016125039061442a565b60405180910390fd5b8060658190555050565b5f60019054906101000a900460ff16612564576040517f08c379a000000000000000000000000000000000000000000000000000000000815260040161255b90613d76565b60405180910390fd5b5f60985f6101000a81548160ff021916908315150217905550565b5f60019054906101000a900460ff166125cd576040517f08c379a00000000000000000000000000000000000000000000000000000000081526004016125c490613d76565b60405180910390fd5b6125dd6125d86114d9565b611cb5565b565b6125e7610c02565b816125f06108de565b6125fa91906137fb565b111561263b576040517f08c379a000000000000000000000000000000000000000000000000000000000815260040161263290614492565b60405180910390fd5b6126458282612a89565b5050565b5f819050919050565b5f819050919050565b61266481612bd8565b6126a3576040517f08c379a000000000000000000000000000000000000000000000000000000000815260040161269a90614520565b60405180910390fd5b806126cf7f360894a13ba1a3210667c828492db98dca3e2076cc3735a920a3ca505d382bbc5f1b612649565b5f015f6101000a81548173ffffffffffffffffffffffffffffffffffffffff021916908373ffffffffffffffffffffffffffffffffffffffff16021790555050565b61271a83612bfa565b5f825111806127265750805b15612737576127358383612c49565b505b505050565b6127446110cd565b612783576040517f08c379a000000000000000000000000000000000000000000000000000000000815260040161277a90614588565b60405180910390fd5b565b61278d6110cd565b156127cd576040517f08c379a00000000000000000000000000000000000000000000000000000000081526004016127c4906145f0565b60405180910390fd5b565b6127da838383612c76565b6127e26110cd565b15612822576040517f08c379a00000000000000000000000000000000000000000000000000000000081526004016128199061467e565b60405180910390fd5b505050565b606061284d8273ffffffffffffffffffffffffffffffffffffffff16601460ff16612854565b9050919050565b60605f6002836002612866919061469c565b61287091906137fb565b67ffffffffffffffff81111561288957612888613157565b5b6040519080825280601f01601f1916602001820160405280156128bb5781602001600182028036833780820191505090505b5090507f3000000000000000000000000000000000000000000000000000000000000000815f815181106128f2576128f16146dd565b5b60200101907effffffffffffffffffffffffffffffffffffffffffffffffffffffffffffff191690815f1a9053507f780000000000000000000000000000000000000000000000000000000000000081600181518110612955576129546146dd565b5b60200101907effffffffffffffffffffffffffffffffffffffffffffffffffffffffffffff191690815f1a9053505f6001846002612993919061469c565b61299d91906137fb565b90505b6001811115612a3c577f3031323334353637383961626364656600000000000000000000000000000000600f8616601081106129df576129de6146dd565b5b1a60f81b8282815181106129f6576129f56146dd565b5b60200101907effffffffffffffffffffffffffffffffffffffffffffffffffffffffffffff191690815f1a905350600485901c945080612a359061470a565b90506129a0565b505f8414612a7f576040517f08c379a0000000000000000000000000000000000000000000000000000000008152600401612a769061477b565b60405180910390fd5b8091505092915050565b5f73ffffffffffffffffffffffffffffffffffffffff168273ffffffffffffffffffffffffffffffffffffffff1603612af7576040517f08c379a0000000000000000000000000000000000000000000000000000000008152600401612aee906147e3565b60405180910390fd5b612b025f8383612371565b8060355f828254612b1391906137fb565b925050819055508060335f8473ffffffffffffffffffffffffffffffffffffffff1673ffffffffffffffffffffffffffffffffffffffff1681526020019081526020015f205f82825401925050819055508173ffffffffffffffffffffffffffffffffffffffff165f73ffffffffffffffffffffffffffffffffffffffff167fddf252ad1be2c89b69c2b068fc378daa952ba7f163c4a11628f55a4df523b3ef83604051612bc19190612fee565b60405180910390a3612bd45f8383612381565b5050565b5f5f8273ffffffffffffffffffffffffffffffffffffffff163b119050919050565b612c038161265b565b8073ffffffffffffffffffffffffffffffffffffffff167fbc7cd75a20ee27fd9adebab32041f755214dbc6bffa90cc0225b39da2e5c2d3b60405160405180910390a250565b6060612c6e83836040518060600160405280602781526020016148c460279139612c7b565b905092915050565b505050565b60605f5f8573ffffffffffffffffffffffffffffffffffffffff1685604051612ca49190614845565b5f60405180830381855af49150503d805f8114612cdc576040519150601f19603f3d011682016040523d82523d5f602084013e612ce1565b606091505b5091509150612cf286838387612cfd565b925050509392505050565b60608315612d5e575f835103612d5657612d1685612bd8565b612d55576040517f08c379a0000000000000000000000000000000000000000000000000000000008152600401612d4c906148a5565b60405180910390fd5b5b829050612d69565b612d688383612d71565b5b949350505050565b5f82511115612d835781518083602001fd5b806040517f08c379a0000000000000000000000000000000000000000000000000000000008152600401612db79190612ef4565b60405180910390fd5b5f604051905090565b5f5ffd5b5f5ffd5b5f7fffffffff0000000000000000000000000000000000000000000000000000000082169050919050565b612e0581612dd1565b8114612e0f575f5ffd5b50565b5f81359050612e2081612dfc565b92915050565b5f60208284031215612e3b57612e3a612dc9565b5b5f612e4884828501612e12565b91505092915050565b5f8115159050919050565b612e6581612e51565b82525050565b5f602082019050612e7e5f830184612e5c565b92915050565b5f81519050919050565b5f82825260208201905092915050565b8281835e5f83830152505050565b5f601f19601f8301169050919050565b5f612ec682612e84565b612ed08185612e8e565b9350612ee0818560208601612e9e565b612ee981612eac565b840191505092915050565b5f6020820190508181035f830152612f0c8184612ebc565b905092915050565b5f73ffffffffffffffffffffffffffffffffffffffff82169050919050565b5f612f3d82612f14565b9050919050565b612f4d81612f33565b8114612f57575f5ffd5b50565b5f81359050612f6881612f44565b92915050565b5f819050919050565b612f8081612f6e565b8114612f8a575f5ffd5b50565b5f81359050612f9b81612f77565b92915050565b5f5f60408385031215612fb757612fb6612dc9565b5b5f612fc485828601612f5a565b9250506020612fd585828601612f8d565b9150509250929050565b612fe881612f6e565b82525050565b5f6020820190506130015f830184612fdf565b92915050565b5f5f5f6060848603121561301e5761301d612dc9565b5b5f61302b86828701612f5a565b935050602061303c86828701612f5a565b925050604061304d86828701612f8d565b9150509250925092565b5f819050919050565b61306981613057565b8114613073575f5ffd5b50565b5f8135905061308481613060565b92915050565b5f6020828403121561309f5761309e612dc9565b5b5f6130ac84828501613076565b91505092915050565b6130be81613057565b82525050565b5f6020820190506130d75f8301846130b5565b92915050565b5f5f604083850312156130f3576130f2612dc9565b5b5f61310085828601613076565b925050602061311185828601612f5a565b9150509250929050565b5f60ff82169050919050565b6131308161311b565b82525050565b5f6020820190506131495f830184613127565b92915050565b5f5ffd5b5f5ffd5b7f4e487b71000000000000000000000000000000000000000000000000000000005f52604160045260245ffd5b61318d82612eac565b810181811067ffffffffffffffff821117156131ac576131ab613157565b5b80604052505050565b5f6131be612dc0565b90506131ca8282613184565b919050565b5f67ffffffffffffffff8211156131e9576131e8613157565b5b6131f282612eac565b9050602081019050919050565b828183375f83830152505050565b5f61321f61321a846131cf565b6131b5565b90508281526020810184848401111561323b5761323a613153565b5b6132468482856131ff565b509392505050565b5f82601f8301126132625761326161314f565b5b813561327284826020860161320d565b91505092915050565b5f5f5f5f5f60a0868803121561329457613293612dc9565b5b5f86013567ffffffffffffffff8111156132b1576132b0612dcd565b5b6132bd8882890161324e565b955050602086013567ffffffffffffffff8111156132de576132dd612dcd565b5b6132ea8882890161324e565b94505060406132fb88828901612f8d565b935050606061330c88828901612f8d565b925050608061331d88828901612f5a565b9150509295509295909350565b5f6020828403121561333f5761333e612dc9565b5b5f61334c84828501612f5a565b91505092915050565b5f6020828403121561336a57613369612dc9565b5b5f61337784828501612f8d565b91505092915050565b5f67ffffffffffffffff82111561339a57613399613157565b5b6133a382612eac565b9050602081019050919050565b5f6133c26133bd84613380565b6131b5565b9050828152602081018484840111156133de576133dd613153565b5b6133e98482856131ff565b509392505050565b5f82601f8301126134055761340461314f565b5b81356134158482602086016133b0565b91505092915050565b5f5f6040838503121561343457613433612dc9565b5b5f61344185828601612f5a565b925050602083013567ffffffffffffffff81111561346257613461612dcd565b5b61346e858286016133f1565b9150509250929050565b61348181612f33565b82525050565b5f60208201905061349a5f830184613478565b92915050565b5f5f604083850312156134b6576134b5612dc9565b5b5f6134c385828601612f5a565b92505060206134d485828601612f5a565b9150509250929050565b7f4e487b71000000000000000000000000000000000000000000000000000000005f52602260045260245ffd5b5f600282049050600182168061352257607f821691505b602082108103613535576135346134de565b5b50919050565b7f496e697469616c697a61626c653a20636f6e747261637420697320616c7265615f8201527f647920696e697469616c697a6564000000000000000000000000000000000000602082015250565b5f613595602e83612e8e565b91506135a08261353b565b604082019050919050565b5f6020820190508181035f8301526135c281613589565b9050919050565b5f819050919050565b5f819050919050565b5f6135f56135f06135eb846135c9565b6135d2565b61311b565b9050919050565b613605816135db565b82525050565b5f60208201905061361e5f8301846135fc565b92915050565b7f416363657373436f6e74726f6c3a2063616e206f6e6c792072656e6f756e63655f8201527f20726f6c657320666f722073656c660000000000000000000000000000000000602082015250565b5f61367e602f83612e8e565b915061368982613624565b604082019050919050565b5f6020820190508181035f8301526136ab81613672565b9050919050565b7f46756e6374696f6e206d7573742062652063616c6c6564207468726f756768205f8201527f64656c656761746563616c6c0000000000000000000000000000000000000000602082015250565b5f61370c602c83612e8e565b9150613717826136b2565b604082019050919050565b5f6020820190508181035f83015261373981613700565b9050919050565b7f46756e6374696f6e206d7573742062652063616c6c6564207468726f756768205f8201527f6163746976652070726f78790000000000000000000000000000000000000000602082015250565b5f61379a602c83612e8e565b91506137a582613740565b604082019050919050565b5f6020820190508181035f8301526137c78161378e565b9050919050565b7f4e487b71000000000000000000000000000000000000000000000000000000005f52601160045260245ffd5b5f61380582612f6e565b915061381083612f6e565b9250828201905080821115613828576138276137ce565b5b92915050565b7f555550535570677261646561626c653a206d757374206e6f742062652063616c5f8201527f6c6564207468726f7567682064656c656761746563616c6c0000000000000000602082015250565b5f613888603883612e8e565b91506138938261382e565b604082019050919050565b5f6020820190508181035f8301526138b58161387c565b9050919050565b7f45524332303a2064656372656173656420616c6c6f77616e63652062656c6f775f8201527f207a65726f000000000000000000000000000000000000000000000000000000602082015250565b5f613916602583612e8e565b9150613921826138bc565b604082019050919050565b5f6020820190508181035f8301526139438161390a565b9050919050565b7f4f776e61626c653a206e6577206f776e657220697320746865207a65726f20615f8201527f6464726573730000000000000000000000000000000000000000000000000000602082015250565b5f6139a4602683612e8e565b91506139af8261394a565b604082019050919050565b5f6020820190508181035f8301526139d181613998565b9050919050565b7f45524332303a20617070726f76652066726f6d20746865207a65726f206164645f8201527f7265737300000000000000000000000000000000000000000000000000000000602082015250565b5f613a32602483612e8e565b9150613a3d826139d8565b604082019050919050565b5f6020820190508181035f830152613a5f81613a26565b9050919050565b7f45524332303a20617070726f766520746f20746865207a65726f2061646472655f8201527f7373000000000000000000000000000000000000000000000000000000000000602082015250565b5f613ac0602283612e8e565b9150613acb82613a66565b604082019050919050565b5f6020820190508181035f830152613aed81613ab4565b9050919050565b7f45524332303a20696e73756666696369656e7420616c6c6f77616e63650000005f82015250565b5f613b28601d83612e8e565b9150613b3382613af4565b602082019050919050565b5f6020820190508181035f830152613b5581613b1c565b9050919050565b7f45524332303a207472616e736665722066726f6d20746865207a65726f2061645f8201527f6472657373000000000000000000000000000000000000000000000000000000602082015250565b5f613bb6602583612e8e565b9150613bc182613b5c565b604082019050919050565b5f6020820190508181035f830152613be381613baa565b9050919050565b7f45524332303a207472616e7366657220746f20746865207a65726f20616464725f8201527f6573730000000000000000000000000000000000000000000000000000000000602082015250565b5f613c44602383612e8e565b9150613c4f82613bea565b604082019050919050565b5f6020820190508181035f830152613c7181613c38565b9050919050565b7f45524332303a207472616e7366657220616d6f756e74206578636565647320625f8201527f616c616e63650000000000000000000000000000000000000000000000000000602082015250565b5f613cd2602683612e8e565b9150613cdd82613c78565b604082019050919050565b5f6020820190508181035f830152613cff81613cc6565b9050919050565b7f496e697469616c697a61626c653a20636f6e7472616374206973206e6f7420695f8201527f6e697469616c697a696e67000000000000000000000000000000000000000000602082015250565b5f613d60602b83612e8e565b9150613d6b82613d06565b604082019050919050565b5f6020820190508181035f830152613d8d81613d54565b9050919050565b5f81519050613da281613060565b92915050565b5f60208284031215613dbd57613dbc612dc9565b5b5f613dca84828501613d94565b91505092915050565b7f45524331393637557067726164653a206e657720696d706c656d656e746174695f8201527f6f6e206973206e6f742055555053000000000000000000000000000000000000602082015250565b5f613e2d602e83612e8e565b9150613e3882613dd3565b604082019050919050565b5f6020820190508181035f830152613e5a81613e21565b9050919050565b7f45524331393637557067726164653a20756e737570706f727465642070726f785f8201527f6961626c65555549440000000000000000000000000000000000000000000000602082015250565b5f613ebb602983612e8e565b9150613ec682613e61565b604082019050919050565b5f6020820190508181035f830152613ee881613eaf565b9050919050565b7f45524332303a206275726e2066726f6d20746865207a65726f206164647265735f8201527f7300000000000000000000000000000000000000000000000000000000000000602082015250565b5f613f49602183612e8e565b9150613f5482613eef565b604082019050919050565b5f6020820190508181035f830152613f7681613f3d565b9050919050565b7f45524332303a206275726e20616d6f756e7420657863656564732062616c616e5f8201527f6365000000000000000000000000000000000000000000000000000000000000602082015250565b5f613fd7602283612e8e565b9150613fe282613f7d565b604082019050919050565b5f6020820190508181035f83015261400481613fcb565b9050919050565b7f4f776e61626c653a2063616c6c6572206973206e6f7420746865206f776e65725f82015250565b5f61403f602083612e8e565b915061404a8261400b565b602082019050919050565b5f6020820190508181035f83015261406c81614033565b9050919050565b5f81905092915050565b7f416363657373436f6e74726f6c3a206163636f756e74200000000000000000005f82015250565b5f6140b1601783614073565b91506140bc8261407d565b601782019050919050565b5f6140d182612e84565b6140db8185614073565b93506140eb818560208601612e9e565b80840191505092915050565b7f206973206d697373696e6720726f6c65200000000000000000000000000000005f82015250565b5f61412b601183614073565b9150614136826140f7565b601182019050919050565b5f61414b826140a5565b915061415782856140c7565b91506141628261411f565b915061416e82846140c7565b91508190509392505050565b5f819050815f5260205f209050919050565b5f6020601f8301049050919050565b5f82821b905092915050565b5f600883026141d67fffffffffffffffffffffffffffffffffffffffffffffffffffffffffffffffff8261419b565b6141e0868361419b565b95508019841693508086168417925050509392505050565b5f61421261420d61420884612f6e565b6135d2565b612f6e565b9050919050565b5f819050919050565b61422b836141f8565b61423f61423782614219565b8484546141a7565b825550505050565b5f5f905090565b614256614247565b614261818484614222565b505050565b5b81811015614284576142795f8261424e565b600181019050614267565b5050565b601f8211156142c95761429a8161417a565b6142a38461418c565b810160208510156142b2578190505b6142c66142be8561418c565b830182614266565b50505b505050565b5f82821c905092915050565b5f6142e95f19846008026142ce565b1980831691505092915050565b5f61430183836142da565b9150826002028217905092915050565b61431a82612e84565b67ffffffffffffffff81111561433357614332613157565b5b61433d825461350b565b614348828285614288565b5f60209050601f831160018114614379575f8415614367578287015190505b61437185826142f6565b8655506143d8565b601f1984166143878661417a565b5f5b828110156143ae57848901518255600182019150602085019450602081019050614389565b868310156143cb57848901516143c7601f8916826142da565b8355505b6001600288020188555050505b505050505050565b7f45524332304361707065643a20636170206973203000000000000000000000005f82015250565b5f614414601583612e8e565b915061441f826143e0565b602082019050919050565b5f6020820190508181035f83015261444181614408565b9050919050565b7f45524332304361707065643a20636170206578636565646564000000000000005f82015250565b5f61447c601983612e8e565b915061448782614448565b602082019050919050565b5f6020820190508181035f8301526144a981614470565b9050919050565b7f455243313936373a206e657720696d706c656d656e746174696f6e206973206e5f8201527f6f74206120636f6e747261637400000000000000000000000000000000000000602082015250565b5f61450a602d83612e8e565b9150614515826144b0565b604082019050919050565b5f6020820190508181035f830152614537816144fe565b9050919050565b7f5061757361626c653a206e6f74207061757365640000000000000000000000005f82015250565b5f614572601483612e8e565b915061457d8261453e565b602082019050919050565b5f6020820190508181035f83015261459f81614566565b9050919050565b7f5061757361626c653a20706175736564000000000000000000000000000000005f82015250565b5f6145da601083612e8e565b91506145e5826145a6565b602082019050919050565b5f6020820190508181035f830152614607816145ce565b9050919050565b7f45524332305061757361626c653a20746f6b656e207472616e736665722077685f8201527f696c652070617573656400000000000000000000000000000000000000000000602082015250565b5f614668602a83612e8e565b91506146738261460e565b604082019050919050565b5f6020820190508181035f8301526146958161465c565b9050919050565b5f6146a682612f6e565b91506146b183612f6e565b92508282026146bf81612f6e565b915082820484148315176146d6576146d56137ce565b5b5092915050565b7f4e487b71000000000000000000000000000000000000000000000000000000005f52603260045260245ffd5b5f61471482612f6e565b91505f8203614726576147256137ce565b5b600182039050919050565b7f537472696e67733a20686578206c656e67746820696e73756666696369656e745f82015250565b5f614765602083612e8e565b915061477082614731565b602082019050919050565b5f6020820190508181035f83015261479281614759565b9050919050565b7f45524332303a206d696e7420746f20746865207a65726f2061646472657373005f82015250565b5f6147cd601f83612e8e565b91506147d882614799565b602082019050919050565b5f6020820190508181035f8301526147fa816147c1565b9050919050565b5f81519050919050565b5f81905092915050565b5f61481f82614801565b614829818561480b565b9350614839818560208601612e9e565b80840191505092915050565b5f6148508284614815565b915081905092915050565b7f416464726573733a2063616c6c20746f206e6f6e2d636f6e74726163740000005f82015250565b5f61488f601d83612e8e565b915061489a8261485b565b602082019050919050565b5f6020820190508181035f8301526148bc81614883565b905091905056fe416464726573733a206c6f772d6c6576656c2064656c65676174652063616c6c206661696c6564a2646970667358221220b3678831a275cb2afdae58cbbe16eb4b2cb6c605c3e0f510bef8c8df1dcc367764736f6c634300081e0033","linkReferences":{}},"methodIdentifiers":{"DEFAULT_ADMIN_ROLE()":"a217fddf","allowance(address,address)":"dd62ed3e","approve(address,uint256)":"095ea7b3","balanceOf(address)":"70a08231","burn(uint256)":"42966c68","burnFrom(address,uint256)":"79cc6790","cap()":"355274ea","decimals()":"313ce567","decreaseAllowance(address,uint256)":"a457c2d7","getRoleAdmin(bytes32)":"248a9ca3","grantRole(bytes32,address)":"2f2ff15d","hasRole(bytes32,address)":"91d14854","increaseAllowance(address,uint256)":"39509351","initialize(string,string,uint256,uint256,address)":"33eea181","mint(address,uint256)":"40c10f19","name()":"06fdde03","owner()":"8da5cb5b","pause()":"8456cb59","paused()":"5c975abb","proxiableUUID()":"52d1902d","renounceOwnership()":"715018a6","renounceRole(bytes32,address)":"36568abe","revokeRole(bytes32,address)":"d547741f","supportsInterface(bytes4)":"01ffc9a7","symbol()":"95d89b41","totalSupply()":"18160ddd","transfer(address,uint256)":"a9059cbb","transferFrom(address,address,uint256)":"23b872dd","transferOwnership(address)":"f2fde38b","unpause()":"3f4ba83a","upgradeTo(address)":"3659cfe6","upgradeToAndCall(address,bytes)":"4f1ef286","version()":"54fd4d50"},"id":46}