{"abi":[{"type":"function","name":"DEFAULT_ADMIN_ROLE","inputs":[],"outputs":[{"name":"","type":"bytes32","internalType":"bytes32"}],"stateMutability":"view"},{"type":"function","name":"allowance","inputs":[{"name":"owner","type":"address","internalType":"address"},{"name":"spender","type":"address","internalType":"address"}],"outputs":[{"name":"","type":"uint256","internalType":"uint256"}],"stateMutability":"view"},{"type":"function","name":"approve","inputs":[{"name":"spender","type":"address","internalType":"address"},{"name":"amount","type":"uint256","internalType":"uint256"}],"outputs":[{"name":"","type":"bool","internalType":"bool"}],"stateMutability":"nonpayable"},{"type":"function","name":"balanceOf","inputs":[{"name":"account","type":"address","internalType":"address"}],"outputs":[{"name":"","type":"uint256","internalType":"uint256"}],"stateMutability":"view"},{"type":"function","name":"burn","inputs":[{"name":"amount","type":"uint256","internalType":"uint256"}],"outputs":[],"stateMutability":"nonpayable"},{"type":"function","name":"burnFrom","inputs":[{"name":"account","type":"address","internalType":"address"},{"name":"amount","type":"uint256","internalType":"uint256"}],"outputs":[],"stateMutability":"nonpayable"},{"type":"function","name":"cap","inputs":[],"outputs":[{"name":"","type":"uint256","internalType":"uint256"}],"stateMutability":"view"},{"type":"function","name":"decimals","inputs":[],"outputs":[{"name":"","type":"uint8","internalType":"uint8"}],"stateMutability":"view"},{"type":"function","name":"decreaseAllowance","inputs":[{"name":"spender","type":"address","internalType":"address"},{"name":"subtractedValue","type":"uint256","internalType":"uint256"}],"outputs":[{"name":"","type":"bool","internalType":"bool"}],"stateMutability":"nonpayable"},{"type":"function","name":"getMaxTransferAmount","inputs":[],"outputs":[{"name":"","type":"uint256","internalType":"uint256"}],"stateMutability":"view"},{"type":"function","name":"getReceiverLockStatus","inputs":[{"name":"user","type":"address","internalType":"address"}],"outputs":[{"name":"","type":"bool","internalType":"bool"}],"stateMutability":"view"},{"type":"function","name":"getRoleAdmin","inputs":[{"name":"role","type":"bytes32","internalType":"bytes32"}],"outputs":[{"name":"","type":"bytes32","internalType":"bytes32"}],"stateMutability":"view"},{"type":"function","name":"getSenderLockStatus","inputs":[{"name":"user","type":"address","internalType":"address"}],"outputs":[{"name":"","type":"bool","internalType":"bool"}],"stateMutability":"view"},{"type":"function","name":"grantRole","inputs":[{"name":"role","type":"bytes32","internalType":"bytes32"},{"name":"account","type":"address","internalType":"address"}],"outputs":[],"stateMutability":"nonpayable"},{"type":"function","name":"hasRole","inputs":[{"name":"role","type":"bytes32","internalType":"bytes32"},{"name":"account","type":"address","internalType":"address"}],"outputs":[{"name":"","type":"bool","internalType":"bool"}],"stateMutability":"view"},{"type":"function","name":"increaseAllowance","inputs":[{"name":"spender","type":"address","internalType":"address"},{"name":"addedValue","type":"uint256","internalType":"uint256"}],"outputs":[{"name":"","type":"bool","internalType":"bool"}],"stateMutability":"nonpayable"},{"type":"function","name":"initialize","inputs":[{"name":"name_","type":"string","internalType":"string"},{"name":"symbol_","type":"string","internalType":"string"},{"name":"cap_","type":"uint256","internalType":"uint256"},{"name":"initialSupply_","type":"uint256","internalType":"uint256"},{"name":"initialOwner_","type":"address","internalType":"address"}],"outputs":[],"stateMutability":"nonpayable"},{"type":"function","name":"initialize2","inputs":[{"name":"maxTransferAmount_","type":"uint256","internalType":"uint256"}],"outputs":[],"stateMutability":"nonpayable"},{"type":"function","name":"mint","inputs":[{"name":"account","type":"address","internalType":"address"},{"name":"amount","type":"uint256","internalType":"uint256"}],"outputs":[],"stateMutability":"nonpayable"},{"type":"function","name":"modifyMaxTransferAmount","inputs":[{"name":"maxTransferAmount_","type":"uint256","internalType":"uint256"}],"outputs":[],"stateMutability":"nonpayable"},{"type":"function","name":"modifyReceiver","inputs":[{"name":"receiver","type":"address","internalType":"address"},{"name":"islocked","type":"bool","internalType":"bool"}],"outputs":[],"stateMutability":"nonpayable"},{"type":"function","name":"modifySender","inputs":[{"name":"sender","type":"address","internalType":"address"},{"name":"islocked","type":"bool","internalType":"bool"}],"outputs":[],"stateMutability":"nonpayable"},{"type":"function","name":"name","inputs":[],"outputs":[{"name":"","type":"string","internalType":"string"}],"stateMutability":"view"},{"type":"function","name":"owner","inputs":[],"outputs":[{"name":"","type":"address","internalType":"address"}],"stateMutability":"view"},{"type":"function","name":"pause","inputs":[],"outputs":[],"stateMutability":"nonpayable"},{"type":"function","name":"paused","inputs":[],"outputs":[{"name":"","type":"bool","internalType":"bool"}],"stateMutability":"view"},{"type":"function","name":"proxiableUUID","inputs":[],"outputs":[{"name":"","type":"bytes32","internalType":"bytes32"}],"stateMutability":"view"},{"type":"function","name":"renounceOwnership","inputs":[],"outputs":[],"stateMutability":"nonpayable"},{"type":"function","name":"renounceRole","inputs":[{"name":"role","type":"bytes32","internalType":"bytes32"},{"name":"account","type":"address","internalType":"address"}],"outputs":[],"stateMutability":"nonpayable"},{"type":"function","name":"revokeRole","inputs":[{"name":"role","type":"bytes32","internalType":"bytes32"},{"name":"account","type":"address","internalType":"address"}],"outputs":[],"stateMutability":"nonpayable"},{"type":"function","name":"supportsInterface","inputs":[{"name":"interfaceId","type":"bytes4","internalType":"bytes4"}],"outputs":[{"name":"","type":"bool","internalType":"bool"}],"stateMutability":"view"},{"type":"function","name":"symbol","inputs":[],"outputs":[{"name":"","type":"string","internalType":"string"}],"stateMutability":"view"},{"type":"function","name":"totalSupply","inputs":[],"outputs":[{"name":"","type":"uint256","internalType":"uint256"}],"stateMutability":"view"},{"type":"function","name":"transfer","inputs":[{"name":"to","type":"address","internalType":"address"},{"name":"amount","type":"uint256","internalType":"uint256"}],"outputs":[{"name":"","type":"bool","internalType":"bool"}],"stateMutability":"nonpayable"},{"type":"function","name":"transferFrom","inputs":[{"name":"from","type":"address","internalType":"address"},{"name":"to","type":"address","internalType":"address"},{"name":"amount","type":"uint256","internalType":"uint256"}],"outputs":[{"name":"","type":"bool","internalType":"bool"}],"stateMutability":"nonpayable"},{"type":"function","name":"transferOwnership","inputs":[{"name":"newOwner","type":"address","internalType":"address"}],"outputs":[],"stateMutability":"nonpayable"},{"type":"function","name":"unpause","inputs":[],"outputs":[],"stateMutability":"nonpayable"},{"type":"function","name":"upgradeTo","inputs":[{"name":"newImplementation","type":"address","internalType":"address"}],"outputs":[],"stateMutability":"nonpayable"},{"type":"function","name":"upgradeToAndCall","inputs":[{"name":"newImplementation","type":"address","internalType":"address"},{"name":"data","type":"bytes","internalType":"bytes"}],"outputs":[],"stateMutability":"payable"},{"type":"function","name":"version","inputs":[],"outputs":[{"name":"","type":"uint8","internalType":"uint8"}],"stateMutability":"view"},{"type":"event","name":"AdminChanged","inputs":[{"name":"previousAdmin","type":"address","indexed":false,"internalType":"address"},{"name":"newAdmin","type":"address","indexed":false,"internalType":"address"}],"anonymous":false},{"type":"event","name":"Approval","inputs":[{"name":"owner","type":"address","indexed":true,"internalType":"address"},{"name":"spender","type":"address","indexed":true,"internalType":"address"},{"name":"value","type":"uint256","indexed":false,"internalType":"uint256"}],"anonymous":false},{"type":"event","name":"BeaconUpgraded","inputs":[{"name":"beacon","type":"address","indexed":true,"internalType":"address"}],"anonymous":false},{"type":"event","name":"Initialized","inputs":[{"name":"version","type":"uint8","indexed":false,"internalType":"uint8"}],"anonymous":false},{"type":"event","name":"OwnershipTransferred","inputs":[{"name":"previousOwner","type":"address","indexed":true,"internalType":"address"},{"name":"newOwner","type":"address","indexed":true,"internalType":"address"}],"anonymous":false},{"type":"event","name":"Paused","inputs":[{"name":"account","type":"address","indexed":false,"internalType":"address"}],"anonymous":false},{"type":"event","name":"RoleAdminChanged","inputs":[{"name":"role","type":"bytes32","indexed":true,"internalType":"bytes32"},{"name":"previousAdminRole","type":"bytes32","indexed":true,"internalType":"bytes32"},{"name":"newAdminRole","type":"bytes32","indexed":true,"internalType":"bytes32"}],"anonymous":false},{"type":"event","name":"RoleGranted","inputs":[{"name":"role","type":"bytes32","indexed":true,"internalType":"bytes32"},{"name":"account","type":"address","indexed":true,"internalType":"address"},{"name":"sender","type":"address","indexed":true,"internalType":"address"}],"anonymous":false},{"type":"event","name":"RoleRevoked","inputs":[{"name":"role","type":"bytes32","indexed":true,"internalType":"bytes32"},{"name":"account","type":"address","indexed":true,"internalType":"address"},{"name":"sender","type":"address","indexed":true,"internalType":"address"}],"anonymous":false},{"type":"event","name":"Transfer","inputs":[{"name":"from","type":"address","indexed":true,"internalType":"address"},{"name":"to","type":"address","indexed":true,"internalType":"address"},{"name":"value","type":"uint256","indexed":false,"internalType":"uint256"}],"anonymous":false},{"type":"event","name":"Unpaused","inputs":[{"name":"account","type":"address","indexed":false,"internalType":"address"}],"anonymous":false},{"type":"event","name":"Upgraded","inputs":[{"name":"implementation","type":"address","indexed":true,"internalType":"address"}],"anonymous":false},{"type":"error","name":"InitialOwnerIsZero","inputs":[]},{"type":"error","name":"InitialSupplyExceedsCap","inputs":[]},{"type":"error","name":"InvalidMaxTransferAmount","inputs":[{"name":"maxTransferAmount","type":"uint256","internalType":"uint256"}]},{"type":"error","name":"ReceiverIsLock","inputs":[{"name":"user","type":"address","internalType":"address"}]},{"type":"error","name":"SenderIsLock","inputs":[{"name":"user","type":"address","internalType":"address"}]},{"type":"error","name":"ZeroAddress","inputs":[]}],"bytecode":{"object":"0x60a06040523073ffffffffffffffffffffffffffffffffffffffff1660809073ffffffffffffffffffffffffffffffffffffffff16815250348015610042575f5ffd5b5061005161005660201b60201c565b6101e6565b5f60019054906101000a900460ff16156100a5576040517f08c379a000000000000000000000000000000000000000000000000000000000815260040161009c90610194565b60405180910390fd5b60ff80165f5f9054906101000a900460ff1660ff16146101125760ff5f5f6101000a81548160ff021916908360ff1602179055507f7f26b83ff96e1f2b6a682f133852f6798a09c465da95921460cefb384740249860ff60405161010991906101cd565b60405180910390a15b565b5f82825260208201905092915050565b7f496e697469616c697a61626c653a20636f6e747261637420697320696e6974695f8201527f616c697a696e6700000000000000000000000000000000000000000000000000602082015250565b5f61017e602783610114565b915061018982610124565b604082019050919050565b5f6020820190508181035f8301526101ab81610172565b9050919050565b5f60ff82169050919050565b6101c7816101b2565b82525050565b5f6020820190506101e05f8301846101be565b92915050565b60805161539961021a5f395f8181611048015281816110d6015281816112860152818161131401526113c301526153995ff3fe60806040526004361061023a575f3560e01c806354fd4d501161012d57806391d14854116100aa578063a9059cbb1161006e578063a9059cbb14610850578063d547741f1461088c578063dd62ed3e146108b4578063f036452a146108f0578063f2fde38b1461091a5761023a565b806391d148541461075c5780639467cba21461079857806395d89b41146107c0578063a217fddf146107ea578063a457c2d7146108145761023a565b8063715018a6116100f1578063715018a6146106b657806379cc6790146106cc5780638298c0a6146106f45780638456cb591461071c5780638da5cb5b146107325761023a565b806354fd4d50146105ae57806359c018ac146105d85780635c975abb146106145780635e3b6b1c1461063e57806370a082311461067a5761023a565b8063355274ea116101bb57806340c10f191161017f57806340c10f19146104f057806342966c68146105185780634f1ef2861461054057806352d1902d1461055c578063546e428c146105865761023a565b8063355274ea1461042457806336568abe1461044e5780633659cfe614610476578063395093511461049e5780633f4ba83a146104da5761023a565b8063248a9ca311610202578063248a9ca314610346578063257c4137146103825780632f2ff15d146103aa578063313ce567146103d257806333eea181146103fc5761023a565b806301ffc9a71461023e57806306fdde031461027a578063095ea7b3146102a457806318160ddd146102e057806323b872dd1461030a575b5f5ffd5b348015610249575f5ffd5b50610264600480360381019061025f9190613837565b610942565b604051610271919061387c565b60405180910390f35b348015610285575f5ffd5b5061028e6109bb565b60405161029b9190613905565b60405180910390f35b3480156102af575f5ffd5b506102ca60048036038101906102c591906139b2565b610a4b565b6040516102d7919061387c565b60405180910390f35b3480156102eb575f5ffd5b506102f4610aed565b60405161030191906139ff565b60405180910390f35b348015610315575f5ffd5b50610330600480360381019061032b9190613a18565b610af6565b60405161033d919061387c565b60405180910390f35b348015610351575f5ffd5b5061036c60048036038101906103679190613a9b565b610c76565b6040516103799190613ad5565b60405180910390f35b34801561038d575f5ffd5b506103a860048036038101906103a39190613aee565b610c94565b005b3480156103b5575f5ffd5b506103d060048036038101906103cb9190613b19565b610ceb565b005b3480156103dd575f5ffd5b506103e6610d0c565b6040516103f39190613b72565b60405180910390f35b348015610407575f5ffd5b50610422600480360381019061041d9190613cb7565b610d14565b005b34801561042f575f5ffd5b50610438610fba565b60405161044591906139ff565b60405180910390f35b348015610459575f5ffd5b50610474600480360381019061046f9190613b19565b610fc3565b005b348015610481575f5ffd5b5061049c60048036038101906104979190613d66565b611046565b005b3480156104a9575f5ffd5b506104c460048036038101906104bf91906139b2565b6111cc565b6040516104d1919061387c565b60405180910390f35b3480156104e5575f5ffd5b506104ee611202565b005b3480156104fb575f5ffd5b50610516600480360381019061051191906139b2565b611237565b005b348015610523575f5ffd5b5061053e60048036038101906105399190613aee565b611270565b005b61055a60048036038101906105559190613e2f565b611284565b005b348015610567575f5ffd5b506105706113c0565b60405161057d9190613ad5565b60405180910390f35b348015610591575f5ffd5b506105ac60048036038101906105a79190613eb3565b611477565b005b3480156105b9575f5ffd5b506105c261153d565b6040516105cf9190613b72565b60405180910390f35b3480156105e3575f5ffd5b506105fe60048036038101906105f99190613d66565b61154b565b60405161060b919061387c565b60405180910390f35b34801561061f575f5ffd5b5061062861159e565b604051610635919061387c565b60405180910390f35b348015610649575f5ffd5b50610664600480360381019061065f9190613d66565b6115b3565b604051610671919061387c565b60405180910390f35b348015610685575f5ffd5b506106a0600480360381019061069b9190613d66565b611606565b6040516106ad91906139ff565b60405180910390f35b3480156106c1575f5ffd5b506106ca61164c565b005b3480156106d7575f5ffd5b506106f260048036038101906106ed91906139b2565b61165f565b005b3480156106ff575f5ffd5b5061071a60048036038101906107159190613aee565b61167f565b005b348015610727575f5ffd5b506107306117cc565b005b34801561073d575f5ffd5b50610746611801565b6040516107539190613f00565b60405180910390f35b348015610767575f5ffd5b50610782600480360381019061077d9190613b19565b61182a565b60405161078f919061387c565b60405180910390f35b3480156107a3575f5ffd5b506107be60048036038101906107b99190613eb3565b61188f565b005b3480156107cb575f5ffd5b506107d4611955565b6040516107e19190613905565b60405180910390f35b3480156107f5575f5ffd5b506107fe6119e5565b60405161080b9190613ad5565b60405180910390f35b34801561081f575f5ffd5b5061083a600480360381019061083591906139b2565b6119eb565b604051610847919061387c565b60405180910390f35b34801561085b575f5ffd5b50610876600480360381019061087191906139b2565b611a60565b604051610883919061387c565b60405180910390f35b348015610897575f5ffd5b506108b260048036038101906108ad9190613b19565b611bde565b005b3480156108bf575f5ffd5b506108da60048036038101906108d59190613f19565b611bff565b6040516108e791906139ff565b60405180910390f35b3480156108fb575f5ffd5b50610904611c81565b60405161091191906139ff565b60405180910390f35b348015610925575f5ffd5b50610940600480360381019061093b9190613d66565b611c8b565b005b5f7f7965db0b000000000000000000000000000000000000000000000000000000007bffffffffffffffffffffffffffffffffffffffffffffffffffffffff1916827bffffffffffffffffffffffffffffffffffffffffffffffffffffffff191614806109b457506109b382611d0d565b5b9050919050565b6060603680546109ca90613f84565b80601f01602080910402602001604051908101604052809291908181526020018280546109f690613f84565b8015610a415780601f10610a1857610100808354040283529160200191610a41565b820191905f5260205f20905b815481529060010190602001808311610a2457829003601f168201915b5050505050905090565b5f336101c55f8273ffffffffffffffffffffffffffffffffffffffff1673ffffffffffffffffffffffffffffffffffffffff1681526020019081526020015f205f9054906101000a900460ff1615610ada57806040517f4c9237b1000000000000000000000000000000000000000000000000000000008152600401610ad19190613f00565b60405180910390fd5b610ae48484611d76565b91505092915050565b5f603554905090565b5f816101c454811115610b43576101c4546040517f53da26e9000000000000000000000000000000000000000000000000000000008152600401610b3a91906139ff565b60405180910390fd5b846101c55f8273ffffffffffffffffffffffffffffffffffffffff1673ffffffffffffffffffffffffffffffffffffffff1681526020019081526020015f205f9054906101000a900460ff1615610bd157806040517f4c9237b1000000000000000000000000000000000000000000000000000000008152600401610bc89190613f00565b60405180910390fd5b846101c65f8273ffffffffffffffffffffffffffffffffffffffff1673ffffffffffffffffffffffffffffffffffffffff1681526020019081526020015f205f9054906101000a900460ff1615610c5f57806040517fb4cc90b7000000000000000000000000000000000000000000000000000000008152600401610c569190613f00565b60405180910390fd5b610c6a878787611d98565b93505050509392505050565b5f6101925f8381526020019081526020015f20600101549050919050565b610c9c611dc6565b5f8103610ce057806040517f53da26e9000000000000000000000000000000000000000000000000000000008152600401610cd791906139ff565b60405180910390fd5b806101c48190555050565b610cf482610c76565b610cfd81611e44565b610d078383611e58565b505050565b5f6012905090565b5f5f60019054906101000a900460ff16159050808015610d44575060015f5f9054906101000a900460ff1660ff16105b80610d715750610d5330611f34565b158015610d70575060015f5f9054906101000a900460ff1660ff16145b5b610db0576040517f08c379a0000000000000000000000000000000000000000000000000000000008152600401610da790614024565b60405180910390fd5b60015f5f6101000a81548160ff021916908360ff1602179055508015610deb5760015f60016101000a81548160ff0219169083151502179055505b5f73ffffffffffffffffffffffffffffffffffffffff168273ffffffffffffffffffffffffffffffffffffffff1603610e50576040517fc468f5b700000000000000000000000000000000000000000000000000000000815260040160405180910390fd5b83831115610e8a576040517f0375754700000000000000000000000000000000000000000000000000000000815260040160405180910390fd5b610e948686611f56565b610e9d84611fb2565b610ea561200c565b610ead612064565b610eb56120b4565b610ebd61210c565b610ec95f5f1b83611e58565b610ef37f65d7a28e3265b37a6474929f336521b332c1681b933f6cb9f3376673440d862a83611e58565b610f1d7f9f2df0fed2c77648de5860a4cc508cd0818c85b8b8a1ab4ceeef8d981c8956a683611e58565b610f477f3c11d16cbaffd01df69ce1c404f6340ee057498f5f00246190ea54220576a84883611e58565b610f508261215c565b610f5a8284612221565b8015610fb2575f5f60016101000a81548160ff0219169083151502179055507f7f26b83ff96e1f2b6a682f133852f6798a09c465da95921460cefb38474024986001604051610fa99190614084565b60405180910390a15b505050505050565b5f606554905090565b610fcb612323565b73ffffffffffffffffffffffffffffffffffffffff168173ffffffffffffffffffffffffffffffffffffffff1614611038576040517f08c379a000000000000000000000000000000000000000000000000000000000815260040161102f9061410d565b60405180910390fd5b611042828261232a565b5050565b7f000000000000000000000000000000000000000000000000000000000000000073ffffffffffffffffffffffffffffffffffffffff163073ffffffffffffffffffffffffffffffffffffffff16036110d4576040517f08c379a00000000000000000000000000000000000000000000000000000000081526004016110cb9061419b565b60405180910390fd5b7f000000000000000000000000000000000000000000000000000000000000000073ffffffffffffffffffffffffffffffffffffffff16611113612406565b73ffffffffffffffffffffffffffffffffffffffff1614611169576040517f08c379a000000000000000000000000000000000000000000000000000000000815260040161116090614229565b60405180910390fd5b61117281612459565b6111c9815f67ffffffffffffffff8111156111905761118f613b93565b5b6040519080825280601f01601f1916602001820160405280156111c25781602001600182028036833780820191505090505b505f612464565b50565b5f5f6111d6612323565b90506111f78185856111e88589611bff565b6111f29190614274565b6125ce565b600191505092915050565b7f65d7a28e3265b37a6474929f336521b332c1681b933f6cb9f3376673440d862a61122c81611e44565b611234612791565b50565b7f9f2df0fed2c77648de5860a4cc508cd0818c85b8b8a1ab4ceeef8d981c8956a661126181611e44565b61126b8383612221565b505050565b61128161127b612323565b826127f2565b50565b7f000000000000000000000000000000000000000000000000000000000000000073ffffffffffffffffffffffffffffffffffffffff163073ffffffffffffffffffffffffffffffffffffffff1603611312576040517f08c379a00000000000000000000000000000000000000000000000000000000081526004016113099061419b565b60405180910390fd5b7f000000000000000000000000000000000000000000000000000000000000000073ffffffffffffffffffffffffffffffffffffffff16611351612406565b73ffffffffffffffffffffffffffffffffffffffff16146113a7576040517f08c379a000000000000000000000000000000000000000000000000000000000815260040161139e90614229565b60405180910390fd5b6113b082612459565b6113bc82826001612464565b5050565b5f7f000000000000000000000000000000000000000000000000000000000000000073ffffffffffffffffffffffffffffffffffffffff163073ffffffffffffffffffffffffffffffffffffffff161461144f576040517f08c379a000000000000000000000000000000000000000000000000000000000815260040161144690614317565b60405180910390fd5b7f360894a13ba1a3210667c828492db98dca3e2076cc3735a920a3ca505d382bbc5f1b905090565b61147f611dc6565b5f73ffffffffffffffffffffffffffffffffffffffff168273ffffffffffffffffffffffffffffffffffffffff16036114e4576040517fd92e233d00000000000000000000000000000000000000000000000000000000815260040160405180910390fd5b806101c55f8473ffffffffffffffffffffffffffffffffffffffff1673ffffffffffffffffffffffffffffffffffffffff1681526020019081526020015f205f6101000a81548160ff0219169083151502179055505050565b5f6115466129b7565b905090565b5f6101c65f8373ffffffffffffffffffffffffffffffffffffffff1673ffffffffffffffffffffffffffffffffffffffff1681526020019081526020015f205f9054906101000a900460ff169050919050565b5f60985f9054906101000a900460ff16905090565b5f6101c55f8373ffffffffffffffffffffffffffffffffffffffff1673ffffffffffffffffffffffffffffffffffffffff1681526020019081526020015f205f9054906101000a900460ff169050919050565b5f60335f8373ffffffffffffffffffffffffffffffffffffffff1673ffffffffffffffffffffffffffffffffffffffff1681526020019081526020015f20549050919050565b611654611dc6565b61165d5f61215c565b565b6116718261166b612323565b836129cb565b61167b82826127f2565b5050565b611687611dc6565b60025f60019054906101000a900460ff161580156116b757508060ff165f5f9054906101000a900460ff1660ff16105b6116f6576040517f08c379a00000000000000000000000000000000000000000000000000000000081526004016116ed90614024565b60405180910390fd5b805f5f6101000a81548160ff021916908360ff16021790555060015f60016101000a81548160ff0219169083151502179055505f8203611770576101c4546040517f53da26e900000000000000000000000000000000000000000000000000000000815260040161176791906139ff565b60405180910390fd5b816101c4819055505f5f60016101000a81548160ff0219169083151502179055507f7f26b83ff96e1f2b6a682f133852f6798a09c465da95921460cefb3847402498816040516117c09190613b72565b60405180910390a15050565b7f65d7a28e3265b37a6474929f336521b332c1681b933f6cb9f3376673440d862a6117f681611e44565b6117fe612a56565b50565b5f61012e5f9054906101000a900473ffffffffffffffffffffffffffffffffffffffff16905090565b5f6101925f8481526020019081526020015f205f015f8373ffffffffffffffffffffffffffffffffffffffff1673ffffffffffffffffffffffffffffffffffffffff1681526020019081526020015f205f9054906101000a900460ff16905092915050565b611897611dc6565b5f73ffffffffffffffffffffffffffffffffffffffff168273ffffffffffffffffffffffffffffffffffffffff16036118fc576040517fd92e233d00000000000000000000000000000000000000000000000000000000815260040160405180910390fd5b806101c65f8473ffffffffffffffffffffffffffffffffffffffff1673ffffffffffffffffffffffffffffffffffffffff1681526020019081526020015f205f6101000a81548160ff0219169083151502179055505050565b60606037805461196490613f84565b80601f016020809104026020016040519081016040528092919081815260200182805461199090613f84565b80156119db5780601f106119b2576101008083540402835291602001916119db565b820191905f5260205f20905b8154815290600101906020018083116119be57829003601f168201915b5050505050905090565b5f5f1b81565b5f5f6119f5612323565b90505f611a028286611bff565b905083811015611a47576040517f08c379a0000000000000000000000000000000000000000000000000000000008152600401611a3e906143a5565b60405180910390fd5b611a5482868684036125ce565b60019250505092915050565b5f816101c454811115611aad576101c4546040517f53da26e9000000000000000000000000000000000000000000000000000000008152600401611aa491906139ff565b60405180910390fd5b336101c55f8273ffffffffffffffffffffffffffffffffffffffff1673ffffffffffffffffffffffffffffffffffffffff1681526020019081526020015f205f9054906101000a900460ff1615611b3b57806040517f4c9237b1000000000000000000000000000000000000000000000000000000008152600401611b329190613f00565b60405180910390fd5b846101c65f8273ffffffffffffffffffffffffffffffffffffffff1673ffffffffffffffffffffffffffffffffffffffff1681526020019081526020015f205f9054906101000a900460ff1615611bc957806040517fb4cc90b7000000000000000000000000000000000000000000000000000000008152600401611bc09190613f00565b60405180910390fd5b611bd38686612ab8565b935050505092915050565b611be782610c76565b611bf081611e44565b611bfa838361232a565b505050565b5f60345f8473ffffffffffffffffffffffffffffffffffffffff1673ffffffffffffffffffffffffffffffffffffffff1681526020019081526020015f205f8373ffffffffffffffffffffffffffffffffffffffff1673ffffffffffffffffffffffffffffffffffffffff1681526020019081526020015f2054905092915050565b5f6101c454905090565b611c93611dc6565b5f73ffffffffffffffffffffffffffffffffffffffff168173ffffffffffffffffffffffffffffffffffffffff1603611d01576040517f08c379a0000000000000000000000000000000000000000000000000000000008152600401611cf890614433565b60405180910390fd5b611d0a8161215c565b50565b5f7f01ffc9a7000000000000000000000000000000000000000000000000000000007bffffffffffffffffffffffffffffffffffffffffffffffffffffffff1916827bffffffffffffffffffffffffffffffffffffffffffffffffffffffff1916149050919050565b5f5f611d80612323565b9050611d8d8185856125ce565b600191505092915050565b5f5f611da2612323565b9050611daf8582856129cb565b611dba858585612ada565b60019150509392505050565b611dce612323565b73ffffffffffffffffffffffffffffffffffffffff16611dec611801565b73ffffffffffffffffffffffffffffffffffffffff1614611e42576040517f08c379a0000000000000000000000000000000000000000000000000000000008152600401611e399061449b565b60405180910390fd5b565b611e5581611e50612323565b612d49565b50565b611e62828261182a565b611f305760016101925f8481526020019081526020015f205f015f8373ffffffffffffffffffffffffffffffffffffffff1673ffffffffffffffffffffffffffffffffffffffff1681526020019081526020015f205f6101000a81548160ff021916908315150217905550611ed5612323565b73ffffffffffffffffffffffffffffffffffffffff168173ffffffffffffffffffffffffffffffffffffffff16837f2f8788117e7eff1d82e926ec794901d17c78024a50270940304540a733656f0d60405160405180910390a45b5050565b5f5f8273ffffffffffffffffffffffffffffffffffffffff163b119050919050565b5f60019054906101000a900460ff16611fa4576040517f08c379a0000000000000000000000000000000000000000000000000000000008152600401611f9b90614529565b60405180910390fd5b611fae8282612dcd565b5050565b5f60019054906101000a900460ff16612000576040517f08c379a0000000000000000000000000000000000000000000000000000000008152600401611ff790614529565b60405180910390fd5b61200981612e3f565b50565b5f60019054906101000a900460ff1661205a576040517f08c379a000000000000000000000000000000000000000000000000000000000815260040161205190614529565b60405180910390fd5b612062612ed9565b565b5f60019054906101000a900460ff166120b2576040517f08c379a00000000000000000000000000000000000000000000000000000000081526004016120a990614529565b60405180910390fd5b565b5f60019054906101000a900460ff16612102576040517f08c379a00000000000000000000000000000000000000000000000000000000081526004016120f990614529565b60405180910390fd5b61210a612f42565b565b5f60019054906101000a900460ff1661215a576040517f08c379a000000000000000000000000000000000000000000000000000000000815260040161215190614529565b60405180910390fd5b565b5f61012e5f9054906101000a900473ffffffffffffffffffffffffffffffffffffffff1690508161012e5f6101000a81548173ffffffffffffffffffffffffffffffffffffffff021916908373ffffffffffffffffffffffffffffffffffffffff1602179055508173ffffffffffffffffffffffffffffffffffffffff168173ffffffffffffffffffffffffffffffffffffffff167f8be0079c531659141344cd1fd0a4f28419497f9722a3daafe3b4186f6b6457e060405160405180910390a35050565b816101c65f8273ffffffffffffffffffffffffffffffffffffffff1673ffffffffffffffffffffffffffffffffffffffff1681526020019081526020015f205f9054906101000a900460ff16156122af57806040517fb4cc90b70000000000000000000000000000000000000000000000000000000081526004016122a69190613f00565b60405180910390fd5b5f73ffffffffffffffffffffffffffffffffffffffff168373ffffffffffffffffffffffffffffffffffffffff1603612314576040517fd92e233d00000000000000000000000000000000000000000000000000000000815260040160405180910390fd5b61231e8383612fa2565b505050565b5f33905090565b612334828261182a565b15612402575f6101925f8481526020019081526020015f205f015f8373ffffffffffffffffffffffffffffffffffffffff1673ffffffffffffffffffffffffffffffffffffffff1681526020019081526020015f205f6101000a81548160ff0219169083151502179055506123a7612323565b73ffffffffffffffffffffffffffffffffffffffff168173ffffffffffffffffffffffffffffffffffffffff16837ff6391f5c32d9c69d2a47ea670b442974b53935d1edc7fd64eb21e047a839171b60405160405180910390a45b5050565b5f6124327f360894a13ba1a3210667c828492db98dca3e2076cc3735a920a3ca505d382bbc5f1b612fdb565b5f015f9054906101000a900473ffffffffffffffffffffffffffffffffffffffff16905090565b612461611dc6565b50565b61248f7f4910fdfa16fed3260ed0e7147f7cc6da11a60208b5b9406d12a635614ffd91435f1b612fe4565b5f015f9054906101000a900460ff16156124b1576124ac83612fed565b6125c9565b8273ffffffffffffffffffffffffffffffffffffffff166352d1902d6040518163ffffffff1660e01b8152600401602060405180830381865afa92505050801561251957506040513d601f19601f82011682018060405250810190612516919061455b565b60015b612558576040517f08c379a000000000000000000000000000000000000000000000000000000000815260040161254f906145f6565b60405180910390fd5b7f360894a13ba1a3210667c828492db98dca3e2076cc3735a920a3ca505d382bbc5f1b81146125bc576040517f08c379a00000000000000000000000000000000000000000000000000000000081526004016125b390614684565b60405180910390fd5b506125c88383836130a3565b5b505050565b5f73ffffffffffffffffffffffffffffffffffffffff168373ffffffffffffffffffffffffffffffffffffffff160361263c576040517f08c379a000000000000000000000000000000000000000000000000000000000815260040161263390614712565b60405180910390fd5b5f73ffffffffffffffffffffffffffffffffffffffff168273ffffffffffffffffffffffffffffffffffffffff16036126aa576040517f08c379a00000000000000000000000000000000000000000000000000000000081526004016126a1906147a0565b60405180910390fd5b8060345f8573ffffffffffffffffffffffffffffffffffffffff1673ffffffffffffffffffffffffffffffffffffffff1681526020019081526020015f205f8473ffffffffffffffffffffffffffffffffffffffff1673ffffffffffffffffffffffffffffffffffffffff1681526020019081526020015f20819055508173ffffffffffffffffffffffffffffffffffffffff168373ffffffffffffffffffffffffffffffffffffffff167f8c5be1e5ebec7d5bd14f71427d1e84f3dd0314c0f7b2291e5b200ac8c7c3b9258360405161278491906139ff565b60405180910390a3505050565b6127996130ce565b5f60985f6101000a81548160ff0219169083151502179055507f5db9ee0a495bf2e6ff9c91a7834c1ba4fdd244a5e8aa4e537bd38aeae4b073aa6127db612323565b6040516127e89190613f00565b60405180910390a1565b5f73ffffffffffffffffffffffffffffffffffffffff168273ffffffffffffffffffffffffffffffffffffffff1603612860576040517f08c379a00000000000000000000000000000000000000000000000000000000081526004016128579061482e565b60405180910390fd5b61286b825f83613117565b5f60335f8473ffffffffffffffffffffffffffffffffffffffff1673ffffffffffffffffffffffffffffffffffffffff1681526020019081526020015f20549050818110156128ef576040517f08c379a00000000000000000000000000000000000000000000000000000000081526004016128e6906148bc565b60405180910390fd5b81810360335f8573ffffffffffffffffffffffffffffffffffffffff1673ffffffffffffffffffffffffffffffffffffffff1681526020019081526020015f20819055508160355f82825403925050819055505f73ffffffffffffffffffffffffffffffffffffffff168373ffffffffffffffffffffffffffffffffffffffff167fddf252ad1be2c89b69c2b068fc378daa952ba7f163c4a11628f55a4df523b3ef8460405161299f91906139ff565b60405180910390a36129b2835f84613127565b505050565b5f5f5f9054906101000a900460ff16905090565b5f6129d68484611bff565b90507fffffffffffffffffffffffffffffffffffffffffffffffffffffffffffffffff8114612a505781811015612a42576040517f08c379a0000000000000000000000000000000000000000000000000000000008152600401612a3990614924565b60405180910390fd5b612a4f84848484036125ce565b5b50505050565b612a5e61312c565b600160985f6101000a81548160ff0219169083151502179055507f62e78cea01bee320cd4e420270b5ea74000d11b0c9f74754ebdbfc544b05a258612aa1612323565b604051612aae9190613f00565b60405180910390a1565b5f5f612ac2612323565b9050612acf818585612ada565b600191505092915050565b5f73ffffffffffffffffffffffffffffffffffffffff168373ffffffffffffffffffffffffffffffffffffffff1603612b48576040517f08c379a0000000000000000000000000000000000000000000000000000000008152600401612b3f906149b2565b60405180910390fd5b5f73ffffffffffffffffffffffffffffffffffffffff168273ffffffffffffffffffffffffffffffffffffffff1603612bb6576040517f08c379a0000000000000000000000000000000000000000000000000000000008152600401612bad90614a40565b60405180910390fd5b612bc1838383613117565b5f60335f8573ffffffffffffffffffffffffffffffffffffffff1673ffffffffffffffffffffffffffffffffffffffff1681526020019081526020015f2054905081811015612c45576040517f08c379a0000000000000000000000000000000000000000000000000000000008152600401612c3c90614ace565b60405180910390fd5b81810360335f8673ffffffffffffffffffffffffffffffffffffffff1673ffffffffffffffffffffffffffffffffffffffff1681526020019081526020015f20819055508160335f8573ffffffffffffffffffffffffffffffffffffffff1673ffffffffffffffffffffffffffffffffffffffff1681526020019081526020015f205f82825401925050819055508273ffffffffffffffffffffffffffffffffffffffff168473ffffffffffffffffffffffffffffffffffffffff167fddf252ad1be2c89b69c2b068fc378daa952ba7f163c4a11628f55a4df523b3ef84604051612d3091906139ff565b60405180910390a3612d43848484613127565b50505050565b612d53828261182a565b612dc957612d6081613176565b612d6d835f1c60206131a3565b604051602001612d7e929190614bba565b6040516020818303038152906040526040517f08c379a0000000000000000000000000000000000000000000000000000000008152600401612dc09190613905565b60405180910390fd5b5050565b5f60019054906101000a900460ff16612e1b576040517f08c379a0000000000000000000000000000000000000000000000000000000008152600401612e1290614529565b60405180910390fd5b8160369081612e2a9190614d8a565b508060379081612e3a9190614d8a565b505050565b5f60019054906101000a900460ff16612e8d576040517f08c379a0000000000000000000000000000000000000000000000000000000008152600401612e8490614529565b60405180910390fd5b5f8111612ecf576040517f08c379a0000000000000000000000000000000000000000000000000000000008152600401612ec690614ea3565b60405180910390fd5b8060658190555050565b5f60019054906101000a900460ff16612f27576040517f08c379a0000000000000000000000000000000000000000000000000000000008152600401612f1e90614529565b60405180910390fd5b5f60985f6101000a81548160ff021916908315150217905550565b5f60019054906101000a900460ff16612f90576040517f08c379a0000000000000000000000000000000000000000000000000000000008152600401612f8790614529565b60405180910390fd5b612fa0612f9b612323565b61215c565b565b7f9f2df0fed2c77648de5860a4cc508cd0818c85b8b8a1ab4ceeef8d981c8956a6612fcc81611e44565b612fd683836133d8565b505050565b5f819050919050565b5f819050919050565b612ff681613442565b613035576040517f08c379a000000000000000000000000000000000000000000000000000000000815260040161302c90614f31565b60405180910390fd5b806130617f360894a13ba1a3210667c828492db98dca3e2076cc3735a920a3ca505d382bbc5f1b612fdb565b5f015f6101000a81548173ffffffffffffffffffffffffffffffffffffffff021916908373ffffffffffffffffffffffffffffffffffffffff16021790555050565b6130ac83613464565b5f825111806130b85750805b156130c9576130c783836134b3565b505b505050565b6130d661159e565b613115576040517f08c379a000000000000000000000000000000000000000000000000000000000815260040161310c90614f99565b60405180910390fd5b565b6131228383836134e0565b505050565b505050565b61313461159e565b15613174576040517f08c379a000000000000000000000000000000000000000000000000000000000815260040161316b90615001565b60405180910390fd5b565b606061319c8273ffffffffffffffffffffffffffffffffffffffff16601460ff166131a3565b9050919050565b60605f60028360026131b5919061501f565b6131bf9190614274565b67ffffffffffffffff8111156131d8576131d7613b93565b5b6040519080825280601f01601f19166020018201604052801561320a5781602001600182028036833780820191505090505b5090507f3000000000000000000000000000000000000000000000000000000000000000815f8151811061324157613240615060565b5b60200101907effffffffffffffffffffffffffffffffffffffffffffffffffffffffffffff191690815f1a9053507f7800000000000000000000000000000000000000000000000000000000000000816001815181106132a4576132a3615060565b5b60200101907effffffffffffffffffffffffffffffffffffffffffffffffffffffffffffff191690815f1a9053505f60018460026132e2919061501f565b6132ec9190614274565b90505b600181111561338b577f3031323334353637383961626364656600000000000000000000000000000000600f86166010811061332e5761332d615060565b5b1a60f81b82828151811061334557613344615060565b5b60200101907effffffffffffffffffffffffffffffffffffffffffffffffffffffffffffff191690815f1a905350600485901c9450806133849061508d565b90506132ef565b505f84146133ce576040517f08c379a00000000000000000000000000000000000000000000000000000000081526004016133c5906150fe565b60405180910390fd5b8091505092915050565b6133e0610fba565b816133e9610aed565b6133f39190614274565b1115613434576040517f08c379a000000000000000000000000000000000000000000000000000000000815260040161342b90615166565b60405180910390fd5b61343e8282613538565b5050565b5f5f8273ffffffffffffffffffffffffffffffffffffffff163b119050919050565b61346d81612fed565b8073ffffffffffffffffffffffffffffffffffffffff167fbc7cd75a20ee27fd9adebab32041f755214dbc6bffa90cc0225b39da2e5c2d3b60405160405180910390a250565b60606134d8838360405180606001604052806027815260200161533d60279139613687565b905092915050565b6134eb838383613709565b6134f361159e565b15613533576040517f08c379a000000000000000000000000000000000000000000000000000000000815260040161352a906151f4565b60405180910390fd5b505050565b5f73ffffffffffffffffffffffffffffffffffffffff168273ffffffffffffffffffffffffffffffffffffffff16036135a6576040517f08c379a000000000000000000000000000000000000000000000000000000000815260040161359d9061525c565b60405180910390fd5b6135b15f8383613117565b8060355f8282546135c29190614274565b925050819055508060335f8473ffffffffffffffffffffffffffffffffffffffff1673ffffffffffffffffffffffffffffffffffffffff1681526020019081526020015f205f82825401925050819055508173ffffffffffffffffffffffffffffffffffffffff165f73ffffffffffffffffffffffffffffffffffffffff167fddf252ad1be2c89b69c2b068fc378daa952ba7f163c4a11628f55a4df523b3ef8360405161367091906139ff565b60405180910390a36136835f8383613127565b5050565b60605f5f8573ffffffffffffffffffffffffffffffffffffffff16856040516136b091906152be565b5f60405180830381855af49150503d805f81146136e8576040519150601f19603f3d011682016040523d82523d5f602084013e6136ed565b606091505b50915091506136fe8683838761370e565b925050509392505050565b505050565b6060831561376f575f8351036137675761372785613442565b613766576040517f08c379a000000000000000000000000000000000000000000000000000000000815260040161375d9061531e565b60405180910390fd5b5b82905061377a565b6137798383613782565b5b949350505050565b5f825111156137945781518083602001fd5b806040517f08c379a00000000000000000000000000000000000000000000000000000000081526004016137c89190613905565b60405180910390fd5b5f604051905090565b5f5ffd5b5f5ffd5b5f7fffffffff0000000000000000000000000000000000000000000000000000000082169050919050565b613816816137e2565b8114613820575f5ffd5b50565b5f813590506138318161380d565b92915050565b5f6020828403121561384c5761384b6137da565b5b5f61385984828501613823565b91505092915050565b5f8115159050919050565b61387681613862565b82525050565b5f60208201905061388f5f83018461386d565b92915050565b5f81519050919050565b5f82825260208201905092915050565b8281835e5f83830152505050565b5f601f19601f8301169050919050565b5f6138d782613895565b6138e1818561389f565b93506138f18185602086016138af565b6138fa816138bd565b840191505092915050565b5f6020820190508181035f83015261391d81846138cd565b905092915050565b5f73ffffffffffffffffffffffffffffffffffffffff82169050919050565b5f61394e82613925565b9050919050565b61395e81613944565b8114613968575f5ffd5b50565b5f8135905061397981613955565b92915050565b5f819050919050565b6139918161397f565b811461399b575f5ffd5b50565b5f813590506139ac81613988565b92915050565b5f5f604083850312156139c8576139c76137da565b5b5f6139d58582860161396b565b92505060206139e68582860161399e565b9150509250929050565b6139f98161397f565b82525050565b5f602082019050613a125f8301846139f0565b92915050565b5f5f5f60608486031215613a2f57613a2e6137da565b5b5f613a3c8682870161396b565b9350506020613a4d8682870161396b565b9250506040613a5e8682870161399e565b9150509250925092565b5f819050919050565b613a7a81613a68565b8114613a84575f5ffd5b50565b5f81359050613a9581613a71565b92915050565b5f60208284031215613ab057613aaf6137da565b5b5f613abd84828501613a87565b91505092915050565b613acf81613a68565b82525050565b5f602082019050613ae85f830184613ac6565b92915050565b5f60208284031215613b0357613b026137da565b5b5f613b108482850161399e565b91505092915050565b5f5f60408385031215613b2f57613b2e6137da565b5b5f613b3c85828601613a87565b9250506020613b4d8582860161396b565b9150509250929050565b5f60ff82169050919050565b613b6c81613b57565b82525050565b5f602082019050613b855f830184613b63565b92915050565b5f5ffd5b5f5ffd5b7f4e487b71000000000000000000000000000000000000000000000000000000005f52604160045260245ffd5b613bc9826138bd565b810181811067ffffffffffffffff82111715613be857613be7613b93565b5b80604052505050565b5f613bfa6137d1565b9050613c068282613bc0565b919050565b5f67ffffffffffffffff821115613c2557613c24613b93565b5b613c2e826138bd565b9050602081019050919050565b828183375f83830152505050565b5f613c5b613c5684613c0b565b613bf1565b905082815260208101848484011115613c7757613c76613b8f565b5b613c82848285613c3b565b509392505050565b5f82601f830112613c9e57613c9d613b8b565b5b8135613cae848260208601613c49565b91505092915050565b5f5f5f5f5f60a08688031215613cd057613ccf6137da565b5b5f86013567ffffffffffffffff811115613ced57613cec6137de565b5b613cf988828901613c8a565b955050602086013567ffffffffffffffff811115613d1a57613d196137de565b5b613d2688828901613c8a565b9450506040613d378882890161399e565b9350506060613d488882890161399e565b9250506080613d598882890161396b565b9150509295509295909350565b5f60208284031215613d7b57613d7a6137da565b5b5f613d888482850161396b565b91505092915050565b5f67ffffffffffffffff821115613dab57613daa613b93565b5b613db4826138bd565b9050602081019050919050565b5f613dd3613dce84613d91565b613bf1565b905082815260208101848484011115613def57613dee613b8f565b5b613dfa848285613c3b565b509392505050565b5f82601f830112613e1657613e15613b8b565b5b8135613e26848260208601613dc1565b91505092915050565b5f5f60408385031215613e4557613e446137da565b5b5f613e528582860161396b565b925050602083013567ffffffffffffffff811115613e7357613e726137de565b5b613e7f85828601613e02565b9150509250929050565b613e9281613862565b8114613e9c575f5ffd5b50565b5f81359050613ead81613e89565b92915050565b5f5f60408385031215613ec957613ec86137da565b5b5f613ed68582860161396b565b9250506020613ee785828601613e9f565b9150509250929050565b613efa81613944565b82525050565b5f602082019050613f135f830184613ef1565b92915050565b5f5f60408385031215613f2f57613f2e6137da565b5b5f613f3c8582860161396b565b9250506020613f4d8582860161396b565b9150509250929050565b7f4e487b71000000000000000000000000000000000000000000000000000000005f52602260045260245ffd5b5f6002820490506001821680613f9b57607f821691505b602082108103613fae57613fad613f57565b5b50919050565b7f496e697469616c697a61626c653a20636f6e747261637420697320616c7265615f8201527f647920696e697469616c697a6564000000000000000000000000000000000000602082015250565b5f61400e602e8361389f565b915061401982613fb4565b604082019050919050565b5f6020820190508181035f83015261403b81614002565b9050919050565b5f819050919050565b5f819050919050565b5f61406e61406961406484614042565b61404b565b613b57565b9050919050565b61407e81614054565b82525050565b5f6020820190506140975f830184614075565b92915050565b7f416363657373436f6e74726f6c3a2063616e206f6e6c792072656e6f756e63655f8201527f20726f6c657320666f722073656c660000000000000000000000000000000000602082015250565b5f6140f7602f8361389f565b91506141028261409d565b604082019050919050565b5f6020820190508181035f830152614124816140eb565b9050919050565b7f46756e6374696f6e206d7573742062652063616c6c6564207468726f756768205f8201527f64656c656761746563616c6c0000000000000000000000000000000000000000602082015250565b5f614185602c8361389f565b91506141908261412b565b604082019050919050565b5f6020820190508181035f8301526141b281614179565b9050919050565b7f46756e6374696f6e206d7573742062652063616c6c6564207468726f756768205f8201527f6163746976652070726f78790000000000000000000000000000000000000000602082015250565b5f614213602c8361389f565b915061421e826141b9565b604082019050919050565b5f6020820190508181035f83015261424081614207565b9050919050565b7f4e487b71000000000000000000000000000000000000000000000000000000005f52601160045260245ffd5b5f61427e8261397f565b91506142898361397f565b92508282019050808211156142a1576142a0614247565b5b92915050565b7f555550535570677261646561626c653a206d757374206e6f742062652063616c5f8201527f6c6564207468726f7567682064656c656761746563616c6c0000000000000000602082015250565b5f61430160388361389f565b915061430c826142a7565b604082019050919050565b5f6020820190508181035f83015261432e816142f5565b9050919050565b7f45524332303a2064656372656173656420616c6c6f77616e63652062656c6f775f8201527f207a65726f000000000000000000000000000000000000000000000000000000602082015250565b5f61438f60258361389f565b915061439a82614335565b604082019050919050565b5f6020820190508181035f8301526143bc81614383565b9050919050565b7f4f776e61626c653a206e6577206f776e657220697320746865207a65726f20615f8201527f6464726573730000000000000000000000000000000000000000000000000000602082015250565b5f61441d60268361389f565b9150614428826143c3565b604082019050919050565b5f6020820190508181035f83015261444a81614411565b9050919050565b7f4f776e61626c653a2063616c6c6572206973206e6f7420746865206f776e65725f82015250565b5f61448560208361389f565b915061449082614451565b602082019050919050565b5f6020820190508181035f8301526144b281614479565b9050919050565b7f496e697469616c697a61626c653a20636f6e7472616374206973206e6f7420695f8201527f6e697469616c697a696e67000000000000000000000000000000000000000000602082015250565b5f614513602b8361389f565b915061451e826144b9565b604082019050919050565b5f6020820190508181035f83015261454081614507565b9050919050565b5f8151905061455581613a71565b92915050565b5f602082840312156145705761456f6137da565b5b5f61457d84828501614547565b91505092915050565b7f45524331393637557067726164653a206e657720696d706c656d656e746174695f8201527f6f6e206973206e6f742055555053000000000000000000000000000000000000602082015250565b5f6145e0602e8361389f565b91506145eb82614586565b604082019050919050565b5f6020820190508181035f83015261460d816145d4565b9050919050565b7f45524331393637557067726164653a20756e737570706f727465642070726f785f8201527f6961626c65555549440000000000000000000000000000000000000000000000602082015250565b5f61466e60298361389f565b915061467982614614565b604082019050919050565b5f6020820190508181035f83015261469b81614662565b9050919050565b7f45524332303a20617070726f76652066726f6d20746865207a65726f206164645f8201527f7265737300000000000000000000000000000000000000000000000000000000602082015250565b5f6146fc60248361389f565b9150614707826146a2565b604082019050919050565b5f6020820190508181035f830152614729816146f0565b9050919050565b7f45524332303a20617070726f766520746f20746865207a65726f2061646472655f8201527f7373000000000000000000000000000000000000000000000000000000000000602082015250565b5f61478a60228361389f565b915061479582614730565b604082019050919050565b5f6020820190508181035f8301526147b78161477e565b9050919050565b7f45524332303a206275726e2066726f6d20746865207a65726f206164647265735f8201527f7300000000000000000000000000000000000000000000000000000000000000602082015250565b5f61481860218361389f565b9150614823826147be565b604082019050919050565b5f6020820190508181035f8301526148458161480c565b9050919050565b7f45524332303a206275726e20616d6f756e7420657863656564732062616c616e5f8201527f6365000000000000000000000000000000000000000000000000000000000000602082015250565b5f6148a660228361389f565b91506148b18261484c565b604082019050919050565b5f6020820190508181035f8301526148d38161489a565b9050919050565b7f45524332303a20696e73756666696369656e7420616c6c6f77616e63650000005f82015250565b5f61490e601d8361389f565b9150614919826148da565b602082019050919050565b5f6020820190508181035f83015261493b81614902565b9050919050565b7f45524332303a207472616e736665722066726f6d20746865207a65726f2061645f8201527f6472657373000000000000000000000000000000000000000000000000000000602082015250565b5f61499c60258361389f565b91506149a782614942565b604082019050919050565b5f6020820190508181035f8301526149c981614990565b9050919050565b7f45524332303a207472616e7366657220746f20746865207a65726f20616464725f8201527f6573730000000000000000000000000000000000000000000000000000000000602082015250565b5f614a2a60238361389f565b9150614a35826149d0565b604082019050919050565b5f6020820190508181035f830152614a5781614a1e565b9050919050565b7f45524332303a207472616e7366657220616d6f756e74206578636565647320625f8201527f616c616e63650000000000000000000000000000000000000000000000000000602082015250565b5f614ab860268361389f565b9150614ac382614a5e565b604082019050919050565b5f6020820190508181035f830152614ae581614aac565b9050919050565b5f81905092915050565b7f416363657373436f6e74726f6c3a206163636f756e74200000000000000000005f82015250565b5f614b2a601783614aec565b9150614b3582614af6565b601782019050919050565b5f614b4a82613895565b614b548185614aec565b9350614b648185602086016138af565b80840191505092915050565b7f206973206d697373696e6720726f6c65200000000000000000000000000000005f82015250565b5f614ba4601183614aec565b9150614baf82614b70565b601182019050919050565b5f614bc482614b1e565b9150614bd08285614b40565b9150614bdb82614b98565b9150614be78284614b40565b91508190509392505050565b5f819050815f5260205f209050919050565b5f6020601f8301049050919050565b5f82821b905092915050565b5f60088302614c4f7fffffffffffffffffffffffffffffffffffffffffffffffffffffffffffffffff82614c14565b614c598683614c14565b95508019841693508086168417925050509392505050565b5f614c8b614c86614c818461397f565b61404b565b61397f565b9050919050565b5f819050919050565b614ca483614c71565b614cb8614cb082614c92565b848454614c20565b825550505050565b5f5f905090565b614ccf614cc0565b614cda818484614c9b565b505050565b5b81811015614cfd57614cf25f82614cc7565b600181019050614ce0565b5050565b601f821115614d4257614d1381614bf3565b614d1c84614c05565b81016020851015614d2b578190505b614d3f614d3785614c05565b830182614cdf565b50505b505050565b5f82821c905092915050565b5f614d625f1984600802614d47565b1980831691505092915050565b5f614d7a8383614d53565b9150826002028217905092915050565b614d9382613895565b67ffffffffffffffff811115614dac57614dab613b93565b5b614db68254613f84565b614dc1828285614d01565b5f60209050601f831160018114614df2575f8415614de0578287015190505b614dea8582614d6f565b865550614e51565b601f198416614e0086614bf3565b5f5b82811015614e2757848901518255600182019150602085019450602081019050614e02565b86831015614e445784890151614e40601f891682614d53565b8355505b6001600288020188555050505b505050505050565b7f45524332304361707065643a20636170206973203000000000000000000000005f82015250565b5f614e8d60158361389f565b9150614e9882614e59565b602082019050919050565b5f6020820190508181035f830152614eba81614e81565b9050919050565b7f455243313936373a206e657720696d706c656d656e746174696f6e206973206e5f8201527f6f74206120636f6e747261637400000000000000000000000000000000000000602082015250565b5f614f1b602d8361389f565b9150614f2682614ec1565b604082019050919050565b5f6020820190508181035f830152614f4881614f0f565b9050919050565b7f5061757361626c653a206e6f74207061757365640000000000000000000000005f82015250565b5f614f8360148361389f565b9150614f8e82614f4f565b602082019050919050565b5f6020820190508181035f830152614fb081614f77565b9050919050565b7f5061757361626c653a20706175736564000000000000000000000000000000005f82015250565b5f614feb60108361389f565b9150614ff682614fb7565b602082019050919050565b5f6020820190508181035f83015261501881614fdf565b9050919050565b5f6150298261397f565b91506150348361397f565b92508282026150428161397f565b9150828204841483151761505957615058614247565b5b5092915050565b7f4e487b71000000000000000000000000000000000000000000000000000000005f52603260045260245ffd5b5f6150978261397f565b91505f82036150a9576150a8614247565b5b600182039050919050565b7f537472696e67733a20686578206c656e67746820696e73756666696369656e745f82015250565b5f6150e860208361389f565b91506150f3826150b4565b602082019050919050565b5f6020820190508181035f830152615115816150dc565b9050919050565b7f45524332304361707065643a20636170206578636565646564000000000000005f82015250565b5f61515060198361389f565b915061515b8261511c565b602082019050919050565b5f6020820190508181035f83015261517d81615144565b9050919050565b7f45524332305061757361626c653a20746f6b656e207472616e736665722077685f8201527f696c652070617573656400000000000000000000000000000000000000000000602082015250565b5f6151de602a8361389f565b91506151e982615184565b604082019050919050565b5f6020820190508181035f83015261520b816151d2565b9050919050565b7f45524332303a206d696e7420746f20746865207a65726f2061646472657373005f82015250565b5f615246601f8361389f565b915061525182615212565b602082019050919050565b5f6020820190508181035f8301526152738161523a565b9050919050565b5f81519050919050565b5f81905092915050565b5f6152988261527a565b6152a28185615284565b93506152b28185602086016138af565b80840191505092915050565b5f6152c9828461528e565b915081905092915050565b7f416464726573733a2063616c6c20746f206e6f6e2d636f6e74726163740000005f82015250565b5f615308601d8361389f565b9150615313826152d4565b602082019050919050565b5f6020820190508181035f830152615335816152fc565b905091905056fe416464726573733a206c6f772d6c6576656c2064656c65676174652063616c6c206661696c6564a26469706673582212207287405b7057ffd10aeca9b1de528a25065934c0cd5680be97acafce984054fa64736f6c634300081e0033","linkReferences":{}},"methodIdentifiers":{"DEFAULT_ADMIN_ROLE()":"a217fddf","allowance(address,address)":"dd62ed3e","approve(address,uint256)":"095ea7b3","balanceOf(address)":"70a08231","burn(uint256)":"42966c68","burnFrom(address,uint256)":"79cc6790","cap()":"355274ea","decimals()":"313ce567","decreaseAllowance(address,uint256)":"a457c2d7","getMaxTransferAmount()":"f036452a","getReceiverLockStatus(address)":"59c018ac","getRoleAdmin(bytes32)":"248a9ca3","getSenderLockStatus(address)":"5e3b6b1c","grantRole(bytes32,address)":"2f2ff15d","hasRole(bytes32,address)":"91d14854","increaseAllowance(address,uint256)":"39509351","initialize(string,string,uint256,uint256,address)":"33eea181","initialize2(uint256)":"8298c0a6","mint(address,uint256)":"40c10f19","modifyMaxTransferAmount(uint256)":"257c4137","modifyReceiver(address,bool)":"9467cba2","modifySender(address,bool)":"546e428c","name()":"06fdde03","owner()":"8da5cb5b","pause()":"8456cb59","paused()":"5c975abb","proxiableUUID()":"52d1902d","renounceOwnership()":"715018a6","renounceRole(bytes32,address)":"36568abe","revokeRole(bytes32,address)":"d547741f","supportsInterface(bytes4)":"01ffc9a7","symbol()":"95d89b41","totalSupply()":"18160ddd","transfer(address,uint256)":"a9059cbb","transferFrom(address,address,uint256)":"23b872dd","transferOwnership(address)":"f2fde38b","unpause()":"3f4ba83a","upgradeTo(address)":"3659cfe6","upgradeToAndCall(address,bytes)":"4f1ef286","version()":"54fd4d50"},"id":53}