{"abi":[{"type":"function","name":"allowance","inputs":[{"name":"owner","type":"address","internalType":"address"},{"name":"spender","type":"address","internalType":"address"}],"outputs":[{"name":"","type":"uint256","internalType":"uint256"}],"stateMutability":"view"},{"type":"function","name":"approve","inputs":[{"name":"spender","type":"address","internalType":"address"},{"name":"amount","type":"uint256","internalType":"uint256"}],"outputs":[{"name":"","type":"bool","internalType":"bool"}],"stateMutability":"nonpayable"},{"type":"function","name":"balanceOf","inputs":[{"name":"account","type":"address","internalType":"address"}],"outputs":[{"name":"","type":"uint256","internalType":"uint256"}],"stateMutability":"view"},{"type":"function","name":"burn","inputs":[{"name":"amount","type":"uint256","internalType":"uint256"}],"outputs":[],"stateMutability":"nonpayable"},{"type":"function","name":"burnFrom","inputs":[{"name":"account","type":"address","internalType":"address"},{"name":"amount","type":"uint256","internalType":"uint256"}],"outputs":[],"stateMutability":"nonpayable"},{"type":"function","name":"cap","inputs":[],"outputs":[{"name":"","type":"uint256","internalType":"uint256"}],"stateMutability":"view"},{"type":"function","name":"decimals","inputs":[],"outputs":[{"name":"","type":"uint8","internalType":"uint8"}],"stateMutability":"view"},{"type":"function","name":"decreaseAllowance","inputs":[{"name":"spender","type":"address","internalType":"address"},{"name":"subtractedValue","type":"uint256","internalType":"uint256"}],"outputs":[{"name":"","type":"bool","internalType":"bool"}],"stateMutability":"nonpayable"},{"type":"function","name":"getMaxTransferAmount","inputs":[],"outputs":[{"name":"","type":"uint256","internalType":"uint256"}],"stateMutability":"view"},{"type":"function","name":"getReceiverLockStatus","inputs":[{"name":"user","type":"address","internalType":"address"}],"outputs":[{"name":"","type":"bool","internalType":"bool"}],"stateMutability":"view"},{"type":"function","name":"getSenderLockStatus","inputs":[{"name":"user","type":"address","internalType":"address"}],"outputs":[{"name":"","type":"bool","internalType":"bool"}],"stateMutability":"view"},{"type":"function","name":"increaseAllowance","inputs":[{"name":"spender","type":"address","internalType":"address"},{"name":"addedValue","type":"uint256","internalType":"uint256"}],"outputs":[{"name":"","type":"bool","internalType":"bool"}],"stateMutability":"nonpayable"},{"type":"function","name":"initialize","inputs":[{"name":"name_","type":"string","internalType":"string"},{"name":"symbol_","type":"string","internalType":"string"},{"name":"cap_","type":"uint256","internalType":"uint256"},{"name":"initialSupply_","type":"uint256","internalType":"uint256"},{"name":"initialOwner_","type":"address","internalType":"address"}],"outputs":[],"stateMutability":"nonpayable"},{"type":"function","name":"initialize2","inputs":[{"name":"maxTransferAmount_","type":"uint256","internalType":"uint256"}],"outputs":[],"stateMutability":"nonpayable"},{"type":"function","name":"modifyMaxTransferAmount","inputs":[{"name":"maxTransferAmount_","type":"uint256","internalType":"uint256"}],"outputs":[],"stateMutability":"nonpayable"},{"type":"function","name":"modifyReceiver","inputs":[{"name":"receiver","type":"address","internalType":"address"},{"name":"islocked","type":"bool","internalType":"bool"}],"outputs":[],"stateMutability":"nonpayable"},{"type":"function","name":"modifySender","inputs":[{"name":"sender","type":"address","internalType":"address"},{"name":"islocked","type":"bool","internalType":"bool"}],"outputs":[],"stateMutability":"nonpayable"},{"type":"function","name":"name","inputs":[],"outputs":[{"name":"","type":"string","internalType":"string"}],"stateMutability":"view"},{"type":"function","name":"owner","inputs":[],"outputs":[{"name":"","type":"address","internalType":"address"}],"stateMutability":"view"},{"type":"function","name":"pause","inputs":[],"outputs":[],"stateMutability":"nonpayable"},{"type":"function","name":"paused","inputs":[],"outputs":[{"name":"","type":"bool","internalType":"bool"}],"stateMutability":"view"},{"type":"function","name":"proxiableUUID","inputs":[],"outputs":[{"name":"","type":"bytes32","internalType":"bytes32"}],"stateMutability":"view"},{"type":"function","name":"renounceOwnership","inputs":[],"outputs":[],"stateMutability":"nonpayable"},{"type":"function","name":"symbol","inputs":[],"outputs":[{"name":"","type":"string","internalType":"string"}],"stateMutability":"view"},{"type":"function","name":"totalSupply","inputs":[],"outputs":[{"name":"","type":"uint256","internalType":"uint256"}],"stateMutability":"view"},{"type":"function","name":"transfer","inputs":[{"name":"to","type":"address","internalType":"address"},{"name":"amount","type":"uint256","internalType":"uint256"}],"outputs":[{"name":"","type":"bool","internalType":"bool"}],"stateMutability":"nonpayable"},{"type":"function","name":"transferFrom","inputs":[{"name":"from","type":"address","internalType":"address"},{"name":"to","type":"address","internalType":"address"},{"name":"amount","type":"uint256","internalType":"uint256"}],"outputs":[{"name":"","type":"bool","internalType":"bool"}],"stateMutability":"nonpayable"},{"type":"function","name":"transferOwnership","inputs":[{"name":"newOwner","type":"address","internalType":"address"}],"outputs":[],"stateMutability":"nonpayable"},{"type":"function","name":"unpause","inputs":[],"outputs":[],"stateMutability":"nonpayable"},{"type":"function","name":"upgradeTo","inputs":[{"name":"newImplementation","type":"address","internalType":"address"}],"outputs":[],"stateMutability":"nonpayable"},{"type":"function","name":"upgradeToAndCall","inputs":[{"name":"newImplementation","type":"address","internalType":"address"},{"name":"data","type":"bytes","internalType":"bytes"}],"outputs":[],"stateMutability":"payable"},{"type":"function","name":"version","inputs":[],"outputs":[{"name":"","type":"uint8","internalType":"uint8"}],"stateMutability":"view"},{"type":"event","name":"AdminChanged","inputs":[{"name":"previousAdmin","type":"address","indexed":false,"internalType":"address"},{"name":"newAdmin","type":"address","indexed":false,"internalType":"address"}],"anonymous":false},{"type":"event","name":"Approval","inputs":[{"name":"owner","type":"address","indexed":true,"internalType":"address"},{"name":"spender","type":"address","indexed":true,"internalType":"address"},{"name":"value","type":"uint256","indexed":false,"internalType":"uint256"}],"anonymous":false},{"type":"event","name":"BeaconUpgraded","inputs":[{"name":"beacon","type":"address","indexed":true,"internalType":"address"}],"anonymous":false},{"type":"event","name":"Initialized","inputs":[{"name":"version","type":"uint8","indexed":false,"internalType":"uint8"}],"anonymous":false},{"type":"event","name":"OwnershipTransferred","inputs":[{"name":"previousOwner","type":"address","indexed":true,"internalType":"address"},{"name":"newOwner","type":"address","indexed":true,"internalType":"address"}],"anonymous":false},{"type":"event","name":"Paused","inputs":[{"name":"account","type":"address","indexed":false,"internalType":"address"}],"anonymous":false},{"type":"event","name":"Transfer","inputs":[{"name":"from","type":"address","indexed":true,"internalType":"address"},{"name":"to","type":"address","indexed":true,"internalType":"address"},{"name":"value","type":"uint256","indexed":false,"internalType":"uint256"}],"anonymous":false},{"type":"event","name":"Unpaused","inputs":[{"name":"account","type":"address","indexed":false,"internalType":"address"}],"anonymous":false},{"type":"event","name":"Upgraded","inputs":[{"name":"implementation","type":"address","indexed":true,"internalType":"address"}],"anonymous":false},{"type":"error","name":"InitialOwnerIsZero","inputs":[]},{"type":"error","name":"InitialSupplyExceedsCap","inputs":[]},{"type":"error","name":"InvalidMaxTransferAmount","inputs":[{"name":"maxTransferAmount","type":"uint256","internalType":"uint256"}]},{"type":"error","name":"ReceiverIsLock","inputs":[{"name":"user","type":"address","internalType":"address"}]},{"type":"error","name":"SenderIsLock","inputs":[{"name":"user","type":"address","internalType":"address"}]},{"type":"error","name":"ZeroAddress","inputs":[]}],"bytecode":{"object":"0x60a06040523073ffffffffffffffffffffffffffffffffffffffff1660809073ffffffffffffffffffffffffffffffffffffffff16815250348015610042575f5ffd5b5061005161005660201b60201c565b6101e6565b5f60019054906101000a900460ff16156100a5576040517f08c379a000000000000000000000000000000000000000000000000000000000815260040161009c90610194565b60405180910390fd5b60ff80165f5f9054906101000a900460ff1660ff16146101125760ff5f5f6101000a81548160ff021916908360ff1602179055507f7f26b83ff96e1f2b6a682f133852f6798a09c465da95921460cefb384740249860ff60405161010991906101cd565b60405180910390a15b565b5f82825260208201905092915050565b7f496e697469616c697a61626c653a20636f6e747261637420697320696e6974695f8201527f616c697a696e6700000000000000000000000000000000000000000000000000602082015250565b5f61017e602783610114565b915061018982610124565b604082019050919050565b5f6020820190508181035f8301526101ab81610172565b9050919050565b5f60ff82169050919050565b6101c7816101b2565b82525050565b5f6020820190506101e05f8301846101be565b92915050565b60805161458261021a5f395f8181610c6101528181610cef01528181610e4301528181610ed10152610f8001526145825ff3fe6080604052600436106101e2575f3560e01c806359c018ac116101015780638da5cb5b11610094578063a9059cbb11610063578063a9059cbb146106a2578063dd62ed3e146106de578063f036452a1461071a578063f2fde38b14610744576101e2565b80638da5cb5b146105ea5780639467cba21461061457806395d89b411461063c578063a457c2d714610666576101e2565b8063715018a6116100d0578063715018a61461056e57806379cc6790146105845780638298c0a6146105ac5780638456cb59146105d4576101e2565b806359c018ac146104905780635c975abb146104cc5780635e3b6b1c146104f657806370a0823114610532576101e2565b80633659cfe6116101795780634f1ef286116101485780634f1ef286146103f857806352d1902d14610414578063546e428c1461043e57806354fd4d5014610466576101e2565b80633659cfe614610356578063395093511461037e5780633f4ba83a146103ba57806342966c68146103d0576101e2565b8063257c4137116101b5578063257c4137146102b2578063313ce567146102da57806333eea18114610304578063355274ea1461032c576101e2565b806306fdde03146101e6578063095ea7b31461021057806318160ddd1461024c57806323b872dd14610276575b5f5ffd5b3480156101f1575f5ffd5b506101fa61076c565b6040516102079190612db9565b60405180910390f35b34801561021b575f5ffd5b5061023660048036038101906102319190612e77565b6107fc565b6040516102439190612ecf565b60405180910390f35b348015610257575f5ffd5b5061026061089e565b60405161026d9190612ef7565b60405180910390f35b348015610281575f5ffd5b5061029c60048036038101906102979190612f10565b6108a7565b6040516102a99190612ecf565b60405180910390f35b3480156102bd575f5ffd5b506102d860048036038101906102d39190612f60565b610a27565b005b3480156102e5575f5ffd5b506102ee610a3a565b6040516102fb9190612fa6565b60405180910390f35b34801561030f575f5ffd5b5061032a600480360381019061032591906130eb565b610a42565b005b348015610337575f5ffd5b50610340610c56565b60405161034d9190612ef7565b60405180910390f35b348015610361575f5ffd5b5061037c6004803603810190610377919061319a565b610c5f565b005b348015610389575f5ffd5b506103a4600480360381019061039f9190612e77565b610de5565b6040516103b19190612ecf565b60405180910390f35b3480156103c5575f5ffd5b506103ce610e1b565b005b3480156103db575f5ffd5b506103f660048036038101906103f19190612f60565b610e2d565b005b610412600480360381019061040d9190613263565b610e41565b005b34801561041f575f5ffd5b50610428610f7d565b60405161043591906132d5565b60405180910390f35b348015610449575f5ffd5b50610464600480360381019061045f9190613318565b611034565b005b348015610471575f5ffd5b5061047a6110fa565b6040516104879190612fa6565b60405180910390f35b34801561049b575f5ffd5b506104b660048036038101906104b1919061319a565b611108565b6040516104c39190612ecf565b60405180910390f35b3480156104d7575f5ffd5b506104e061115b565b6040516104ed9190612ecf565b60405180910390f35b348015610501575f5ffd5b5061051c6004803603810190610517919061319a565b611170565b6040516105299190612ecf565b60405180910390f35b34801561053d575f5ffd5b506105586004803603810190610553919061319a565b6111c3565b6040516105659190612ef7565b60405180910390f35b348015610579575f5ffd5b50610582611209565b005b34801561058f575f5ffd5b506105aa60048036038101906105a59190612e77565b61121c565b005b3480156105b7575f5ffd5b506105d260048036038101906105cd9190612f60565b61123c565b005b3480156105df575f5ffd5b506105e8611389565b005b3480156105f5575f5ffd5b506105fe61139b565b60405161060b9190613365565b60405180910390f35b34801561061f575f5ffd5b5061063a60048036038101906106359190613318565b6113c4565b005b348015610647575f5ffd5b5061065061148a565b60405161065d9190612db9565b60405180910390f35b348015610671575f5ffd5b5061068c60048036038101906106879190612e77565b61151a565b6040516106999190612ecf565b60405180910390f35b3480156106ad575f5ffd5b506106c860048036038101906106c39190612e77565b61158f565b6040516106d59190612ecf565b60405180910390f35b3480156106e9575f5ffd5b5061070460048036038101906106ff919061337e565b61170d565b6040516107119190612ef7565b60405180910390f35b348015610725575f5ffd5b5061072e61178f565b60405161073b9190612ef7565b60405180910390f35b34801561074f575f5ffd5b5061076a6004803603810190610765919061319a565b611799565b005b60606036805461077b906133e9565b80601f01602080910402602001604051908101604052809291908181526020018280546107a7906133e9565b80156107f25780601f106107c9576101008083540402835291602001916107f2565b820191905f5260205f20905b8154815290600101906020018083116107d557829003601f168201915b5050505050905090565b5f336101615f8273ffffffffffffffffffffffffffffffffffffffff1673ffffffffffffffffffffffffffffffffffffffff1681526020019081526020015f205f9054906101000a900460ff161561088b57806040517f4c9237b10000000000000000000000000000000000000000000000000000000081526004016108829190613365565b60405180910390fd5b610895848461181b565b91505092915050565b5f603554905090565b5f81610160548111156108f457610160546040517f53da26e90000000000000000000000000000000000000000000000000000000081526004016108eb9190612ef7565b60405180910390fd5b846101615f8273ffffffffffffffffffffffffffffffffffffffff1673ffffffffffffffffffffffffffffffffffffffff1681526020019081526020015f205f9054906101000a900460ff161561098257806040517f4c9237b10000000000000000000000000000000000000000000000000000000081526004016109799190613365565b60405180910390fd5b846101625f8273ffffffffffffffffffffffffffffffffffffffff1673ffffffffffffffffffffffffffffffffffffffff1681526020019081526020015f205f9054906101000a900460ff1615610a1057806040517fb4cc90b7000000000000000000000000000000000000000000000000000000008152600401610a079190613365565b60405180910390fd5b610a1b87878761183d565b93505050509392505050565b610a2f61186b565b806101608190555050565b5f6012905090565b5f5f60019054906101000a900460ff16159050808015610a72575060015f5f9054906101000a900460ff1660ff16105b80610a9f5750610a81306118e9565b158015610a9e575060015f5f9054906101000a900460ff1660ff16145b5b610ade576040517f08c379a0000000000000000000000000000000000000000000000000000000008152600401610ad590613489565b60405180910390fd5b60015f5f6101000a81548160ff021916908360ff1602179055508015610b195760015f60016101000a81548160ff0219169083151502179055505b610b23868661190b565b610b2c84611967565b610b346119c1565b610b3c611a19565b610b44611a69565b610b4d82611ac1565b5f73ffffffffffffffffffffffffffffffffffffffff168273ffffffffffffffffffffffffffffffffffffffff1603610bb2576040517fc468f5b700000000000000000000000000000000000000000000000000000000815260040160405180910390fd5b83831115610bec576040517f0375754700000000000000000000000000000000000000000000000000000000815260040160405180910390fd5b610bf68284611b86565b8015610c4e575f5f60016101000a81548160ff0219169083151502179055507f7f26b83ff96e1f2b6a682f133852f6798a09c465da95921460cefb38474024986001604051610c4591906134e9565b60405180910390a15b505050505050565b5f606554905090565b7f000000000000000000000000000000000000000000000000000000000000000073ffffffffffffffffffffffffffffffffffffffff163073ffffffffffffffffffffffffffffffffffffffff1603610ced576040517f08c379a0000000000000000000000000000000000000000000000000000000008152600401610ce490613572565b60405180910390fd5b7f000000000000000000000000000000000000000000000000000000000000000073ffffffffffffffffffffffffffffffffffffffff16610d2c611c88565b73ffffffffffffffffffffffffffffffffffffffff1614610d82576040517f08c379a0000000000000000000000000000000000000000000000000000000008152600401610d7990613600565b60405180910390fd5b610d8b81611cdb565b610de2815f67ffffffffffffffff811115610da957610da8612fc7565b5b6040519080825280601f01601f191660200182016040528015610ddb5781602001600182028036833780820191505090505b505f611ce6565b50565b5f5f610def611e50565b9050610e10818585610e01858961170d565b610e0b919061364b565b611e57565b600191505092915050565b610e2361186b565b610e2b61201a565b565b610e3e610e38611e50565b8261207b565b50565b7f000000000000000000000000000000000000000000000000000000000000000073ffffffffffffffffffffffffffffffffffffffff163073ffffffffffffffffffffffffffffffffffffffff1603610ecf576040517f08c379a0000000000000000000000000000000000000000000000000000000008152600401610ec690613572565b60405180910390fd5b7f000000000000000000000000000000000000000000000000000000000000000073ffffffffffffffffffffffffffffffffffffffff16610f0e611c88565b73ffffffffffffffffffffffffffffffffffffffff1614610f64576040517f08c379a0000000000000000000000000000000000000000000000000000000008152600401610f5b90613600565b60405180910390fd5b610f6d82611cdb565b610f7982826001611ce6565b5050565b5f7f000000000000000000000000000000000000000000000000000000000000000073ffffffffffffffffffffffffffffffffffffffff163073ffffffffffffffffffffffffffffffffffffffff161461100c576040517f08c379a0000000000000000000000000000000000000000000000000000000008152600401611003906136ee565b60405180910390fd5b7f360894a13ba1a3210667c828492db98dca3e2076cc3735a920a3ca505d382bbc5f1b905090565b61103c61186b565b5f73ffffffffffffffffffffffffffffffffffffffff168273ffffffffffffffffffffffffffffffffffffffff16036110a1576040517fd92e233d00000000000000000000000000000000000000000000000000000000815260040160405180910390fd5b806101615f8473ffffffffffffffffffffffffffffffffffffffff1673ffffffffffffffffffffffffffffffffffffffff1681526020019081526020015f205f6101000a81548160ff0219169083151502179055505050565b5f611103612240565b905090565b5f6101625f8373ffffffffffffffffffffffffffffffffffffffff1673ffffffffffffffffffffffffffffffffffffffff1681526020019081526020015f205f9054906101000a900460ff169050919050565b5f60985f9054906101000a900460ff16905090565b5f6101615f8373ffffffffffffffffffffffffffffffffffffffff1673ffffffffffffffffffffffffffffffffffffffff1681526020019081526020015f205f9054906101000a900460ff169050919050565b5f60335f8373ffffffffffffffffffffffffffffffffffffffff1673ffffffffffffffffffffffffffffffffffffffff1681526020019081526020015f20549050919050565b61121161186b565b61121a5f611ac1565b565b61122e82611228611e50565b83612254565b611238828261207b565b5050565b61124461186b565b60025f60019054906101000a900460ff1615801561127457508060ff165f5f9054906101000a900460ff1660ff16105b6112b3576040517f08c379a00000000000000000000000000000000000000000000000000000000081526004016112aa90613489565b60405180910390fd5b805f5f6101000a81548160ff021916908360ff16021790555060015f60016101000a81548160ff0219169083151502179055505f820361132d57610160546040517f53da26e90000000000000000000000000000000000000000000000000000000081526004016113249190612ef7565b60405180910390fd5b81610160819055505f5f60016101000a81548160ff0219169083151502179055507f7f26b83ff96e1f2b6a682f133852f6798a09c465da95921460cefb38474024988160405161137d9190612fa6565b60405180910390a15050565b61139161186b565b6113996122df565b565b5f61012e5f9054906101000a900473ffffffffffffffffffffffffffffffffffffffff16905090565b6113cc61186b565b5f73ffffffffffffffffffffffffffffffffffffffff168273ffffffffffffffffffffffffffffffffffffffff1603611431576040517fd92e233d00000000000000000000000000000000000000000000000000000000815260040160405180910390fd5b806101625f8473ffffffffffffffffffffffffffffffffffffffff1673ffffffffffffffffffffffffffffffffffffffff1681526020019081526020015f205f6101000a81548160ff0219169083151502179055505050565b606060378054611499906133e9565b80601f01602080910402602001604051908101604052809291908181526020018280546114c5906133e9565b80156115105780601f106114e757610100808354040283529160200191611510565b820191905f5260205f20905b8154815290600101906020018083116114f357829003601f168201915b5050505050905090565b5f5f611524611e50565b90505f611531828661170d565b905083811015611576576040517f08c379a000000000000000000000000000000000000000000000000000000000815260040161156d9061377c565b60405180910390fd5b6115838286868403611e57565b60019250505092915050565b5f81610160548111156115dc57610160546040517f53da26e90000000000000000000000000000000000000000000000000000000081526004016115d39190612ef7565b60405180910390fd5b336101615f8273ffffffffffffffffffffffffffffffffffffffff1673ffffffffffffffffffffffffffffffffffffffff1681526020019081526020015f205f9054906101000a900460ff161561166a57806040517f4c9237b10000000000000000000000000000000000000000000000000000000081526004016116619190613365565b60405180910390fd5b846101625f8273ffffffffffffffffffffffffffffffffffffffff1673ffffffffffffffffffffffffffffffffffffffff1681526020019081526020015f205f9054906101000a900460ff16156116f857806040517fb4cc90b70000000000000000000000000000000000000000000000000000000081526004016116ef9190613365565b60405180910390fd5b6117028686612341565b935050505092915050565b5f60345f8473ffffffffffffffffffffffffffffffffffffffff1673ffffffffffffffffffffffffffffffffffffffff1681526020019081526020015f205f8373ffffffffffffffffffffffffffffffffffffffff1673ffffffffffffffffffffffffffffffffffffffff1681526020019081526020015f2054905092915050565b5f61016054905090565b6117a161186b565b5f73ffffffffffffffffffffffffffffffffffffffff168173ffffffffffffffffffffffffffffffffffffffff160361180f576040517f08c379a00000000000000000000000000000000000000000000000000000000081526004016118069061380a565b60405180910390fd5b61181881611ac1565b50565b5f5f611825611e50565b9050611832818585611e57565b600191505092915050565b5f5f611847611e50565b9050611854858285612254565b61185f858585612363565b60019150509392505050565b611873611e50565b73ffffffffffffffffffffffffffffffffffffffff1661189161139b565b73ffffffffffffffffffffffffffffffffffffffff16146118e7576040517f08c379a00000000000000000000000000000000000000000000000000000000081526004016118de90613872565b60405180910390fd5b565b5f5f8273ffffffffffffffffffffffffffffffffffffffff163b119050919050565b5f60019054906101000a900460ff16611959576040517f08c379a000000000000000000000000000000000000000000000000000000000815260040161195090613900565b60405180910390fd5b61196382826125d2565b5050565b5f60019054906101000a900460ff166119b5576040517f08c379a00000000000000000000000000000000000000000000000000000000081526004016119ac90613900565b60405180910390fd5b6119be81612644565b50565b5f60019054906101000a900460ff16611a0f576040517f08c379a0000000000000000000000000000000000000000000000000000000008152600401611a0690613900565b60405180910390fd5b611a176126de565b565b5f60019054906101000a900460ff16611a67576040517f08c379a0000000000000000000000000000000000000000000000000000000008152600401611a5e90613900565b60405180910390fd5b565b5f60019054906101000a900460ff16611ab7576040517f08c379a0000000000000000000000000000000000000000000000000000000008152600401611aae90613900565b60405180910390fd5b611abf612747565b565b5f61012e5f9054906101000a900473ffffffffffffffffffffffffffffffffffffffff1690508161012e5f6101000a81548173ffffffffffffffffffffffffffffffffffffffff021916908373ffffffffffffffffffffffffffffffffffffffff1602179055508173ffffffffffffffffffffffffffffffffffffffff168173ffffffffffffffffffffffffffffffffffffffff167f8be0079c531659141344cd1fd0a4f28419497f9722a3daafe3b4186f6b6457e060405160405180910390a35050565b816101625f8273ffffffffffffffffffffffffffffffffffffffff1673ffffffffffffffffffffffffffffffffffffffff1681526020019081526020015f205f9054906101000a900460ff1615611c1457806040517fb4cc90b7000000000000000000000000000000000000000000000000000000008152600401611c0b9190613365565b60405180910390fd5b5f73ffffffffffffffffffffffffffffffffffffffff168373ffffffffffffffffffffffffffffffffffffffff1603611c79576040517fd92e233d00000000000000000000000000000000000000000000000000000000815260040160405180910390fd5b611c8383836127a7565b505050565b5f611cb47f360894a13ba1a3210667c828492db98dca3e2076cc3735a920a3ca505d382bbc5f1b6127b5565b5f015f9054906101000a900473ffffffffffffffffffffffffffffffffffffffff16905090565b611ce361186b565b50565b611d117f4910fdfa16fed3260ed0e7147f7cc6da11a60208b5b9406d12a635614ffd91435f1b6127be565b5f015f9054906101000a900460ff1615611d3357611d2e836127c7565b611e4b565b8273ffffffffffffffffffffffffffffffffffffffff166352d1902d6040518163ffffffff1660e01b8152600401602060405180830381865afa925050508015611d9b57506040513d601f19601f82011682018060405250810190611d989190613948565b60015b611dda576040517f08c379a0000000000000000000000000000000000000000000000000000000008152600401611dd1906139e3565b60405180910390fd5b7f360894a13ba1a3210667c828492db98dca3e2076cc3735a920a3ca505d382bbc5f1b8114611e3e576040517f08c379a0000000000000000000000000000000000000000000000000000000008152600401611e3590613a71565b60405180910390fd5b50611e4a83838361287d565b5b505050565b5f33905090565b5f73ffffffffffffffffffffffffffffffffffffffff168373ffffffffffffffffffffffffffffffffffffffff1603611ec5576040517f08c379a0000000000000000000000000000000000000000000000000000000008152600401611ebc90613aff565b60405180910390fd5b5f73ffffffffffffffffffffffffffffffffffffffff168273ffffffffffffffffffffffffffffffffffffffff1603611f33576040517f08c379a0000000000000000000000000000000000000000000000000000000008152600401611f2a90613b8d565b60405180910390fd5b8060345f8573ffffffffffffffffffffffffffffffffffffffff1673ffffffffffffffffffffffffffffffffffffffff1681526020019081526020015f205f8473ffffffffffffffffffffffffffffffffffffffff1673ffffffffffffffffffffffffffffffffffffffff1681526020019081526020015f20819055508173ffffffffffffffffffffffffffffffffffffffff168373ffffffffffffffffffffffffffffffffffffffff167f8c5be1e5ebec7d5bd14f71427d1e84f3dd0314c0f7b2291e5b200ac8c7c3b9258360405161200d9190612ef7565b60405180910390a3505050565b6120226128a8565b5f60985f6101000a81548160ff0219169083151502179055507f5db9ee0a495bf2e6ff9c91a7834c1ba4fdd244a5e8aa4e537bd38aeae4b073aa612064611e50565b6040516120719190613365565b60405180910390a1565b5f73ffffffffffffffffffffffffffffffffffffffff168273ffffffffffffffffffffffffffffffffffffffff16036120e9576040517f08c379a00000000000000000000000000000000000000000000000000000000081526004016120e090613c1b565b60405180910390fd5b6120f4825f836128f1565b5f60335f8473ffffffffffffffffffffffffffffffffffffffff1673ffffffffffffffffffffffffffffffffffffffff1681526020019081526020015f2054905081811015612178576040517f08c379a000000000000000000000000000000000000000000000000000000000815260040161216f90613ca9565b60405180910390fd5b81810360335f8573ffffffffffffffffffffffffffffffffffffffff1673ffffffffffffffffffffffffffffffffffffffff1681526020019081526020015f20819055508160355f82825403925050819055505f73ffffffffffffffffffffffffffffffffffffffff168373ffffffffffffffffffffffffffffffffffffffff167fddf252ad1be2c89b69c2b068fc378daa952ba7f163c4a11628f55a4df523b3ef846040516122289190612ef7565b60405180910390a361223b835f84612901565b505050565b5f5f5f9054906101000a900460ff16905090565b5f61225f848461170d565b90507fffffffffffffffffffffffffffffffffffffffffffffffffffffffffffffffff81146122d957818110156122cb576040517f08c379a00000000000000000000000000000000000000000000000000000000081526004016122c290613d11565b60405180910390fd5b6122d88484848403611e57565b5b50505050565b6122e7612906565b600160985f6101000a81548160ff0219169083151502179055507f62e78cea01bee320cd4e420270b5ea74000d11b0c9f74754ebdbfc544b05a25861232a611e50565b6040516123379190613365565b60405180910390a1565b5f5f61234b611e50565b9050612358818585612363565b600191505092915050565b5f73ffffffffffffffffffffffffffffffffffffffff168373ffffffffffffffffffffffffffffffffffffffff16036123d1576040517f08c379a00000000000000000000000000000000000000000000000000000000081526004016123c890613d9f565b60405180910390fd5b5f73ffffffffffffffffffffffffffffffffffffffff168273ffffffffffffffffffffffffffffffffffffffff160361243f576040517f08c379a000000000000000000000000000000000000000000000000000000000815260040161243690613e2d565b60405180910390fd5b61244a8383836128f1565b5f60335f8573ffffffffffffffffffffffffffffffffffffffff1673ffffffffffffffffffffffffffffffffffffffff1681526020019081526020015f20549050818110156124ce576040517f08c379a00000000000000000000000000000000000000000000000000000000081526004016124c590613ebb565b60405180910390fd5b81810360335f8673ffffffffffffffffffffffffffffffffffffffff1673ffffffffffffffffffffffffffffffffffffffff1681526020019081526020015f20819055508160335f8573ffffffffffffffffffffffffffffffffffffffff1673ffffffffffffffffffffffffffffffffffffffff1681526020019081526020015f205f82825401925050819055508273ffffffffffffffffffffffffffffffffffffffff168473ffffffffffffffffffffffffffffffffffffffff167fddf252ad1be2c89b69c2b068fc378daa952ba7f163c4a11628f55a4df523b3ef846040516125b99190612ef7565b60405180910390a36125cc848484612901565b50505050565b5f60019054906101000a900460ff16612620576040517f08c379a000000000000000000000000000000000000000000000000000000000815260040161261790613900565b60405180910390fd5b816036908161262f9190614070565b50806037908161263f9190614070565b505050565b5f60019054906101000a900460ff16612692576040517f08c379a000000000000000000000000000000000000000000000000000000000815260040161268990613900565b60405180910390fd5b5f81116126d4576040517f08c379a00000000000000000000000000000000000000000000000000000000081526004016126cb90614189565b60405180910390fd5b8060658190555050565b5f60019054906101000a900460ff1661272c576040517f08c379a000000000000000000000000000000000000000000000000000000000815260040161272390613900565b60405180910390fd5b5f60985f6101000a81548160ff021916908315150217905550565b5f60019054906101000a900460ff16612795576040517f08c379a000000000000000000000000000000000000000000000000000000000815260040161278c90613900565b60405180910390fd5b6127a56127a0611e50565b611ac1565b565b6127b18282612950565b5050565b5f819050919050565b5f819050919050565b6127d0816129ba565b61280f576040517f08c379a000000000000000000000000000000000000000000000000000000000815260040161280690614217565b60405180910390fd5b8061283b7f360894a13ba1a3210667c828492db98dca3e2076cc3735a920a3ca505d382bbc5f1b6127b5565b5f015f6101000a81548173ffffffffffffffffffffffffffffffffffffffff021916908373ffffffffffffffffffffffffffffffffffffffff16021790555050565b612886836129dc565b5f825111806128925750805b156128a3576128a18383612a2b565b505b505050565b6128b061115b565b6128ef576040517f08c379a00000000000000000000000000000000000000000000000000000000081526004016128e69061427f565b60405180910390fd5b565b6128fc838383612a58565b505050565b505050565b61290e61115b565b1561294e576040517f08c379a0000000000000000000000000000000000000000000000000000000008152600401612945906142e7565b60405180910390fd5b565b612958610c56565b8161296161089e565b61296b919061364b565b11156129ac576040517f08c379a00000000000000000000000000000000000000000000000000000000081526004016129a39061434f565b60405180910390fd5b6129b68282612ab0565b5050565b5f5f8273ffffffffffffffffffffffffffffffffffffffff163b119050919050565b6129e5816127c7565b8073ffffffffffffffffffffffffffffffffffffffff167fbc7cd75a20ee27fd9adebab32041f755214dbc6bffa90cc0225b39da2e5c2d3b60405160405180910390a250565b6060612a50838360405180606001604052806027815260200161452660279139612bff565b905092915050565b612a63838383612c81565b612a6b61115b565b15612aab576040517f08c379a0000000000000000000000000000000000000000000000000000000008152600401612aa2906143dd565b60405180910390fd5b505050565b5f73ffffffffffffffffffffffffffffffffffffffff168273ffffffffffffffffffffffffffffffffffffffff1603612b1e576040517f08c379a0000000000000000000000000000000000000000000000000000000008152600401612b1590614445565b60405180910390fd5b612b295f83836128f1565b8060355f828254612b3a919061364b565b925050819055508060335f8473ffffffffffffffffffffffffffffffffffffffff1673ffffffffffffffffffffffffffffffffffffffff1681526020019081526020015f205f82825401925050819055508173ffffffffffffffffffffffffffffffffffffffff165f73ffffffffffffffffffffffffffffffffffffffff167fddf252ad1be2c89b69c2b068fc378daa952ba7f163c4a11628f55a4df523b3ef83604051612be89190612ef7565b60405180910390a3612bfb5f8383612901565b5050565b60605f5f8573ffffffffffffffffffffffffffffffffffffffff1685604051612c2891906144a7565b5f60405180830381855af49150503d805f8114612c60576040519150601f19603f3d011682016040523d82523d5f602084013e612c65565b606091505b5091509150612c7686838387612c86565b925050509392505050565b505050565b60608315612ce7575f835103612cdf57612c9f856129ba565b612cde576040517f08c379a0000000000000000000000000000000000000000000000000000000008152600401612cd590614507565b60405180910390fd5b5b829050612cf2565b612cf18383612cfa565b5b949350505050565b5f82511115612d0c5781518083602001fd5b806040517f08c379a0000000000000000000000000000000000000000000000000000000008152600401612d409190612db9565b60405180910390fd5b5f81519050919050565b5f82825260208201905092915050565b8281835e5f83830152505050565b5f601f19601f8301169050919050565b5f612d8b82612d49565b612d958185612d53565b9350612da5818560208601612d63565b612dae81612d71565b840191505092915050565b5f6020820190508181035f830152612dd18184612d81565b905092915050565b5f604051905090565b5f5ffd5b5f5ffd5b5f73ffffffffffffffffffffffffffffffffffffffff82169050919050565b5f612e1382612dea565b9050919050565b612e2381612e09565b8114612e2d575f5ffd5b50565b5f81359050612e3e81612e1a565b92915050565b5f819050919050565b612e5681612e44565b8114612e60575f5ffd5b50565b5f81359050612e7181612e4d565b92915050565b5f5f60408385031215612e8d57612e8c612de2565b5b5f612e9a85828601612e30565b9250506020612eab85828601612e63565b9150509250929050565b5f8115159050919050565b612ec981612eb5565b82525050565b5f602082019050612ee25f830184612ec0565b92915050565b612ef181612e44565b82525050565b5f602082019050612f0a5f830184612ee8565b92915050565b5f5f5f60608486031215612f2757612f26612de2565b5b5f612f3486828701612e30565b9350506020612f4586828701612e30565b9250506040612f5686828701612e63565b9150509250925092565b5f60208284031215612f7557612f74612de2565b5b5f612f8284828501612e63565b91505092915050565b5f60ff82169050919050565b612fa081612f8b565b82525050565b5f602082019050612fb95f830184612f97565b92915050565b5f5ffd5b5f5ffd5b7f4e487b71000000000000000000000000000000000000000000000000000000005f52604160045260245ffd5b612ffd82612d71565b810181811067ffffffffffffffff8211171561301c5761301b612fc7565b5b80604052505050565b5f61302e612dd9565b905061303a8282612ff4565b919050565b5f67ffffffffffffffff82111561305957613058612fc7565b5b61306282612d71565b9050602081019050919050565b828183375f83830152505050565b5f61308f61308a8461303f565b613025565b9050828152602081018484840111156130ab576130aa612fc3565b5b6130b684828561306f565b509392505050565b5f82601f8301126130d2576130d1612fbf565b5b81356130e284826020860161307d565b91505092915050565b5f5f5f5f5f60a0868803121561310457613103612de2565b5b5f86013567ffffffffffffffff81111561312157613120612de6565b5b61312d888289016130be565b955050602086013567ffffffffffffffff81111561314e5761314d612de6565b5b61315a888289016130be565b945050604061316b88828901612e63565b935050606061317c88828901612e63565b925050608061318d88828901612e30565b9150509295509295909350565b5f602082840312156131af576131ae612de2565b5b5f6131bc84828501612e30565b91505092915050565b5f67ffffffffffffffff8211156131df576131de612fc7565b5b6131e882612d71565b9050602081019050919050565b5f613207613202846131c5565b613025565b90508281526020810184848401111561322357613222612fc3565b5b61322e84828561306f565b509392505050565b5f82601f83011261324a57613249612fbf565b5b813561325a8482602086016131f5565b91505092915050565b5f5f6040838503121561327957613278612de2565b5b5f61328685828601612e30565b925050602083013567ffffffffffffffff8111156132a7576132a6612de6565b5b6132b385828601613236565b9150509250929050565b5f819050919050565b6132cf816132bd565b82525050565b5f6020820190506132e85f8301846132c6565b92915050565b6132f781612eb5565b8114613301575f5ffd5b50565b5f81359050613312816132ee565b92915050565b5f5f6040838503121561332e5761332d612de2565b5b5f61333b85828601612e30565b925050602061334c85828601613304565b9150509250929050565b61335f81612e09565b82525050565b5f6020820190506133785f830184613356565b92915050565b5f5f6040838503121561339457613393612de2565b5b5f6133a185828601612e30565b92505060206133b285828601612e30565b9150509250929050565b7f4e487b71000000000000000000000000000000000000000000000000000000005f52602260045260245ffd5b5f600282049050600182168061340057607f821691505b602082108103613413576134126133bc565b5b50919050565b7f496e697469616c697a61626c653a20636f6e747261637420697320616c7265615f8201527f647920696e697469616c697a6564000000000000000000000000000000000000602082015250565b5f613473602e83612d53565b915061347e82613419565b604082019050919050565b5f6020820190508181035f8301526134a081613467565b9050919050565b5f819050919050565b5f819050919050565b5f6134d36134ce6134c9846134a7565b6134b0565b612f8b565b9050919050565b6134e3816134b9565b82525050565b5f6020820190506134fc5f8301846134da565b92915050565b7f46756e6374696f6e206d7573742062652063616c6c6564207468726f756768205f8201527f64656c656761746563616c6c0000000000000000000000000000000000000000602082015250565b5f61355c602c83612d53565b915061356782613502565b604082019050919050565b5f6020820190508181035f83015261358981613550565b9050919050565b7f46756e6374696f6e206d7573742062652063616c6c6564207468726f756768205f8201527f6163746976652070726f78790000000000000000000000000000000000000000602082015250565b5f6135ea602c83612d53565b91506135f582613590565b604082019050919050565b5f6020820190508181035f830152613617816135de565b9050919050565b7f4e487b71000000000000000000000000000000000000000000000000000000005f52601160045260245ffd5b5f61365582612e44565b915061366083612e44565b92508282019050808211156136785761367761361e565b5b92915050565b7f555550535570677261646561626c653a206d757374206e6f742062652063616c5f8201527f6c6564207468726f7567682064656c656761746563616c6c0000000000000000602082015250565b5f6136d8603883612d53565b91506136e38261367e565b604082019050919050565b5f6020820190508181035f830152613705816136cc565b9050919050565b7f45524332303a2064656372656173656420616c6c6f77616e63652062656c6f775f8201527f207a65726f000000000000000000000000000000000000000000000000000000602082015250565b5f613766602583612d53565b91506137718261370c565b604082019050919050565b5f6020820190508181035f8301526137938161375a565b9050919050565b7f4f776e61626c653a206e6577206f776e657220697320746865207a65726f20615f8201527f6464726573730000000000000000000000000000000000000000000000000000602082015250565b5f6137f4602683612d53565b91506137ff8261379a565b604082019050919050565b5f6020820190508181035f830152613821816137e8565b9050919050565b7f4f776e61626c653a2063616c6c6572206973206e6f7420746865206f776e65725f82015250565b5f61385c602083612d53565b915061386782613828565b602082019050919050565b5f6020820190508181035f83015261388981613850565b9050919050565b7f496e697469616c697a61626c653a20636f6e7472616374206973206e6f7420695f8201527f6e697469616c697a696e67000000000000000000000000000000000000000000602082015250565b5f6138ea602b83612d53565b91506138f582613890565b604082019050919050565b5f6020820190508181035f830152613917816138de565b9050919050565b613927816132bd565b8114613931575f5ffd5b50565b5f815190506139428161391e565b92915050565b5f6020828403121561395d5761395c612de2565b5b5f61396a84828501613934565b91505092915050565b7f45524331393637557067726164653a206e657720696d706c656d656e746174695f8201527f6f6e206973206e6f742055555053000000000000000000000000000000000000602082015250565b5f6139cd602e83612d53565b91506139d882613973565b604082019050919050565b5f6020820190508181035f8301526139fa816139c1565b9050919050565b7f45524331393637557067726164653a20756e737570706f727465642070726f785f8201527f6961626c65555549440000000000000000000000000000000000000000000000602082015250565b5f613a5b602983612d53565b9150613a6682613a01565b604082019050919050565b5f6020820190508181035f830152613a8881613a4f565b9050919050565b7f45524332303a20617070726f76652066726f6d20746865207a65726f206164645f8201527f7265737300000000000000000000000000000000000000000000000000000000602082015250565b5f613ae9602483612d53565b9150613af482613a8f565b604082019050919050565b5f6020820190508181035f830152613b1681613add565b9050919050565b7f45524332303a20617070726f766520746f20746865207a65726f2061646472655f8201527f7373000000000000000000000000000000000000000000000000000000000000602082015250565b5f613b77602283612d53565b9150613b8282613b1d565b604082019050919050565b5f6020820190508181035f830152613ba481613b6b565b9050919050565b7f45524332303a206275726e2066726f6d20746865207a65726f206164647265735f8201527f7300000000000000000000000000000000000000000000000000000000000000602082015250565b5f613c05602183612d53565b9150613c1082613bab565b604082019050919050565b5f6020820190508181035f830152613c3281613bf9565b9050919050565b7f45524332303a206275726e20616d6f756e7420657863656564732062616c616e5f8201527f6365000000000000000000000000000000000000000000000000000000000000602082015250565b5f613c93602283612d53565b9150613c9e82613c39565b604082019050919050565b5f6020820190508181035f830152613cc081613c87565b9050919050565b7f45524332303a20696e73756666696369656e7420616c6c6f77616e63650000005f82015250565b5f613cfb601d83612d53565b9150613d0682613cc7565b602082019050919050565b5f6020820190508181035f830152613d2881613cef565b9050919050565b7f45524332303a207472616e736665722066726f6d20746865207a65726f2061645f8201527f6472657373000000000000000000000000000000000000000000000000000000602082015250565b5f613d89602583612d53565b9150613d9482613d2f565b604082019050919050565b5f6020820190508181035f830152613db681613d7d565b9050919050565b7f45524332303a207472616e7366657220746f20746865207a65726f20616464725f8201527f6573730000000000000000000000000000000000000000000000000000000000602082015250565b5f613e17602383612d53565b9150613e2282613dbd565b604082019050919050565b5f6020820190508181035f830152613e4481613e0b565b9050919050565b7f45524332303a207472616e7366657220616d6f756e74206578636565647320625f8201527f616c616e63650000000000000000000000000000000000000000000000000000602082015250565b5f613ea5602683612d53565b9150613eb082613e4b565b604082019050919050565b5f6020820190508181035f830152613ed281613e99565b9050919050565b5f819050815f5260205f209050919050565b5f6020601f8301049050919050565b5f82821b905092915050565b5f60088302613f357fffffffffffffffffffffffffffffffffffffffffffffffffffffffffffffffff82613efa565b613f3f8683613efa565b95508019841693508086168417925050509392505050565b5f613f71613f6c613f6784612e44565b6134b0565b612e44565b9050919050565b5f819050919050565b613f8a83613f57565b613f9e613f9682613f78565b848454613f06565b825550505050565b5f5f905090565b613fb5613fa6565b613fc0818484613f81565b505050565b5b81811015613fe357613fd85f82613fad565b600181019050613fc6565b5050565b601f82111561402857613ff981613ed9565b61400284613eeb565b81016020851015614011578190505b61402561401d85613eeb565b830182613fc5565b50505b505050565b5f82821c905092915050565b5f6140485f198460080261402d565b1980831691505092915050565b5f6140608383614039565b9150826002028217905092915050565b61407982612d49565b67ffffffffffffffff81111561409257614091612fc7565b5b61409c82546133e9565b6140a7828285613fe7565b5f60209050601f8311600181146140d8575f84156140c6578287015190505b6140d08582614055565b865550614137565b601f1984166140e686613ed9565b5f5b8281101561410d578489015182556001820191506020850194506020810190506140e8565b8683101561412a5784890151614126601f891682614039565b8355505b6001600288020188555050505b505050505050565b7f45524332304361707065643a20636170206973203000000000000000000000005f82015250565b5f614173601583612d53565b915061417e8261413f565b602082019050919050565b5f6020820190508181035f8301526141a081614167565b9050919050565b7f455243313936373a206e657720696d706c656d656e746174696f6e206973206e5f8201527f6f74206120636f6e747261637400000000000000000000000000000000000000602082015250565b5f614201602d83612d53565b915061420c826141a7565b604082019050919050565b5f6020820190508181035f83015261422e816141f5565b9050919050565b7f5061757361626c653a206e6f74207061757365640000000000000000000000005f82015250565b5f614269601483612d53565b915061427482614235565b602082019050919050565b5f6020820190508181035f8301526142968161425d565b9050919050565b7f5061757361626c653a20706175736564000000000000000000000000000000005f82015250565b5f6142d1601083612d53565b91506142dc8261429d565b602082019050919050565b5f6020820190508181035f8301526142fe816142c5565b9050919050565b7f45524332304361707065643a20636170206578636565646564000000000000005f82015250565b5f614339601983612d53565b915061434482614305565b602082019050919050565b5f6020820190508181035f8301526143668161432d565b9050919050565b7f45524332305061757361626c653a20746f6b656e207472616e736665722077685f8201527f696c652070617573656400000000000000000000000000000000000000000000602082015250565b5f6143c7602a83612d53565b91506143d28261436d565b604082019050919050565b5f6020820190508181035f8301526143f4816143bb565b9050919050565b7f45524332303a206d696e7420746f20746865207a65726f2061646472657373005f82015250565b5f61442f601f83612d53565b915061443a826143fb565b602082019050919050565b5f6020820190508181035f83015261445c81614423565b9050919050565b5f81519050919050565b5f81905092915050565b5f61448182614463565b61448b818561446d565b935061449b818560208601612d63565b80840191505092915050565b5f6144b28284614477565b915081905092915050565b7f416464726573733a2063616c6c20746f206e6f6e2d636f6e74726163740000005f82015250565b5f6144f1601d83612d53565b91506144fc826144bd565b602082019050919050565b5f6020820190508181035f83015261451e816144e5565b905091905056fe416464726573733a206c6f772d6c6576656c2064656c65676174652063616c6c206661696c6564a2646970667358221220023f4877fa36146d7d667e50266983e05411c20ccea7b51ea33cb01bb1c8527f64736f6c634300081e0033","linkReferences":{}},"methodIdentifiers":{"allowance(address,address)":"dd62ed3e","approve(address,uint256)":"095ea7b3","balanceOf(address)":"70a08231","burn(uint256)":"42966c68","burnFrom(address,uint256)":"79cc6790","cap()":"355274ea","decimals()":"313ce567","decreaseAllowance(address,uint256)":"a457c2d7","getMaxTransferAmount()":"f036452a","getReceiverLockStatus(address)":"59c018ac","getSenderLockStatus(address)":"5e3b6b1c","increaseAllowance(address,uint256)":"39509351","initialize(string,string,uint256,uint256,address)":"33eea181","initialize2(uint256)":"8298c0a6","modifyMaxTransferAmount(uint256)":"257c4137","modifyReceiver(address,bool)":"9467cba2","modifySender(address,bool)":"546e428c","name()":"06fdde03","owner()":"8da5cb5b","pause()":"8456cb59","paused()":"5c975abb","proxiableUUID()":"52d1902d","renounceOwnership()":"715018a6","symbol()":"95d89b41","totalSupply()":"18160ddd","transfer(address,uint256)":"a9059cbb","transferFrom(address,address,uint256)":"23b872dd","transferOwnership(address)":"f2fde38b","unpause()":"3f4ba83a","upgradeTo(address)":"3659cfe6","upgradeToAndCall(address,bytes)":"4f1ef286","version()":"54fd4d50"},"id":43}