{"abi":[{"type":"function","name":"allowance","inputs":[{"name":"owner","type":"address","internalType":"address"},{"name":"spender","type":"address","internalType":"address"}],"outputs":[{"name":"","type":"uint256","internalType":"uint256"}],"stateMutability":"view"},{"type":"function","name":"approve","inputs":[{"name":"spender","type":"address","internalType":"address"},{"name":"amount","type":"uint256","internalType":"uint256"}],"outputs":[{"name":"","type":"bool","internalType":"bool"}],"stateMutability":"nonpayable"},{"type":"function","name":"balanceOf","inputs":[{"name":"account","type":"address","internalType":"address"}],"outputs":[{"name":"","type":"uint256","internalType":"uint256"}],"stateMutability":"view"},{"type":"function","name":"burn","inputs":[{"name":"amount","type":"uint256","internalType":"uint256"}],"outputs":[],"stateMutability":"nonpayable"},{"type":"function","name":"burnFrom","inputs":[{"name":"account","type":"address","internalType":"address"},{"name":"amount","type":"uint256","internalType":"uint256"}],"outputs":[],"stateMutability":"nonpayable"},{"type":"function","name":"cap","inputs":[],"outputs":[{"name":"","type":"uint256","internalType":"uint256"}],"stateMutability":"view"},{"type":"function","name":"decimals","inputs":[],"outputs":[{"name":"","type":"uint8","internalType":"uint8"}],"stateMutability":"view"},{"type":"function","name":"decreaseAllowance","inputs":[{"name":"spender","type":"address","internalType":"address"},{"name":"subtractedValue","type":"uint256","internalType":"uint256"}],"outputs":[{"name":"","type":"bool","internalType":"bool"}],"stateMutability":"nonpayable"},{"type":"function","name":"getReceiverLockStatus","inputs":[{"name":"user","type":"address","internalType":"address"}],"outputs":[{"name":"","type":"bool","internalType":"bool"}],"stateMutability":"view"},{"type":"function","name":"getSenderLockStatus","inputs":[{"name":"user","type":"address","internalType":"address"}],"outputs":[{"name":"","type":"bool","internalType":"bool"}],"stateMutability":"view"},{"type":"function","name":"increaseAllowance","inputs":[{"name":"spender","type":"address","internalType":"address"},{"name":"addedValue","type":"uint256","internalType":"uint256"}],"outputs":[{"name":"","type":"bool","internalType":"bool"}],"stateMutability":"nonpayable"},{"type":"function","name":"initialize","inputs":[{"name":"name_","type":"string","internalType":"string"},{"name":"symbol_","type":"string","internalType":"string"},{"name":"cap_","type":"uint256","internalType":"uint256"},{"name":"initialSupply_","type":"uint256","internalType":"uint256"},{"name":"initialOwner_","type":"address","internalType":"address"}],"outputs":[],"stateMutability":"nonpayable"},{"type":"function","name":"initialize2","inputs":[],"outputs":[],"stateMutability":"nonpayable"},{"type":"function","name":"modifyReceiver","inputs":[{"name":"receiver","type":"address","internalType":"address"},{"name":"islocked","type":"bool","internalType":"bool"}],"outputs":[],"stateMutability":"nonpayable"},{"type":"function","name":"modifySender","inputs":[{"name":"sender","type":"address","internalType":"address"},{"name":"islocked","type":"bool","internalType":"bool"}],"outputs":[],"stateMutability":"nonpayable"},{"type":"function","name":"name","inputs":[],"outputs":[{"name":"","type":"string","internalType":"string"}],"stateMutability":"view"},{"type":"function","name":"owner","inputs":[],"outputs":[{"name":"","type":"address","internalType":"address"}],"stateMutability":"view"},{"type":"function","name":"pause","inputs":[],"outputs":[],"stateMutability":"nonpayable"},{"type":"function","name":"paused","inputs":[],"outputs":[{"name":"","type":"bool","internalType":"bool"}],"stateMutability":"view"},{"type":"function","name":"proxiableUUID","inputs":[],"outputs":[{"name":"","type":"bytes32","internalType":"bytes32"}],"stateMutability":"view"},{"type":"function","name":"renounceOwnership","inputs":[],"outputs":[],"stateMutability":"nonpayable"},{"type":"function","name":"symbol","inputs":[],"outputs":[{"name":"","type":"string","internalType":"string"}],"stateMutability":"view"},{"type":"function","name":"totalSupply","inputs":[],"outputs":[{"name":"","type":"uint256","internalType":"uint256"}],"stateMutability":"view"},{"type":"function","name":"transfer","inputs":[{"name":"to","type":"address","internalType":"address"},{"name":"amount","type":"uint256","internalType":"uint256"}],"outputs":[{"name":"","type":"bool","internalType":"bool"}],"stateMutability":"nonpayable"},{"type":"function","name":"transferFrom","inputs":[{"name":"from","type":"address","internalType":"address"},{"name":"to","type":"address","internalType":"address"},{"name":"amount","type":"uint256","internalType":"uint256"}],"outputs":[{"name":"","type":"bool","internalType":"bool"}],"stateMutability":"nonpayable"},{"type":"function","name":"transferOwnership","inputs":[{"name":"newOwner","type":"address","internalType":"address"}],"outputs":[],"stateMutability":"nonpayable"},{"type":"function","name":"unpause","inputs":[],"outputs":[],"stateMutability":"nonpayable"},{"type":"function","name":"upgradeTo","inputs":[{"name":"newImplementation","type":"address","internalType":"address"}],"outputs":[],"stateMutability":"nonpayable"},{"type":"function","name":"upgradeToAndCall","inputs":[{"name":"newImplementation","type":"address","internalType":"address"},{"name":"data","type":"bytes","internalType":"bytes"}],"outputs":[],"stateMutability":"payable"},{"type":"function","name":"version","inputs":[],"outputs":[{"name":"","type":"uint8","internalType":"uint8"}],"stateMutability":"view"},{"type":"event","name":"AdminChanged","inputs":[{"name":"previousAdmin","type":"address","indexed":false,"internalType":"address"},{"name":"newAdmin","type":"address","indexed":false,"internalType":"address"}],"anonymous":false},{"type":"event","name":"Approval","inputs":[{"name":"owner","type":"address","indexed":true,"internalType":"address"},{"name":"spender","type":"address","indexed":true,"internalType":"address"},{"name":"value","type":"uint256","indexed":false,"internalType":"uint256"}],"anonymous":false},{"type":"event","name":"BeaconUpgraded","inputs":[{"name":"beacon","type":"address","indexed":true,"internalType":"address"}],"anonymous":false},{"type":"event","name":"Initialized","inputs":[{"name":"version","type":"uint8","indexed":false,"internalType":"uint8"}],"anonymous":false},{"type":"event","name":"OwnershipTransferred","inputs":[{"name":"previousOwner","type":"address","indexed":true,"internalType":"address"},{"name":"newOwner","type":"address","indexed":true,"internalType":"address"}],"anonymous":false},{"type":"event","name":"Paused","inputs":[{"name":"account","type":"address","indexed":false,"internalType":"address"}],"anonymous":false},{"type":"event","name":"Transfer","inputs":[{"name":"from","type":"address","indexed":true,"internalType":"address"},{"name":"to","type":"address","indexed":true,"internalType":"address"},{"name":"value","type":"uint256","indexed":false,"internalType":"uint256"}],"anonymous":false},{"type":"event","name":"Unpaused","inputs":[{"name":"account","type":"address","indexed":false,"internalType":"address"}],"anonymous":false},{"type":"event","name":"Upgraded","inputs":[{"name":"implementation","type":"address","indexed":true,"internalType":"address"}],"anonymous":false},{"type":"error","name":"ReceiverIsLock","inputs":[{"name":"user","type":"address","internalType":"address"}]},{"type":"error","name":"SenderIsLock","inputs":[{"name":"user","type":"address","internalType":"address"}]}],"bytecode":{"object":"0x60a06040523073ffffffffffffffffffffffffffffffffffffffff1660809073ffffffffffffffffffffffffffffffffffffffff16815250348015610042575f5ffd5b5061005161005660201b60201c565b6101e6565b5f60019054906101000a900460ff16156100a5576040517f08c379a000000000000000000000000000000000000000000000000000000000815260040161009c90610194565b60405180910390fd5b60ff80165f5f9054906101000a900460ff1660ff16146101125760ff5f5f6101000a81548160ff021916908360ff1602179055507f7f26b83ff96e1f2b6a682f133852f6798a09c465da95921460cefb384740249860ff60405161010991906101cd565b60405180910390a15b565b5f82825260208201905092915050565b7f496e697469616c697a61626c653a20636f6e747261637420697320696e6974695f8201527f616c697a696e6700000000000000000000000000000000000000000000000000602082015250565b5f61017e602783610114565b915061018982610124565b604082019050919050565b5f6020820190508181035f8301526101ab81610172565b9050919050565b5f60ff82169050919050565b6101c7816101b2565b82525050565b5f6020820190506101e05f8301846101be565b92915050565b60805161436861021a5f395f8181610be801528181610c7601528181610ebf01528181610f4d0152610ffc01526143685ff3fe6080604052600436106101cc575f3560e01c806354fd4d50116100f65780638456cb5911610094578063a457c2d711610063578063a457c2d714610616578063a9059cbb14610652578063dd62ed3e1461068e578063f2fde38b146106ca576101cc565b80638456cb59146105845780638da5cb5b1461059a5780639467cba2146105c457806395d89b41146105ec576101cc565b80635e3b6b1c116100d05780635e3b6b1c146104ce57806370a082311461050a578063715018a61461054657806379cc67901461055c576101cc565b806354fd4d501461043e57806359c018ac146104685780635c975abb146104a4576101cc565b80633659cfe61161016e578063472abf681161013d578063472abf68146103ba5780634f1ef286146103d057806352d1902d146103ec578063546e428c14610416576101cc565b80633659cfe61461031857806339509351146103405780633f4ba83a1461037c57806342966c6814610392576101cc565b806323b872dd116101aa57806323b872dd14610260578063313ce5671461029c57806333eea181146102c6578063355274ea146102ee576101cc565b806306fdde03146101d0578063095ea7b3146101fa57806318160ddd14610236575b5f5ffd5b3480156101db575f5ffd5b506101e46106f2565b6040516101f19190612b9f565b60405180910390f35b348015610205575f5ffd5b50610220600480360381019061021b9190612c5d565b610782565b60405161022d9190612cb5565b60405180910390f35b348015610241575f5ffd5b5061024a6108f0565b6040516102579190612cdd565b60405180910390f35b34801561026b575f5ffd5b5061028660048036038101906102819190612cf6565b6108f9565b6040516102939190612cb5565b60405180910390f35b3480156102a7575f5ffd5b506102b0610a69565b6040516102bd9190612d61565b60405180910390f35b3480156102d1575f5ffd5b506102ec60048036038101906102e79190612ea6565b610a71565b005b3480156102f9575f5ffd5b50610302610bdd565b60405161030f9190612cdd565b60405180910390f35b348015610323575f5ffd5b5061033e60048036038101906103399190612f55565b610be6565b005b34801561034b575f5ffd5b5061036660048036038101906103619190612c5d565b610d6c565b6040516103739190612cb5565b60405180910390f35b348015610387575f5ffd5b50610390610da2565b005b34801561039d575f5ffd5b506103b860048036038101906103b39190612f80565b610db4565b005b3480156103c5575f5ffd5b506103ce610dc8565b005b6103ea60048036038101906103e59190613049565b610ebd565b005b3480156103f7575f5ffd5b50610400610ff9565b60405161040d91906130bb565b60405180910390f35b348015610421575f5ffd5b5061043c600480360381019061043791906130fe565b6110b0565b005b348015610449575f5ffd5b50610452611111565b60405161045f9190612d61565b60405180910390f35b348015610473575f5ffd5b5061048e60048036038101906104899190612f55565b61111f565b60405161049b9190612cb5565b60405180910390f35b3480156104af575f5ffd5b506104b8611172565b6040516104c59190612cb5565b60405180910390f35b3480156104d9575f5ffd5b506104f460048036038101906104ef9190612f55565b611187565b6040516105019190612cb5565b60405180910390f35b348015610515575f5ffd5b50610530600480360381019061052b9190612f55565b6111da565b60405161053d9190612cdd565b60405180910390f35b348015610551575f5ffd5b5061055a611220565b005b348015610567575f5ffd5b50610582600480360381019061057d9190612c5d565b611233565b005b34801561058f575f5ffd5b50610598611253565b005b3480156105a5575f5ffd5b506105ae611265565b6040516105bb919061314b565b60405180910390f35b3480156105cf575f5ffd5b506105ea60048036038101906105e591906130fe565b61128e565b005b3480156105f7575f5ffd5b506106006112ef565b60405161060d9190612b9f565b60405180910390f35b348015610621575f5ffd5b5061063c60048036038101906106379190612c5d565b61137f565b6040516106499190612cb5565b60405180910390f35b34801561065d575f5ffd5b5061067860048036038101906106739190612c5d565b6113f4565b6040516106859190612cb5565b60405180910390f35b348015610699575f5ffd5b506106b460048036038101906106af9190613164565b611562565b6040516106c19190612cdd565b60405180910390f35b3480156106d5575f5ffd5b506106f060048036038101906106eb9190612f55565b6115e4565b005b606060368054610701906131cf565b80601f016020809104026020016040519081016040528092919081815260200182805461072d906131cf565b80156107785780601f1061074f57610100808354040283529160200191610778565b820191905f5260205f20905b81548152906001019060200180831161075b57829003601f168201915b5050505050905090565b5f335f73ffffffffffffffffffffffffffffffffffffffff168173ffffffffffffffffffffffffffffffffffffffff16146107bd57806107bf565b335b90506101605f8273ffffffffffffffffffffffffffffffffffffffff1673ffffffffffffffffffffffffffffffffffffffff1681526020019081526020015f205f9054906101000a900460ff161561084e57806040517f4c9237b1000000000000000000000000000000000000000000000000000000008152600401610845919061314b565b60405180910390fd5b836101615f8273ffffffffffffffffffffffffffffffffffffffff1673ffffffffffffffffffffffffffffffffffffffff1681526020019081526020015f205f9054906101000a900460ff16156108dc57806040517fb4cc90b70000000000000000000000000000000000000000000000000000000081526004016108d3919061314b565b60405180910390fd5b6108e68585611666565b9250505092915050565b5f603554905090565b5f835f73ffffffffffffffffffffffffffffffffffffffff168173ffffffffffffffffffffffffffffffffffffffff16146109345780610936565b335b90506101605f8273ffffffffffffffffffffffffffffffffffffffff1673ffffffffffffffffffffffffffffffffffffffff1681526020019081526020015f205f9054906101000a900460ff16156109c557806040517f4c9237b10000000000000000000000000000000000000000000000000000000081526004016109bc919061314b565b60405180910390fd5b836101615f8273ffffffffffffffffffffffffffffffffffffffff1673ffffffffffffffffffffffffffffffffffffffff1681526020019081526020015f205f9054906101000a900460ff1615610a5357806040517fb4cc90b7000000000000000000000000000000000000000000000000000000008152600401610a4a919061314b565b60405180910390fd5b610a5e868686611688565b925050509392505050565b5f6012905090565b5f5f60019054906101000a900460ff16159050808015610aa1575060015f5f9054906101000a900460ff1660ff16105b80610ace5750610ab0306116b6565b158015610acd575060015f5f9054906101000a900460ff1660ff16145b5b610b0d576040517f08c379a0000000000000000000000000000000000000000000000000000000008152600401610b049061326f565b60405180910390fd5b60015f5f6101000a81548160ff021916908360ff1602179055508015610b485760015f60016101000a81548160ff0219169083151502179055505b610b5286866116d8565b610b5b84611734565b610b6361178e565b610b6b6117e6565b610b73611836565b610b7d828461188e565b8015610bd5575f5f60016101000a81548160ff0219169083151502179055507f7f26b83ff96e1f2b6a682f133852f6798a09c465da95921460cefb38474024986001604051610bcc91906132cf565b60405180910390a15b505050505050565b5f606554905090565b7f000000000000000000000000000000000000000000000000000000000000000073ffffffffffffffffffffffffffffffffffffffff163073ffffffffffffffffffffffffffffffffffffffff1603610c74576040517f08c379a0000000000000000000000000000000000000000000000000000000008152600401610c6b90613358565b60405180910390fd5b7f000000000000000000000000000000000000000000000000000000000000000073ffffffffffffffffffffffffffffffffffffffff16610cb361192b565b73ffffffffffffffffffffffffffffffffffffffff1614610d09576040517f08c379a0000000000000000000000000000000000000000000000000000000008152600401610d00906133e6565b60405180910390fd5b610d128161197e565b610d69815f67ffffffffffffffff811115610d3057610d2f612d82565b5b6040519080825280601f01601f191660200182016040528015610d625781602001600182028036833780820191505090505b505f611989565b50565b5f5f610d76611af3565b9050610d97818585610d888589611562565b610d929190613431565b611afa565b600191505092915050565b610daa611cbd565b610db2611d3b565b565b610dc5610dbf611af3565b82611d9c565b50565b60025f60019054906101000a900460ff16158015610df857508060ff165f5f9054906101000a900460ff1660ff16105b610e37576040517f08c379a0000000000000000000000000000000000000000000000000000000008152600401610e2e9061326f565b60405180910390fd5b805f5f6101000a81548160ff021916908360ff16021790555060015f60016101000a81548160ff0219169083151502179055505f5f60016101000a81548160ff0219169083151502179055507f7f26b83ff96e1f2b6a682f133852f6798a09c465da95921460cefb384740249881604051610eb29190612d61565b60405180910390a150565b7f000000000000000000000000000000000000000000000000000000000000000073ffffffffffffffffffffffffffffffffffffffff163073ffffffffffffffffffffffffffffffffffffffff1603610f4b576040517f08c379a0000000000000000000000000000000000000000000000000000000008152600401610f4290613358565b60405180910390fd5b7f000000000000000000000000000000000000000000000000000000000000000073ffffffffffffffffffffffffffffffffffffffff16610f8a61192b565b73ffffffffffffffffffffffffffffffffffffffff1614610fe0576040517f08c379a0000000000000000000000000000000000000000000000000000000008152600401610fd7906133e6565b60405180910390fd5b610fe98261197e565b610ff582826001611989565b5050565b5f7f000000000000000000000000000000000000000000000000000000000000000073ffffffffffffffffffffffffffffffffffffffff163073ffffffffffffffffffffffffffffffffffffffff1614611088576040517f08c379a000000000000000000000000000000000000000000000000000000000815260040161107f906134d4565b60405180910390fd5b7f360894a13ba1a3210667c828492db98dca3e2076cc3735a920a3ca505d382bbc5f1b905090565b6110b8611cbd565b806101605f8473ffffffffffffffffffffffffffffffffffffffff1673ffffffffffffffffffffffffffffffffffffffff1681526020019081526020015f205f6101000a81548160ff0219169083151502179055505050565b5f61111a611f61565b905090565b5f6101615f8373ffffffffffffffffffffffffffffffffffffffff1673ffffffffffffffffffffffffffffffffffffffff1681526020019081526020015f205f9054906101000a900460ff169050919050565b5f60985f9054906101000a900460ff16905090565b5f6101605f8373ffffffffffffffffffffffffffffffffffffffff1673ffffffffffffffffffffffffffffffffffffffff1681526020019081526020015f205f9054906101000a900460ff169050919050565b5f60335f8373ffffffffffffffffffffffffffffffffffffffff1673ffffffffffffffffffffffffffffffffffffffff1681526020019081526020015f20549050919050565b611228611cbd565b6112315f611f75565b565b6112458261123f611af3565b8361203a565b61124f8282611d9c565b5050565b61125b611cbd565b6112636120c5565b565b5f61012e5f9054906101000a900473ffffffffffffffffffffffffffffffffffffffff16905090565b611296611cbd565b806101615f8473ffffffffffffffffffffffffffffffffffffffff1673ffffffffffffffffffffffffffffffffffffffff1681526020019081526020015f205f6101000a81548160ff0219169083151502179055505050565b6060603780546112fe906131cf565b80601f016020809104026020016040519081016040528092919081815260200182805461132a906131cf565b80156113755780601f1061134c57610100808354040283529160200191611375565b820191905f5260205f20905b81548152906001019060200180831161135857829003601f168201915b5050505050905090565b5f5f611389611af3565b90505f6113968286611562565b9050838110156113db576040517f08c379a00000000000000000000000000000000000000000000000000000000081526004016113d290613562565b60405180910390fd5b6113e88286868403611afa565b60019250505092915050565b5f335f73ffffffffffffffffffffffffffffffffffffffff168173ffffffffffffffffffffffffffffffffffffffff161461142f5780611431565b335b90506101605f8273ffffffffffffffffffffffffffffffffffffffff1673ffffffffffffffffffffffffffffffffffffffff1681526020019081526020015f205f9054906101000a900460ff16156114c057806040517f4c9237b10000000000000000000000000000000000000000000000000000000081526004016114b7919061314b565b60405180910390fd5b836101615f8273ffffffffffffffffffffffffffffffffffffffff1673ffffffffffffffffffffffffffffffffffffffff1681526020019081526020015f205f9054906101000a900460ff161561154e57806040517fb4cc90b7000000000000000000000000000000000000000000000000000000008152600401611545919061314b565b60405180910390fd5b6115588585612127565b9250505092915050565b5f60345f8473ffffffffffffffffffffffffffffffffffffffff1673ffffffffffffffffffffffffffffffffffffffff1681526020019081526020015f205f8373ffffffffffffffffffffffffffffffffffffffff1673ffffffffffffffffffffffffffffffffffffffff1681526020019081526020015f2054905092915050565b6115ec611cbd565b5f73ffffffffffffffffffffffffffffffffffffffff168173ffffffffffffffffffffffffffffffffffffffff160361165a576040517f08c379a0000000000000000000000000000000000000000000000000000000008152600401611651906135f0565b60405180910390fd5b61166381611f75565b50565b5f5f611670611af3565b905061167d818585611afa565b600191505092915050565b5f5f611692611af3565b905061169f85828561203a565b6116aa858585612149565b60019150509392505050565b5f5f8273ffffffffffffffffffffffffffffffffffffffff163b119050919050565b5f60019054906101000a900460ff16611726576040517f08c379a000000000000000000000000000000000000000000000000000000000815260040161171d9061367e565b60405180910390fd5b61173082826123b8565b5050565b5f60019054906101000a900460ff16611782576040517f08c379a00000000000000000000000000000000000000000000000000000000081526004016117799061367e565b60405180910390fd5b61178b8161242a565b50565b5f60019054906101000a900460ff166117dc576040517f08c379a00000000000000000000000000000000000000000000000000000000081526004016117d39061367e565b60405180910390fd5b6117e46124c4565b565b5f60019054906101000a900460ff16611834576040517f08c379a000000000000000000000000000000000000000000000000000000000815260040161182b9061367e565b60405180910390fd5b565b5f60019054906101000a900460ff16611884576040517f08c379a000000000000000000000000000000000000000000000000000000000815260040161187b9061367e565b60405180910390fd5b61188c61252d565b565b816101615f8273ffffffffffffffffffffffffffffffffffffffff1673ffffffffffffffffffffffffffffffffffffffff1681526020019081526020015f205f9054906101000a900460ff161561191c57806040517fb4cc90b7000000000000000000000000000000000000000000000000000000008152600401611913919061314b565b60405180910390fd5b611926838361258d565b505050565b5f6119577f360894a13ba1a3210667c828492db98dca3e2076cc3735a920a3ca505d382bbc5f1b61259b565b5f015f9054906101000a900473ffffffffffffffffffffffffffffffffffffffff16905090565b611986611cbd565b50565b6119b47f4910fdfa16fed3260ed0e7147f7cc6da11a60208b5b9406d12a635614ffd91435f1b6125a4565b5f015f9054906101000a900460ff16156119d6576119d1836125ad565b611aee565b8273ffffffffffffffffffffffffffffffffffffffff166352d1902d6040518163ffffffff1660e01b8152600401602060405180830381865afa925050508015611a3e57506040513d601f19601f82011682018060405250810190611a3b91906136c6565b60015b611a7d576040517f08c379a0000000000000000000000000000000000000000000000000000000008152600401611a7490613761565b60405180910390fd5b7f360894a13ba1a3210667c828492db98dca3e2076cc3735a920a3ca505d382bbc5f1b8114611ae1576040517f08c379a0000000000000000000000000000000000000000000000000000000008152600401611ad8906137ef565b60405180910390fd5b50611aed838383612663565b5b505050565b5f33905090565b5f73ffffffffffffffffffffffffffffffffffffffff168373ffffffffffffffffffffffffffffffffffffffff1603611b68576040517f08c379a0000000000000000000000000000000000000000000000000000000008152600401611b5f9061387d565b60405180910390fd5b5f73ffffffffffffffffffffffffffffffffffffffff168273ffffffffffffffffffffffffffffffffffffffff1603611bd6576040517f08c379a0000000000000000000000000000000000000000000000000000000008152600401611bcd9061390b565b60405180910390fd5b8060345f8573ffffffffffffffffffffffffffffffffffffffff1673ffffffffffffffffffffffffffffffffffffffff1681526020019081526020015f205f8473ffffffffffffffffffffffffffffffffffffffff1673ffffffffffffffffffffffffffffffffffffffff1681526020019081526020015f20819055508173ffffffffffffffffffffffffffffffffffffffff168373ffffffffffffffffffffffffffffffffffffffff167f8c5be1e5ebec7d5bd14f71427d1e84f3dd0314c0f7b2291e5b200ac8c7c3b92583604051611cb09190612cdd565b60405180910390a3505050565b611cc5611af3565b73ffffffffffffffffffffffffffffffffffffffff16611ce3611265565b73ffffffffffffffffffffffffffffffffffffffff1614611d39576040517f08c379a0000000000000000000000000000000000000000000000000000000008152600401611d3090613973565b60405180910390fd5b565b611d4361268e565b5f60985f6101000a81548160ff0219169083151502179055507f5db9ee0a495bf2e6ff9c91a7834c1ba4fdd244a5e8aa4e537bd38aeae4b073aa611d85611af3565b604051611d92919061314b565b60405180910390a1565b5f73ffffffffffffffffffffffffffffffffffffffff168273ffffffffffffffffffffffffffffffffffffffff1603611e0a576040517f08c379a0000000000000000000000000000000000000000000000000000000008152600401611e0190613a01565b60405180910390fd5b611e15825f836126d7565b5f60335f8473ffffffffffffffffffffffffffffffffffffffff1673ffffffffffffffffffffffffffffffffffffffff1681526020019081526020015f2054905081811015611e99576040517f08c379a0000000000000000000000000000000000000000000000000000000008152600401611e9090613a8f565b60405180910390fd5b81810360335f8573ffffffffffffffffffffffffffffffffffffffff1673ffffffffffffffffffffffffffffffffffffffff1681526020019081526020015f20819055508160355f82825403925050819055505f73ffffffffffffffffffffffffffffffffffffffff168373ffffffffffffffffffffffffffffffffffffffff167fddf252ad1be2c89b69c2b068fc378daa952ba7f163c4a11628f55a4df523b3ef84604051611f499190612cdd565b60405180910390a3611f5c835f846126e7565b505050565b5f5f5f9054906101000a900460ff16905090565b5f61012e5f9054906101000a900473ffffffffffffffffffffffffffffffffffffffff1690508161012e5f6101000a81548173ffffffffffffffffffffffffffffffffffffffff021916908373ffffffffffffffffffffffffffffffffffffffff1602179055508173ffffffffffffffffffffffffffffffffffffffff168173ffffffffffffffffffffffffffffffffffffffff167f8be0079c531659141344cd1fd0a4f28419497f9722a3daafe3b4186f6b6457e060405160405180910390a35050565b5f6120458484611562565b90507fffffffffffffffffffffffffffffffffffffffffffffffffffffffffffffffff81146120bf57818110156120b1576040517f08c379a00000000000000000000000000000000000000000000000000000000081526004016120a890613af7565b60405180910390fd5b6120be8484848403611afa565b5b50505050565b6120cd6126ec565b600160985f6101000a81548160ff0219169083151502179055507f62e78cea01bee320cd4e420270b5ea74000d11b0c9f74754ebdbfc544b05a258612110611af3565b60405161211d919061314b565b60405180910390a1565b5f5f612131611af3565b905061213e818585612149565b600191505092915050565b5f73ffffffffffffffffffffffffffffffffffffffff168373ffffffffffffffffffffffffffffffffffffffff16036121b7576040517f08c379a00000000000000000000000000000000000000000000000000000000081526004016121ae90613b85565b60405180910390fd5b5f73ffffffffffffffffffffffffffffffffffffffff168273ffffffffffffffffffffffffffffffffffffffff1603612225576040517f08c379a000000000000000000000000000000000000000000000000000000000815260040161221c90613c13565b60405180910390fd5b6122308383836126d7565b5f60335f8573ffffffffffffffffffffffffffffffffffffffff1673ffffffffffffffffffffffffffffffffffffffff1681526020019081526020015f20549050818110156122b4576040517f08c379a00000000000000000000000000000000000000000000000000000000081526004016122ab90613ca1565b60405180910390fd5b81810360335f8673ffffffffffffffffffffffffffffffffffffffff1673ffffffffffffffffffffffffffffffffffffffff1681526020019081526020015f20819055508160335f8573ffffffffffffffffffffffffffffffffffffffff1673ffffffffffffffffffffffffffffffffffffffff1681526020019081526020015f205f82825401925050819055508273ffffffffffffffffffffffffffffffffffffffff168473ffffffffffffffffffffffffffffffffffffffff167fddf252ad1be2c89b69c2b068fc378daa952ba7f163c4a11628f55a4df523b3ef8460405161239f9190612cdd565b60405180910390a36123b28484846126e7565b50505050565b5f60019054906101000a900460ff16612406576040517f08c379a00000000000000000000000000000000000000000000000000000000081526004016123fd9061367e565b60405180910390fd5b81603690816124159190613e56565b5080603790816124259190613e56565b505050565b5f60019054906101000a900460ff16612478576040517f08c379a000000000000000000000000000000000000000000000000000000000815260040161246f9061367e565b60405180910390fd5b5f81116124ba576040517f08c379a00000000000000000000000000000000000000000000000000000000081526004016124b190613f6f565b60405180910390fd5b8060658190555050565b5f60019054906101000a900460ff16612512576040517f08c379a00000000000000000000000000000000000000000000000000000000081526004016125099061367e565b60405180910390fd5b5f60985f6101000a81548160ff021916908315150217905550565b5f60019054906101000a900460ff1661257b576040517f08c379a00000000000000000000000000000000000000000000000000000000081526004016125729061367e565b60405180910390fd5b61258b612586611af3565b611f75565b565b6125978282612736565b5050565b5f819050919050565b5f819050919050565b6125b6816127a0565b6125f5576040517f08c379a00000000000000000000000000000000000000000000000000000000081526004016125ec90613ffd565b60405180910390fd5b806126217f360894a13ba1a3210667c828492db98dca3e2076cc3735a920a3ca505d382bbc5f1b61259b565b5f015f6101000a81548173ffffffffffffffffffffffffffffffffffffffff021916908373ffffffffffffffffffffffffffffffffffffffff16021790555050565b61266c836127c2565b5f825111806126785750805b15612689576126878383612811565b505b505050565b612696611172565b6126d5576040517f08c379a00000000000000000000000000000000000000000000000000000000081526004016126cc90614065565b60405180910390fd5b565b6126e283838361283e565b505050565b505050565b6126f4611172565b15612734576040517f08c379a000000000000000000000000000000000000000000000000000000000815260040161272b906140cd565b60405180910390fd5b565b61273e610bdd565b816127476108f0565b6127519190613431565b1115612792576040517f08c379a000000000000000000000000000000000000000000000000000000000815260040161278990614135565b60405180910390fd5b61279c8282612896565b5050565b5f5f8273ffffffffffffffffffffffffffffffffffffffff163b119050919050565b6127cb816125ad565b8073ffffffffffffffffffffffffffffffffffffffff167fbc7cd75a20ee27fd9adebab32041f755214dbc6bffa90cc0225b39da2e5c2d3b60405160405180910390a250565b6060612836838360405180606001604052806027815260200161430c602791396129e5565b905092915050565b612849838383612a67565b612851611172565b15612891576040517f08c379a0000000000000000000000000000000000000000000000000000000008152600401612888906141c3565b60405180910390fd5b505050565b5f73ffffffffffffffffffffffffffffffffffffffff168273ffffffffffffffffffffffffffffffffffffffff1603612904576040517f08c379a00000000000000000000000000000000000000000000000000000000081526004016128fb9061422b565b60405180910390fd5b61290f5f83836126d7565b8060355f8282546129209190613431565b925050819055508060335f8473ffffffffffffffffffffffffffffffffffffffff1673ffffffffffffffffffffffffffffffffffffffff1681526020019081526020015f205f82825401925050819055508173ffffffffffffffffffffffffffffffffffffffff165f73ffffffffffffffffffffffffffffffffffffffff167fddf252ad1be2c89b69c2b068fc378daa952ba7f163c4a11628f55a4df523b3ef836040516129ce9190612cdd565b60405180910390a36129e15f83836126e7565b5050565b60605f5f8573ffffffffffffffffffffffffffffffffffffffff1685604051612a0e919061428d565b5f60405180830381855af49150503d805f8114612a46576040519150601f19603f3d011682016040523d82523d5f602084013e612a4b565b606091505b5091509150612a5c86838387612a6c565b925050509392505050565b505050565b60608315612acd575f835103612ac557612a85856127a0565b612ac4576040517f08c379a0000000000000000000000000000000000000000000000000000000008152600401612abb906142ed565b60405180910390fd5b5b829050612ad8565b612ad78383612ae0565b5b949350505050565b5f82511115612af25781518083602001fd5b806040517f08c379a0000000000000000000000000000000000000000000000000000000008152600401612b269190612b9f565b60405180910390fd5b5f81519050919050565b5f82825260208201905092915050565b8281835e5f83830152505050565b5f601f19601f8301169050919050565b5f612b7182612b2f565b612b7b8185612b39565b9350612b8b818560208601612b49565b612b9481612b57565b840191505092915050565b5f6020820190508181035f830152612bb78184612b67565b905092915050565b5f604051905090565b5f5ffd5b5f5ffd5b5f73ffffffffffffffffffffffffffffffffffffffff82169050919050565b5f612bf982612bd0565b9050919050565b612c0981612bef565b8114612c13575f5ffd5b50565b5f81359050612c2481612c00565b92915050565b5f819050919050565b612c3c81612c2a565b8114612c46575f5ffd5b50565b5f81359050612c5781612c33565b92915050565b5f5f60408385031215612c7357612c72612bc8565b5b5f612c8085828601612c16565b9250506020612c9185828601612c49565b9150509250929050565b5f8115159050919050565b612caf81612c9b565b82525050565b5f602082019050612cc85f830184612ca6565b92915050565b612cd781612c2a565b82525050565b5f602082019050612cf05f830184612cce565b92915050565b5f5f5f60608486031215612d0d57612d0c612bc8565b5b5f612d1a86828701612c16565b9350506020612d2b86828701612c16565b9250506040612d3c86828701612c49565b9150509250925092565b5f60ff82169050919050565b612d5b81612d46565b82525050565b5f602082019050612d745f830184612d52565b92915050565b5f5ffd5b5f5ffd5b7f4e487b71000000000000000000000000000000000000000000000000000000005f52604160045260245ffd5b612db882612b57565b810181811067ffffffffffffffff82111715612dd757612dd6612d82565b5b80604052505050565b5f612de9612bbf565b9050612df58282612daf565b919050565b5f67ffffffffffffffff821115612e1457612e13612d82565b5b612e1d82612b57565b9050602081019050919050565b828183375f83830152505050565b5f612e4a612e4584612dfa565b612de0565b905082815260208101848484011115612e6657612e65612d7e565b5b612e71848285612e2a565b509392505050565b5f82601f830112612e8d57612e8c612d7a565b5b8135612e9d848260208601612e38565b91505092915050565b5f5f5f5f5f60a08688031215612ebf57612ebe612bc8565b5b5f86013567ffffffffffffffff811115612edc57612edb612bcc565b5b612ee888828901612e79565b955050602086013567ffffffffffffffff811115612f0957612f08612bcc565b5b612f1588828901612e79565b9450506040612f2688828901612c49565b9350506060612f3788828901612c49565b9250506080612f4888828901612c16565b9150509295509295909350565b5f60208284031215612f6a57612f69612bc8565b5b5f612f7784828501612c16565b91505092915050565b5f60208284031215612f9557612f94612bc8565b5b5f612fa284828501612c49565b91505092915050565b5f67ffffffffffffffff821115612fc557612fc4612d82565b5b612fce82612b57565b9050602081019050919050565b5f612fed612fe884612fab565b612de0565b90508281526020810184848401111561300957613008612d7e565b5b613014848285612e2a565b509392505050565b5f82601f8301126130305761302f612d7a565b5b8135613040848260208601612fdb565b91505092915050565b5f5f6040838503121561305f5761305e612bc8565b5b5f61306c85828601612c16565b925050602083013567ffffffffffffffff81111561308d5761308c612bcc565b5b6130998582860161301c565b9150509250929050565b5f819050919050565b6130b5816130a3565b82525050565b5f6020820190506130ce5f8301846130ac565b92915050565b6130dd81612c9b565b81146130e7575f5ffd5b50565b5f813590506130f8816130d4565b92915050565b5f5f6040838503121561311457613113612bc8565b5b5f61312185828601612c16565b9250506020613132858286016130ea565b9150509250929050565b61314581612bef565b82525050565b5f60208201905061315e5f83018461313c565b92915050565b5f5f6040838503121561317a57613179612bc8565b5b5f61318785828601612c16565b925050602061319885828601612c16565b9150509250929050565b7f4e487b71000000000000000000000000000000000000000000000000000000005f52602260045260245ffd5b5f60028204905060018216806131e657607f821691505b6020821081036131f9576131f86131a2565b5b50919050565b7f496e697469616c697a61626c653a20636f6e747261637420697320616c7265615f8201527f647920696e697469616c697a6564000000000000000000000000000000000000602082015250565b5f613259602e83612b39565b9150613264826131ff565b604082019050919050565b5f6020820190508181035f8301526132868161324d565b9050919050565b5f819050919050565b5f819050919050565b5f6132b96132b46132af8461328d565b613296565b612d46565b9050919050565b6132c98161329f565b82525050565b5f6020820190506132e25f8301846132c0565b92915050565b7f46756e6374696f6e206d7573742062652063616c6c6564207468726f756768205f8201527f64656c656761746563616c6c0000000000000000000000000000000000000000602082015250565b5f613342602c83612b39565b915061334d826132e8565b604082019050919050565b5f6020820190508181035f83015261336f81613336565b9050919050565b7f46756e6374696f6e206d7573742062652063616c6c6564207468726f756768205f8201527f6163746976652070726f78790000000000000000000000000000000000000000602082015250565b5f6133d0602c83612b39565b91506133db82613376565b604082019050919050565b5f6020820190508181035f8301526133fd816133c4565b9050919050565b7f4e487b71000000000000000000000000000000000000000000000000000000005f52601160045260245ffd5b5f61343b82612c2a565b915061344683612c2a565b925082820190508082111561345e5761345d613404565b5b92915050565b7f555550535570677261646561626c653a206d757374206e6f742062652063616c5f8201527f6c6564207468726f7567682064656c656761746563616c6c0000000000000000602082015250565b5f6134be603883612b39565b91506134c982613464565b604082019050919050565b5f6020820190508181035f8301526134eb816134b2565b9050919050565b7f45524332303a2064656372656173656420616c6c6f77616e63652062656c6f775f8201527f207a65726f000000000000000000000000000000000000000000000000000000602082015250565b5f61354c602583612b39565b9150613557826134f2565b604082019050919050565b5f6020820190508181035f83015261357981613540565b9050919050565b7f4f776e61626c653a206e6577206f776e657220697320746865207a65726f20615f8201527f6464726573730000000000000000000000000000000000000000000000000000602082015250565b5f6135da602683612b39565b91506135e582613580565b604082019050919050565b5f6020820190508181035f830152613607816135ce565b9050919050565b7f496e697469616c697a61626c653a20636f6e7472616374206973206e6f7420695f8201527f6e697469616c697a696e67000000000000000000000000000000000000000000602082015250565b5f613668602b83612b39565b91506136738261360e565b604082019050919050565b5f6020820190508181035f8301526136958161365c565b9050919050565b6136a5816130a3565b81146136af575f5ffd5b50565b5f815190506136c08161369c565b92915050565b5f602082840312156136db576136da612bc8565b5b5f6136e8848285016136b2565b91505092915050565b7f45524331393637557067726164653a206e657720696d706c656d656e746174695f8201527f6f6e206973206e6f742055555053000000000000000000000000000000000000602082015250565b5f61374b602e83612b39565b9150613756826136f1565b604082019050919050565b5f6020820190508181035f8301526137788161373f565b9050919050565b7f45524331393637557067726164653a20756e737570706f727465642070726f785f8201527f6961626c65555549440000000000000000000000000000000000000000000000602082015250565b5f6137d9602983612b39565b91506137e48261377f565b604082019050919050565b5f6020820190508181035f830152613806816137cd565b9050919050565b7f45524332303a20617070726f76652066726f6d20746865207a65726f206164645f8201527f7265737300000000000000000000000000000000000000000000000000000000602082015250565b5f613867602483612b39565b91506138728261380d565b604082019050919050565b5f6020820190508181035f8301526138948161385b565b9050919050565b7f45524332303a20617070726f766520746f20746865207a65726f2061646472655f8201527f7373000000000000000000000000000000000000000000000000000000000000602082015250565b5f6138f5602283612b39565b91506139008261389b565b604082019050919050565b5f6020820190508181035f830152613922816138e9565b9050919050565b7f4f776e61626c653a2063616c6c6572206973206e6f7420746865206f776e65725f82015250565b5f61395d602083612b39565b915061396882613929565b602082019050919050565b5f6020820190508181035f83015261398a81613951565b9050919050565b7f45524332303a206275726e2066726f6d20746865207a65726f206164647265735f8201527f7300000000000000000000000000000000000000000000000000000000000000602082015250565b5f6139eb602183612b39565b91506139f682613991565b604082019050919050565b5f6020820190508181035f830152613a18816139df565b9050919050565b7f45524332303a206275726e20616d6f756e7420657863656564732062616c616e5f8201527f6365000000000000000000000000000000000000000000000000000000000000602082015250565b5f613a79602283612b39565b9150613a8482613a1f565b604082019050919050565b5f6020820190508181035f830152613aa681613a6d565b9050919050565b7f45524332303a20696e73756666696369656e7420616c6c6f77616e63650000005f82015250565b5f613ae1601d83612b39565b9150613aec82613aad565b602082019050919050565b5f6020820190508181035f830152613b0e81613ad5565b9050919050565b7f45524332303a207472616e736665722066726f6d20746865207a65726f2061645f8201527f6472657373000000000000000000000000000000000000000000000000000000602082015250565b5f613b6f602583612b39565b9150613b7a82613b15565b604082019050919050565b5f6020820190508181035f830152613b9c81613b63565b9050919050565b7f45524332303a207472616e7366657220746f20746865207a65726f20616464725f8201527f6573730000000000000000000000000000000000000000000000000000000000602082015250565b5f613bfd602383612b39565b9150613c0882613ba3565b604082019050919050565b5f6020820190508181035f830152613c2a81613bf1565b9050919050565b7f45524332303a207472616e7366657220616d6f756e74206578636565647320625f8201527f616c616e63650000000000000000000000000000000000000000000000000000602082015250565b5f613c8b602683612b39565b9150613c9682613c31565b604082019050919050565b5f6020820190508181035f830152613cb881613c7f565b9050919050565b5f819050815f5260205f209050919050565b5f6020601f8301049050919050565b5f82821b905092915050565b5f60088302613d1b7fffffffffffffffffffffffffffffffffffffffffffffffffffffffffffffffff82613ce0565b613d258683613ce0565b95508019841693508086168417925050509392505050565b5f613d57613d52613d4d84612c2a565b613296565b612c2a565b9050919050565b5f819050919050565b613d7083613d3d565b613d84613d7c82613d5e565b848454613cec565b825550505050565b5f5f905090565b613d9b613d8c565b613da6818484613d67565b505050565b5b81811015613dc957613dbe5f82613d93565b600181019050613dac565b5050565b601f821115613e0e57613ddf81613cbf565b613de884613cd1565b81016020851015613df7578190505b613e0b613e0385613cd1565b830182613dab565b50505b505050565b5f82821c905092915050565b5f613e2e5f1984600802613e13565b1980831691505092915050565b5f613e468383613e1f565b9150826002028217905092915050565b613e5f82612b2f565b67ffffffffffffffff811115613e7857613e77612d82565b5b613e8282546131cf565b613e8d828285613dcd565b5f60209050601f831160018114613ebe575f8415613eac578287015190505b613eb68582613e3b565b865550613f1d565b601f198416613ecc86613cbf565b5f5b82811015613ef357848901518255600182019150602085019450602081019050613ece565b86831015613f105784890151613f0c601f891682613e1f565b8355505b6001600288020188555050505b505050505050565b7f45524332304361707065643a20636170206973203000000000000000000000005f82015250565b5f613f59601583612b39565b9150613f6482613f25565b602082019050919050565b5f6020820190508181035f830152613f8681613f4d565b9050919050565b7f455243313936373a206e657720696d706c656d656e746174696f6e206973206e5f8201527f6f74206120636f6e747261637400000000000000000000000000000000000000602082015250565b5f613fe7602d83612b39565b9150613ff282613f8d565b604082019050919050565b5f6020820190508181035f83015261401481613fdb565b9050919050565b7f5061757361626c653a206e6f74207061757365640000000000000000000000005f82015250565b5f61404f601483612b39565b915061405a8261401b565b602082019050919050565b5f6020820190508181035f83015261407c81614043565b9050919050565b7f5061757361626c653a20706175736564000000000000000000000000000000005f82015250565b5f6140b7601083612b39565b91506140c282614083565b602082019050919050565b5f6020820190508181035f8301526140e4816140ab565b9050919050565b7f45524332304361707065643a20636170206578636565646564000000000000005f82015250565b5f61411f601983612b39565b915061412a826140eb565b602082019050919050565b5f6020820190508181035f83015261414c81614113565b9050919050565b7f45524332305061757361626c653a20746f6b656e207472616e736665722077685f8201527f696c652070617573656400000000000000000000000000000000000000000000602082015250565b5f6141ad602a83612b39565b91506141b882614153565b604082019050919050565b5f6020820190508181035f8301526141da816141a1565b9050919050565b7f45524332303a206d696e7420746f20746865207a65726f2061646472657373005f82015250565b5f614215601f83612b39565b9150614220826141e1565b602082019050919050565b5f6020820190508181035f83015261424281614209565b9050919050565b5f81519050919050565b5f81905092915050565b5f61426782614249565b6142718185614253565b9350614281818560208601612b49565b80840191505092915050565b5f614298828461425d565b915081905092915050565b7f416464726573733a2063616c6c20746f206e6f6e2d636f6e74726163740000005f82015250565b5f6142d7601d83612b39565b91506142e2826142a3565b602082019050919050565b5f6020820190508181035f830152614304816142cb565b905091905056fe416464726573733a206c6f772d6c6576656c2064656c65676174652063616c6c206661696c6564a2646970667358221220d45a2ac114e96de034cf8e91180b6897ffd86eee488e3558296a0b37b4f2bbfb64736f6c634300081e0033","linkReferences":{}},"methodIdentifiers":{"allowance(address,address)":"dd62ed3e","approve(address,uint256)":"095ea7b3","balanceOf(address)":"70a08231","burn(uint256)":"42966c68","burnFrom(address,uint256)":"79cc6790","cap()":"355274ea","decimals()":"313ce567","decreaseAllowance(address,uint256)":"a457c2d7","getReceiverLockStatus(address)":"59c018ac","getSenderLockStatus(address)":"5e3b6b1c","increaseAllowance(address,uint256)":"39509351","initialize(string,string,uint256,uint256,address)":"33eea181","initialize2()":"472abf68","modifyReceiver(address,bool)":"9467cba2","modifySender(address,bool)":"546e428c","name()":"06fdde03","owner()":"8da5cb5b","pause()":"8456cb59","paused()":"5c975abb","proxiableUUID()":"52d1902d","renounceOwnership()":"715018a6","symbol()":"95d89b41","totalSupply()":"18160ddd","transfer(address,uint256)":"a9059cbb","transferFrom(address,address,uint256)":"23b872dd","transferOwnership(address)":"f2fde38b","unpause()":"3f4ba83a","upgradeTo(address)":"3659cfe6","upgradeToAndCall(address,bytes)":"4f1ef286","version()":"54fd4d50"},"id":40}