{"abi":[{"type":"function","name":"DEFAULT_ADMIN_ROLE","inputs":[],"outputs":[{"name":"","type":"bytes32","internalType":"bytes32"}],"stateMutability":"view"},{"type":"function","name":"claimReward","inputs":[],"outputs":[],"stateMutability":"nonpayable"},{"type":"function","name":"earned","inputs":[{"name":"account","type":"address","internalType":"address"}],"outputs":[{"name":"","type":"uint256","internalType":"uint256"}],"stateMutability":"view"},{"type":"function","name":"exit","inputs":[],"outputs":[],"stateMutability":"nonpayable"},{"type":"function","name":"getPauseStatus","inputs":[],"outputs":[{"name":"","type":"bool","internalType":"bool"}],"stateMutability":"view"},{"type":"function","name":"getRewardForDuration","inputs":[],"outputs":[{"name":"","type":"uint256","internalType":"uint256"}],"stateMutability":"view"},{"type":"function","name":"getRoleAdmin","inputs":[{"name":"role","type":"bytes32","internalType":"bytes32"}],"outputs":[{"name":"","type":"bytes32","internalType":"bytes32"}],"stateMutability":"view"},{"type":"function","name":"grantRole","inputs":[{"name":"role","type":"bytes32","internalType":"bytes32"},{"name":"account","type":"address","internalType":"address"}],"outputs":[],"stateMutability":"nonpayable"},{"type":"function","name":"hasRole","inputs":[{"name":"role","type":"bytes32","internalType":"bytes32"},{"name":"account","type":"address","internalType":"address"}],"outputs":[{"name":"","type":"bool","internalType":"bool"}],"stateMutability":"view"},{"type":"function","name":"initialize","inputs":[{"name":"stakingToken_","type":"address","internalType":"address"},{"name":"rewardsToken_","type":"address","internalType":"address"},{"name":"admin_","type":"address","internalType":"address"},{"name":"rewardsDuration_","type":"uint256","internalType":"uint256"}],"outputs":[],"stateMutability":"nonpayable"},{"type":"function","name":"lastTimeRewardApplicable","inputs":[],"outputs":[{"name":"","type":"uint256","internalType":"uint256"}],"stateMutability":"view"},{"type":"function","name":"notifyRewardAmount","inputs":[{"name":"reward","type":"uint256","internalType":"uint256"}],"outputs":[],"stateMutability":"nonpayable"},{"type":"function","name":"owner","inputs":[],"outputs":[{"name":"","type":"address","internalType":"address"}],"stateMutability":"view"},{"type":"function","name":"pause","inputs":[],"outputs":[],"stateMutability":"nonpayable"},{"type":"function","name":"proxiableUUID","inputs":[],"outputs":[{"name":"","type":"bytes32","internalType":"bytes32"}],"stateMutability":"view"},{"type":"function","name":"renounceOwnership","inputs":[],"outputs":[],"stateMutability":"nonpayable"},{"type":"function","name":"renounceRole","inputs":[{"name":"role","type":"bytes32","internalType":"bytes32"},{"name":"account","type":"address","internalType":"address"}],"outputs":[],"stateMutability":"nonpayable"},{"type":"function","name":"revokeRole","inputs":[{"name":"role","type":"bytes32","internalType":"bytes32"},{"name":"account","type":"address","internalType":"address"}],"outputs":[],"stateMutability":"nonpayable"},{"type":"function","name":"rewardPerToken","inputs":[],"outputs":[{"name":"","type":"uint256","internalType":"uint256"}],"stateMutability":"view"},{"type":"function","name":"setRewardsDuration","inputs":[{"name":"newDuration","type":"uint256","internalType":"uint256"}],"outputs":[],"stateMutability":"nonpayable"},{"type":"function","name":"stake","inputs":[{"name":"amount","type":"uint256","internalType":"uint256"}],"outputs":[],"stateMutability":"nonpayable"},{"type":"function","name":"supportsInterface","inputs":[{"name":"interfaceId","type":"bytes4","internalType":"bytes4"}],"outputs":[{"name":"","type":"bool","internalType":"bool"}],"stateMutability":"view"},{"type":"function","name":"transferOwnership","inputs":[{"name":"newOwner","type":"address","internalType":"address"}],"outputs":[],"stateMutability":"nonpayable"},{"type":"function","name":"unpause","inputs":[],"outputs":[],"stateMutability":"nonpayable"},{"type":"function","name":"upgradeTo","inputs":[{"name":"newImplementation","type":"address","internalType":"address"}],"outputs":[],"stateMutability":"nonpayable"},{"type":"function","name":"upgradeToAndCall","inputs":[{"name":"newImplementation","type":"address","internalType":"address"},{"name":"data","type":"bytes","internalType":"bytes"}],"outputs":[],"stateMutability":"payable"},{"type":"function","name":"withdraw","inputs":[{"name":"amount","type":"uint256","internalType":"uint256"}],"outputs":[],"stateMutability":"nonpayable"},{"type":"event","name":"AdminChanged","inputs":[{"name":"previousAdmin","type":"address","indexed":false,"internalType":"address"},{"name":"newAdmin","type":"address","indexed":false,"internalType":"address"}],"anonymous":false},{"type":"event","name":"BeaconUpgraded","inputs":[{"name":"beacon","type":"address","indexed":true,"internalType":"address"}],"anonymous":false},{"type":"event","name":"Initialized","inputs":[{"name":"version","type":"uint8","indexed":false,"internalType":"uint8"}],"anonymous":false},{"type":"event","name":"OwnershipTransferred","inputs":[{"name":"previousOwner","type":"address","indexed":true,"internalType":"address"},{"name":"newOwner","type":"address","indexed":true,"internalType":"address"}],"anonymous":false},{"type":"event","name":"RewardAdded","inputs":[{"name":"reward","type":"uint256","indexed":false,"internalType":"uint256"}],"anonymous":false},{"type":"event","name":"RewardPaid","inputs":[{"name":"user","type":"address","indexed":true,"internalType":"address"},{"name":"reward","type":"uint256","indexed":false,"internalType":"uint256"}],"anonymous":false},{"type":"event","name":"RewardsDurationUpdated","inputs":[{"name":"oldDuration","type":"uint256","indexed":false,"internalType":"uint256"},{"name":"newDuration","type":"uint256","indexed":false,"internalType":"uint256"}],"anonymous":false},{"type":"event","name":"RoleAdminChanged","inputs":[{"name":"role","type":"bytes32","indexed":true,"internalType":"bytes32"},{"name":"previousAdminRole","type":"bytes32","indexed":true,"internalType":"bytes32"},{"name":"newAdminRole","type":"bytes32","indexed":true,"internalType":"bytes32"}],"anonymous":false},{"type":"event","name":"RoleGranted","inputs":[{"name":"role","type":"bytes32","indexed":true,"internalType":"bytes32"},{"name":"account","type":"address","indexed":true,"internalType":"address"},{"name":"sender","type":"address","indexed":true,"internalType":"address"}],"anonymous":false},{"type":"event","name":"RoleRevoked","inputs":[{"name":"role","type":"bytes32","indexed":true,"internalType":"bytes32"},{"name":"account","type":"address","indexed":true,"internalType":"address"},{"name":"sender","type":"address","indexed":true,"internalType":"address"}],"anonymous":false},{"type":"event","name":"Staked","inputs":[{"name":"user","type":"address","indexed":true,"internalType":"address"},{"name":"amount","type":"uint256","indexed":false,"internalType":"uint256"}],"anonymous":false},{"type":"event","name":"Upgraded","inputs":[{"name":"implementation","type":"address","indexed":true,"internalType":"address"}],"anonymous":false},{"type":"event","name":"Withdrawn","inputs":[{"name":"user","type":"address","indexed":true,"internalType":"address"},{"name":"amount","type":"uint256","indexed":false,"internalType":"uint256"}],"anonymous":false},{"type":"error","name":"InitialOwnerIsZero","inputs":[]},{"type":"error","name":"OperationIsPaused","inputs":[]},{"type":"error","name":"Staking__InsufficientRewardBalance","inputs":[]},{"type":"error","name":"Staking__InsufficientStakedBalance","inputs":[]},{"type":"error","name":"Staking__NoRewardAvailable","inputs":[]},{"type":"error","name":"Staking__RewardPeriodNotFinished","inputs":[]},{"type":"error","name":"Staking__ZeroAddress","inputs":[]},{"type":"error","name":"Staking__ZeroAmount","inputs":[]}],"bytecode":{"object":"0x60a06040523073ffffffffffffffffffffffffffffffffffffffff1660809073ffffffffffffffffffffffffffffffffffffffff16815250348015610042575f5ffd5b506080516132e76100775f395f81816107b10152818161083f0152818161098101528181610a0f0152610abe01526132e75ff3fe60806040526004361061019a575f3560e01c8063715018a6116100eb578063b88a802f11610089578063cf756fdf11610063578063cf756fdf14610540578063d547741f14610568578063e9fad8ee14610590578063f2fde38b146105a65761019a565b8063b88a802f146104d8578063cc1a378f146104ee578063cd3daf9d146105165761019a565b80638da5cb5b116100c55780638da5cb5b1461042057806391d148541461044a578063a217fddf14610486578063a694fc3a146104b05761019a565b8063715018a6146103ca57806380faa57d146103e05780638456cb591461040a5761019a565b80632f2ff15d116101585780633c6b16ab116101325780633c6b16ab146103465780633f4ba83a1461036e5780634f1ef2861461038457806352d1902d146103a05761019a565b80632f2ff15d146102ce57806336568abe146102f65780633659cfe61461031e5761019a565b80628cc2621461019e57806301ffc9a7146101da5780631c1f78eb146102165780631d9023cb14610240578063248a9ca31461026a5780632e1a7d4d146102a6575b5f5ffd5b3480156101a9575f5ffd5b506101c460048036038101906101bf91906122c0565b6105ce565b6040516101d19190612303565b60405180910390f35b3480156101e5575f5ffd5b5061020060048036038101906101fb9190612371565b6105df565b60405161020d91906123b6565b60405180910390f35b348015610221575f5ffd5b5061022a610658565b6040516102379190612303565b60405180910390f35b34801561024b575f5ffd5b5061025461065c565b60405161026191906123b6565b60405180910390f35b348015610275575f5ffd5b50610290600480360381019061028b9190612402565b61069d565b60405161029d919061243c565b60405180910390f35b3480156102b1575f5ffd5b506102cc60048036038101906102c7919061247f565b6106ba565b005b3480156102d9575f5ffd5b506102f460048036038101906102ef91906124aa565b61070b565b005b348015610301575f5ffd5b5061031c600480360381019061031791906124aa565b61072c565b005b348015610329575f5ffd5b50610344600480360381019061033f91906122c0565b6107af565b005b348015610351575f5ffd5b5061036c6004803603810190610367919061247f565b610935565b005b348015610379575f5ffd5b50610382610938565b005b61039e60048036038101906103999190612624565b61097f565b005b3480156103ab575f5ffd5b506103b4610abb565b6040516103c1919061243c565b60405180910390f35b3480156103d5575f5ffd5b506103de610b72565b005b3480156103eb575f5ffd5b506103f4610b85565b6040516104019190612303565b60405180910390f35b348015610415575f5ffd5b5061041e610b93565b005b34801561042b575f5ffd5b50610434610bdb565b604051610441919061268d565b60405180910390f35b348015610455575f5ffd5b50610470600480360381019061046b91906124aa565b610c03565b60405161047d91906123b6565b60405180910390f35b348015610491575f5ffd5b5061049a610c67565b6040516104a7919061243c565b60405180910390f35b3480156104bb575f5ffd5b506104d660048036038101906104d1919061247f565b610c6d565b005b3480156104e3575f5ffd5b506104ec610eec565b005b3480156104f9575f5ffd5b50610514600480360381019061050f919061247f565b610eee565b005b348015610521575f5ffd5b5061052a610f2c565b6040516105379190612303565b60405180910390f35b34801561054b575f5ffd5b50610566600480360381019061056191906126a6565b610f3a565b005b348015610573575f5ffd5b5061058e600480360381019061058991906124aa565b611186565b005b34801561059b575f5ffd5b506105a46111a7565b005b3480156105b1575f5ffd5b506105cc60048036038101906105c791906122c0565b6111a9565b005b5f6105d88261122b565b9050919050565b5f7f7965db0b000000000000000000000000000000000000000000000000000000007bffffffffffffffffffffffffffffffffffffffffffffffffffffffff1916827bffffffffffffffffffffffffffffffffffffffffffffffffffffffff19161480610651575061065082611231565b5b9050919050565b5f90565b5f7f65d7a28e3265b37a6474929f336521b332c1681b933f6cb9f3376673440d862a6106878161129a565b6101045f9054906101000a900460ff1691505090565b5f60975f8381526020019081526020015f20600101549050919050565b3373ffffffffffffffffffffffffffffffffffffffff167f7084f5476618d8e60b11ef0d7d3f06914655adb8793e28ff7f018d4c76d505d5826040516107009190612303565b60405180910390a250565b6107148261069d565b61071d8161129a565b61072783836112ae565b505050565b610734611389565b73ffffffffffffffffffffffffffffffffffffffff168173ffffffffffffffffffffffffffffffffffffffff16146107a1576040517f08c379a00000000000000000000000000000000000000000000000000000000081526004016107989061278a565b60405180910390fd5b6107ab8282611390565b5050565b7f000000000000000000000000000000000000000000000000000000000000000073ffffffffffffffffffffffffffffffffffffffff163073ffffffffffffffffffffffffffffffffffffffff160361083d576040517f08c379a000000000000000000000000000000000000000000000000000000000815260040161083490612818565b60405180910390fd5b7f000000000000000000000000000000000000000000000000000000000000000073ffffffffffffffffffffffffffffffffffffffff1661087c61146b565b73ffffffffffffffffffffffffffffffffffffffff16146108d2576040517f08c379a00000000000000000000000000000000000000000000000000000000081526004016108c9906128a6565b60405180910390fd5b6108db816114be565b610932815f67ffffffffffffffff8111156108f9576108f8612500565b5b6040519080825280601f01601f19166020018201604052801561092b5781602001600182028036833780820191505090505b505f6114c1565b50565b50565b7f65d7a28e3265b37a6474929f336521b332c1681b933f6cb9f3376673440d862a6109628161129a565b5f6101045f6101000a81548160ff02191690831515021790555050565b7f000000000000000000000000000000000000000000000000000000000000000073ffffffffffffffffffffffffffffffffffffffff163073ffffffffffffffffffffffffffffffffffffffff1603610a0d576040517f08c379a0000000000000000000000000000000000000000000000000000000008152600401610a0490612818565b60405180910390fd5b7f000000000000000000000000000000000000000000000000000000000000000073ffffffffffffffffffffffffffffffffffffffff16610a4c61146b565b73ffffffffffffffffffffffffffffffffffffffff1614610aa2576040517f08c379a0000000000000000000000000000000000000000000000000000000008152600401610a99906128a6565b60405180910390fd5b610aab826114be565b610ab7828260016114c1565b5050565b5f7f000000000000000000000000000000000000000000000000000000000000000073ffffffffffffffffffffffffffffffffffffffff163073ffffffffffffffffffffffffffffffffffffffff1614610b4a576040517f08c379a0000000000000000000000000000000000000000000000000000000008152600401610b4190612934565b60405180910390fd5b7f360894a13ba1a3210667c828492db98dca3e2076cc3735a920a3ca505d382bbc5f1b905090565b610b7a61162b565b610b835f6116a9565b565b5f610b8e61176c565b905090565b7f65d7a28e3265b37a6474929f336521b332c1681b933f6cb9f3376673440d862a610bbd8161129a565b60016101045f6101000a81548160ff02191690831515021790555050565b5f60335f9054906101000a900473ffffffffffffffffffffffffffffffffffffffff16905090565b5f60975f8481526020019081526020015f205f015f8373ffffffffffffffffffffffffffffffffffffffff1673ffffffffffffffffffffffffffffffffffffffff1681526020019081526020015f205f9054906101000a900460ff16905092915050565b5f5f1b81565b6101045f9054906101000a900460ff1615610cb4576040517f6087c16000000000000000000000000000000000000000000000000000000000815260040160405180910390fd5b610cbc611770565b33610cc56117bf565b61010381905550610cd461176c565b610102819055505f73ffffffffffffffffffffffffffffffffffffffff168173ffffffffffffffffffffffffffffffffffffffff1614610da057610d178161122b565b6101065f8373ffffffffffffffffffffffffffffffffffffffff1673ffffffffffffffffffffffffffffffffffffffff1681526020019081526020015f2081905550610103546101055f8373ffffffffffffffffffffffffffffffffffffffff1673ffffffffffffffffffffffffffffffffffffffff1681526020019081526020015f20819055505b5f8211610dd9576040517fa7b70b2e00000000000000000000000000000000000000000000000000000000815260040160405180910390fd5b8160fd5f828254610dea919061297f565b925050819055508160fe5f3373ffffffffffffffffffffffffffffffffffffffff1673ffffffffffffffffffffffffffffffffffffffff1681526020019081526020015f205f828254610e3d919061297f565b92505081905550610e9233308460fb5f9054906101000a900473ffffffffffffffffffffffffffffffffffffffff1673ffffffffffffffffffffffffffffffffffffffff166117c3909392919063ffffffff16565b3373ffffffffffffffffffffffffffffffffffffffff167f9e71bc8eea02a63969f509818f2dafb9254532904319f9dbda79b67bd34a5f3d83604051610ed89190612303565b60405180910390a250610ee961184c565b50565b565b7fd20a04eb2807bde8cbdf16ef27a46d94a3162d81818f1781c0fe4ed9194ca39160ff5482604051610f219291906129b2565b60405180910390a150565b5f610f356117bf565b905090565b5f73ffffffffffffffffffffffffffffffffffffffff168273ffffffffffffffffffffffffffffffffffffffff1603610f9f576040517fc468f5b700000000000000000000000000000000000000000000000000000000815260040160405180910390fd5b5f73ffffffffffffffffffffffffffffffffffffffff168473ffffffffffffffffffffffffffffffffffffffff1603611004576040517f0bd684dd00000000000000000000000000000000000000000000000000000000815260040160405180910390fd5b5f73ffffffffffffffffffffffffffffffffffffffff168373ffffffffffffffffffffffffffffffffffffffff1603611069576040517f0bd684dd00000000000000000000000000000000000000000000000000000000815260040160405180910390fd5b5f81116110a2576040517fa7b70b2e00000000000000000000000000000000000000000000000000000000815260040160405180910390fd5b8060ff819055508360fb5f6101000a81548173ffffffffffffffffffffffffffffffffffffffff021916908373ffffffffffffffffffffffffffffffffffffffff1602179055508260fc5f6101000a81548173ffffffffffffffffffffffffffffffffffffffff021916908373ffffffffffffffffffffffffffffffffffffffff160217905550611131611856565b6111396118ae565b6111416118fe565b61114a826116a9565b6111565f5f1b836112ae565b6111807f65d7a28e3265b37a6474929f336521b332c1681b933f6cb9f3376673440d862a836112ae565b50505050565b61118f8261069d565b6111988161129a565b6111a28383611390565b505050565b565b6111b161162b565b5f73ffffffffffffffffffffffffffffffffffffffff168173ffffffffffffffffffffffffffffffffffffffff160361121f576040517f08c379a000000000000000000000000000000000000000000000000000000000815260040161121690612a49565b60405180910390fd5b611228816116a9565b50565b5f919050565b5f7f01ffc9a7000000000000000000000000000000000000000000000000000000007bffffffffffffffffffffffffffffffffffffffffffffffffffffffff1916827bffffffffffffffffffffffffffffffffffffffffffffffffffffffff1916149050919050565b6112ab816112a6611389565b611956565b50565b6112b88282610c03565b61138557600160975f8481526020019081526020015f205f015f8373ffffffffffffffffffffffffffffffffffffffff1673ffffffffffffffffffffffffffffffffffffffff1681526020019081526020015f205f6101000a81548160ff02191690831515021790555061132a611389565b73ffffffffffffffffffffffffffffffffffffffff168173ffffffffffffffffffffffffffffffffffffffff16837f2f8788117e7eff1d82e926ec794901d17c78024a50270940304540a733656f0d60405160405180910390a45b5050565b5f33905090565b61139a8282610c03565b15611467575f60975f8481526020019081526020015f205f015f8373ffffffffffffffffffffffffffffffffffffffff1673ffffffffffffffffffffffffffffffffffffffff1681526020019081526020015f205f6101000a81548160ff02191690831515021790555061140c611389565b73ffffffffffffffffffffffffffffffffffffffff168173ffffffffffffffffffffffffffffffffffffffff16837ff6391f5c32d9c69d2a47ea670b442974b53935d1edc7fd64eb21e047a839171b60405160405180910390a45b5050565b5f6114977f360894a13ba1a3210667c828492db98dca3e2076cc3735a920a3ca505d382bbc5f1b6119da565b5f015f9054906101000a900473ffffffffffffffffffffffffffffffffffffffff16905090565b50565b6114ec7f4910fdfa16fed3260ed0e7147f7cc6da11a60208b5b9406d12a635614ffd91435f1b6119e3565b5f015f9054906101000a900460ff161561150e57611509836119ec565b611626565b8273ffffffffffffffffffffffffffffffffffffffff166352d1902d6040518163ffffffff1660e01b8152600401602060405180830381865afa92505050801561157657506040513d601f19601f820116820180604052508101906115739190612a7b565b60015b6115b5576040517f08c379a00000000000000000000000000000000000000000000000000000000081526004016115ac90612b16565b60405180910390fd5b7f360894a13ba1a3210667c828492db98dca3e2076cc3735a920a3ca505d382bbc5f1b8114611619576040517f08c379a000000000000000000000000000000000000000000000000000000000815260040161161090612ba4565b60405180910390fd5b50611625838383611aa2565b5b505050565b611633611389565b73ffffffffffffffffffffffffffffffffffffffff16611651610bdb565b73ffffffffffffffffffffffffffffffffffffffff16146116a7576040517f08c379a000000000000000000000000000000000000000000000000000000000815260040161169e90612c0c565b60405180910390fd5b565b5f60335f9054906101000a900473ffffffffffffffffffffffffffffffffffffffff1690508160335f6101000a81548173ffffffffffffffffffffffffffffffffffffffff021916908373ffffffffffffffffffffffffffffffffffffffff1602179055508173ffffffffffffffffffffffffffffffffffffffff168173ffffffffffffffffffffffffffffffffffffffff167f8be0079c531659141344cd1fd0a4f28419497f9722a3daafe3b4186f6b6457e060405160405180910390a35050565b5f90565b600260c954036117b5576040517f08c379a00000000000000000000000000000000000000000000000000000000081526004016117ac90612c74565b60405180910390fd5b600260c981905550565b5f90565b611846846323b872dd60e01b8585856040516024016117e493929190612c92565b604051602081830303815290604052907bffffffffffffffffffffffffffffffffffffffffffffffffffffffff19166020820180517bffffffffffffffffffffffffffffffffffffffffffffffffffffffff8381831617835250505050611acd565b50505050565b600160c981905550565b5f60019054906101000a900460ff166118a4576040517f08c379a000000000000000000000000000000000000000000000000000000000815260040161189b90612d37565b60405180910390fd5b6118ac611b93565b565b5f60019054906101000a900460ff166118fc576040517f08c379a00000000000000000000000000000000000000000000000000000000081526004016118f390612d37565b60405180910390fd5b565b5f60019054906101000a900460ff1661194c576040517f08c379a000000000000000000000000000000000000000000000000000000000815260040161194390612d37565b60405180910390fd5b611954611bf3565b565b6119608282610c03565b6119d65761196d81611c4b565b61197a835f1c6020611c78565b60405160200161198b929190612e3b565b6040516020818303038152906040526040517f08c379a00000000000000000000000000000000000000000000000000000000081526004016119cd9190612eac565b60405180910390fd5b5050565b5f819050919050565b5f819050919050565b6119f581611ead565b611a34576040517f08c379a0000000000000000000000000000000000000000000000000000000008152600401611a2b90612f3c565b60405180910390fd5b80611a607f360894a13ba1a3210667c828492db98dca3e2076cc3735a920a3ca505d382bbc5f1b6119da565b5f015f6101000a81548173ffffffffffffffffffffffffffffffffffffffff021916908373ffffffffffffffffffffffffffffffffffffffff16021790555050565b611aab83611ecf565b5f82511180611ab75750805b15611ac857611ac68383611f1e565b505b505050565b5f611b2e826040518060400160405280602081526020017f5361666545524332303a206c6f772d6c6576656c2063616c6c206661696c65648152508573ffffffffffffffffffffffffffffffffffffffff16611f4b9092919063ffffffff16565b90505f81511480611b4f575080806020019051810190611b4e9190612f84565b5b611b8e576040517f08c379a0000000000000000000000000000000000000000000000000000000008152600401611b859061301f565b60405180910390fd5b505050565b5f60019054906101000a900460ff16611be1576040517f08c379a0000000000000000000000000000000000000000000000000000000008152600401611bd890612d37565b60405180910390fd5b611bf1611bec611389565b6116a9565b565b5f60019054906101000a900460ff16611c41576040517f08c379a0000000000000000000000000000000000000000000000000000000008152600401611c3890612d37565b60405180910390fd5b600160c981905550565b6060611c718273ffffffffffffffffffffffffffffffffffffffff16601460ff16611c78565b9050919050565b60605f6002836002611c8a919061303d565b611c94919061297f565b67ffffffffffffffff811115611cad57611cac612500565b5b6040519080825280601f01601f191660200182016040528015611cdf5781602001600182028036833780820191505090505b5090507f3000000000000000000000000000000000000000000000000000000000000000815f81518110611d1657611d1561307e565b5b60200101907effffffffffffffffffffffffffffffffffffffffffffffffffffffffffffff191690815f1a9053507f780000000000000000000000000000000000000000000000000000000000000081600181518110611d7957611d7861307e565b5b60200101907effffffffffffffffffffffffffffffffffffffffffffffffffffffffffffff191690815f1a9053505f6001846002611db7919061303d565b611dc1919061297f565b90505b6001811115611e60577f3031323334353637383961626364656600000000000000000000000000000000600f861660108110611e0357611e0261307e565b5b1a60f81b828281518110611e1a57611e1961307e565b5b60200101907effffffffffffffffffffffffffffffffffffffffffffffffffffffffffffff191690815f1a905350600485901c945080611e59906130ab565b9050611dc4565b505f8414611ea3576040517f08c379a0000000000000000000000000000000000000000000000000000000008152600401611e9a9061311c565b60405180910390fd5b8091505092915050565b5f5f8273ffffffffffffffffffffffffffffffffffffffff163b119050919050565b611ed8816119ec565b8073ffffffffffffffffffffffffffffffffffffffff167fbc7cd75a20ee27fd9adebab32041f755214dbc6bffa90cc0225b39da2e5c2d3b60405160405180910390a250565b6060611f43838360405180606001604052806027815260200161328b60279139611f62565b905092915050565b6060611f5984845f85611fe4565b90509392505050565b60605f5f8573ffffffffffffffffffffffffffffffffffffffff1685604051611f8b919061317e565b5f60405180830381855af49150503d805f8114611fc3576040519150601f19603f3d011682016040523d82523d5f602084013e611fc8565b606091505b5091509150611fd9868383876120ad565b925050509392505050565b606082471015612029576040517f08c379a000000000000000000000000000000000000000000000000000000000815260040161202090613204565b60405180910390fd5b5f5f8673ffffffffffffffffffffffffffffffffffffffff168587604051612051919061317e565b5f6040518083038185875af1925050503d805f811461208b576040519150601f19603f3d011682016040523d82523d5f602084013e612090565b606091505b50915091506120a187838387612121565b92505050949350505050565b6060831561210e575f835103612106576120c685611ead565b612105576040517f08c379a00000000000000000000000000000000000000000000000000000000081526004016120fc9061326c565b60405180910390fd5b5b829050612119565b6121188383612195565b5b949350505050565b60608315612182575f83510361217a5761213a856121e4565b612179576040517f08c379a00000000000000000000000000000000000000000000000000000000081526004016121709061326c565b60405180910390fd5b5b82905061218d565b61218c8383612206565b5b949350505050565b5f825111156121a75781518083602001fd5b806040517f08c379a00000000000000000000000000000000000000000000000000000000081526004016121db9190612eac565b60405180910390fd5b5f5f8273ffffffffffffffffffffffffffffffffffffffff163b119050919050565b5f825111156122185781518083602001fd5b806040517f08c379a000000000000000000000000000000000000000000000000000000000815260040161224c9190612eac565b60405180910390fd5b5f604051905090565b5f5ffd5b5f5ffd5b5f73ffffffffffffffffffffffffffffffffffffffff82169050919050565b5f61228f82612266565b9050919050565b61229f81612285565b81146122a9575f5ffd5b50565b5f813590506122ba81612296565b92915050565b5f602082840312156122d5576122d461225e565b5b5f6122e2848285016122ac565b91505092915050565b5f819050919050565b6122fd816122eb565b82525050565b5f6020820190506123165f8301846122f4565b92915050565b5f7fffffffff0000000000000000000000000000000000000000000000000000000082169050919050565b6123508161231c565b811461235a575f5ffd5b50565b5f8135905061236b81612347565b92915050565b5f602082840312156123865761238561225e565b5b5f6123938482850161235d565b91505092915050565b5f8115159050919050565b6123b08161239c565b82525050565b5f6020820190506123c95f8301846123a7565b92915050565b5f819050919050565b6123e1816123cf565b81146123eb575f5ffd5b50565b5f813590506123fc816123d8565b92915050565b5f602082840312156124175761241661225e565b5b5f612424848285016123ee565b91505092915050565b612436816123cf565b82525050565b5f60208201905061244f5f83018461242d565b92915050565b61245e816122eb565b8114612468575f5ffd5b50565b5f8135905061247981612455565b92915050565b5f602082840312156124945761249361225e565b5b5f6124a18482850161246b565b91505092915050565b5f5f604083850312156124c0576124bf61225e565b5b5f6124cd858286016123ee565b92505060206124de858286016122ac565b9150509250929050565b5f5ffd5b5f5ffd5b5f601f19601f8301169050919050565b7f4e487b71000000000000000000000000000000000000000000000000000000005f52604160045260245ffd5b612536826124f0565b810181811067ffffffffffffffff8211171561255557612554612500565b5b80604052505050565b5f612567612255565b9050612573828261252d565b919050565b5f67ffffffffffffffff82111561259257612591612500565b5b61259b826124f0565b9050602081019050919050565b828183375f83830152505050565b5f6125c86125c384612578565b61255e565b9050828152602081018484840111156125e4576125e36124ec565b5b6125ef8482856125a8565b509392505050565b5f82601f83011261260b5761260a6124e8565b5b813561261b8482602086016125b6565b91505092915050565b5f5f6040838503121561263a5761263961225e565b5b5f612647858286016122ac565b925050602083013567ffffffffffffffff81111561266857612667612262565b5b612674858286016125f7565b9150509250929050565b61268781612285565b82525050565b5f6020820190506126a05f83018461267e565b92915050565b5f5f5f5f608085870312156126be576126bd61225e565b5b5f6126cb878288016122ac565b94505060206126dc878288016122ac565b93505060406126ed878288016122ac565b92505060606126fe8782880161246b565b91505092959194509250565b5f82825260208201905092915050565b7f416363657373436f6e74726f6c3a2063616e206f6e6c792072656e6f756e63655f8201527f20726f6c657320666f722073656c660000000000000000000000000000000000602082015250565b5f612774602f8361270a565b915061277f8261271a565b604082019050919050565b5f6020820190508181035f8301526127a181612768565b9050919050565b7f46756e6374696f6e206d7573742062652063616c6c6564207468726f756768205f8201527f64656c656761746563616c6c0000000000000000000000000000000000000000602082015250565b5f612802602c8361270a565b915061280d826127a8565b604082019050919050565b5f6020820190508181035f83015261282f816127f6565b9050919050565b7f46756e6374696f6e206d7573742062652063616c6c6564207468726f756768205f8201527f6163746976652070726f78790000000000000000000000000000000000000000602082015250565b5f612890602c8361270a565b915061289b82612836565b604082019050919050565b5f6020820190508181035f8301526128bd81612884565b9050919050565b7f555550535570677261646561626c653a206d757374206e6f742062652063616c5f8201527f6c6564207468726f7567682064656c656761746563616c6c0000000000000000602082015250565b5f61291e60388361270a565b9150612929826128c4565b604082019050919050565b5f6020820190508181035f83015261294b81612912565b9050919050565b7f4e487b71000000000000000000000000000000000000000000000000000000005f52601160045260245ffd5b5f612989826122eb565b9150612994836122eb565b92508282019050808211156129ac576129ab612952565b5b92915050565b5f6040820190506129c55f8301856122f4565b6129d260208301846122f4565b9392505050565b7f4f776e61626c653a206e6577206f776e657220697320746865207a65726f20615f8201527f6464726573730000000000000000000000000000000000000000000000000000602082015250565b5f612a3360268361270a565b9150612a3e826129d9565b604082019050919050565b5f6020820190508181035f830152612a6081612a27565b9050919050565b5f81519050612a75816123d8565b92915050565b5f60208284031215612a9057612a8f61225e565b5b5f612a9d84828501612a67565b91505092915050565b7f45524331393637557067726164653a206e657720696d706c656d656e746174695f8201527f6f6e206973206e6f742055555053000000000000000000000000000000000000602082015250565b5f612b00602e8361270a565b9150612b0b82612aa6565b604082019050919050565b5f6020820190508181035f830152612b2d81612af4565b9050919050565b7f45524331393637557067726164653a20756e737570706f727465642070726f785f8201527f6961626c65555549440000000000000000000000000000000000000000000000602082015250565b5f612b8e60298361270a565b9150612b9982612b34565b604082019050919050565b5f6020820190508181035f830152612bbb81612b82565b9050919050565b7f4f776e61626c653a2063616c6c6572206973206e6f7420746865206f776e65725f82015250565b5f612bf660208361270a565b9150612c0182612bc2565b602082019050919050565b5f6020820190508181035f830152612c2381612bea565b9050919050565b7f5265656e7472616e637947756172643a207265656e7472616e742063616c6c005f82015250565b5f612c5e601f8361270a565b9150612c6982612c2a565b602082019050919050565b5f6020820190508181035f830152612c8b81612c52565b9050919050565b5f606082019050612ca55f83018661267e565b612cb2602083018561267e565b612cbf60408301846122f4565b949350505050565b7f496e697469616c697a61626c653a20636f6e7472616374206973206e6f7420695f8201527f6e697469616c697a696e67000000000000000000000000000000000000000000602082015250565b5f612d21602b8361270a565b9150612d2c82612cc7565b604082019050919050565b5f6020820190508181035f830152612d4e81612d15565b9050919050565b5f81905092915050565b7f416363657373436f6e74726f6c3a206163636f756e74200000000000000000005f82015250565b5f612d93601783612d55565b9150612d9e82612d5f565b601782019050919050565b5f81519050919050565b8281835e5f83830152505050565b5f612dcb82612da9565b612dd58185612d55565b9350612de5818560208601612db3565b80840191505092915050565b7f206973206d697373696e6720726f6c65200000000000000000000000000000005f82015250565b5f612e25601183612d55565b9150612e3082612df1565b601182019050919050565b5f612e4582612d87565b9150612e518285612dc1565b9150612e5c82612e19565b9150612e688284612dc1565b91508190509392505050565b5f612e7e82612da9565b612e88818561270a565b9350612e98818560208601612db3565b612ea1816124f0565b840191505092915050565b5f6020820190508181035f830152612ec48184612e74565b905092915050565b7f455243313936373a206e657720696d706c656d656e746174696f6e206973206e5f8201527f6f74206120636f6e747261637400000000000000000000000000000000000000602082015250565b5f612f26602d8361270a565b9150612f3182612ecc565b604082019050919050565b5f6020820190508181035f830152612f5381612f1a565b9050919050565b612f638161239c565b8114612f6d575f5ffd5b50565b5f81519050612f7e81612f5a565b92915050565b5f60208284031215612f9957612f9861225e565b5b5f612fa684828501612f70565b91505092915050565b7f5361666545524332303a204552433230206f7065726174696f6e20646964206e5f8201527f6f74207375636365656400000000000000000000000000000000000000000000602082015250565b5f613009602a8361270a565b915061301482612faf565b604082019050919050565b5f6020820190508181035f83015261303681612ffd565b9050919050565b5f613047826122eb565b9150613052836122eb565b9250828202613060816122eb565b9150828204841483151761307757613076612952565b5b5092915050565b7f4e487b71000000000000000000000000000000000000000000000000000000005f52603260045260245ffd5b5f6130b5826122eb565b91505f82036130c7576130c6612952565b5b600182039050919050565b7f537472696e67733a20686578206c656e67746820696e73756666696369656e745f82015250565b5f61310660208361270a565b9150613111826130d2565b602082019050919050565b5f6020820190508181035f830152613133816130fa565b9050919050565b5f81519050919050565b5f81905092915050565b5f6131588261313a565b6131628185613144565b9350613172818560208601612db3565b80840191505092915050565b5f613189828461314e565b915081905092915050565b7f416464726573733a20696e73756666696369656e742062616c616e636520666f5f8201527f722063616c6c0000000000000000000000000000000000000000000000000000602082015250565b5f6131ee60268361270a565b91506131f982613194565b604082019050919050565b5f6020820190508181035f83015261321b816131e2565b9050919050565b7f416464726573733a2063616c6c20746f206e6f6e2d636f6e74726163740000005f82015250565b5f613256601d8361270a565b915061326182613222565b602082019050919050565b5f6020820190508181035f8301526132838161324a565b905091905056fe416464726573733a206c6f772d6c6576656c2064656c65676174652063616c6c206661696c6564a264697066735822122030941be9efca919f5ecd04f9760140ac192d9a271b07928687a999984f54fa9164736f6c634300081e0033","linkReferences":{}},"methodIdentifiers":{"DEFAULT_ADMIN_ROLE()":"a217fddf","claimReward()":"b88a802f","earned(address)":"008cc262","exit()":"e9fad8ee","getPauseStatus()":"1d9023cb","getRewardForDuration()":"1c1f78eb","getRoleAdmin(bytes32)":"248a9ca3","grantRole(bytes32,address)":"2f2ff15d","hasRole(bytes32,address)":"91d14854","initialize(address,address,address,uint256)":"cf756fdf","lastTimeRewardApplicable()":"80faa57d","notifyRewardAmount(uint256)":"3c6b16ab","owner()":"8da5cb5b","pause()":"8456cb59","proxiableUUID()":"52d1902d","renounceOwnership()":"715018a6","renounceRole(bytes32,address)":"36568abe","revokeRole(bytes32,address)":"d547741f","rewardPerToken()":"cd3daf9d","setRewardsDuration(uint256)":"cc1a378f","stake(uint256)":"a694fc3a","supportsInterface(bytes4)":"01ffc9a7","transferOwnership(address)":"f2fde38b","unpause()":"3f4ba83a","upgradeTo(address)":"3659cfe6","upgradeToAndCall(address,bytes)":"4f1ef286","withdraw(uint256)":"2e1a7d4d"},"id":24}