{"abi":[{"type":"function","name":"claimReward","inputs":[],"outputs":[],"stateMutability":"nonpayable"},{"type":"function","name":"earned","inputs":[{"name":"account","type":"address","internalType":"address"}],"outputs":[{"name":"","type":"uint256","internalType":"uint256"}],"stateMutability":"view"},{"type":"function","name":"exit","inputs":[],"outputs":[],"stateMutability":"nonpayable"},{"type":"function","name":"getRewardForDuration","inputs":[],"outputs":[{"name":"","type":"uint256","internalType":"uint256"}],"stateMutability":"view"},{"type":"function","name":"initialize","inputs":[{"name":"stakingToken_","type":"address","internalType":"address"},{"name":"rewardsToken_","type":"address","internalType":"address"},{"name":"admin_","type":"address","internalType":"address"},{"name":"rewardsDuration_","type":"uint256","internalType":"uint256"}],"outputs":[],"stateMutability":"nonpayable"},{"type":"function","name":"lastTimeRewardApplicable","inputs":[],"outputs":[{"name":"","type":"uint256","internalType":"uint256"}],"stateMutability":"view"},{"type":"function","name":"notifyRewardAmount","inputs":[{"name":"reward","type":"uint256","internalType":"uint256"}],"outputs":[],"stateMutability":"nonpayable"},{"type":"function","name":"owner","inputs":[],"outputs":[{"name":"","type":"address","internalType":"address"}],"stateMutability":"view"},{"type":"function","name":"pause","inputs":[],"outputs":[],"stateMutability":"nonpayable"},{"type":"function","name":"proxiableUUID","inputs":[],"outputs":[{"name":"","type":"bytes32","internalType":"bytes32"}],"stateMutability":"view"},{"type":"function","name":"renounceOwnership","inputs":[],"outputs":[],"stateMutability":"nonpayable"},{"type":"function","name":"rewardPerToken","inputs":[],"outputs":[{"name":"","type":"uint256","internalType":"uint256"}],"stateMutability":"view"},{"type":"function","name":"setRewardsDuration","inputs":[{"name":"newDuration","type":"uint256","internalType":"uint256"}],"outputs":[],"stateMutability":"nonpayable"},{"type":"function","name":"stake","inputs":[{"name":"amount","type":"uint256","internalType":"uint256"}],"outputs":[],"stateMutability":"nonpayable"},{"type":"function","name":"transferOwnership","inputs":[{"name":"newOwner","type":"address","internalType":"address"}],"outputs":[],"stateMutability":"nonpayable"},{"type":"function","name":"unpause","inputs":[],"outputs":[],"stateMutability":"nonpayable"},{"type":"function","name":"upgradeTo","inputs":[{"name":"newImplementation","type":"address","internalType":"address"}],"outputs":[],"stateMutability":"nonpayable"},{"type":"function","name":"upgradeToAndCall","inputs":[{"name":"newImplementation","type":"address","internalType":"address"},{"name":"data","type":"bytes","internalType":"bytes"}],"outputs":[],"stateMutability":"payable"},{"type":"function","name":"withdraw","inputs":[{"name":"amount","type":"uint256","internalType":"uint256"}],"outputs":[],"stateMutability":"nonpayable"},{"type":"event","name":"AdminChanged","inputs":[{"name":"previousAdmin","type":"address","indexed":false,"internalType":"address"},{"name":"newAdmin","type":"address","indexed":false,"internalType":"address"}],"anonymous":false},{"type":"event","name":"BeaconUpgraded","inputs":[{"name":"beacon","type":"address","indexed":true,"internalType":"address"}],"anonymous":false},{"type":"event","name":"Initialized","inputs":[{"name":"version","type":"uint8","indexed":false,"internalType":"uint8"}],"anonymous":false},{"type":"event","name":"OwnershipTransferred","inputs":[{"name":"previousOwner","type":"address","indexed":true,"internalType":"address"},{"name":"newOwner","type":"address","indexed":true,"internalType":"address"}],"anonymous":false},{"type":"event","name":"RewardAdded","inputs":[{"name":"reward","type":"uint256","indexed":false,"internalType":"uint256"}],"anonymous":false},{"type":"event","name":"RewardPaid","inputs":[{"name":"user","type":"address","indexed":true,"internalType":"address"},{"name":"reward","type":"uint256","indexed":false,"internalType":"uint256"}],"anonymous":false},{"type":"event","name":"RewardsDurationUpdated","inputs":[{"name":"oldDuration","type":"uint256","indexed":false,"internalType":"uint256"},{"name":"newDuration","type":"uint256","indexed":false,"internalType":"uint256"}],"anonymous":false},{"type":"event","name":"Staked","inputs":[{"name":"user","type":"address","indexed":true,"internalType":"address"},{"name":"amount","type":"uint256","indexed":false,"internalType":"uint256"}],"anonymous":false},{"type":"event","name":"Upgraded","inputs":[{"name":"implementation","type":"address","indexed":true,"internalType":"address"}],"anonymous":false},{"type":"event","name":"Withdrawn","inputs":[{"name":"user","type":"address","indexed":true,"internalType":"address"},{"name":"amount","type":"uint256","indexed":false,"internalType":"uint256"}],"anonymous":false},{"type":"error","name":"InitialOwnerIsZero","inputs":[]},{"type":"error","name":"Staking__InsufficientRewardBalance","inputs":[]},{"type":"error","name":"Staking__InsufficientStakedBalance","inputs":[]},{"type":"error","name":"Staking__NoRewardAvailable","inputs":[]},{"type":"error","name":"Staking__RewardPeriodNotFinished","inputs":[]},{"type":"error","name":"Staking__ZeroAddress","inputs":[]},{"type":"error","name":"Staking__ZeroAmount","inputs":[]}],"bytecode":{"object":"0x60a06040523073ffffffffffffffffffffffffffffffffffffffff1660809073ffffffffffffffffffffffffffffffffffffffff16815250348015610042575f5ffd5b50608051611bf76100775f395f8181610423015281816104b1015281816105ae0152818161063c01526106eb0152611bf75ff3fe608060405260043610610112575f3560e01c806380faa57d1161009f578063cc1a378f11610063578063cc1a378f1461030e578063cd3daf9d14610336578063cf756fdf14610360578063e9fad8ee14610388578063f2fde38b1461039e57610112565b806380faa57d146102665780638456cb59146102905780638da5cb5b146102a6578063a694fc3a146102d0578063b88a802f146102f857610112565b80633c6b16ab116100e65780633c6b16ab146101cc5780633f4ba83a146101f45780634f1ef2861461020a57806352d1902d14610226578063715018a61461025057610112565b80628cc262146101165780631c1f78eb146101525780632e1a7d4d1461017c5780633659cfe6146101a4575b5f5ffd5b348015610121575f5ffd5b5061013c60048036038101906101379190611200565b6103c6565b6040516101499190611243565b60405180910390f35b34801561015d575f5ffd5b506101666103cc565b6040516101739190611243565b60405180910390f35b348015610187575f5ffd5b506101a2600480360381019061019d9190611286565b6103d0565b005b3480156101af575f5ffd5b506101ca60048036038101906101c59190611200565b610421565b005b3480156101d7575f5ffd5b506101f260048036038101906101ed9190611286565b6105a7565b005b3480156101ff575f5ffd5b506102086105aa565b005b610224600480360381019061021f91906113ed565b6105ac565b005b348015610231575f5ffd5b5061023a6106e8565b604051610247919061145f565b60405180910390f35b34801561025b575f5ffd5b5061026461079f565b005b348015610271575f5ffd5b5061027a6107b2565b6040516102879190611243565b60405180910390f35b34801561029b575f5ffd5b506102a46107b6565b005b3480156102b1575f5ffd5b506102ba6107b8565b6040516102c79190611487565b60405180910390f35b3480156102db575f5ffd5b506102f660048036038101906102f19190611286565b6107e0565b005b348015610303575f5ffd5b5061030c610831565b005b348015610319575f5ffd5b50610334600480360381019061032f9190611286565b610833565b005b348015610341575f5ffd5b5061034a610871565b6040516103579190611243565b60405180910390f35b34801561036b575f5ffd5b50610386600480360381019061038191906114a0565b610875565b005b348015610393575f5ffd5b5061039c610a7b565b005b3480156103a9575f5ffd5b506103c460048036038101906103bf9190611200565b610a7d565b005b5f919050565b5f90565b3373ffffffffffffffffffffffffffffffffffffffff167f7084f5476618d8e60b11ef0d7d3f06914655adb8793e28ff7f018d4c76d505d5826040516104169190611243565b60405180910390a250565b7f000000000000000000000000000000000000000000000000000000000000000073ffffffffffffffffffffffffffffffffffffffff163073ffffffffffffffffffffffffffffffffffffffff16036104af576040517f08c379a00000000000000000000000000000000000000000000000000000000081526004016104a690611584565b60405180910390fd5b7f000000000000000000000000000000000000000000000000000000000000000073ffffffffffffffffffffffffffffffffffffffff166104ee610aff565b73ffffffffffffffffffffffffffffffffffffffff1614610544576040517f08c379a000000000000000000000000000000000000000000000000000000000815260040161053b90611612565b60405180910390fd5b61054d81610b52565b6105a4815f67ffffffffffffffff81111561056b5761056a6112c9565b5b6040519080825280601f01601f19166020018201604052801561059d5781602001600182028036833780820191505090505b505f610b55565b50565b50565b565b7f000000000000000000000000000000000000000000000000000000000000000073ffffffffffffffffffffffffffffffffffffffff163073ffffffffffffffffffffffffffffffffffffffff160361063a576040517f08c379a000000000000000000000000000000000000000000000000000000000815260040161063190611584565b60405180910390fd5b7f000000000000000000000000000000000000000000000000000000000000000073ffffffffffffffffffffffffffffffffffffffff16610679610aff565b73ffffffffffffffffffffffffffffffffffffffff16146106cf576040517f08c379a00000000000000000000000000000000000000000000000000000000081526004016106c690611612565b60405180910390fd5b6106d882610b52565b6106e482826001610b55565b5050565b5f7f000000000000000000000000000000000000000000000000000000000000000073ffffffffffffffffffffffffffffffffffffffff163073ffffffffffffffffffffffffffffffffffffffff1614610777576040517f08c379a000000000000000000000000000000000000000000000000000000000815260040161076e906116a0565b60405180910390fd5b7f360894a13ba1a3210667c828492db98dca3e2076cc3735a920a3ca505d382bbc5f1b905090565b6107a7610cbf565b6107b05f610d3d565b565b5f90565b565b5f60335f9054906101000a900473ffffffffffffffffffffffffffffffffffffffff16905090565b3373ffffffffffffffffffffffffffffffffffffffff167f9e71bc8eea02a63969f509818f2dafb9254532904319f9dbda79b67bd34a5f3d826040516108269190611243565b60405180910390a250565b565b7fd20a04eb2807bde8cbdf16ef27a46d94a3162d81818f1781c0fe4ed9194ca391606954826040516108669291906116be565b60405180910390a150565b5f90565b5f73ffffffffffffffffffffffffffffffffffffffff168273ffffffffffffffffffffffffffffffffffffffff16036108da576040517fc468f5b700000000000000000000000000000000000000000000000000000000815260040160405180910390fd5b5f73ffffffffffffffffffffffffffffffffffffffff168473ffffffffffffffffffffffffffffffffffffffff160361093f576040517f0bd684dd00000000000000000000000000000000000000000000000000000000815260040160405180910390fd5b5f73ffffffffffffffffffffffffffffffffffffffff168373ffffffffffffffffffffffffffffffffffffffff16036109a4576040517f0bd684dd00000000000000000000000000000000000000000000000000000000815260040160405180910390fd5b5f81116109dd576040517fa7b70b2e00000000000000000000000000000000000000000000000000000000815260040160405180910390fd5b806069819055508360655f6101000a81548173ffffffffffffffffffffffffffffffffffffffff021916908373ffffffffffffffffffffffffffffffffffffffff1602179055508260665f6101000a81548173ffffffffffffffffffffffffffffffffffffffff021916908373ffffffffffffffffffffffffffffffffffffffff160217905550610a6c610e00565b610a7582610d3d565b50505050565b565b610a85610cbf565b5f73ffffffffffffffffffffffffffffffffffffffff168173ffffffffffffffffffffffffffffffffffffffff1603610af3576040517f08c379a0000000000000000000000000000000000000000000000000000000008152600401610aea90611755565b60405180910390fd5b610afc81610d3d565b50565b5f610b2b7f360894a13ba1a3210667c828492db98dca3e2076cc3735a920a3ca505d382bbc5f1b610e58565b5f015f9054906101000a900473ffffffffffffffffffffffffffffffffffffffff16905090565b50565b610b807f4910fdfa16fed3260ed0e7147f7cc6da11a60208b5b9406d12a635614ffd91435f1b610e61565b5f015f9054906101000a900460ff1615610ba257610b9d83610e6a565b610cba565b8273ffffffffffffffffffffffffffffffffffffffff166352d1902d6040518163ffffffff1660e01b8152600401602060405180830381865afa925050508015610c0a57506040513d601f19601f82011682018060405250810190610c07919061179d565b60015b610c49576040517f08c379a0000000000000000000000000000000000000000000000000000000008152600401610c4090611838565b60405180910390fd5b7f360894a13ba1a3210667c828492db98dca3e2076cc3735a920a3ca505d382bbc5f1b8114610cad576040517f08c379a0000000000000000000000000000000000000000000000000000000008152600401610ca4906118c6565b60405180910390fd5b50610cb9838383610f20565b5b505050565b610cc7610f4b565b73ffffffffffffffffffffffffffffffffffffffff16610ce56107b8565b73ffffffffffffffffffffffffffffffffffffffff1614610d3b576040517f08c379a0000000000000000000000000000000000000000000000000000000008152600401610d329061192e565b60405180910390fd5b565b5f60335f9054906101000a900473ffffffffffffffffffffffffffffffffffffffff1690508160335f6101000a81548173ffffffffffffffffffffffffffffffffffffffff021916908373ffffffffffffffffffffffffffffffffffffffff1602179055508173ffffffffffffffffffffffffffffffffffffffff168173ffffffffffffffffffffffffffffffffffffffff167f8be0079c531659141344cd1fd0a4f28419497f9722a3daafe3b4186f6b6457e060405160405180910390a35050565b5f60019054906101000a900460ff16610e4e576040517f08c379a0000000000000000000000000000000000000000000000000000000008152600401610e45906119bc565b60405180910390fd5b610e56610f52565b565b5f819050919050565b5f819050919050565b610e7381610fb2565b610eb2576040517f08c379a0000000000000000000000000000000000000000000000000000000008152600401610ea990611a4a565b60405180910390fd5b80610ede7f360894a13ba1a3210667c828492db98dca3e2076cc3735a920a3ca505d382bbc5f1b610e58565b5f015f6101000a81548173ffffffffffffffffffffffffffffffffffffffff021916908373ffffffffffffffffffffffffffffffffffffffff16021790555050565b610f2983610fd4565b5f82511180610f355750805b15610f4657610f448383611023565b505b505050565b5f33905090565b5f60019054906101000a900460ff16610fa0576040517f08c379a0000000000000000000000000000000000000000000000000000000008152600401610f97906119bc565b60405180910390fd5b610fb0610fab610f4b565b610d3d565b565b5f5f8273ffffffffffffffffffffffffffffffffffffffff163b119050919050565b610fdd81610e6a565b8073ffffffffffffffffffffffffffffffffffffffff167fbc7cd75a20ee27fd9adebab32041f755214dbc6bffa90cc0225b39da2e5c2d3b60405160405180910390a250565b60606110488383604051806060016040528060278152602001611b9b60279139611050565b905092915050565b60605f5f8573ffffffffffffffffffffffffffffffffffffffff16856040516110799190611aba565b5f60405180830381855af49150503d805f81146110b1576040519150601f19603f3d011682016040523d82523d5f602084013e6110b6565b606091505b50915091506110c7868383876110d2565b925050509392505050565b60608315611133575f83510361112b576110eb85610fb2565b61112a576040517f08c379a000000000000000000000000000000000000000000000000000000000815260040161112190611b1a565b60405180910390fd5b5b82905061113e565b61113d8383611146565b5b949350505050565b5f825111156111585781518083602001fd5b806040517f08c379a000000000000000000000000000000000000000000000000000000000815260040161118c9190611b7a565b60405180910390fd5b5f604051905090565b5f5ffd5b5f5ffd5b5f73ffffffffffffffffffffffffffffffffffffffff82169050919050565b5f6111cf826111a6565b9050919050565b6111df816111c5565b81146111e9575f5ffd5b50565b5f813590506111fa816111d6565b92915050565b5f602082840312156112155761121461119e565b5b5f611222848285016111ec565b91505092915050565b5f819050919050565b61123d8161122b565b82525050565b5f6020820190506112565f830184611234565b92915050565b6112658161122b565b811461126f575f5ffd5b50565b5f813590506112808161125c565b92915050565b5f6020828403121561129b5761129a61119e565b5b5f6112a884828501611272565b91505092915050565b5f5ffd5b5f5ffd5b5f601f19601f8301169050919050565b7f4e487b71000000000000000000000000000000000000000000000000000000005f52604160045260245ffd5b6112ff826112b9565b810181811067ffffffffffffffff8211171561131e5761131d6112c9565b5b80604052505050565b5f611330611195565b905061133c82826112f6565b919050565b5f67ffffffffffffffff82111561135b5761135a6112c9565b5b611364826112b9565b9050602081019050919050565b828183375f83830152505050565b5f61139161138c84611341565b611327565b9050828152602081018484840111156113ad576113ac6112b5565b5b6113b8848285611371565b509392505050565b5f82601f8301126113d4576113d36112b1565b5b81356113e484826020860161137f565b91505092915050565b5f5f604083850312156114035761140261119e565b5b5f611410858286016111ec565b925050602083013567ffffffffffffffff811115611431576114306111a2565b5b61143d858286016113c0565b9150509250929050565b5f819050919050565b61145981611447565b82525050565b5f6020820190506114725f830184611450565b92915050565b611481816111c5565b82525050565b5f60208201905061149a5f830184611478565b92915050565b5f5f5f5f608085870312156114b8576114b761119e565b5b5f6114c5878288016111ec565b94505060206114d6878288016111ec565b93505060406114e7878288016111ec565b92505060606114f887828801611272565b91505092959194509250565b5f82825260208201905092915050565b7f46756e6374696f6e206d7573742062652063616c6c6564207468726f756768205f8201527f64656c656761746563616c6c0000000000000000000000000000000000000000602082015250565b5f61156e602c83611504565b915061157982611514565b604082019050919050565b5f6020820190508181035f83015261159b81611562565b9050919050565b7f46756e6374696f6e206d7573742062652063616c6c6564207468726f756768205f8201527f6163746976652070726f78790000000000000000000000000000000000000000602082015250565b5f6115fc602c83611504565b9150611607826115a2565b604082019050919050565b5f6020820190508181035f830152611629816115f0565b9050919050565b7f555550535570677261646561626c653a206d757374206e6f742062652063616c5f8201527f6c6564207468726f7567682064656c656761746563616c6c0000000000000000602082015250565b5f61168a603883611504565b915061169582611630565b604082019050919050565b5f6020820190508181035f8301526116b78161167e565b9050919050565b5f6040820190506116d15f830185611234565b6116de6020830184611234565b9392505050565b7f4f776e61626c653a206e6577206f776e657220697320746865207a65726f20615f8201527f6464726573730000000000000000000000000000000000000000000000000000602082015250565b5f61173f602683611504565b915061174a826116e5565b604082019050919050565b5f6020820190508181035f83015261176c81611733565b9050919050565b61177c81611447565b8114611786575f5ffd5b50565b5f8151905061179781611773565b92915050565b5f602082840312156117b2576117b161119e565b5b5f6117bf84828501611789565b91505092915050565b7f45524331393637557067726164653a206e657720696d706c656d656e746174695f8201527f6f6e206973206e6f742055555053000000000000000000000000000000000000602082015250565b5f611822602e83611504565b915061182d826117c8565b604082019050919050565b5f6020820190508181035f83015261184f81611816565b9050919050565b7f45524331393637557067726164653a20756e737570706f727465642070726f785f8201527f6961626c65555549440000000000000000000000000000000000000000000000602082015250565b5f6118b0602983611504565b91506118bb82611856565b604082019050919050565b5f6020820190508181035f8301526118dd816118a4565b9050919050565b7f4f776e61626c653a2063616c6c6572206973206e6f7420746865206f776e65725f82015250565b5f611918602083611504565b9150611923826118e4565b602082019050919050565b5f6020820190508181035f8301526119458161190c565b9050919050565b7f496e697469616c697a61626c653a20636f6e7472616374206973206e6f7420695f8201527f6e697469616c697a696e67000000000000000000000000000000000000000000602082015250565b5f6119a6602b83611504565b91506119b18261194c565b604082019050919050565b5f6020820190508181035f8301526119d38161199a565b9050919050565b7f455243313936373a206e657720696d706c656d656e746174696f6e206973206e5f8201527f6f74206120636f6e747261637400000000000000000000000000000000000000602082015250565b5f611a34602d83611504565b9150611a3f826119da565b604082019050919050565b5f6020820190508181035f830152611a6181611a28565b9050919050565b5f81519050919050565b5f81905092915050565b8281835e5f83830152505050565b5f611a9482611a68565b611a9e8185611a72565b9350611aae818560208601611a7c565b80840191505092915050565b5f611ac58284611a8a565b915081905092915050565b7f416464726573733a2063616c6c20746f206e6f6e2d636f6e74726163740000005f82015250565b5f611b04601d83611504565b9150611b0f82611ad0565b602082019050919050565b5f6020820190508181035f830152611b3181611af8565b9050919050565b5f81519050919050565b5f611b4c82611b38565b611b568185611504565b9350611b66818560208601611a7c565b611b6f816112b9565b840191505092915050565b5f6020820190508181035f830152611b928184611b42565b90509291505056fe416464726573733a206c6f772d6c6576656c2064656c65676174652063616c6c206661696c6564a2646970667358221220d42b10661199bddc9f67fdd3139dd9107389ffb7dd1e1f1b198b34f55fc4c72f64736f6c634300081e0033","linkReferences":{}},"methodIdentifiers":{"claimReward()":"b88a802f","earned(address)":"008cc262","exit()":"e9fad8ee","getRewardForDuration()":"1c1f78eb","initialize(address,address,address,uint256)":"cf756fdf","lastTimeRewardApplicable()":"80faa57d","notifyRewardAmount(uint256)":"3c6b16ab","owner()":"8da5cb5b","pause()":"8456cb59","proxiableUUID()":"52d1902d","renounceOwnership()":"715018a6","rewardPerToken()":"cd3daf9d","setRewardsDuration(uint256)":"cc1a378f","stake(uint256)":"a694fc3a","transferOwnership(address)":"f2fde38b","unpause()":"3f4ba83a","upgradeTo(address)":"3659cfe6","upgradeToAndCall(address,bytes)":"4f1ef286","withdraw(uint256)":"2e1a7d4d"},"id":14}